:020000040800F2
:1000000000C00020F9020008FF02000803030008F6
:100010007503000879030008C10300080000000010
:1000200000000000000000000000000009040008BB
:100030000D04000800000000110400081504000869
:1000400025040008250400082504000825040008EC
:1000500025040008250400082504000825040008DC
:1000600025040008250400082504000825040008CC
:1000700025040008250400082504000825040008BC
:1000800025040008250400082504000825040008AC
:10009000250400082504000825040008250400089C
:1000A000250400082504000825040008250400088C
:1000B000112700082504000825040008250400086D
:1000C000250400082504000825040008250400086C
:1000D00025040008452C0008792C0008AD2C0008E8
:1000E000250400082504000825040008250400084C
:1000F000250400082504000825040008250400083C
:10010000250400082504000825040008250400082B
:10011000E12C000825040008250400082504000837
:10012000250400082504000825040008250400080B
:1001300000000000000000000000000000000000BF
:1001400000000000000000000000000000000000AF
:10015000000000000000000000000000000000009F
:10016000000000000000000000000000000000008F
:10017000000000000000000000000000000000007F
:10018000000000000000000000000000000000006F
:10019000000000000000000000000000000000005F
:1001A000000000000000000000000000000000004F
:1001B000000000000000000000000000000000003F
:1001C000000000000000000000000000000000002F
:1001D000000000000000000000000000000000001F
:1001E0005FF8E0F100B583B001F0F4FB304B314A29
:1001F0001360314A1360314B314A03E011681960D2
:10020000043304322F498B42F8D32A4B1A682E4B01
:100210009A4200D0FEE7284B1A682C4B9A42F9D13B
:10022000234B2B4A13602B4A13602B4B02E0002216
:100230001A600433294A9342F9D3254B1B6813B93A
:10024000244B1B6803B1FEE701F0D0FB694601A80F
:1002500001F052FB224B234CE41AA4100025AC42BF
:1002600014DC214B214CE41AA4100025AC4213DC11
:100270000099019805F0B6FF05461D4B1D4CE41A88
:10028000A410002C0EDC284601F008FB144B53F898
:10029000253098470135E2E7134B53F8253098474E
:1002A0000135E3E7013C124B53F824309847E8E767
:1002B000BABADECA000000200401002000000020BD
:1002C0004C8C00080801002078563412325476987D
:1002D00008010020C007002008010020C4070020FA
:1002E000500400085004000850040008500400089E
:1002F000500400085004000808B5FFF773FF00BE63
:10030000FEE71EF0040F0CBFEFF30880EFF3098047
:100310007146414A10472DE9F04182B004468846B3
:10032000124B5E6B9F6B9D6A1B6B13F0020F03D029
:100330000E4BDB6A002B0CDB0D4801F0EFFACDF819
:1003400000803B4632462946204601F053FB00BE62
:10035000FEE74BF6AB6101F0C7FB0028ECD04FF095
:100360000042024BDA6202B0BDE8F08100ED00E02D
:100370001C79000800BEFEE71EF0040F0CBFEFF36F
:100380000880EFF309807146244A10472DE9F041B7
:1003900082B004468846084B5E6B9F6B9D6A074897
:1003A00001F0BCFACDF800803B4632462946204693
:1003B00001F020FB00BEFEE700ED00E02C79000814
:1003C0001EF0040F0CBFEFF30880EFF309807146B5
:1003D000134A10472DE9F04182B004468846084B85
:1003E0005E6B9F6B9D6A074801F098FACDF800801C
:1003F0003B4632462946204601F0FCFA00BEFEE7A5
:1004000000ED00E03879000800BEFEE700BEFEE720
:1004100000BEFEE770470000170300088D030008C8
:08042000D503000800BEFEE751
:100428004C8C000800000020080100204C8C0008BB
:10043800000000000000000008010020C4070020A0
:080448000000000000000000AC
:1004500010B50446B0F5E06F0FD0B0F5C06F0CD00A
:10046000B0F5A06F09D0B0F5806F06D0B0F5407F31
:1004700003D06321044801F047FA44F0BF6444F418
:100480000034024BDC6010BD9C76000800ED00E0FB
:1004900010B50446C378012B03D97521204801F01B
:1004A00033FA63780F2B10D8A3780F2B12D8E37888
:1004B000ABB923785A0903F01F03012101FA03F3B2
:1004C0002032184941F8223010BD7621144801F03D
:1004D0001BFAE9E77721124801F016FAE7E7124B19
:1004E000DA68D243C2F30222C2F104000F2121FADA
:1004F00002F263788340A1780A4013431B012278FB
:10050000DBB208490A4482F800332378580903F023
:100510001F03012202FA03F341F8203010BD00BF8F
:100520009C76000800E100E000ED00E0034B044A87
:100530005A6002F188325A60704700BF00200240C2
:1005400023016745024A136943F080031361704732
:10055000002002400B4BDB6813F0010F0DD1094B5B
:10056000DB6813F0040F01D002207047054BDB68F5
:1005700013F0100F03D003207047012070470420B0
:10058000704700BF0020024010B50446FFF7E2FFAD
:1005900002E0FFF7DFFF013C012801D1002CF8D178
:1005A00004B9052010BD000038B5044600F17842BA
:1005B000124B9A4206D84FF43020FFF7E5FF04288B
:1005C00006D038BD40F2A7110D4801F09DF9F2E7C1
:1005D0000C4D2B6943F002032B616C612B6943F0D6
:1005E00040032B614FF43020FFF7CEFF2B6923F03F
:1005F0000203DB04DB0C2B61E3E700BFFEFF0F000F
:10060000C47600080020024070B504460D4600F193
:100610007842104B9A4206D84FF40050FFF7B4FFCF
:10062000042806D070BD4FF45D710B4801F06CF9E1
:10063000F2E70A4E336943F00103336125804FF43A
:100640000050FFF7A1FF336923F00103DB04DB0C4B
:100650003361E7E7FEFF0F00C47600080020024088
:10066000F8B505460C46484B98421BD003F580630D
:10067000984217D003F58063984213D003F5806346
:1006800098420FD003F5806398420BD003F5806346
:10069000984207D003F58063984203D0B2213B48CB
:1006A00001F032F9E3788BB1042B0FD0282B0DD059
:1006B000482B0BD0142B09D0102B07D01C2B05D0A6
:1006C000182B03D0B321314801F01EF9238893B1D0
:1006D000E37803F00F06304613F0100F06D0A3782E
:1006E000013BDBB2022B0BD8A0783043237833B325
:1006F0002E6800230BE0B421244801F005F9E7E758
:10070000BB21224801F000F9EEE76A610133072BB3
:1007100014D801229A40218832EA0101F6D19900C9
:100720000F278F4026EA070600FA01F10E43E17811
:100730002829EAD04829E9D12A61E7E72E602388F1
:10074000FF2B20D96E68002302E06A6115E00133B7
:10075000072B17D803F1080101228A40218832EAC9
:100760000101F4D199000F278F4026EA070600FA0D
:1007700001F10E43E1782829E7D0E1784829E6D154
:100780002A61E4E76E60F8BD00080140F8760008D1
:1007900038B504460D462A4B98421CD003F58063B9
:1007A000984218D003F58063984214D003F5806313
:1007B000984210D003F5806398420CD003F5806313
:1007C000984208D003F58063984204D04FF48F71AB
:1007D0001C4801F099F86B1E9BB2012B28D9042DFF
:1007E00026D0082D24D0102D22D0202D20D0402D11
:1007F0001ED0802D1CD0B5F5807F19D0B5F5007FB7
:1008000016D0B5F5806F13D0B5F5006F10D0B5F5E3
:10081000805F0DD0B5F5005F0AD0B5F5804F07D0E9
:10082000B5F5004F04D040F21F11064801F06CF8F6
:10083000A3681D4201D1002038BD012038BD00BF92
:1008400000080140F876000838B504460D46144B00
:1008500098421CD003F58063984218D003F580635A
:10086000984214D003F58063984210D003F580635A
:1008700098420CD003F58063984208D003F580635A
:10088000984204D04FF4B571064801F03DF80DB11F
:10089000256138BD40F26B11024801F035F8F7E7E9
:1008A00000080140F876000838B504460D46144BA0
:1008B00098421CD003F58063984218D003F58063FA
:1008C000984214D003F58063984210D003F58063FA
:1008D00098420CD003F58063984208D003F58063FA
:1008E000984204D04FF4BD71064801F00DF80DB1E7
:1008F000656138BD40F27B11024801F005F8F7E769
:1009000000080140F87600080D4B1A6842F0010219
:100910001A6059680B4A0A405A601A6822F08472B9
:1009200022F480321A601A6822F480221A605A680F
:1009300022F4FE025A604FF41F029A60704700BF13
:10094000001002400000FFF810B5044650B1B0F5A9
:10095000803F07D0B0F5802F04D040F211110F482E
:1009600000F0D2FF0E4B1A6822F480321A601A6827
:1009700022F480221A60B4F5803F03D0B4F5802FB2
:1009800006D010BD064A136843F48033136010BDCF
:10099000034A136843F4A023136010BD2C770008AA
:1009A0000010024038B50C46054650B1B0F5803F06
:1009B00007D0B0F5403F04D040F27F111D4800F051
:1009C000A3FF74B3B4F5802F2BD0B4F5002F28D03B
:1009D000B4F5402F25D0B4F5801F22D0B4F5A01F68
:1009E0001FD0B4F5C01F1CD0B4F5E01F19D0B4F56A
:1009F000001F16D0B4F5101F13D0B4F5201F10D06F
:100A0000B4F5301F0DD0B4F5401F0AD0B4F5501F17
:100A100007D0B4F5601F04D04FF4C071054800F052
:100A200073FF054B596821F47C112C432143596015
:100A300038BD00BF2C7700080010024010B50446F6
:100A4000012804D94FF4CA71024800F05DFF024B3F
:100A50001C6010BD2C7700086000424210B50446AF
:100A6000022806D8064A536823F003031C43546047
:100A700010BD4FF40E71034800F046FFF2E700BFCF
:100A8000001002402C770008024B586800F00C0060
:100A9000704700BF0010024010B50446A0B1802886
:100AA00012D0902810D0A0280ED0B0280CD0C0288A
:100AB0000AD0D02808D0E02806D0F02804D04FF47F
:100AC0001971054800F020FF044A536823F0F00331
:100AD0001C43546010BD00BF2C770008001002407A
:100AE00010B5044680B1B0F5806F0DD0B0F5A06FA1
:100AF0000AD0B0F5C06F07D0B0F5E06F04D040F277
:100B00007E21054800F000FF044A536823F4E063A7
:100B10001C43546010BD00BF2C7700080010024039
:100B200010B5044680B1B0F5806F0DD0B0F5A06F60
:100B30000AD0B0F5C06F07D0B0F5E06F04D04FF425
:100B40002671054800F0E0FE044B586820F4605020
:100B500040EAC400586010BD2C7700080010024025
:100B600010B4294B5B6803F00C03042B2BD0082B2B
:100B70002CD013B1254B036001E0244B03602249C4
:100B80004B68C3F30313224CE35CDAB20368D3402F
:100B900043604A68C2F30222A25CD2B223FA02F294
:100BA00082604A68C2F3C222A25CD2B2D340C36060
:100BB0004A68C2F3813217498A5CD2B2B3FBF2F3BE
:100BC000036110BC7047114B0360D8E70E4A5368AD
:100BD0005268C3F38343023312F4803F09D00A4AB8
:100BE000526812F4003F09D00B4A02FB03F3036082
:100BF000C5E7094A02FB03F30360C0E7034A02FBAF
:100C000003F30360BBE700BF0010024000127A004C
:100C1000080000200400002000093D0038B504460B
:100C20000D460E4B034003B920B940F24A410C482F
:100C300000F06AFE012D04D940F24B41084800F053
:100C400063FE2DB9074A936923EA0404946138BD11
:100C5000044B9A6914439C6138BD00BF0200C0FF79
:100C60002C7700080010024038B504460D460E4BA4
:100C7000184200D120B940F269410C4800F044FE0E
:100C8000012D04D940F26A41084800F03DFE2DB91B
:100C9000074AD36923EA0404D46138BD044BDA69F6
:100CA0001443DC6138BD00BF003601812C77000899
:100CB0000010024010B50446212818D0312816D063
:100CC000392814D0412812D0612810D07A280ED0AB
:100CD0007B280CD07C280AD07D2808D07E2806D01E
:100CE0007F2804D040F234510D4800F00DFE630916
:100CF000012B0CD0022B0DD00A4B5B6A04F01F04B1
:100D000023FA04F414F0010F07D1002010BD054BA5
:100D10001B68F3E7034B1B6AF0E7012010BD00BF1F
:100D20002C7700080010024000B583B00023019327
:100D30003120FFF7BFFF019B01330193019BB3F506
:100D4000A06F01D00028F3D03120FFF7B3FF18B90E
:100D5000002003B05DF804FB0120FAE738B5044633
:100D60000D46524B984242D0B0F1804F3FD0A3F590
:100D7000943398423BD003F58063984237D003F513
:100D80008063984233D003F5806398422FD003F5F7
:100D9000806398422BD003F59033984227D003F517
:100DA000C053984223D003F5806398421FD003F5C7
:100DB000806398421BD0A3F59E33984217D003F569
:100DC0008063984213D003F5806398420FD003F5F7
:100DD000903398420BD003F58063984207D003F517
:100DE0008063984203D0E721314800F08DFD6B8885
:100DF0005BB1102B09D0202B07D0402B05D0602BE6
:100E000003D0E8212A4800F07FFDEB884BB1B3F511
:100E1000807F06D0B3F5007F03D0E921244800F09D
:100E200073FD23889BB2214A944212D002F50062DE
:100E300094420ED0B4F1804F0BD0A2F59832944278
:100E400007D002F58062944203D002F5806294429A
:100E500003D123F070036A881343164A944208D0E2
:100E600002F58062944204D023F440739BB2EA8876
:100E700013432380AB88A3852B8823850B4B9C428F
:100E80000FD003F500639C420BD003F540639C42F6
:100E900007D003F580639C4203D003F580639C4236
:100EA00001D12B7A23860123A38238BD002C014077
:100EB0005C7700080010004038B504460D462E4B04
:100EC000984243D0B0F1804F40D0A3F5943398427C
:100ED0003CD003F58063984238D003F58063984294
:100EE00034D003F58063984230D003F58063984294
:100EF0002CD003F59033984228D003F5C053984284
:100F000024D003F58063984220D003F58063984293
:100F10001CD0A3F59E33984218D003F58063984205
:100F200014D003F58063984210D003F590339842B3
:100F30000CD003F58063984208D003F58063984293
:100F400004D040F229310D4800F0DEFC012D04D917
:100F500040F22A31094800F0D7FC35B923889BB20A
:100F600023F001039BB2238038BD23889BB243F05A
:100F70000103238038BD00BF002C01405C770008CE
:100F800070B504460D461646314B984243D0B0F139
:100F9000804F40D0A3F5943398423CD003F5806352
:100FA000984238D003F58063984234D003F58063CB
:100FB000984230D003F5806398422CD003F59033EB
:100FC000984228D003F5C053984224D003F580639B
:100FD000984220D003F5806398421CD0A3F59E333D
:100FE000984218D003F58063984214D003F58063CB
:100FF000984210D003F5903398420CD003F58063EB
:10100000984208D003F58063984204D040F26B31D7
:10101000104800F079FC15F47F4F00D125B94FF44A
:101020005B710C4800F070FC012E04D940F26D3168
:10103000084800F069FC2EB9A389ED43ADB21D400C
:10104000A58170BDA3899BB21D43A58170BD00BF62
:10105000002C01405C77000838B504460D462A4B49
:10106000984243D0B0F1804F40D0A3F594339842DA
:101070003CD003F58063984238D003F580639842F2
:1010800034D003F58063984230D003F580639842F2
:101090002CD003F59033984228D003F5C0539842E2
:1010A00024D003F58063984220D003F580639842F2
:1010B0001CD0A3F59E33984218D003F58063984264
:1010C00014D003F58063984210D003F59033984212
:1010D0000CD003F58063984208D003F580639842F2
:1010E00004D040F63621094800F00EFC15F4614F9B
:1010F00000D125B940F63721044800F005FCED4346
:10110000ADB2258238BD00BF002C01405C770008DD
:1011100038B504460D46344B984243D0B0F1804F69
:1011200040D0A3F5943398423CD003F580639842B5
:1011300038D003F58063984234D003F58063984239
:1011400030D003F5806398422CD003F59033984259
:1011500028D003F5C053984224D003F58063984209
:1011600020D003F5806398421CD0A3F59E339842AB
:1011700018D003F58063984214D003F58063984239
:1011800010D003F5903398420CD003F58063984259
:1011900008D003F58063984204D040F658211348E4
:1011A00000F0B2FB6B1E9BB2012B10D9042D0ED0A8
:1011B000082D0CD0102D0AD0202D08D0402D06D09F
:1011C000802D04D040F65921084800F09DFB228A6A
:1011D000A3892B40154202D01BB9002038BD002046
:1011E00038BD012038BD00BF002C01405C770008ED
:1011F00038B504460D462A4B984243D0B0F1804F93
:1012000040D0A3F5943398423CD003F580639842D4
:1012100038D003F58063984234D003F58063984258
:1012200030D003F5806398422CD003F59033984278
:1012300028D003F5C053984224D003F58063984228
:1012400020D003F5806398421CD0A3F59E339842CA
:1012500018D003F58063984214D003F58063984258
:1012600010D003F5903398420CD003F58063984278
:1012700008D003F58063984204D040F682210948E3
:1012800000F042FB15F47F4F00D125B940F68321D1
:10129000044800F039FBED43ADB2258238BD00BFF4
:1012A000002C01405C77000830B587B004460D463D
:1012B000654B984213D0A3F5744398420FD003F5C1
:1012C000806398420BD003F58063984207D003F502
:1012D0008063984203D0B8215C4800F015FB2B686E
:1012E000013B5B4A934200F29480AB8833B1B3F583
:1012F000805F03D0BA21554800F006FBEB8863B14C
:10130000B3F5805F09D0B3F5005F06D0B3F5405F59
:1013100003D0BB214D4800F0F7FA2B894BB1B3F550
:10132000806F06D0B3F5C06F03D0BC21474800F0F2
:10133000EBFA6A8922F00C039BB203B91AB9BD21FA
:10134000424800F0E1FAAB8963B1B3F5807F09D080
:10135000B3F5007F06D0B3F5407F03D0BE213B48F4
:1013600000F0D2FAAB8973B1374B9C420BD0A3F596
:1013700074439C4207D003F580639C4203D0C22192
:10138000324800F0C1FA238A9BB2EA8823F4405322
:1013900013432382A3899BB2A98828896A890143C0
:1013A0000A4323F4B05323F00C031343A381A38A0D
:1013B0009BB2AA8923F440731343A38201A8FFF7C9
:1013C000CFFB214B9C4229D0039BA28912F4004FF2
:1013D00026D103EB830303EB830329688900B3FB66
:1013E000F1F11C4BA3FB012358090501642300FB09
:1013F0001313A28912F4004F1BD11B013233154A7B
:10140000A2FB0323C3F343132B439BB2238107B0F7
:1014100030BDB9210D4800F077FA66E7049BD4E7A8
:1014200003EB830303EB830329684900B3FBF1F16A
:10143000D7E7D9003231074AA2FB0131C1F342128A
:1014400045EA0203E1E700BF003801408C7700085D
:101450001FAA44001F85EB5138B504460D46164BB4
:10146000984214D0A3F57443984210D003F58063DA
:1014700098420CD003F58063984208D003F580634E
:10148000984204D04FF4B1710C4800F03DFA012DA0
:1014900004D940F26311094800F036FA35B9A3893E
:1014A0009BB223F400539BB2A38138BDA3899BB2A6
:1014B00043F40053A38138BD003801408C77000805
:1014C00070B504460D461646374B984214D0A3F526
:1014D0007443984210D003F5806398420CD003F512
:1014E0008063984208D003F58063984204D040F2AC
:1014F00089112E4800F008FA282D1ED040F22773DB
:101500009D421AD040F226639D4216D040F22553E8
:101510009D4212D040F224439D420ED040F6460335
:101520009D420AD040F66A139D4206D0602D04D039
:101530004FF4C5711D4800F0E7F9012E04D940F2BF
:101540008B111A4800F0E0F940F66A139D4211D061
:10155000C5F3421205F01F05012303FA05F59A426F
:1015600019D0022A19D01434CEB9236823EA05050C
:10157000256070BD0C4B9C42EAD0A3F574439C429D
:10158000E6D003F580639C42E2D040F28F11074819
:1015900000F0BAF9DCE70C34E6E71034E4E723683E
:1015A0001D43256070BD00BF003801408C770008E6
:1015B00038B504460D46124B984214D0A3F5744337
:1015C000984210D003F5806398420CD003F58063F5
:1015D000984208D003F58063984204D040F25F211E
:1015E000084800F091F9B5F5007F03D2C5F308056E
:1015F000A58038BD4FF41871024800F085F9F5E771
:10160000003801408C77000810B504460D4B984215
:1016100014D0A3F57443984210D003F58063984228
:101620000CD003F58063984208D003F5806398429C
:1016300004D04FF41C71044800F066F9A088C0F390
:10164000080010BD003801408C77000838B5054609
:101650000C46274B984214D0A3F57443984210D0FF
:1016600003F5806398420CD003F58063984208D05C
:1016700003F58063984204D040F286311D4800F0A3
:1016800043F9012C18D0802C16D0402C14D0202CDB
:1016900012D0102C10D0B4F5807F0DD0B4F5007F9F
:1016A0000AD0082C08D0042C06D0022C04D040F21A
:1016B0008731104800F028F9B4F5007F04D02B885A
:1016C0001C4212D1002038BD094B9D42F7D0A3F532
:1016D00074439D42F3D003F580639D42EFD040F206
:1016E0008B31044800F010F9E9E7012038BD00BF54
:1016F000003801408C77000838B505460C463C4B55
:10170000984214D0A3F57443984210D003F5806337
:1017100098420CD003F58063984208D003F58063AB
:10172000984204D040F2D931324800F0EDF8282C2C
:1017300025D040F227739C4221D040F226639C4280
:101740001DD040F225539C4219D040F224439C42C4
:1017500015D040F646039C4211D040F66A139C42D5
:101760000DD0B4F5587F0AD0B4F5187F07D0B4F582
:10177000B07F04D040F2DA311E4800F0C5F840F6E0
:101780006A139C4217D0C4F3421204F01F010123D4
:101790008B40012A20D0022A22D0AA8A92B213407A
:1017A000240A012202FA04F42A8892B21440DBB11E
:1017B000E4B9002038BD0E4B9D42E4D0A3F574433C
:1017C0009D42E0D003F580639D42DCD040F2DE31E3
:1017D000084800F099F8D6E7AA8992B21340DFE7EB
:1017E0002A8A92B21340DBE7002038BD012038BDC1
:1017F000003801408C77000838B505460C46254B6B
:10180000984214D0A3F57443984210D003F5806336
:1018100098420CD003F58063984208D003F58063AA
:10182000984204D040F222411B4800F06DF840F28B
:1018300026639C4210D040F225539C420CD040F6C7
:1018400046039C4208D040F66A139C4204D040F202
:101850002341114800F058F840F66A139C4207D023
:10186000240A0123A3409BB2DB439BB22B8038BDEB
:10187000084B9D42F4D0A3F574439D42F0D003F58C
:1018800080639D42ECD040F22741034800F03CF8D1
:10189000E6E700BF003801408C770008FEE7000053
:1018A00008B5034800F052F80120FFF7F7FF00BF2A
:1018B000C077000808B503460C4A12685AB10B4AB3
:1018C0001068033323F003030344094A934206D804
:1018D000064A136008BD0749044A1160EFE705F0A6
:1018E00073FA0C2303604FF0FF3008BD0C01002099
:1018F00000BC0020C407002001230360014B0B60E3
:10190000704700BF1800002008B50A46014602488B
:1019100000F004F8FFF7C4FFD47700080FB400B557
:1019200083B004AB53F8042B01938021064805F0E3
:101930009FFA002803DD0146034800F047F803B092
:101940005DF804EB04B070471401002010B50446A4
:1019500005F048FA0146204600F038F80121024817
:1019600000F034F810BD00BFF88900082DE9F043FD
:1019700085B004460F4643560BB10E461EE00425C3
:1019800028462146ABBE0446384605B0BDE8F08384
:1019900014F9011B04AA1A4402F8101C0133AB42CB
:1019A000F6D304AA1344002203F8102CE9464FF0A2
:1019B000040840464946ABBE8046761B002EE3D065
:1019C0003546102E28BF10250023E8E708B5FFF79D
:1019D000CDFF08BD08B500F0FDF8024B024A9A6041
:1019E00008BD00BF00ED00E00000000808B500F0F1
:1019F00019F908BDF8B504460D4617461E46274896
:101A0000FFF78CFF21682648FFF788FF61682548AB
:101A1000FFF784FFA1682448FFF780FFE1682348AF
:101A2000FFF77CFF21692248FFF778FF61692148B1
:101A3000FFF774FFA1692048FFF770FFE1691F48B5
:101A4000FFF76CFF1E48FFF769FF29461D48FFF7A7
:101A500065FF1D4CE16A1D48FFF760FF216B1C48C4
:101A6000FFF75CFFE16B1B48FFF758FF15F0800F95
:101A70000AD115F4004F0CD11748FFF74FFF069914
:101A80001648FFF74BFFF8BD39461548FFF746FFEC
:101A9000EFE731461348FFF741FFEDE70078000814
:101AA0001078000820780008307800084078000896
:101AB0005078000860780008707800088078000886
:101AC000907800089C78000800ED00E0AC780008F1
:101AD000BC780008CC780008FC780008047900087D
:101AE000DC780008EC78000883691A888A4201D003
:101AF000002070470268033A012A03D80233836149
:101B0000012070470020704782B0002301930093AA
:101B10002C4A136843F4803313602A4B1B6803F488
:101B200000330093019B01330193009B1BB9019B80
:101B3000B3F5A06FF1D1234B1B6813F4003F06D01F
:101B400001230093009B012B04D002B070470023B7
:101B50000093F7E71C4B1A6842F010021A601A68EB
:101B600022F003021A601A6842F002021A60A3F51A
:101B700080535A685A605A685A605A6842F48062C0
:101B80005A605A6822F47C125A605A6842F4E81289
:101B90005A601A6842F080721A600A4B1B6813F090
:101BA000007FFAD0074B5A6822F003025A605A6845
:101BB00042F002025A60034B5B6803F00C03082BEF
:101BC000F9D1C2E7001002400020024008B5FFF73B
:101BD0009BFF08BD08B5104B1A6842F001021A605D
:101BE00059680E4A0A405A601A6822F0847222F438
:101BF00080321A601A6822F480221A605A6822F42D
:101C0000FE025A604FF41F029A60FFF7DFFF4FF0A9
:101C10000062034B9A6008BD001002400000FFF80C
:101C200000ED00E01F4B5B6803F00C03042B15D0A4
:101C3000082B17D01BB11C4A1C4B1A6002E01A4A31
:101C40001A4B1A60174B5B68C3F30313184AD35C33
:101C5000DAB216490B68D3400B607047124A134B37
:101C60001A60EFE70F4A53685268C3F383430233A5
:101C700012F4803F0AD00B4A526812F4003F0BD096
:101C80000C4A02FB03F3094A1360DBE7094A02FB33
:101C900003F3064A1360D5E7034A02FB03F3034A42
:101CA0001360CFE70010024000127A0030000020DD
:101CB0002000002000093D000146002302E0002230
:101CC000CA5401335F2BFAD960230B6600204866A3
:101CD0008866C866086770470131814201D00846AE
:101CE00070470021FBE738B50446456E006E85421B
:101CF00009DA0B46A16E6354FFF7EEFFA0660135CB
:101D00006566002038BD4FF0FF3038BDF8B5456E30
:101D1000002D0EDD0F460446C66E3146006EFFF7FD
:101D2000DBFFE066013D6566F6B2A35D3B70002017
:101D3000F8BD6FF00100F8BD2DE9F04D82B083468B
:101D40008846924600260027CDE90067002514E06A
:101D5000EC000BEB0403D3E90023DDE9000104F000
:101D6000C7FBCDE900014444D4E90023304639469D
:101D700004F0BEFB06460F4601355545E8D35046F4
:101D800004F0F2FC04460D4602460B46DDE9000174
:101D900004F08AFE074BC3E9000122462B46304679
:101DA000394604F081FE044BC3E9000102B0BDE8EE
:101DB000F08D00BF98010020A00100202DE9F04720
:101DC000814688461746002546E0EC0009EB0406EC
:101DD0004444D4E90023D6E9000104F03BFDDFF8D8
:101DE000A4A002460B46DAE9000104F081FBCAE92F
:101DF0000001DFF888A0D6E90023DAE9000104F049
:101E000077FBCAE90001DFF880A0D4E90023DAE912
:101E1000000104F06DFBCAE90001D6E900010246A9
:101E20000B4604F017FD134E02460B46D6E900019F
:101E300004F05EFBC6E90001D4E9000102460B464E
:101E400004F008FD0C4C02460B46D4E9000104F0F6
:101E50004FFBC4E900010135BD42B6D3074BD3E9BE
:101E6000000102460B4604F0F5FC054BC3E90001F6
:101E7000BDE8F087B0010020D0010020A8010020BB
:101E8000B8010020C0010020C80100202DE9F04F5A
:101E900083B007468A4616461D46FFF78FFF304639
:101EA00004F062FCCDE900012E4CD4E9002304F0DB
:101EB000D1FC804689462C4BD3E900232B49D1E93C
:101EC000000104F0C7FC02460B464046494604F0B8
:101ED0000DFB80468946DFF8A8B0DBE90023DDE989
:101EE000000104F0B7FC224BD3E9002304F0FEFA12
:101EF00002460B464046494604F0D6FDC5E90001BE
:101F0000324651463846FFF717FF1A4BD3E90023F4
:101F1000D5E9000104F09EFC02460B461649D1E9C2
:101F2000000104F0E3FA0C9BC3E90001D4E90001CD
:101F300002460B4604F08EFC04460D460F4BD3E9D7
:101F40000023DBE9000104F085FC02460B46204635
:101F5000294604F0A9FD0D9BC3E9000103B0BDE8CB
:101F6000F08F00BFC0010020C8010020A8010020A0
:101F7000B801002098010020A0010020D00100201D
:101F8000B001002038B5D0E900450022154B2046AD
:101F9000294604F0D1FE08BB0022124B20462946F8
:101FA00004F0E8FE40B100220F4B2046294604F021
:101FB000C3FE08B1022038BD00220B4B2046294643
:101FC00004F0D8FE08B9042038BD0022074B204693
:101FD000294604F0B1FE18B9042038BD012038BDEF
:101FE000032038BD000024400000594000408F40CD
:101FF0002DE9F04F89B00446B14B1A680092D3F82E
:102000000490B04B19680291D3F80480AE4B196864
:1020100003915F68AD4B196804915E68AC4B196819
:1020200005915D68AB4B19680691D3F804A0AA4BE3
:10203000196807915B6801935923038000220023EC
:102040000098494604F078FE002840F00E810023F5
:102050006380DDF800B05846494604F095FE04F070
:1020600083FB02460B46CDF800B05846494604F0C3
:102070003DFA91A3D3E9002304F0ECFB04F084FEC5
:102080001FFA80FB0098494604F07EFEA080A4F869
:1020900006B0002200230298414604F04DFE0028BD
:1020A00040F0E88000232381DDF808B0584641461F
:1020B00004F06AFE04F058FB02460B4658464146BF
:1020C00004F014FA7CA3D3E9002304F0C3FB04F06A
:1020D0005BFE1FFA80F95846414604F055FE6081C8
:1020E000A4F80C90002200230398394604F024FE43
:1020F000002840F0C4800023E381DDF80C904846BE
:10210000394604F041FE04F02FFB02460B464846D8
:10211000394604F0EBF968A3D3E9002304F09AFBF5
:1021200004F032FE1FFA80F84846394604F02CFECF
:102130002082A4F81280002200230498314604F083
:10214000FBFD002840F0A0800023A382DDF8108072
:102150004046314604F018FE04F006FB02460B46EA
:102160004046314604F0C2F953A3D3E9002304F0FA
:1021700071FB04F009FE87B24046314604F004FECC
:10218000E0822783002200230598294604F0D4FD2D
:1021900000287ED100236383059F3846294604F03A
:1021A000F3FD04F0E1FA02460B463846294604F0F6
:1021B0009DF941A3D3E9002304F04CFB04F0E4FDB6
:1021C00086B23846294604F0DFFDA083E68300226C
:1021D00000230698514604F0AFFD00285ED100238D
:1021E0002384069E3046514604F0CEFD04F0BCFA2E
:1021F00002460B463046514604F078F92EA3D3E947
:10220000002304F027FB04F0BFFD85B230465146A1
:1022100004F0BAFD6084A584002200230798019988
:1022200004F08AFD00283ED10023E384079F38464E
:10223000019E314604F0A8FD04F096FA02460B46D2
:102240003846314604F052F91BA3D3E9002304F0C9
:1022500001FB04F099FD85B23846314604F094FD47
:102260002085658509B0BDE8F08F09F1004901239B
:102270006380EEE608F100480123238114E707F1AB
:1022800000470123E38138E706F100460123A382DA
:102290005CE705F10045012363837DE70AF1004A0D
:1022A000012323849DE7019B03F100430193012354
:1022B000E384BBE7AFF30080000000000088C34068
:1022C00020060020300600204006002018060020CE
:1022D00028060020380600204806002000000000E4
:1022E000D0B50446408804F03FFA06460F46A08861
:1022F00004F03AFA7CA3D3E9002304F0D5FB0246AC
:102300000B462188002940F0A3803046394604F06E
:10231000EFF8774BC3E90001208904F025FA06465F
:102320000F46608904F020FA6FA3D3E9002304F07C
:10233000BBFB02460B46E188002940F09480304602
:10234000394604F0D5F86B4BC3E90001E08904F08D
:102350000BFA06460F46208A04F006FA62A3D3E978
:10236000002304F0A1FB02460B46A189002940F09E
:1023700085803046394604F0BBF85F4BC3E9000165
:10238000A08A04F0F1F906460F46E08A04F0ECF961
:1023900055A3D3E9002304F087FB02460B46618A6C
:1023A000002976D13046394604F0A2F8534BC3E9F0
:1023B0000001608B04F0D8F906460F46A08B04F0AC
:1023C000D3F949A3D3E9002304F06EFB02460B4680
:1023D000218B002968D13046394604F089F8484BF2
:1023E000C3E90001208C04F0BFF906460F46608C5B
:1023F00004F0BAF93CA3D3E9002304F055FB0246EC
:102400000B46E18B00295AD13046394604F070F86A
:102410003C4BC3E90001E08C04F0A6F906460F46E8
:10242000208D04F0A1F930A3D3E9002304F03CFB94
:1024300002460B46A18C00294CD03046394604F0A8
:1024400057F8024601F100432F49C1E90023D0BDEE
:102450003046394604F04CF8024601F10043244965
:10246000C1E9002358E73046394604F041F80246F6
:1024700001F100431F49C1E9002367E730463946AF
:1024800004F036F8024601F100431B49C1E900237C
:1024900076E73046394604F02BF8024601F1004356
:1024A0001649C1E9002384E73046394604F020F894
:1024B000024601F100431249C1E9002392E7304688
:1024C000394604F015F8024601F100430D49C1E90F
:1024D0000023A0E73046394604F00AF80A4BC3E966
:1024E0000001D0BDAFF30080000000000088C340B1
:1024F000200600203006002040060020180600209C
:1025000028060020380600204806002010B58CB0B0
:102510002C22002101A804F05DFC01A8FFF768FD52
:10252000162201A9064800F03FF8044610B92046DB
:102530000CB010BD59221021024800F0E7FAF6E76E
:10254000004006084879000800B58DB02C22002113
:1025500001A804F03FFC162201A9084800F013F876
:10256000BDF80430592B03D000200DB05DF804FBFA
:102570000DF10600FFF7B4FE0120F6E70040060863
:10258000008880B27047F8B507460E46154600240D
:1025900007E007EB4400FFF7F3FF26F814000134CF
:1025A000A4B2AC42F5D3F8BDB0F1006F25D3F8B5B5
:1025B00000F17843DB0A03F58033DC0200EB4205CF
:1025C0000F4B9D4201D90020F8BD16460F46054627
:1025D000FDF7ACFF2046FDF7E7FF002407E037F8E2
:1025E000141005EB4400FEF70FF80134A4B2A64224
:1025F000F5D8FDF7A7FF0120F8BD0020704700BF08
:10260000FFFF070810B584B001210846FEF72CFB38
:102610004FF4FA63ADF808304723ADF804300024D6
:10262000ADF80A40ADF8064001A94FF08040FEF732
:1026300095FB01214FF08040FEF70EFD012211466F
:102640004FF08040FEF79CFC01214FF08040FEF7E8
:1026500033FC21460120FEF707FB04B010BD00B596
:1026600083B04FF4E060FDF7F3FE1C238DF80430D7
:1026700001238DF805308DF806308DF8073001A85C
:10268000FDF706FF03B05DF804FB08B5FFF7BAFFDE
:10269000FFF7E5FF01210846FEF7E6FA08BD000056
:1026A00008B502211648FEF773F8B8B9154A136841
:1026B00001331360134B1B68142B04D90023114AF8
:1026C0001360114A1370114B1B68142B05D900229B
:1026D0000E4B1A6001220C4B1A7008BD08210848E5
:1026E000FEF756F80028E1D004210548FEF750F81F
:1026F0000028DBD0054A136801331360DAE700BF16
:1027000000100140000600209D000020500600201F
:1027100008B501214FF08040FEF7FAFC00B3204BD2
:102720001B6833B91F4A136801331360B3F5FA7F8E
:1027300017D01D4B1B682BB91C4A1368013313605B
:10274000642B15D01A4B1B68012B18D00022194B93
:102750001A60FFF7A5FF01214FF08040FEF748FD0A
:1027600008BD00220F4B1A6001220D4B1A60E0E7F2
:1027700001220D4B1A6000220C4B1A60E2E70D4B50
:102780001B680D4A1268934203D20133094A136051
:10279000DFE70022064B1A600122084B1A60D8E7D7
:1027A000F0010020D801002010060020DC010020EC
:1027B000EC010020E4010020E0010020E8010020FD
:1027C00030B583B001210420FEF728FA0425ADF8C6
:1027D000045018238DF8073003238DF80630094C78
:1027E0000DEB05012046FDF73BFF0823ADF8043053
:1027F0008DF807500DEB05012046FDF731FF03B0C2
:1028000030BD00BF0008014010B582B00121042096
:10281000FEF704FA4FF40073ADF8043018238DF876
:10282000073003238DF80630094C01A92046FDF737
:1028300017FF4FF48063ADF8043004238DF80730A0
:102840000DEB03012046FDF70BFF02B010BD00BFEA
:102850000008014010B582B001210820FEF7DEF922
:102860004FF48063ADF8043018238DF8073003234C
:102870008DF80630094C01A92046FDF7F1FE4FF412
:102880000063ADF8043004238DF807300DEB03012D
:102890002046FDF7E5FE02B010BD00BF000C014070
:1028A00000B583B04FF4E060FDF7D2FD26238DF82C
:1028B000043000238DF805308DF8063001238DF8A3
:1028C000073001A8FDF7E4FD03B05DF804FB00004C
:1028D00010B584B0FFF774FF01214FF40030FEF70C
:1028E000C3F94FF4965300930023ADF80430ADF8CC
:1028F00006304FF48062ADF808200C22ADF80A20B3
:10290000ADF80C30094C69462046FEF7CDFC01229B
:1029100040F225512046FEF7D3FDFFF7C1FF01210C
:102920002046FEF799FD04B010BD00BF00440040F2
:1029300000B583B04FF4E060FDF78AFD25238DF8E4
:10294000043002238DF8053003238DF8063001236F
:102950008DF8073001A8FDF79BFD03B05DF804FB7F
:1029600010B584B0FFF750FF01214FF48040FEF70F
:1029700055F94FF4165300930023ADF80430ADF829
:102980000630ADF808300C22ADF80A20ADF80C3056
:10299000094C69462046FEF787FC012240F225518A
:1029A0002046FEF78DFDFFF7C3FF01212046FEF70D
:1029B00053FD04B010BD00BF0038014000B583B026
:1029C0004FF4E060FDF744FD27238DF80430022327
:1029D0008DF8053004238DF8063001238DF807307B
:1029E00001A8FDF755FD03B05DF804FB10B584B0F8
:1029F000FFF730FF01214FF48020FEF735F94FF447
:102A0000165300930023ADF80430ADF80630ADF84E
:102A100008300C22ADF80A20ADF80C30094C69469C
:102A20002046FEF741FC012240F225512046FEF7E8
:102A300047FDFFF7C3FF01212046FEF70DFD04B05F
:102A400010BD00BF0048004070B506460D4600248A
:102A50000AE0315D0648FEF7ABFD80210448FEF731
:102A6000F5FD0028F9D00134AC42F2D370BD00BFAF
:102A70000048004010B582B001211020FEF7CEF8CA
:102A80004FF48063ADF8043018238DF8073003232A
:102A90008DF80630094C01A92046FDF7E1FD4FF401
:102AA0000063ADF8043004238DF807300DEB03010B
:102AB0002046FDF7D5FD02B010BD00BF001001405B
:102AC00010B584B0FFF7D6FF01214FF40020FEF7C8
:102AD000CBF84FF4165300930023ADF80430ADF853
:102AE0000630ADF808300C22ADF80A20ADF80C30F5
:102AF000054C69462046FEF7D7FB01212046FEF72C
:102B0000ABFC04B010BD00BF004C0040592A00D0FF
:102B1000704770B50D46064600240AE0315D064850
:102B2000FEF746FD80210448FEF790FD0028F9D00D
:102B30000134AC42F2D370BD004C00402DE9F043AB
:102B400083B00646894617461D4600248DF8074087
:102B5000ADF804402346A0461BE05A2B3AD19DF81D
:102B6000042089F8002089F801304446A84631E065
:102B70009DF8073009F80430013400232D4A136012
:102B80002D4A136085BB64222C4B1A602B46012B07
:102B900045D0726E002A38DDBC4247D00DF10701E6
:102BA0003046FFF7B3F80028E7D1002DE0D19DF8BB
:102BB000073009F8043003F11002D2B20E2A03D90B
:102BC000552B01D0AA2B02D18DF80430A846B8F1BC
:102BD000010FC2D0013408F10108182CCDD199F8A9
:102BE0000030552BC9D121E0012D03D0022D07D093
:102BF0000023CCE74FF47A72104B1A600023C6E72B
:102C000064220E4B1A600023C1E7002BBFD10121C3
:102C1000084A116000210A4A11600133B7E7064AE9
:102C20001268012AB5D10022034B1A60204603B076
:102C3000BDE8F083EC010020E8010020E001002065
:102C4000E401002010B540F225510948FEF754FD7B
:102C500000B910BD064C40F225512046FEF7CCFDD0
:102C60002046FEF7D1FCC1B20248FFF73CF8F0E77E
:102C7000003801404807002010B540F225510948AE
:102C8000FEF73AFD00B910BD064C40F22551204632
:102C9000FEF7B2FD2046FEF7B7FCC1B20248FFF7CF
:102CA00022F8F0E7004400406006002010B540F232
:102CB00025510948FEF720FD00B910BD064C40F231
:102CC00025512046FEF798FD2046FEF79DFCC1B237
:102CD0000248FFF708F8F0E700480040D40600205B
:102CE00010B540F225510948FEF706FD00B910BDA8
:102CF000064C40F225512046FEF77EFD2046FEF7A9
:102D000083FCC1B20248FEF7EEFFF0E7004C004042
:102D100048070020034638B1002001E001300133AC
:102D20001A78002AFAD170470020704770B4002446
:102D300003E06518165D465501349C42F9D370BC1A
:102D4000704700002DE9F84306460F4690461D46A1
:102D50009DF8209004F018F8012211E0A91A214BE7
:102D6000A3FB0043DB0803EB83035C00031B30334E
:102D700008F801301B4BA3FB0030C0080132D2B26F
:102D8000AA4206D80028E9D1AB1A302108F803106E
:102D9000F0E7B9F1000F23D02E2308F80530012405
:102DA00017E00022104B3046394603F053FD06462B
:102DB0000F4603F0E9FF29190A4BA3FB0023DB08A8
:102DC00003EB83035A00831A303308F801300134CF
:102DD000E4B24C45E5D94D440135002308F80530EF
:102DE000BDE8F883CDCCCCCC000024400B09092BE6
:102DF00008D83033037001F00F01092905D93731A4
:102E00004170704737330370F5E7303141707047D8
:102E10002DE9F04782B081460D4690460024444596
:102E200004D22B5D2E2B28D00134F8E70026002792
:102E30004FF0000A10E015F80A00303803F0A4FC47
:102E400032463B4603F054FB00222D4B03F002FDBB
:102E500006460F460AF1010A5445ECD80022284BD9
:102E60003046394603F020FECDE90001B8EB040AF4
:102E700008D001340026002718E0002600274FF074
:102E8000000AE9E703460C46C9E9003433E0285D4F
:102E9000303803F079FC32463B4603F029FB002230
:102EA000174B03F0D7FC06460F4601344445EED3DA
:102EB0000022134B3046394603F0F6FD04460D461A
:102EC00000201049002604E000220D4B03F0C2FC54
:102ED00001360AF1FF339E42F6D302460B462046E6
:102EE000294603F0E1FD02460B46DDE9000103F04F
:102EF000FFFAC9E90001012002B0BDE8F08700BF78
:102F0000000024400000F03F00B583B001210820FC
:102F1000FDF784FE4FF45073ADF8043003238DF8B1
:102F2000063010238DF8073001A90348FDF798FB00
:102F300003B05DF804FB00BF000C014000B583B096
:102F40004FF40073ADF8043003238DF806301023DE
:102F50008DF8073001A90348FDF782FB03B05DF847
:102F600004FB00BF000C014000B583B04FF40073B8
:102F7000ADF8043003238DF8063048238DF8073070
:102F800001A90348FDF76CFB03B05DF804FB00BF2B
:102F9000000C014010B50B4C4FF400712046FDF7BA
:102FA00053FC4FF480712046FDF74EFC4FF4007146
:102FB0002046FDF779FC4FF480712046FDF774FC44
:102FC00010BD00BF000C014010B5084C4FF48071DB
:102FD0002046FDF739FC4FF400712046FDF764FCF4
:102FE0004FF400712046FDF72FFC10BD000C01408E
:102FF00010B5FFF7B9FF4FF480710E48FDF724FCC0
:1030000042F210735C1E002B11DD4FF40071094871
:10301000FDF7BEFB234604460028F3D14FF4807130
:103020000448FDF741FCFFF789FF204610BD01244D
:10303000FBE700BF000C014070B50546012383F398
:103040001088FFF77BFF002413E04FF40071134852
:10305000FDF7FAFB114E4FF480713046FDF7F4FB9B
:103060004FF480713046FDF71FFC6D00EDB2013466
:10307000E4B2072C0DD84FF480710848FDF714FC1A
:1030800015F0800FE1D14FF400710448FDF70CFCFE
:10309000E0E7002383F3108870BD00BF000C0140FF
:1030A00010B50446FFF776FF7820FFF7C5FFFFF75E
:1030B0009FFF68B90020FFF7BFFFFFF799FF70B1CE
:1030C00059220F210E48FFF721FD0224204610BD92
:1030D00059220F210B48FFF719FD0124F6E720467E
:1030E000FFF7AAFFFFF784FF044630B159221021F1
:1030F0000548FFF70BFD0324E8E7FFF765FFE5E769
:10310000C8860008B8860008D8860008F8B50646C4
:103110000D46FFF73FFF7820FFF78EFFFFF768FFB0
:1031200090B94020FFF788FFFFF762FF074698B984
:103130000446AC421ED2305DFFF77EFFFFF758FF1A
:1031400088B90134E4B2F4E7592211210B48FFF7A2
:10315000DDFC01273846F8BD59220F210848FFF74A
:10316000D5FC0227F6E759220F210648FFF7CEFCCF
:103170000327EFE7FFF728FFECE700BFEC86000826
:10318000008700081087000810B504465039C8B2FF
:10319000FFF786FF200940F01000FFF781FF0120B4
:1031A000FFF77EFF002010BD10B500240BE0214684
:1031B0000020FFF7E9FF8021044800EBC410FFF76F
:1031C000A5FF0134E4B2072CF1D910BDF4010020B1
:1031D00008B530B1FF214FF48062034803F0FAFDD7
:1031E00008BD0021F7E700BFF401002008B5064B39
:1031F0001B78834206D0044B18700020FFF7E8FFCD
:10320000FFF7D2FF08BD00BFF405002010B5FFF79F
:103210007BFE324C40212046FDF746FB40212046F4
:10322000FDF712FB59220C212D48FFF76FFCAE2051
:10323000FFF736FFD520FFF733FF8020FFF730FF81
:10324000A820FFF72DFF3F20FFF72AFFD320FFF72D
:1032500027FF0020FFF724FF4020FFF721FF8D20EC
:10326000FFF71EFF1420FFF71BFFA120FFF718FF39
:10327000C820FFF715FFDA20FFF712FF1220FFF733
:103280000FFF8120FFF70CFFCF20FFF709FFD920A8
:10329000FFF706FFF120FFF703FFDB20FFF700FF3A
:1032A0004020FFF7FDFEA420FFF7FAFEA620FFF75F
:1032B000F7FE0020FFF78CFFFFF776FFAF20FFF748
:1032C000EFFE084B00221A805A8001245C715922BB
:1032D0000E210548FFF71AFC204610BD000C0140E6
:1032E00020870008F805002030870008014B18806F
:1032F00059807047F80500207F2815D83F2913D83A
:10330000104B1B7913B1B2FA82F25209012A0CD088
:10331000CB0800EBC31001F0070101238B400A4AE0
:10332000115C21EA030111547047CB0800EBC31074
:1033300001F0070101238B40034A115C194311542A
:10334000704700BFF8050020F40100202DE9F84384
:10335000234B1B880C7823447F2B3BDC204B5B8862
:103360004C7823443F2B38DC90460E46814600259E
:103370001CE01B4B18885988B8FA88F25209294476
:103380002044FFF7B9FF013433789C420DD207FA8D
:1033900004F313F4004FECD0114B188859884246BF
:1033A00029442044FFF7A8FFEDE7013572789542E4
:1033B00008D27168A9F1200302FB035331F813709E
:1033C0000024E1E73378064A11880B44138048460D
:1033D000BDE8F8830020BDE8F8830020BDE8F8834D
:1033E000F805002070B514461D469DF810601B7846
:1033F00003FB00F06B7803FB01F101310130FFF7B3
:1034000075FF207840B132462946FFF79FFF2378A9
:10341000984204D10134F4E7FFF7C6FE237818463A
:1034200070BD00002DE9F04391B0CDE90401CDE974
:10343000022300240D940E94ADF83C400A940B94A2
:10344000ADF8304007940894ADF824400420FFF70D
:10345000CDFE344E012500953346334A21462046A1
:10346000FFF7C0FF00953346304A29462046FFF754
:10347000B9FF009533462E4A02212046FFF7B2FFDE
:10348000009533462B4A21460A20FFF7ABFF0095F3
:103490003346294A29460A20FFF7A4FF0095334600
:1034A000264A02210A20FFF79DFF10A870E90C8927
:1034B000FEF768FD02270097C3B20DAA40464946B1
:1034C000FFF740FC009533460DAA21460320FFF785
:1034D00089FF10A870E90E89FEF754FD0097C3B26A
:1034E0000AAA40464946FFF72DFC009533460AAA32
:1034F00029460320FFF776FFDDE9188918A8FEF7B3
:1035000041FD0097C3B207AA40464946FFF71AFC9F
:103510000095334607AA39460320FFF763FF11B031
:10352000BDE8F083340000201488000818880008E3
:103530001C880008208800082488000810880008DB
:1035400030B583B00720FFF751FE094D01240094E8
:103550002B46084A00210846FFF744FF00942B46FB
:10356000054A21460020FFF73DFF03B030BD00BFF4
:1035700034000020AC870008B487000830B583B061
:103580000620FFF733FE134D012400942B46124A08
:1035900000210846FFF726FF00942B460F4A2146DC
:1035A0000020FFF71FFF00942B460D4A0221002048
:1035B000FFF718FF00942B460A4A02210A20FFF762
:1035C00011FF00942B46084A02210520FFF70AFF4D
:1035D00003B030BD34000020C0870008C887000851
:1035E000D4870008DC870008E087000830B583B086
:1035F0000520FFF7FBFD134D012400942B46124AD2
:1036000000210846FFF7EEFE00942B460F4A2146A4
:103610000020FFF7E7FE00942B460D4A0221002010
:10362000FFF7E0FE00942B460A4A02210A20FFF72A
:10363000D9FE00942B46084A02210520FFF7D2FE4E
:1036400003B030BD340000208C870008C887000814
:10365000D4870008DC870008E087000830B583B015
:103660000320FFF7C3FD0C4D012400942B460B4AA9
:1036700000210846FFF7B6FE00942B46084A214673
:103680000020FFF7AFFE00942B46064A02210020DF
:10369000FFF7A8FE03B030BD34000020F08700081B
:1036A000FC8700080888000830B583B00820FFF7C1
:1036B0009DFD094D012400942B46084A002108462F
:1036C000FFF790FE00942B46054A21460020FFF7A5
:1036D00089FE03B030BD00BF3400002060870008C1
:1036E000E487000830B583B00A20FFF77FFD0C4D5A
:1036F000012400942B460B4A00210846FFF772FE76
:1037000000942B46084A21460020FFF76BFE0094E8
:103710002B46064A02210020FFF764FE03B030BDAD
:10372000340000204C880008588800086088000891
:1037300030B583B00A20FFF759FD0C4D01240094E9
:103740002B460B4A00210846FFF74CFE00942B46FF
:10375000084A21460020FFF745FE00942B46064A02
:1037600002210020FFF73EFE03B030BD34000020F0
:103770004C880008588800084088000830B583B09D
:103780000B20FFF733FD0C4D012400942B460B4A10
:1037900000210846FFF726FE00942B46084A2146E2
:1037A0000020FFF71FFE00942B46064A022100204E
:1037B000FFF718FE03B030BD340000202888000851
:1037C000588800083488000830B583B00C20FFF713
:1037D0000DFD0C4D012400942B460B4A0021084698
:1037E000FFF700FE00942B46084A21460020FFF711
:1037F000F9FD00942B46064A02210020FFF7F2FD56
:1038000003B030BD34000020288800085888000824
:103810006088000830B583B00D20FFF7E7FC0C4D41
:10382000012400942B460B4A00210846FFF7DAFDDD
:1038300000942B46084A21460020FFF7D3FD009450
:103840002B46064A02210020FFF7CCFD03B030BD15
:10385000340000202888000894870008A08700080A
:1038600030B583B00E20FFF7C1FC0C4D012400944D
:103870002B460B4A00210846FFF7B4FD00942B4667
:10388000084A21460020FFF7ADFD00942B46064A6A
:1038900002210020FFF7A6FD03B030BD3400002058
:1038A000288800089487000880870008000000002E
:1038B0002DE9F04391B0CDE90401CDE902230023C5
:1038C0000D930E93ADF83C300A930B93ADF8303066
:1038D00007930893ADF824300920FFF787FC049D77
:1038E000059C002200232846214603F025FA0028E3
:1038F00062D14FF00409029D039C3FA3D3E900234A
:103900002846214603F018FA002865D14FF0040834
:1039100010A870E90C67FEF735FB03240094C3B2CE
:103920000DAA30463946FFF70DFA10A870E90E6768
:10393000FEF728FB0094C3B20AAA30463946FFF7C7
:1039400001FADDE9186718A8FEF71CFB0094C3B262
:1039500007AA30463946FFF7F5F9294D01240094AE
:103960002B46284A00210846FFF73CFD00942B46D1
:10397000254A21460020FFF735FD00942B46234AB7
:1039800002210020FFF72EFD00942B460DAA0021F6
:103990004846FFF727FD00942B460AAA21464046D9
:1039A000FFF720FD00942B4607AA02210420FFF711
:1039B00019FD11B0BDE8F0832A4604F10043CDE9BA
:1039C0000423012300930E4B114A00210846FFF700
:1039D00009FD4FF005098EE72A4604F10043CDE9C1
:1039E000022301210091064B094A0420FFF7FAFC4B
:1039F0004FF005088CE700BFF168E388B5F8E43EB6
:103A000034000020488700085087000858870008C5
:103A10004487000810B584B004460023ADF80C308C
:103A20008DF80E3064281AD0092C21D9164BA3FB2F
:103A30000423DB0803F130028DF80C2003EB830331
:103A40005A00A21A30328DF80D20012300930F4B3B
:103A500003AA02210520FFF7C5FC04B010BD012315
:103A600000930A4B0A4A02210520FFF7BBFCDBE763
:103A7000303404AA02F8044D01230093034B0221C1
:103A80000520FFF7AFFCE8E7CDCCCCCC340000201C
:103A90004087000808B5FCF737FF4FF48030FCF78B
:103AA00053FFFDF741F9124B1870A8B94FF4E0111C
:103AB0004FF48030FCF776FF0120FCF7BFFF392080
:103AC000FDF7F8F80028FAD00220FCF7C7FFFCF752
:103AD000DBFF0828FBD108BD0020FCF7DDFF00203C
:103AE000FDF71EF84FF48060FCF7FAFFDEE700BF39
:103AF000BC07002000B583B0ADF8041003238DF897
:103B0000063010238DF8073001A9FCF7A9FD03B09A
:103B10005DF804FB70B501210420FDF77FF8012159
:103B20000820FDF77BF801211020FDF777F8244CE1
:103B30004FF480712046FFF7DDFF224E8021304692
:103B4000FFF7D8FF40213046FFF7D4FF1E4D4FF45A
:103B500000412846FFF7CEFF4FF480412846FFF78B
:103B6000C9FF4FF400512846FFF7C4FF4FF48051BE
:103B70002846FFF7BFFF02212846FFF7BBFF0121C0
:103B80002846FFF7B7FF20213046FFF7B3FF10218B
:103B90003046FFF7AFFF80212046FFF7ABFF402103
:103BA0002046FFF7A7FF20212046FFF7A3FF1021A3
:103BB0002046FFF79FFF02212046FFF79BFF70BDC5
:103BC0000008014000100140000C014070B582B0B7
:103BD00001211020FDF722F80123ADF80430032560
:103BE0008DF8065010238DF80730154C01A920469A
:103BF000FCF736FD0223ADF804308DF80650482658
:103C00008DF8076001A92046FCF72AFD0423ADF8D2
:103C100004308DF806508DF807600DEB0301204647
:103C2000FCF71EFD0823ADF804308DF806508DF822
:103C3000076001A92046FCF713FD02B070BD00BF6C
:103C40000010014010B4C47D182902D0002010BC1F
:103C500070470378552B01D01846F8E7037D03F031
:103C600070026F2A02DD0223002204E01846EEE70C
:103C7000C15C0A440133162BFAD9D2B2944201D066
:103C80000020E4E70120E2E72DE9F04F8BB0804609
:103C90000F461646002407940894ADF82440049477
:103CA0000594ADF8184001940294ADF80C406923D6
:103CB0008DF8033076238DF8023070238DF80130B3
:103CC000A1462546022D3CD87548FDF7F5FF7548FD
:103CD000FDF7F2FF01210DF10300FEF7B5FE002212
:103CE000714B1A6064230A2201A96E48FEF726FF71
:103CF000044602280FD86C4B1B68012BF2D109F146
:103D000001095FFA89F9B9F1020F00F2BB800022C4
:103D1000654B1A60E6E759220C216448FEF7F6FE6F
:103D20005922214601A8FEF7F1FE592202216048DE
:103D3000FEF7ECFE2CB9022D00F0A9800135EDB2A2
:103D4000C0E74FF00009CA464D46BAF1020F3FD80E
:103D50005348FDF7B1FF01210DF10200FEF774FE9B
:103D60000022514B1A6064230A2204A94D48FEF731
:103D7000E5FE054602280ED84B4B1B68012BF2D1FD
:103D800009F101095FFA89F9B9F1020F7CD8002223
:103D9000454B1A60E7E75922014604A8FEF7B6FE34
:103DA00059220C214348FEF7B1FE5922294604A8A6
:103DB000FEF7ACFE592202213D48FEF7A7FE3DB9B1
:103DC000BAF1020F62D00AF1010A5FFA8AFABCE77F
:103DD0004FF0000AD346D146BBF1020F41D830481C
:103DE000FDF76AFF01210DEB0100FEF72DFE002219
:103DF0002D4B1A6064230A2207A92A48FEF79EFE6B
:103E0000814602280ED8284B1B68012BF2D10AF1FB
:103E1000010A5FFA8AFABAF1020F3CD80022224B5B
:103E20001A60E7E75922014607A8FEF76FFE5922FC
:103E30000C212148FEF76AFE5922494607A8FEF7E1
:103E400065FE592202211A48FEF760FEB9F1000F03
:103E500007D1BBF1020F20D00BF1010B5FFA8BFBF6
:103E6000BAE74A4607A94046FEF7D2FF2A4604A908
:103E70003846FEF7CDFF224601A93046FEF7C8FFBF
:103E8000012404E0002402E0002400E02C46204647
:103E90000BB0BDE8F08F0024F9E74C46F7E700BF10
:103EA00048070020D4060020F00100201C890008EB
:103EB0002C8B00082C8900083C8900082DE9F04F64
:103EC00083B0834692469946FFF7BCFE012803D093
:103ED000C0B203B0BDE8F08F9BF80E009BF80F3026
:103EE00043EA00239BF810009BF802209BF8037024
:103EF00047EA02229BF8047047EA02279BF8082051
:103F00009BF8095045EA02229BF80A5045EA02252F
:103F10009BF811209BF8128048EA02229BF813803C
:103F200048EA02289BF805209BF8066046EA022230
:103F30009BF8076046EA02269BF80B209BF80C4092
:103F400044EA02229BF80D4044EA022440EA03209E
:103F500002F00AFCCDE90001404602F005FC0246F1
:103F60000B46DDE9000102F09FFDCAE90001384679
:103F700002F0FAFB82468B46304602F0F5FB024621
:103F80000B465046594602F08FFDC9E9000128460C
:103F900002F0EAFB06460F46204602F0E5FB024629
:103FA0000B463046394602F07FFD0C9BC3E9000109
:103FB00001208EE770B588B016461D46002200230A
:103FC000CDE90623CDE90423CDE9022302AB00931A
:103FD00004AB06AAFFF772FF0446012802D0204670
:103FE00008B070BD104BD3E90023DDE9060102F0F3
:103FF00031FC0E4BD3E9002302F07AFAC6E9000146
:104000000B4BD3E90023DDE9020102F023FC094B4D
:10401000D3E9002302F06CFA0C9BC3E90001DDE94F
:104020000423C5E90023DAE720060020300600203B
:10403000180600202806002030B595B00023119303
:104040001293ADF84C30B64BD3E90023CDE90E23E3
:10405000B44BD3E90023CDE90C23B34BD3E90023C0
:10406000CDE90A23B14BD3E90023CDE90823B04BB6
:10407000D3E90023CDE90623AE4BD3E90023CDE9F4
:104080000423AD4BD3E90023CDE9022359220421B7
:10409000AA48FEF73BFD0E9D0F9C002200232846F8
:1040A000214602F067FE002800F0F5800EA8FDF71B
:1040B00069FF04230093C3B211AA28462146FEF7E4
:1040C00041FE5922062111A8FEF720FD59220221A6
:1040D0009B48FEF71BFD592204219A48FEF716FD66
:1040E0000C9D0D9C002200232846214602F042FE32
:1040F000002800F0E7800CA8FDF744FF042300939C
:10410000C3B211AA28462146FEF71CFE59220621F9
:1041100011A8FEF7FBFC592202218948FEF7F6FCA4
:10412000592204218848FEF7F1FC0A9D0B9C0022CD
:1041300000232846214602F01DFE002800F0D98009
:104140000AA8FDF71FFF04230093C3B211AA284653
:104150002146FEF7F7FD5922062111A8FEF7D6FCED
:10416000592202217648FEF7D1FC592204217748D2
:10417000FEF7CCFC089D099C00220023284621461E
:1041800002F0F8FD002800F0EB8008A8FDF7FAFE29
:1041900004230093C3B211AA28462146FEF7D2FD9C
:1041A0005922062111A8FEF7B1FC592202216448C8
:1041B000FEF7ACFC592204216548FEF7A7FC069DDA
:1041C000079C002200232846214602F0D3FD002848
:1041D00000F0DD8006A8FDF7D5FE04230093C3B2EE
:1041E00011AA28462146FEF7ADFD5922062111A845
:1041F000FEF78CFC592202215148FEF787FC592218
:1042000004215448FEF782FC049D059C00220023F3
:104210002846214602F0AEFD002800F0CF8004A819
:10422000FDF7B0FE04230093C3B211AA284621462D
:10423000FEF788FD5922062111A8FEF767FC5922D6
:1042400002213F48FEF762FC592204214248FEF752
:104250005DFC029D039C002200232846214602F0BB
:1042600089FD002800F0C18002A8FDF78BFE042321
:104270000093C3B211AA28462146FEF763FD5922D6
:10428000062111A8FEF742FC592202212C48FEF714
:104290003DFC15B030BD04F100442A46234614A865
:1042A00060E90623FDF76EFE04230093C3B211AA52
:1042B00028462146FEF746FD592201212748FEF7F0
:1042C00025FCFEE604F100442A46234614A860E9D2
:1042D0000823FDF757FE04230093C3B211AA284612
:1042E0002146FEF72FFD592201211C48FEF70EFC46
:1042F0000CE704F100442A46234614A860E90A2387
:10430000FDF740FE04230093C3B211AA28462146BC
:10431000FEF718FD592201211048FEF7F7FB1AE7B6
:10432000200600203006002040060020180600204D
:10433000280600203806002048060020488700088C
:104340002C8B00085087000858870008FC8800085C
:10435000048900080C8900081489000844870008B3
:1043600004F100442A46234614A860E90C23FDF713
:1043700009FE04230093C3B211AA28462146FEF782
:10438000E1FC592201212448FEF7C0FB08E704F1B3
:1043900000442A46234614A860E90E23FDF7F2FDE7
:1043A00004230093C3B211AA28462146FEF7CAFC93
:1043B000592201211848FEF7A9FB16E704F1004431
:1043C0002A46234614A860E91023FDF7DBFD0423E9
:1043D0000093C3B211AA28462146FEF7B3FC592226
:1043E00001210D48FEF792FB24E704F100442A4620
:1043F000234614A860E91223FDF7C4FD04230093AB
:10440000C3B211AA28462146FEF79CFC592201217D
:104410000148FEF77BFB32E74487000810B584B003
:1044200000238DF80F30384B1B78384A12789342AE
:104430001DD00BB3344B1A78344B1A70344B1B78A5
:10444000002B54D0324B1B78303304AC04F8013DC0
:10445000592205212F48FEF759FB592201212046F8
:10446000FEF754FB592202212B48FEF74FFB2B4845
:10447000FDF722FC04B010BD02212948FCF788F9A1
:1044800068B9284B1B78012B21D001212448FCF767
:104490000BFAFFF7D1FD234A1378DB431370082191
:1044A0001F48FCF775F928B9194B1B78BBB10022DE
:1044B000174B1A7004211A48FCF76AF90028B9D181
:1044C000134B1B787BB10022114B1A70B2E701210C
:1044D00000F1804000F58830FCF7B6F9D9E70122F9
:1044E0000B4B1A70E6E70222094B1A70A2E70F2065
:1044F000FEF77CFE00200021CDE9000102460B46BC
:10450000FEF790FF9EE700BF9D0000209C0000206A
:1045100014060020B88A00082C8B000860060020D2
:10452000001001409E000020012919D003291AD053
:1045300006291BD00C291DD014291ED0322922D0C7
:10454000462923D0642928D0AA292AD0B1F5FA7F98
:104550002FD0B1F5167F2FD0B1F57A7F31D07047CB
:104560000123037070470123437070470123837058
:10457000437070470123C37070470123C370837079
:104580004370037070470123037170470123037167
:10459000C3708370437003707047012303714371CC
:1045A0007047012343710371C370837043700370BC
:1045B0007047012383717047012383714371037135
:1045C000704701238371C371C9E7000038B5054600
:1045D000002409E00C4B33F814100C4B53F8240062
:1045E000FCF732F90134E4B20F2C0BD82B5D002B11
:1045F000F0D1054B33F81410044B53F82400FCF7AA
:1046000053F9EFE738BD00BF7C0000203C000020DC
:10461000092918D9002301E00133DBB2994210D9EE
:10462000C25C0D2AF8D00A2AF6D02C2AF4D04F2AE0
:10463000F2D04B2AF0D0303AD2B2092AECD900207D
:104640007047012070470020704700002DE9F041BD
:1046500090B004460D461746984600230D930E93DE
:10466000ADF83C300A930B93ADF8303007930893C4
:10467000ADF8243000220023CDE90423CDE9022344
:10468000CDE9002359221E216248FEF73FFA592244
:1046900009216148FEF73AFA592229462046FEF7D9
:1046A00035FA592210215D48FEF730FA2946204696
:1046B000FFF7AEFF002800F0AA800023E25C303A4A
:1046C000D2B2092A2FD90133DBB2F7E7721CD6B276
:1046D000002203E0012E15D0022E1CD00133DBB2E4
:1046E0009D4223D9E018E15C4B291FD02C29EDD045
:1046F000002EEFD10DF1400E96440EF80C1C013245
:10470000D2B2E7E790F800E010A9114401F824ECD8
:104710000132D2B2E0E7007810A9114401F8180C78
:10472000511CCAB2DAE700221646D9E759221021F5
:104730003B48FEF7EBF9592217213A48FEF7E6F914
:104740000DA8FEF7E7FA592201460DA8FEF7DEF99B
:10475000354C592202212046FEF7D8F90DA8FEF764
:10476000D9FA02460DA904A8FEF752FB0AA8FEF7E3
:10477000D1FA592201460AA8FEF7C8F959220221A6
:104780002046FEF7C3F90AA8FEF7C4FAC21E0AA91A
:1047900002A8FEF73DFB07A8FEF7BCFA5922014626
:1047A00007A8FEF7B3F9592202212046FEF7AEF919
:1047B00007A8FEF7AFFA024607A96846FEF728FBEE
:1047C000592216211948FEF7A1F90022184BDDE9FC
:1047D000040102F069F9C7E900010022144BDDE988
:1047E000020102F061F9C8E900010022104BDDE985
:1047F000000102F059F9169BC3E9000159221F215B
:104800000C48FEF783F9012010B0BDE8F0810020CC
:10481000FAE700BF4C8900086C8900087889000815
:104820008C8900089C8900082C8B0008B48900083A
:1048300000408F40CC8900082DE9F04FBBB0044602
:104840009146059298460693DDF810B1459E46992B
:104850000391479D48980490499F4A9B0793DDF830
:104860002CA1BC4B0DF1B40E0FCBAEE807008EF8B7
:104870000030252200210DF1C10002F0ABFA002327
:104880002A932B93ADF8B03027932893ADF8A4303A
:1048900024932593ADF8983021932293ADF88C3072
:1048A0001E931F93ADF880301B931C93ADF87430AA
:1048B0004A464346CDE918235A463346CDE91623E6
:1048C000039A2B46CDE91423049A3B46CDE91223E3
:1048D000079A5346CDE91023012C00F0758200227F
:1048E00000230598069902F027FA002840F070820C
:1048F000002200235846314602F01EFA002840F0FC
:104900006E82002200230398294602F015FA00283F
:1049100040F06B82002200230498394602F00CFA22
:10492000002840F06882002200230798514602F0D8
:1049300003FA002840F065820022002305980699BA
:1049400002F0FAF9002840F062823AA870E9228960
:10495000FDF718FB03230093C3B21BAA4046494648
:10496000FEF7F0F9592209211BA8FEF7CFF85922CA
:1049700002217948FEF7CAF8002200235846314642
:1049800002F0DAF9002840F048823AA870E9248958
:10499000FDF7F8FA03230093C3B21BAA4046494629
:1049A000FEF7D0F9592209211BA8FEF7AFF85922CA
:1049B00002216948FEF7AAF800220023039829463D
:1049C00002F0BAF9002840F02E823AA870E9268950
:1049D000FDF7D8FA03230093C3B21BAA4046494609
:1049E000FEF7B0F9592209211BA8FEF78FF85922CA
:1049F00002215948FEF78AF800220023049839461C
:104A000002F09AF9002840F014823AA870E9288947
:104A1000FDF7B8FA03230093C3B21BAA40464946E8
:104A2000FEF790F9592209211BA8FEF76FF85922C9
:104A300002214948FEF76AF80022484BDDE91801D7
:104A400001F008FF80468946CDE918890022434BD2
:104A5000DDE9160101F0FEFE03460C46CDE90834FF
:104A6000CDE9163400223D4BDDE9140101F0F2FEE0
:104A700003460C46CDE90A34CDE914340022374B05
:104A8000DDE9120101F0E6FE03460C46CDE90C34E7
:104A9000CDE912340022314BDDE9100101F0DAFEDC
:104AA00003460C46CDE90E34CDE910344046494664
:104AB00002F06AF92A4BA3FB0023DB0803EB830314
:104AC0005A00831A052B07D90022264B4046494637
:104AD00001F00EFDCDE91801DDE90889404649469F
:104AE00002F052F91E4BA3FB0023DB0803EB830308
:104AF0005A00831A052B07D900221A4B4046494613
:104B000001F0F6FCCDE91601DDE90A894046494687
:104B100002F03AF9124BA3FB0023DB0803EB8303FB
:104B20005A00831A052B07D900220E4B40464946EE
:104B300001F0DEFCCDE91401DDE90C89404649466F
:104B400002F022F9064BA3FB0023DB0803EB8303EF
:104B50005A0009E06C8800082C8B000800408F4048
:104B6000CDCCCCCC00002440831A052B07D90022E1
:104B7000B34B4046494601F0BBFCCDE91201DDE9EB
:104B80000E894046494602F0FFF8AE4BA3FB0023D6
:104B9000DB0803EB83035A00831A052B07D9002295
:104BA000A74B4046494601F0A3FCCDE91001002285
:104BB000A34BDDE9180101F077FF80468946CDE976
:104BC000188900229E4BDDE9160101F06DFFCDE949
:104BD000160100229A4BDDE9140101F065FFCDE9D1
:104BE00014010022964BDDE9120101F05DFFCDE9D1
:104BF00012010022924BDDE9100101F055FFCDE9D1
:104C0000100118A8FDF7BEF900240094C3B22AAA27
:104C100040464946FEF796F83AA870E92489FDF720
:104C2000B1F90094C3B227AA40464946FEF78AF874
:104C30003AA870E92689FDF7A5F90094C3B224AA21
:104C400040464946FEF77EF83AA870E92889FDF704
:104C500099F90094C3B221AA40464946FEF772F87A
:104C60003AA870E92A89FDF78DF90094C3B21EAA0B
:104C700040464946FEF766F800220023059806994B
:104C800002F05AF8002840F0E5802DA8FEF742F81F
:104C900004462AA8FEF73EF803462AAA21462DA874
:104CA000FEF744F82DA8FEF735F80123664A0146C1
:104CB0002DA8FEF73BF8002200235846314602F0AB
:104CC0003BF8002840F0D0802DA8FEF723F80446DA
:104CD00027A8FEF71FF8034627AA21462DA8FEF7AE
:104CE00025F82DA8FEF716F80123574A01462DA8EE
:104CF000FEF71CF8002200230398294602F01CF856
:104D0000002840F0BB802DA8FEF704F8044624A834
:104D1000FEF700F8034624AA21462DA8FEF706F860
:104D20002DA8FDF7F7FF0123474A01462DA8FDF7FF
:104D3000FDFF002200230498394601F0FDFF002802
:104D400040F0A6802DA8FDF7E5FF044621A8FDF759
:104D5000E1FF034621AA21462DA8FDF7E7FF2DA874
:104D6000FDF7D8FF0123384A01462DA8FDF7DEFFE5
:104D7000002200230798514601F0DEFF002840F092
:104D800091802DA8FDF7C6FF04461EA8FDF7C2FFBF
:104D900003461EAA21462DA8FDF7C8FF2DA8FDF742
:104DA000B9FF01462DA8FDF74FFE02212748FDF768
:104DB0004BFE2DA8FDF7AEFF592201462DA8FDF7A9
:104DC000A5FE3BB0BDE8F08F31238DF8BE3086E5FF
:104DD000059A069901F10043CDE9182388E55A4662
:104DE00006F10043CDE916238BE5039A05F1004354
:104DF000CDE914238EE5049A07F10043CDE912238F
:104E000091E5079A0AF10043CDE9102394E5592270
:104E100001210F48FDF77AFE97E5592201210C4840
:104E2000FDF774FEB1E5592201210948FDF76EFE38
:104E3000CBE5592201210648FDF768FEE5E500BFF4
:104E400000002440CDCCCCCCB48A00082C8B0008C8
:104E5000448700082DA8FDF75DFF0123164A01468F
:104E60002DA8FDF763FF10E72DA8FDF753FF0123E1
:104E7000114A01462DA8FDF759FF25E72DA8FDF79A
:104E800049FF01230C4A01462DA8FDF74FFF3AE7E1
:104E90002DA8FDF73FFF0123074A01462DA8FDF786
:104EA00045FF4FE72DA8FDF735FF0123024A0146D4
:104EB0002DA8FDF73BFF64E74487000800000000D1
:104EC0002DE9F04FADF6BC0D0026CDF8A868CDF861
:104ED000AC68CDF8B068CDF8B4680DF67804BE4D76
:104EE0000FCD0FC40FCD0FC495E80F0084E80F005D
:104EF000F02231460DF5F16001F06CFF8DF8876707
:104F0000CDF87067CDF87467CDF87867CDF87C6719
:104F1000CDF88067002200230DF5ED61C1E9002383
:104F20000DF5EC61C1E900230DF5EB61C1E900234A
:104F30000DF5EA61C1E900230DF5E961C1E900233E
:104F40000DF5E861C1E90023E024224631460DF564
:104F5000CC6001F03FFF224631460DF5B06001F014
:104F600039FF224631460DF5946001F033FF2246A9
:104F70003146F0A801F02EFF22463146B8A801F0D4
:104F800029FF2246314680A801F024FF5024224602
:104F900031466CA801F01EFF2246314658A801F0A8
:104FA00019FF2246314644A801F014FF224631463B
:104FB00030A801F00FFF224631461CA801F00AFF7D
:104FC0002246314608A801F005FF34463546B3466F
:104FD0000296029B0B2B00F25B82029B9A460DF617
:104FE000B80202EB830353F8401C0DF6A800FFF74C
:104FF0009BFA0DF6A800FFF7E9FA102200210DF642
:10500000A80001F0E7FE502200216CA801F0E2FEAA
:105010005022002158A801F0DDFE5022002144A8B2
:1050200001F0D8FE5022002130A801F0D3FE50221A
:1050300000211CA801F0CEFE5022002108A801F09A
:10504000C9FE664B1B68012BFBD10134E4B2042C72
:1050500003D80022614B1A60F3E76148FCF72CFE8D
:105060000024A346264690E0F00044AB1A1858AB43
:1050700019186CAB1844FEF707FE012815D0B308C9
:10508000DB006CAA1A4400200021C2E9000158AAE2
:105090001A44C2E9000144AA1344C3E90001592299
:1050A00010215048FDF732FD7DE00BF1010B5FFA56
:1050B0008BFBF4E74FEA96084FEAC80044AB1A1896
:1050C00058AB19186CAB1844FEF7DEFD012816D05A
:1050D0004FEAC8086CAB03EB080100220023C1E9CA
:1050E000002358A94144C1E9002344A98844C8E9E0
:1050F0000023592210213B48FDF708FD53E00BF136
:10510000010B5FFA8BFBF4E7102200210DF6A800DB
:1051100001F060FE0DF6A800FFF758FA6FF00200EC
:105120000DF6BC0DBDE8F08F06EB4603DD000DF576
:10513000F1631D440023182229462948FDF7FEFC8F
:105140004E2218212846FDF7E1FC18212846FEF7DB
:1051500079FDC5B2012D16D0204B1B68012BE3D180
:105160000134E4B2092CCFD800221C4B1A60DBE7D3
:1051700006EB4603D900002318220DF5F160014427
:105180001748FDF7DBFC0136F6B2092E11D80DF6F3
:10519000B80303EB8A0353F8407C312F7FF664AFEA
:1051A00016F0030F86D0002FE2D000220B4B1A60BE
:1051B000D2E7BBF1000F02D04FF0000840E0102210
:1051C00000210DF6A80001F005FE0DF6A800FFF77E
:1051D000FDF94FF0FF30A3E7A0880008F0010020A0
:1051E00060060020988A00084FEAC8096CAB4B445F
:1051F0004FEACA06F0AA9719D3E90023D7E90001BC
:1052000001F076F9C7E9000158AB4B44B8AA9719E9
:10521000D3E90023D7E9000101F06AF9C7E90001E9
:1052200044AB994480AB1E44D9E90023D6E9000180
:1052300001F05EF9C6E9000108F101085FFA88F89B
:10524000D845D1D34FEACA06F0AB9F194FF00408F6
:10525000CDF8008005230DF5EE62D7E90001FDF7DA
:1052600071FD592209210DF5EE60FDF74FFCDFF8C5
:105270000094592202214846FDF748FC584601F0A7
:1052800083FACDE9040102460B46D7E9000101F09B
:105290000BFC02460B46CDE90623C7E90023B8AB59
:1052A0009F19DDE90423D7E9000101F0FDFBC7E9FF
:1052B000000180AB1E44DDE90423D6E9000101F0C2
:1052C000F3FBC6E90001CDF8008005230DF5EE6182
:1052D0000A46DDE90601FDF735FD592209210DF5E4
:1052E000EE60FDF713FC592202214846FDF70EFC43
:1052F00000231E461F4610E0F30030AA1A44002087
:105300000021C2E900011CAA1A44C2E9000108AA4E
:105310001344C3E900010136F6B2092E15D806EB95
:105320004603D800F20008AB134400931CAB1344AF
:1053300030A90A4418210DF5F16E7044FEF7BEFD48
:105340000128D9D10137FFB2E5E7049717B14FF033
:1053500000083BE0102200210DF6A80001F03AFD04
:105360000DF6A800FFF732F96FF00100D8E64FEA1A
:10537000C80930AB4B444FEACA060DF5CC62971909
:10538000D3E90023D7E9000101F0B2F8C7E9000131
:105390001CAB4B440DF5B0629719D3E90023D7E954
:1053A000000101F0A5F8C7E9000108AB99440DF52B
:1053B00094631E44D9E90023D6E9000101F098F86E
:1053C000C6E9000108F101085FFA88F8B8F1090F91
:1053D000CDD94FEACA0A0DF5CC6303EB0A060427C0
:1053E000009705230DF5EE62D6E90001FDF7AAFC52
:1053F000592209210DF5EE60FDF788FB59220221A3
:105400009B48FDF783FB049801F0BEF9CDE9040148
:1054100002460B46D6E9000101F046FB804689466C
:10542000C6E900890DF5B06303EB0A06DDE9042344
:10543000D6E9000101F038FBC6E900010DF59463DF
:1054400003EB0A06DDE90423D6E9000101F02CFB99
:10545000C6E90001009705230DF5EE624046494676
:10546000FDF770FC592209210DF5EE60FDF74EFBAA
:10547000592239467F48FDF749FBBAF1630F02DC38
:105480005046FEF7C7FA029B0133DBB20293A0E558
:105490005E4630338DF88737592201210DF287702F
:1054A000FDF734FB6420FEF7B5FA0DF5EB630193CD
:1054B0000DF5EC6300930DF5ED631C22F0A90DF5DD
:1054C000CC60FCF7E3FC0DF5E86301930DF5E963AF
:1054D00000930DF5EA631C2280A90DF59460FCF79A
:1054E000D5FC4FF0000A4FF0000BCDE902AB0024D1
:1054F000CDE904ABAB46354601E00134E4B20B2CF8
:105500002FD8B8AB03EBC403D3E9006754A3D3E9A6
:1055100000233046394601F02DFC0028EDD00DF572
:10552000B06303EBC403D3E900894DA3D3E900239F
:105530004046494601F01EFC0028DED032463B467C
:10554000DDE9020100F0D4FFCDE9020142464B46FD
:10555000DDE9040100F0CCFFCDE904010135EDB235
:10556000CBE728465D46DDE904AB01F00DF90646C0
:105570000F4602460B46DDE9020101F095FA80462E
:10558000894632463B465046594601F08DFA02465E
:105590000B464046494600F0A9FF374BC3E90001DE
:1055A0000DF5EB63D3E900892FA3D3E9002340462F
:1055B000494601F0DFFB58B10DF5E863D3E9006718
:1055C00029A3D3E900233046394601F0D3FBE8B9DB
:1055D0000DF5EC63D3E900230DF5ED61D1E9000190
:1055E0000DF5EB64D4E90067CDE90067FEF760F9DB
:1055F000102200210DF6A80001F0ECFB0DF6A8002A
:10560000FEF7E4FF002D27D1002089E50DF5ED63BD
:10561000D3E90001194BC3E900010DF5EC63D3E9AF
:105620000001174BC3E90001164BC3E900890DF5D2
:10563000EA63D3E90001144BC3E900010DF5E96306
:10564000D3E90001114BC3E90001114BC3E9006725
:10565000FCF75CFF0125BBE7012061E5AFF30080AB
:105660002D431CEBE2361A3FCDCCCCCCCCCCEC3F5E
:105670002C8B0008AC8A0008480600202006002079
:1056800030060020400600201806002028060020D2
:1056900038060020000000002DE9F04FADF6F41DA3
:1056A0000024CDF8E049CDF8E449CDF8E849CDF83B
:1056B000EC490DF51B65CA4E0FCE0FC50FCE0FC5B9
:1056C00096E80F0085E80F008DF8AF49F0222146DB
:1056D0000DF6BC0001F07EFB322221460DF688005B
:1056E00001F078FBCDF87448CDF87848CDF87C48C7
:1056F000CDF88048CDF88448CDF86848CDF86C489E
:10570000ADF87048002200230DF50661C1E90023C1
:105710000DF65801C1E900230DF50561C1E900232B
:105720000DF64801C1E900230DF50461C1E900232C
:105730000DF63801C1E90023E0252A4621460DF582
:10574000EB6001F047FB2A4621460DF5CF6001F0E2
:1057500041FB2A4621460DF5B36001F03BFB2A468A
:1057600021460DF5976001F035FB2A462146F6A843
:1057700001F030FB2A462146BEA801F02BFB2A4649
:10578000214686A801F026FB2A4621464EA801F0B4
:1057900021FB50252A4621463AA801F01BFB2A4648
:1057A000214626A801F016FB2A46214612A801F040
:1057B00011FB8C4B1C608C4D0D212846FDF744F9E4
:1057C00059220D212846FDF7A1F9254603E0854B16
:1057D0001B68012B63D0022306220DF68801834843
:1057E000FDF7ACF904460028F1D059221121804878
:1057F000FDF78CF9592221460DF68800FDF786F950
:10580000592202217B48FDF781F904227A490DF6DD
:10581000880001F0EFFA0028D9D100230C939846B4
:105820001C46CDF82880B8F10B0F00F29182CDF81C
:1058300020800DF51F6303EB880353F8406C31465D
:105840000DF51E60FEF770FE0DF51E60FEF7BEFE44
:10585000102200210DF51E6001F0BCFAF02200219B
:105860000DF6BC0001F0B6FA022332220DF68801D3
:105870005E48FDF763F90022604B1A60592211213E
:105880005F48FDF743F95D4B1B68012BF6D10134EE
:1058900014F0FF041DD10022584B1A60EEE70135C9
:1058A000EDB20D215048FDF7CFF8022D03D80022AC
:1058B0004C4B1A608FE7592212215248FDF726F906
:1058C0000022484B1A606FF002000DF6F41DBDE88F
:1058D000F08F4648FCF7F0F94B4C0F212046FDF7BE
:1058E000B3F859220F212046FDF710F900252C4668
:1058F00014E0022D42D83D48FCF7DEF9424F0D215D
:105900003846FDF7A1F859220D213846FDF7FEF87B
:105910000135EDB2334B1B68012B3CD03222002104
:105920000DF6880001F056FA022306220DF68801D2
:105930002E48FDF703F907460028EBD05922132122
:105940003248FDF7E3F8592239460DF68800FDF795
:10595000DDF8592202212748FDF7D8F89DF88A384A
:105960004F2BC6D19DF88B384B2BC2D12848FCF762
:10597000A3F900271B4B1F603D4695E01022002134
:105980000DF51E6001F026FA0DF51E60FEF71EFEF5
:105990006FF0020099E70134E4B2022C03D8002230
:1059A000104B1A60BAE7592212211648FDF7AEF8DB
:1059B00000210C4B196010220DF51E6001F00AFA4F
:1059C0000DF51E60FEF702FE6FF002007DE7013468
:1059D000E4B2092C1ED80022024B1A6037E000BF47
:1059E000A0880008F0010020EC890008D4060020FF
:1059F000FC8900082C8B0008108A00081006002083
:105A00002C8A0008188A0008408A0008508A00087A
:105A100060060020102200210DF51E6001F0DAF969
:105A20000DF51E60FEF7D2FD592211214D48FDF7FC
:105A30006DF84FF0FF3048E70135EDB2052D20D06D
:105A40000022494B1A60484B1B68012BBFD005EB65
:105A500045034FEAC3090DF6BC03994400231822FD
:105A600049464248FDF76AF818214846FEF7EAF829
:105A7000C0B20128E0D018220021484601F0AAF95E
:105A8000E1E7322200210DF6880001F0A3F902239C
:105A900032220DF688013648FDF750F80D9038B9DE
:105AA000314B1B68012B16D0002EEAD00024CAE728
:105AB00059220D212F48FDF729F859220D990DF68D
:105AC0008800FDF723F8592202212B48FDF71EF824
