:020000040800F2
:1000000000C00020F9020008FF02000803030008F6
:100010007503000879030008C10300080000000010
:1000200000000000000000000000000009040008BB
:100030000D04000800000000110400081504000869
:1000400025040008250400082504000825040008EC
:1000500025040008250400082504000825040008DC
:1000600025040008250400082504000825040008CC
:1000700025040008250400082504000825040008BC
:1000800025040008250400082504000825040008AC
:10009000250400082504000825040008250400089C
:1000A000250400082504000825040008250400088C
:1000B0004D26000825040008250400082504000832
:1000C000250400082504000825040008250400086C
:1000D00025040008812B0008B52B0008E92B000837
:1000E000250400082504000825040008250400084C
:1000F000250400082504000825040008250400083C
:10010000250400082504000825040008250400082B
:100110001D2C0008250400082504000825040008FB
:10012000250400082504000825040008250400080B
:1001300000000000000000000000000000000000BF
:1001400000000000000000000000000000000000AF
:10015000000000000000000000000000000000009F
:10016000000000000000000000000000000000008F
:10017000000000000000000000000000000000007F
:10018000000000000000000000000000000000006F
:10019000000000000000000000000000000000005F
:1001A000000000000000000000000000000000004F
:1001B000000000000000000000000000000000003F
:1001C000000000000000000000000000000000002F
:1001D000000000000000000000000000000000001F
:1001E0005FF8E0F100B583B001F0F4FB304B314A29
:1001F0001360314A1360314B314A03E011681960D2
:10020000043304322F498B42F8D32A4B1A682E4B01
:100210009A4200D0FEE7284B1A682C4B9A42F9D13B
:10022000234B2B4A13602B4A13602B4B02E0002216
:100230001A600433294A9342F9D3254B1B6813B93A
:10024000244B1B6803B1FEE701F0D0FB694601A80F
:1002500001F052FB224B234CE41AA4100025AC42BF
:1002600014DC214B214CE41AA4100025AC4213DC11
:100270000099019805F02CFD05461D4B1D4CE41A14
:10028000A410002C0EDC284601F008FB144B53F898
:10029000253098470135E2E7134B53F8253098474E
:1002A0000135E3E7013C124B53F824309847E8E767
:1002B000BABADECA000000200401002000000020BD
:1002C00004870008080100207856341232547698CA
:1002D00008010020B007002008010020B40700201A
:1002E000500400085004000850040008500400089E
:1002F000500400085004000808B5FFF773FF00BE63
:10030000FEE71EF0040F0CBFEFF30880EFF3098047
:100310007146414A10472DE9F04182B004468846B3
:10032000124B5E6B9F6B9D6A1B6B13F0020F03D029
:100330000E4BDB6A002B0CDB0D4801F0EFFACDF819
:1003400000803B4632462946204601F053FB00BE62
:10035000FEE74BF6AB6101F0C7FB0028ECD04FF095
:100360000042024BDA6202B0BDE8F08100ED00E02D
:10037000FC73000800BEFEE71EF0040F0CBFEFF395
:100380000880EFF309807146244A10472DE9F041B7
:1003900082B004468846084B5E6B9F6B9D6A074897
:1003A00001F0BCFACDF800803B4632462946204693
:1003B00001F020FB00BEFEE700ED00E00C74000839
:1003C0001EF0040F0CBFEFF30880EFF309807146B5
:1003D000134A10472DE9F04182B004468846084B85
:1003E0005E6B9F6B9D6A074801F098FACDF800801C
:1003F0003B4632462946204601F0FCFA00BEFEE7A5
:1004000000ED00E01874000800BEFEE700BEFEE745
:1004100000BEFEE770470000170300088D030008C8
:08042000D503000800BEFEE751
:100428000487000800000020080100200487000855
:10043800000000000000000008010020B4070020B0
:080448000000000000000000AC
:1004500010B50446B0F5E06F0FD0B0F5C06F0CD00A
:10046000B0F5A06F09D0B0F5806F06D0B0F5407F31
:1004700003D06321044801F047FA44F0BF6444F418
:100480000034024BDC6010BD7C71000800ED00E020
:1004900010B50446C378012B03D97521204801F01B
:1004A00033FA63780F2B10D8A3780F2B12D8E37888
:1004B000ABB923785A0903F01F03012101FA03F3B2
:1004C0002032184941F8223010BD7621144801F03D
:1004D0001BFAE9E77721124801F016FAE7E7124B19
:1004E000DA68D243C2F30222C2F104000F2121FADA
:1004F00002F263788340A1780A4013431B012278FB
:10050000DBB208490A4482F800332378580903F023
:100510001F03012202FA03F341F8203010BD00BF8F
:100520007C71000800E100E000ED00E0034B044AAC
:100530005A6002F188325A60704700BF00200240C2
:1005400023016745024A136943F080031361704732
:10055000002002400B4BDB6813F0010F0DD1094B5B
:10056000DB6813F0040F01D002207047054BDB68F5
:1005700013F0100F03D003207047012070470420B0
:10058000704700BF0020024010B50446FFF7E2FFAD
:1005900002E0FFF7DFFF013C012801D1002CF8D178
:1005A00004B9052010BD000038B5044600F17842BA
:1005B000124B9A4206D84FF43020FFF7E5FF04288B
:1005C00006D038BD40F2A7110D4801F09DF9F2E7C1
:1005D0000C4D2B6943F002032B616C612B6943F0D6
:1005E00040032B614FF43020FFF7CEFF2B6923F03F
:1005F0000203DB04DB0C2B61E3E700BFFEFF0F000F
:10060000A47100080020024070B504460D4600F1B8
:100610007842104B9A4206D84FF40050FFF7B4FFCF
:10062000042806D070BD4FF45D710B4801F06CF9E1
:10063000F2E70A4E336943F00103336125804FF43A
:100640000050FFF7A1FF336923F00103DB04DB0C4B
:100650003361E7E7FEFF0F00A471000800200240AD
:10066000F8B505460C46484B98421BD003F580630D
:10067000984217D003F58063984213D003F5806346
:1006800098420FD003F5806398420BD003F5806346
:10069000984207D003F58063984203D0B2213B48CB
:1006A00001F032F9E3788BB1042B0FD0282B0DD059
:1006B000482B0BD0142B09D0102B07D01C2B05D0A6
:1006C000182B03D0B321314801F01EF9238893B1D0
:1006D000E37803F00F06304613F0100F06D0A3782E
:1006E000013BDBB2022B0BD8A0783043237833B325
:1006F0002E6800230BE0B421244801F005F9E7E758
:10070000BB21224801F000F9EEE76A610133072BB3
:1007100014D801229A40218832EA0101F6D19900C9
:100720000F278F4026EA070600FA01F10E43E17811
:100730002829EAD04829E9D12A61E7E72E602388F1
:10074000FF2B20D96E68002302E06A6115E00133B7
:10075000072B17D803F1080101228A40218832EAC9
:100760000101F4D199000F278F4026EA070600FA0D
:1007700001F10E43E1782829E7D0E1784829E6D154
:100780002A61E4E76E60F8BD00080140D8710008F6
:1007900038B504460D462A4B98421CD003F58063B9
:1007A000984218D003F58063984214D003F5806313
:1007B000984210D003F5806398420CD003F5806313
:1007C000984208D003F58063984204D04FF48F71AB
:1007D0001C4801F099F86B1E9BB2012B28D9042DFF
:1007E00026D0082D24D0102D22D0202D20D0402D11
:1007F0001ED0802D1CD0B5F5807F19D0B5F5007FB7
:1008000016D0B5F5806F13D0B5F5006F10D0B5F5E3
:10081000805F0DD0B5F5005F0AD0B5F5804F07D0E9
:10082000B5F5004F04D040F21F11064801F06CF8F6
:10083000A3681D4201D1002038BD012038BD00BF92
:1008400000080140D871000838B504460D46144B25
:1008500098421CD003F58063984218D003F580635A
:10086000984214D003F58063984210D003F580635A
:1008700098420CD003F58063984208D003F580635A
:10088000984204D04FF4B571064801F03DF80DB11F
:10089000256138BD40F26B11024801F035F8F7E7E9
:1008A00000080140D871000838B504460D46144BC5
:1008B00098421CD003F58063984218D003F58063FA
:1008C000984214D003F58063984210D003F58063FA
:1008D00098420CD003F58063984208D003F58063FA
:1008E000984204D04FF4BD71064801F00DF80DB1E7
:1008F000656138BD40F27B11024801F005F8F7E769
:1009000000080140D87100080D4B1A6842F001023E
:100910001A6059680B4A0A405A601A6822F08472B9
:1009200022F480321A601A6822F480221A605A680F
:1009300022F4FE025A604FF41F029A60704700BF13
:10094000001002400000FFF810B5044650B1B0F5A9
:10095000803F07D0B0F5802F04D040F211110F482E
:1009600000F0D2FF0E4B1A6822F480321A601A6827
:1009700022F480221A60B4F5803F03D0B4F5802FB2
:1009800006D010BD064A136843F48033136010BDCF
:10099000034A136843F4A023136010BD0C720008CF
:1009A0000010024038B50C46054650B1B0F5803F06
:1009B00007D0B0F5403F04D040F27F111D4800F051
:1009C000A3FF74B3B4F5802F2BD0B4F5002F28D03B
:1009D000B4F5402F25D0B4F5801F22D0B4F5A01F68
:1009E0001FD0B4F5C01F1CD0B4F5E01F19D0B4F56A
:1009F000001F16D0B4F5101F13D0B4F5201F10D06F
:100A0000B4F5301F0DD0B4F5401F0AD0B4F5501F17
:100A100007D0B4F5601F04D04FF4C071054800F052
:100A200073FF054B596821F47C112C432143596015
:100A300038BD00BF0C7200080010024010B504461B
:100A4000012804D94FF4CA71024800F05DFF024B3F
:100A50001C6010BD0C7200086000424210B50446D4
:100A6000022806D8064A536823F003031C43546047
:100A700010BD4FF40E71034800F046FFF2E700BFCF
:100A8000001002400C720008024B586800F00C0085
:100A9000704700BF0010024010B50446A0B1802886
:100AA00012D0902810D0A0280ED0B0280CD0C0288A
:100AB0000AD0D02808D0E02806D0F02804D04FF47F
:100AC0001971054800F020FF044A536823F0F00331
:100AD0001C43546010BD00BF0C720008001002409F
:100AE00010B5044680B1B0F5806F0DD0B0F5A06FA1
:100AF0000AD0B0F5C06F07D0B0F5E06F04D040F277
:100B00007E21054800F000FF044A536823F4E063A7
:100B10001C43546010BD00BF0C720008001002405E
:100B200010B5044680B1B0F5806F0DD0B0F5A06F60
:100B30000AD0B0F5C06F07D0B0F5E06F04D04FF425
:100B40002671054800F0E0FE044B586820F4605020
:100B500040EAC400586010BD0C720008001002404A
:100B600010B4294B5B6803F00C03042B2BD0082B2B
:100B70002CD013B1254B036001E0244B03602249C4
:100B80004B68C3F30313224CE35CDAB20368D3402F
:100B900043604A68C2F30222A25CD2B223FA02F294
:100BA00082604A68C2F3C222A25CD2B2D340C36060
:100BB0004A68C2F3813217498A5CD2B2B3FBF2F3BE
:100BC000036110BC7047114B0360D8E70E4A5368AD
:100BD0005268C3F38343023312F4803F09D00A4AB8
:100BE000526812F4003F09D00B4A02FB03F3036082
:100BF000C5E7094A02FB03F30360C0E7034A02FBAF
:100C000003F30360BBE700BF0010024000127A004C
:100C1000080000200400002000093D0038B504460B
:100C20000D460E4B034003B920B940F24A410C482F
:100C300000F06AFE012D04D940F24B41084800F053
:100C400063FE2DB9074A936923EA0404946138BD11
:100C5000044B9A6914439C6138BD00BF0200C0FF79
:100C60000C7200080010024038B504460D460E4BC9
:100C7000184200D120B940F269410C4800F044FE0E
:100C8000012D04D940F26A41084800F03DFE2DB91B
:100C9000074AD36923EA0404D46138BD044BDA69F6
:100CA0001443DC6138BD00BF003601810C720008BE
:100CB0000010024010B50446212818D0312816D063
:100CC000392814D0412812D0612810D07A280ED0AB
:100CD0007B280CD07C280AD07D2808D07E2806D01E
:100CE0007F2804D040F234510D4800F00DFE630916
:100CF000012B0CD0022B0DD00A4B5B6A04F01F04B1
:100D000023FA04F414F0010F07D1002010BD054BA5
:100D10001B68F3E7034B1B6AF0E7012010BD00BF1F
:100D20000C7200080010024000B583B0002301934C
:100D30003120FFF7BFFF019B01330193019BB3F506
:100D4000A06F01D00028F3D03120FFF7B3FF18B90E
:100D5000002003B05DF804FB0120FAE738B5044633
:100D60000D46524B984242D0B0F1804F3FD0A3F590
:100D7000943398423BD003F58063984237D003F513
:100D80008063984233D003F5806398422FD003F5F7
:100D9000806398422BD003F59033984227D003F517
:100DA000C053984223D003F5806398421FD003F5C7
:100DB000806398421BD0A3F59E33984217D003F569
:100DC0008063984213D003F5806398420FD003F5F7
:100DD000903398420BD003F58063984207D003F517
:100DE0008063984203D0E721314800F08DFD6B8885
:100DF0005BB1102B09D0202B07D0402B05D0602BE6
:100E000003D0E8212A4800F07FFDEB884BB1B3F511
:100E1000807F06D0B3F5007F03D0E921244800F09D
:100E200073FD23889BB2214A944212D002F50062DE
:100E300094420ED0B4F1804F0BD0A2F59832944278
:100E400007D002F58062944203D002F5806294429A
:100E500003D123F070036A881343164A944208D0E2
:100E600002F58062944204D023F440739BB2EA8876
:100E700013432380AB88A3852B8823850B4B9C428F
:100E80000FD003F500639C420BD003F540639C42F6
:100E900007D003F580639C4203D003F580639C4236
:100EA00001D12B7A23860123A38238BD002C014077
:100EB0003C7200080010004038B504460D462E4B29
:100EC000984243D0B0F1804F40D0A3F5943398427C
:100ED0003CD003F58063984238D003F58063984294
:100EE00034D003F58063984230D003F58063984294
:100EF0002CD003F59033984228D003F5C053984284
:100F000024D003F58063984220D003F58063984293
:100F10001CD0A3F59E33984218D003F58063984205
:100F200014D003F58063984210D003F590339842B3
:100F30000CD003F58063984208D003F58063984293
:100F400004D040F229310D4800F0DEFC012D04D917
:100F500040F22A31094800F0D7FC35B923889BB20A
:100F600023F001039BB2238038BD23889BB243F05A
:100F70000103238038BD00BF002C01403C720008F3
:100F800070B504460D461646314B984243D0B0F139
:100F9000804F40D0A3F5943398423CD003F5806352
:100FA000984238D003F58063984234D003F58063CB
:100FB000984230D003F5806398422CD003F59033EB
:100FC000984228D003F5C053984224D003F580639B
:100FD000984220D003F5806398421CD0A3F59E333D
:100FE000984218D003F58063984214D003F58063CB
:100FF000984210D003F5903398420CD003F58063EB
:10100000984208D003F58063984204D040F26B31D7
:10101000104800F079FC15F47F4F00D125B94FF44A
:101020005B710C4800F070FC012E04D940F26D3168
:10103000084800F069FC2EB9A389ED43ADB21D400C
:10104000A58170BDA3899BB21D43A58170BD00BF62
:10105000002C01403C72000838B504460D462A4B6E
:10106000984243D0B0F1804F40D0A3F594339842DA
:101070003CD003F58063984238D003F580639842F2
:1010800034D003F58063984230D003F580639842F2
:101090002CD003F59033984228D003F5C0539842E2
:1010A00024D003F58063984220D003F580639842F2
:1010B0001CD0A3F59E33984218D003F58063984264
:1010C00014D003F58063984210D003F59033984212
:1010D0000CD003F58063984208D003F580639842F2
:1010E00004D040F63621094800F00EFC15F4614F9B
:1010F00000D125B940F63721044800F005FCED4346
:10110000ADB2258238BD00BF002C01403C72000802
:1011100038B504460D46344B984243D0B0F1804F69
:1011200040D0A3F5943398423CD003F580639842B5
:1011300038D003F58063984234D003F58063984239
:1011400030D003F5806398422CD003F59033984259
:1011500028D003F5C053984224D003F58063984209
:1011600020D003F5806398421CD0A3F59E339842AB
:1011700018D003F58063984214D003F58063984239
:1011800010D003F5903398420CD003F58063984259
:1011900008D003F58063984204D040F658211348E4
:1011A00000F0B2FB6B1E9BB2012B10D9042D0ED0A8
:1011B000082D0CD0102D0AD0202D08D0402D06D09F
:1011C000802D04D040F65921084800F09DFB228A6A
:1011D000A3892B40154202D01BB9002038BD002046
:1011E00038BD012038BD00BF002C01403C72000812
:1011F00038B504460D462A4B984243D0B0F1804F93
:1012000040D0A3F5943398423CD003F580639842D4
:1012100038D003F58063984234D003F58063984258
:1012200030D003F5806398422CD003F59033984278
:1012300028D003F5C053984224D003F58063984228
:1012400020D003F5806398421CD0A3F59E339842CA
:1012500018D003F58063984214D003F58063984258
:1012600010D003F5903398420CD003F58063984278
:1012700008D003F58063984204D040F682210948E3
:1012800000F042FB15F47F4F00D125B940F68321D1
:10129000044800F039FBED43ADB2258238BD00BFF4
:1012A000002C01403C72000830B587B004460D4662
:1012B000654B984213D0A3F5744398420FD003F5C1
:1012C000806398420BD003F58063984207D003F502
:1012D0008063984203D0B8215C4800F015FB2B686E
:1012E000013B5B4A934200F29480AB8833B1B3F583
:1012F000805F03D0BA21554800F006FBEB8863B14C
:10130000B3F5805F09D0B3F5005F06D0B3F5405F59
:1013100003D0BB214D4800F0F7FA2B894BB1B3F550
:10132000806F06D0B3F5C06F03D0BC21474800F0F2
:10133000EBFA6A8922F00C039BB203B91AB9BD21FA
:10134000424800F0E1FAAB8963B1B3F5807F09D080
:10135000B3F5007F06D0B3F5407F03D0BE213B48F4
:1013600000F0D2FAAB8973B1374B9C420BD0A3F596
:1013700074439C4207D003F580639C4203D0C22192
:10138000324800F0C1FA238A9BB2EA8823F4405322
:1013900013432382A3899BB2A98828896A890143C0
:1013A0000A4323F4B05323F00C031343A381A38A0D
:1013B0009BB2AA8923F440731343A38201A8FFF7C9
:1013C000CFFB214B9C4229D0039BA28912F4004FF2
:1013D00026D103EB830303EB830329688900B3FB66
:1013E000F1F11C4BA3FB012358090501642300FB09
:1013F0001313A28912F4004F1BD11B013233154A7B
:10140000A2FB0323C3F343132B439BB2238107B0F7
:1014100030BDB9210D4800F077FA66E7049BD4E7A8
:1014200003EB830303EB830329684900B3FBF1F16A
:10143000D7E7D9003231074AA2FB0131C1F342128A
:1014400045EA0203E1E700BF003801406C72000882
:101450001FAA44001F85EB5138B504460D46164BB4
:10146000984214D0A3F57443984210D003F58063DA
:1014700098420CD003F58063984208D003F580634E
:10148000984204D04FF4B1710C4800F03DFA012DA0
:1014900004D940F26311094800F036FA35B9A3893E
:1014A0009BB223F400539BB2A38138BDA3899BB2A6
:1014B00043F40053A38138BD003801406C7200082A
:1014C00070B504460D461646374B984214D0A3F526
:1014D0007443984210D003F5806398420CD003F512
:1014E0008063984208D003F58063984204D040F2AC
:1014F00089112E4800F008FA282D1ED040F22773DB
:101500009D421AD040F226639D4216D040F22553E8
:101510009D4212D040F224439D420ED040F6460335
:101520009D420AD040F66A139D4206D0602D04D039
:101530004FF4C5711D4800F0E7F9012E04D940F2BF
:101540008B111A4800F0E0F940F66A139D4211D061
:10155000C5F3421205F01F05012303FA05F59A426F
:1015600019D0022A19D01434CEB9236823EA05050C
:10157000256070BD0C4B9C42EAD0A3F574439C429D
:10158000E6D003F580639C42E2D040F28F11074819
:1015900000F0BAF9DCE70C34E6E71034E4E723683E
:1015A0001D43256070BD00BF003801406C7200080B
:1015B00038B504460D46124B984214D0A3F5744337
:1015C000984210D003F5806398420CD003F58063F5
:1015D000984208D003F58063984204D040F25F211E
:1015E000084800F091F9B5F5007F03D2C5F308056E
:1015F000A58038BD4FF41871024800F085F9F5E771
:10160000003801406C72000810B504460D4B98423A
:1016100014D0A3F57443984210D003F58063984228
:101620000CD003F58063984208D003F5806398429C
:1016300004D04FF41C71044800F066F9A088C0F390
:10164000080010BD003801406C72000838B505462E
:101650000C46274B984214D0A3F57443984210D0FF
:1016600003F5806398420CD003F58063984208D05C
:1016700003F58063984204D040F286311D4800F0A3
:1016800043F9012C18D0802C16D0402C14D0202CDB
:1016900012D0102C10D0B4F5807F0DD0B4F5007F9F
:1016A0000AD0082C08D0042C06D0022C04D040F21A
:1016B0008731104800F028F9B4F5007F04D02B885A
:1016C0001C4212D1002038BD094B9D42F7D0A3F532
:1016D00074439D42F3D003F580639D42EFD040F206
:1016E0008B31044800F010F9E9E7012038BD00BF54
:1016F000003801406C72000838B505460C463C4B7A
:10170000984214D0A3F57443984210D003F5806337
:1017100098420CD003F58063984208D003F58063AB
:10172000984204D040F2D931324800F0EDF8282C2C
:1017300025D040F227739C4221D040F226639C4280
:101740001DD040F225539C4219D040F224439C42C4
:1017500015D040F646039C4211D040F66A139C42D5
:101760000DD0B4F5587F0AD0B4F5187F07D0B4F582
:10177000B07F04D040F2DA311E4800F0C5F840F6E0
:101780006A139C4217D0C4F3421204F01F010123D4
:101790008B40012A20D0022A22D0AA8A92B213407A
:1017A000240A012202FA04F42A8892B21440DBB11E
:1017B000E4B9002038BD0E4B9D42E4D0A3F574433C
:1017C0009D42E0D003F580639D42DCD040F2DE31E3
:1017D000084800F099F8D6E7AA8992B21340DFE7EB
:1017E0002A8A92B21340DBE7002038BD012038BDC1
:1017F000003801406C72000838B505460C46254B90
:10180000984214D0A3F57443984210D003F5806336
:1018100098420CD003F58063984208D003F58063AA
:10182000984204D040F222411B4800F06DF840F28B
:1018300026639C4210D040F225539C420CD040F6C7
:1018400046039C4208D040F66A139C4204D040F202
:101850002341114800F058F840F66A139C4207D023
:10186000240A0123A3409BB2DB439BB22B8038BDEB
:10187000084B9D42F4D0A3F574439D42F0D003F58C
:1018800080639D42ECD040F22741034800F03CF8D1
:10189000E6E700BF003801406C720008FEE7000078
:1018A00008B5034800F052F80120FFF7F7FF00BF2A
:1018B000A072000808B503460C4A12685AB10B4AD8
:1018C0001068033323F003030344094A934206D804
:1018D000064A136008BD0749044A1160EFE704F0A7
:1018E000E3FF0C2303604FF0FF3008BD0C01002024
:1018F00000BC0020B407002001230360014B0B60F3
:10190000704700BF1800002008B50A46014602488B
:1019100000F004F8FFF7C4FFB47200080FB400B57C
:1019200083B004AB53F8042B01938021064805F0E3
:101930000FF8002803DD0146034800F047F803B024
:101940005DF804EB04B070471401002010B50446A4
:1019500004F0B8FF0146204600F038F801210248A3
:1019600000F034F810BD00BFD08400082DE9F0432A
:1019700085B004460F4643560BB10E461EE00425C3
:1019800028462146ABBE0446384605B0BDE8F08384
:1019900014F9011B04AA1A4402F8101C0133AB42CB
:1019A000F6D304AA1344002203F8102CE9464FF0A2
:1019B000040840464946ABBE8046761B002EE3D065
:1019C0003546102E28BF10250023E8E708B5FFF79D
:1019D000CDFF08BD08B500F0FDF8024B024A9A6041
:1019E00008BD00BF00ED00E00000000808B500F0F1
:1019F00019F908BDF8B504460D4617461E46274896
:101A0000FFF78CFF21682648FFF788FF61682548AB
:101A1000FFF784FFA1682448FFF780FFE1682348AF
:101A2000FFF77CFF21692248FFF778FF61692148B1
:101A3000FFF774FFA1692048FFF770FFE1691F48B5
:101A4000FFF76CFF1E48FFF769FF29461D48FFF7A7
:101A500065FF1D4CE16A1D48FFF760FF216B1C48C4
:101A6000FFF75CFFE16B1B48FFF758FF15F0800F95
:101A70000AD115F4004F0CD11748FFF74FFF069914
:101A80001648FFF74BFFF8BD39461548FFF746FFEC
:101A9000EFE731461348FFF741FFEDE7E07200083A
:101AA000F07200080073000810730008207300082B
:101AB000307300084073000850730008607300081A
:101AC000707300087C73000800ED00E08C73000860
:101AD0009C730008AC730008DC730008E473000812
:101AE000BC730008CC73000883691A888A4201D04D
:101AF000002070470268033A012A03D80233836149
:101B0000012070470020704782B0002301930093AA
:101B10002C4A136843F4803313602A4B1B6803F488
:101B200000330093019B01330193009B1BB9019B80
:101B3000B3F5A06FF1D1234B1B6813F4003F06D01F
:101B400001230093009B012B04D002B070470023B7
:101B50000093F7E71C4B1A6842F010021A601A68EB
:101B600022F003021A601A6842F002021A60A3F51A
:101B700080535A685A605A685A605A6842F48062C0
:101B80005A605A6822F47C125A605A6842F4E81289
:101B90005A601A6842F080721A600A4B1B6813F090
:101BA000007FFAD0074B5A6822F003025A605A6845
:101BB00042F002025A60034B5B6803F00C03082BEF
:101BC000F9D1C2E7001002400020024008B5FFF73B
:101BD0009BFF08BD08B5104B1A6842F001021A605D
:101BE00059680E4A0A405A601A6822F0847222F438
:101BF00080321A601A6822F480221A605A6822F42D
:101C0000FE025A604FF41F029A60FFF7DFFF4FF0A9
:101C10000062034B9A6008BD001002400000FFF80C
:101C200000ED00E01F4B5B6803F00C03042B15D0A4
:101C3000082B17D01BB11C4A1C4B1A6002E01A4A31
:101C40001A4B1A60174B5B68C3F30313184AD35C33
:101C5000DAB216490B68D3400B607047124A134B37
:101C60001A60EFE70F4A53685268C3F383430233A5
:101C700012F4803F0AD00B4A526812F4003F0BD096
:101C80000C4A02FB03F3094A1360DBE7094A02FB33
:101C900003F3064A1360D5E7034A02FB03F3034A42
:101CA0001360CFE70010024000127A0030000020DD
:101CB0002000002000093D000146002302E0002230
:101CC000CA5401335F2BFAD960230B6600204866A3
:101CD0008866C866086770470131814201D00846AE
:101CE00070470021FBE738B50446456E006E85421B
:101CF00009DA0B46A16E6354FFF7EEFFA0660135CB
:101D00006566002038BD4FF0FF3038BDF8B5456E30
:101D1000002D0EDD0F460446C66E3146006EFFF7FD
:101D2000DBFFE066013D6566F6B2A35D3B70002017
:101D3000F8BD6FF00100F8BD2DE9F04D82B083468B
:101D40008846924600260027CDE90067002514E06A
:101D5000EC000BEB0403D3E90023DDE9000104F000
:101D600037F9CDE900014444D4E90023304639462F
:101D700004F02EF906460F4601355545E8D3504686
:101D800004F062FA04460D4602460B46DDE9000106
:101D900004F0FAFB074BC3E9000122462B4630460C
:101DA000394604F0F1FB044BC3E9000102B0BDE881
:101DB000F08D00BF98010020A00100202DE9F04720
:101DC000814688461746002546E0EC0009EB0406EC
:101DD0004444D4E90023D6E9000104F0ABFADFF86B
:101DE000A4A002460B46DAE9000104F0F1F8CAE9C2
:101DF0000001DFF888A0D6E90023DAE9000104F049
:101E0000E7F8CAE90001DFF880A0D4E90023DAE9A5
:101E1000000104F0DDF8CAE90001D6E9000102463C
:101E20000B4604F087FA134E02460B46D6E9000132
:101E300004F0CEF8C6E90001D4E9000102460B46E1
:101E400004F078FA0C4C02460B46D4E9000104F089
:101E5000BFF8C4E900010135BD42B6D3074BD3E951
:101E6000000102460B4604F065FA054BC3E9000188
:101E7000BDE8F087B0010020D0010020A8010020BB
:101E8000B8010020C0010020C80100202DE9F04F5A
:101E900083B007468A4616461D46FFF78FFF304639
:101EA00004F0D2F9CDE900012E4CD4E9002304F06E
:101EB00041FA804689462C4BD3E900232B49D1E9CE
:101EC000000104F037FA02460B464046494604F04A
:101ED0007DF880468946DFF8A8B0DBE90023DDE91C
:101EE000000104F027FA224BD3E9002304F06EF836
:101EF00002460B464046494604F046FBC5E9000150
:101F0000324651463846FFF717FF1A4BD3E90023F4
:101F1000D5E9000104F00EFA02460B461649D1E954
:101F2000000104F053F80C9BC3E90001D4E900015F
:101F300002460B4604F0FEF904460D460F4BD3E96A
:101F40000023DBE9000104F0F5F902460B462046C8
:101F5000294604F019FB0D9BC3E9000103B0BDE85D
:101F6000F08F00BFC0010020C8010020A8010020A0
:101F7000B801002098010020A0010020D00100201D
:101F8000B001002038B5D0E900450022154B2046AD
:101F9000294604F041FC08BB0022124B204629468A
:101FA00004F058FC40B100220F4B2046294604F0B3
:101FB00033FC08B1022038BD00220B4B20462946D5
:101FC00004F048FC08B9042038BD0022074B204625
:101FD000294604F021FC18B9042038BD012038BD81
:101FE000032038BD000024400000594000408F40CD
:101FF0002DE9F04F87B00446974B1A680092D3F84A
:102000000490964B19680191D3F80480944B196899
:1020100002915F68934B196803915E68924B19684F
:1020200004915D68914B19680591D3F804A0592378
:102030000380002200230098494604F0EDFB0028AD
:1020400040F0E78000236380DDF800B05846494641
:1020500004F00AFC04F0F8F802460B46CDF800B094
:102060005846494603F0B2FF79A3D3E9002304F0B0
:1020700061F904F0F9FB1FFA80FB0098494604F06F
:10208000F3FBA080A4F806B000220023019841468B
:1020900004F0C2FB002840F0C18000232381DDF85A
:1020A00004B05846414604F0DFFB04F0CDF8024688
:1020B0000B465846414603F089FF65A3D3E9002348
:1020C00004F038F904F0D0FB1FFA80F95846414675
:1020D00004F0CAFB6081A4F80C900022002302984F
:1020E000394604F099FB002840F09D800023E381ED
:1020F000DDF808904846394604F0B6FB04F0A4F831
:1021000002460B464846394603F060FF50A3D3E928
:10211000002304F00FF904F0A7FB1FFA80F84846EB
:10212000394604F0A1FB2082A4F81280002200238B
:102130000398314604F070FB002879D10023A38274
:10214000DDF80C804046314604F08EFB04F07CF84C
:1021500002460B464046314603F038FF3CA3D3E924
:10216000002304F0E7F804F07FFB87B240463146D5
:1021700004F07AFBE082278300220023049829469A
:1021800004F04AFB002858D100236383049F38469B
:10219000294604F069FB04F057F802460B4638461E
:1021A000294603F013FF2AA3D3E9002304F0C2F861
:1021B00004F05AFB86B23846294604F055FBA0834A
:1021C000E683002200230598514604F025FB0028F1
:1021D00038D100232384059E3046514604F044FB49
:1021E00004F032F802460B463046514603F0EEFE4C
:1021F00017A3D3E9002304F09DF804F035FB85B262
:102200003046514604F030FB6084A58407B0BDE839
:10221000F08F09F100490123638015E708F10048B8
:10222000012323813BE707F100470123E3815FE7B7
:1022300006F100460123A38282E705F10045012350
:102240006383A3E70AF1004A01232384C3E700BFA5
:10225000000000000088C340180600202806002067
:10226000380600201006002020060020300600203E
:10227000D0B50446408803F0E7FF06460F46A08825
:1022800003F0E2FF68A3D3E9002304F07DF90246DE
:102290000B462188002940F088803046394603F0FB
:1022A00097FE634BC3E90001208903F0CDFF06468A
:1022B0000F46608903F0C8FF5BA3D3E9002304F055
:1022C00063F902460B46E188002979D13046394648
:1022D00003F07EFE574BC3E90001E08903F0B4FF31
:1022E00006460F46208A03F0AFFF4FA3D3E9002331
:1022F00004F04AF902460B46A18900296BD1304609
:10230000394603F065FE4C4BC3E90001A08A03F097
:102310009BFF06460F46E08A03F096FF42A3D3E9EF
:10232000002304F031F902460B46618A00295DD191
:102330003046394603F04CFE404BC3E90001608B48
:1023400003F082FF06460F46A08B03F07DFF36A305
:10235000D3E9002304F018F902460B46218B00292B
:102360004FD13046394603F033FE354BC3E9000107
:10237000208C03F069FF06460F46608C03F064FF73
:1023800029A3D3E9002304F0FFF802460B46E18BB2
:10239000002941D03046394603F01AFE024601F1C9
:1023A00000432849C1E90023D0BD3046394603F037
:1023B0000FFE024601F100431D49C1E9002373E706
:1023C0003046394603F004FE024601F10043194944
:1023D000C1E9002381E73046394603F0F9FD0246A2
:1023E00001F100431449C1E900238FE73046394623
:1023F00003F0EEFD024601F100431049C1E900235C
:102400009DE73046394603F0E3FD024601F1004303
:102410000B49C1E90023ABE73046394603F0D8FD4C
:10242000084BC3E90001D0BD000000000088C34094
:10243000180600202806002038060020100600207C
:10244000200600203006002010B58AB02822002186
:10245000684604F02FFA6846FFF7CAFD1422694661
:10246000064800F03FF8044610B920460AB010BDF7
:1024700059221021024800F0E7FAF6E7004006086A
:102480002874000800B58BB028220021684604F0AB
:1024900011FA14226946084800F013F8BDF800301C
:1024A000592B03D000200BB05DF804FB0DF10200A6
:1024B000FFF7DEFE0120F6E700400608008880B244
:1024C0007047F8B507460E461546002407E007EBAF
:1024D0004400FFF7F3FF26F814000134A4B2AC4225
:1024E000F5D3F8BDB0F1006F25D3F8B500F178430E
:1024F000DB0A03F58033DC0200EB42050F4B9D4203
:1025000001D90020F8BD16460F460546FEF70EF825
:102510002046FEF749F8002407E037F8141005EBD1
:102520004400FEF771F80134A4B2A642F5D8FEF7D4
:1025300009F80120F8BD0020704700BFFFFF070821
:1025400010B584B001210846FEF78EFB4FF4FA6304
:10255000ADF808304723ADF804300024ADF80A4048
:10256000ADF8064001A94FF08040FEF7F7FB0121CE
:102570004FF08040FEF770FD012211464FF0804081
:10258000FEF7FEFC01214FF08040FEF795FC21464E
:102590000120FEF769FB04B010BD00B583B04FF415
:1025A000E060FDF755FF1C238DF8043001238DF802
:1025B00005308DF806308DF8073001A8FDF768FF6B
:1025C00003B05DF804FB08B5FFF7BAFFFFF7E5FFBE
:1025D00001210846FEF748FB08BD000008B50221AE
:1025E0001648FEF7D5F8B8B9154A136801331360D9
:1025F000134B1B68142B04D90023114A1360114A92
:102600001370114B1B68142B05D900220E4B1A6056
:1026100001220C4B1A7008BD08210848FEF7B8F8D3
:102620000028E1D004210548FEF7B2F80028DBD0ED
:10263000054A136801331360DAE700BF0010014058
:10264000000600209D0000204006002008B5012162
:102650004FF08040FEF75CFD00B3204B1B6833B9A0
:102660001F4A136801331360B3F5FA7F17D01D4B6F
:102670001B682BB91C4A136801331360642B15D0F7
:102680001A4B1B68012B18D00022194B1A60FFF758
:10269000A5FF01214FF08040FEF7AAFD08BD0022F2
:1026A0000F4B1A6001220D4B1A60E0E701220D4B1F
:1026B0001A6000220C4B1A60E2E70D4B1B680D4AB2
:1026C0001268934203D20133094A1360DFE7002204
:1026D000064B1A600122084B1A60D8E7F00100206F
:1026E000D801002004060020DC010020EC010020BD
:1026F000E4010020E0010020E801002030B583B0B3
:1027000001210420FEF78AFA0425ADF804501823AD
:102710008DF8073003238DF80630094C0DEB0501C9
:102720002046FDF79DFF0823ADF804308DF80750D3
:102730000DEB05012046FDF793FF03B030BD00BF50
:102740000008014010B582B001210420FEF766FAAE
:102750004FF40073ADF8043018238DF807300323CD
:102760008DF80630094C01A92046FDF779FF4FF49A
:102770008063ADF8043004238DF807300DEB0301BE
:102780002046FDF76DFF02B010BD00BF00080140FC
:1027900010B582B001210820FEF740FA4FF48063A3
:1027A000ADF8043018238DF8073003238DF8063078
:1027B000094C01A92046FDF753FF4FF40063ADF823
:1027C000043004238DF807300DEB03012046FDF79C
:1027D00047FF02B010BD00BF000C014000B583B040
:1027E0004FF4E060FDF734FE26238DF8043000231B
:1027F0008DF805308DF8063001238DF8073001A8DB
:10280000FDF746FE03B05DF804FB000010B584B090
:10281000FFF774FF01214FF40030FEF725FA4FF463
:10282000965300930023ADF80430ADF806304FF412
:102830008062ADF808200C22ADF80A20ADF80C300B
:10284000094C69462046FEF72FFD012240F2255132
:102850002046FEF735FEFFF7C1FF01212046FEF7B7
:10286000FBFD04B010BD00BF0044004000B583B0C4
:102870004FF4E060FDF7ECFD25238DF804300223D2
:102880008DF8053003238DF8063001238DF80730CD
:1028900001A8FDF7FDFD03B05DF804FB10B584B0A1
:1028A000FFF750FF01214FF48040FEF7B7F94FF4D6
:1028B000165300930023ADF80430ADF80630ADF8A0
:1028C00008300C22ADF80A20ADF80C30094C6946EE
:1028D0002046FEF7E9FC012240F225512046FEF792
:1028E000EFFDFFF7C3FF01212046FEF7B5FD04B061
:1028F00010BD00BF0038014000B583B04FF4E06068
:10290000FDF7A6FD27238DF8043002238DF805304E
:1029100004238DF8063001238DF8073001A8FDF758
:10292000B7FD03B05DF804FB10B584B0FFF730FFCE
:1029300001214FF48020FEF797F94FF416530093CE
:102940000023ADF80430ADF80630ADF808300C22A5
:10295000ADF80A20ADF80C30094C69462046FEF768
:10296000A3FC012240F225512046FEF7A9FDFFF706
:10297000C3FF01212046FEF76FFD04B010BD00BF6C
:102980000048004070B506460D4600240AE0315D5F
:102990000648FEF70DFE80210448FEF757FE00288A
:1029A000F9D00134AC42F2D370BD00BF0048004002
:1029B00010B582B001211020FEF730F94FF480638A
:1029C000ADF8043018238DF8073003238DF8063056
:1029D000094C01A92046FDF743FE4FF40063ADF812
:1029E000043004238DF807300DEB03012046FDF77A
:1029F00037FE02B010BD00BF0010014010B584B01A
:102A0000FFF7D6FF01214FF40020FEF72DF94FF418
:102A1000165300930023ADF80430ADF80630ADF83E
:102A200008300C22ADF80A20ADF80C30054C694690
:102A30002046FEF739FC01212046FEF70DFD04B0CB
:102A400010BD00BF004C0040592A00D0704770B53F
:102A50000D46064600240AE0315D0648FEF7A8FD53
:102A600080210448FEF7F2FD0028F9D00134AC4281
:102A7000F2D370BD004C00402DE9F04383B0064610
:102A8000894617461D4600248DF80740ADF80440DE
:102A90002346A0461BE05A2B3AD19DF8042089F822
:102AA000002089F801304446A84631E09DF80730FF
:102AB00009F80430013400232D4A13602D4A1360B5
:102AC00085BB0A222C4B1A602B46012B45D0726E17
:102AD000002A38DDBC4247D00DF107013046FFF730
:102AE00015F90028E7D1002DE0D19DF8073009F84D
:102AF000043003F11002D2B20E2A03D9552B01D0B3
:102B0000AA2B02D18DF80430A846B8F1010FC2D02B
:102B1000013408F10108182CCDD199F80030552B5B
:102B2000C9D121E0012D03D0022D07D00023CCE72D
:102B30004FF47A72104B1A600023C6E764220E4BE2
:102B40001A600023C1E7002BBFD10121084A1160A0
:102B500000210A4A11600133B7E7064A1268012AC8
:102B6000B5D10022034B1A60204603B0BDE8F083C4
:102B7000EC010020E8010020E0010020E401002039
:102B800010B540F225510948FEF7B6FD00B910BD59
:102B9000064C40F225512046FEF72EFE2046FEF759
:102BA00033FDC1B20248FFF79EF8F0E7003801405C
:102BB0003807002010B540F225510948FEF79CFD6A
:102BC00000B910BD064C40F225512046FEF714FE18
:102BD0002046FEF719FDC1B20248FFF784F8F0E77E
:102BE000004400405006002010B540F2255109482D
:102BF000FEF782FD00B910BD064C40F2255120467B
:102C0000FEF7FAFD2046FEF7FFFCC1B20248FFF7CF
:102C10006AF8F0E700480040C406002010B540F212
:102C200025510948FEF768FD00B910BD064C40F279
:102C300025512046FEF7E0FD2046FEF7E5FCC1B237
:102C40000248FFF750F8F0E7004C0040380700203A
:102C5000034638B1002001E0013001331A78002A20
:102C6000FAD170470020704770B4002403E0651863
:102C7000165D465501349C42F9D370BC7047000084
:102C80002DE9F84306460F4690461D469DF82090D4
:102C900003F0EAFD012211E0A91A214BA3FB004336
:102CA000DB0803EB83035C00031B303308F80130BF
:102CB0001B4BA3FB0030C0080132D2B2AA4206D897
:102CC0000028E9D1AB1A302108F80310F0E7B9F178
:102CD000000F23D02E2308F80530012417E000222E
:102CE000104B3046394603F025FB06460F4603F0ED
:102CF000BBFD29190A4BA3FB0023DB0803EB83036D
:102D00005A00831A303308F801300134E4B24C45DC
:102D1000E5D94D440135002308F80530BDE8F883B6
:102D2000CDCCCCCC000024400B09092B08D8303383
:102D3000037001F00F01092905D93731417070473F
:102D400037330370F5E73031417070472DE9F047B4
:102D500082B081460D4690460024444504D22B5D46
:102D60002E2B28D00134F8E7002600274FF0000A68
:102D700010E015F80A00303803F076FA32463B4688
:102D800003F026F900222D4B03F0D4FA06460F4635
:102D90000AF1010A5445ECD80022284B3046394646
:102DA00003F0F2FBCDE90001B8EB040A08D00134CE
:102DB0000026002718E0002600274FF0000AE9E768
:102DC00003460C46C9E9003433E0285D303803F08F
:102DD0004BFA32463B4603F0FBF80022174B03F058
:102DE000A9FA06460F4601344445EED30022134BA0
:102DF0003046394603F0C8FB04460D460020104912
:102E0000002604E000220D4B03F094FA01360AF18B
:102E1000FF339E42F6D302460B462046294603F076
:102E2000B3FB02460B46DDE9000103F0D1F8C9E926
:102E30000001012002B0BDE8F08700BF000024407F
:102E40000000F03F00B583B001210820FDF7E6FE49
:102E50004FF45073ADF8043003238DF8063010237F
:102E60008DF8073001A90348FDF7FAFB03B05DF8C0
:102E700004FB00BF000C014000B583B04FF40073A9
:102E8000ADF8043003238DF8063010238DF8073099
:102E900001A90348FDF7E4FB03B05DF804FB00BFA4
:102EA000000C014000B583B04FF40073ADF804305E
:102EB00003238DF8063048238DF8073001A9034815
:102EC000FDF7CEFB03B05DF804FB00BF000C014032
:102ED00010B50B4C4FF400712046FDF7B5FC4FF4D4
:102EE00080712046FDF7B0FC4FF400712046FDF7DD
:102EF000DBFC4FF480712046FDF7D6FC10BD00BF0F
:102F0000000C014010B5084C4FF480712046FDF7CD
:102F10009BFC4FF400712046FDF7C6FC4FF4007196
:102F20002046FDF791FC10BD000C014010B5FFF7E5
:102F3000B9FF4FF480710E48FDF786FC42F2107322
:102F40005C1E002B11DD4FF400710948FDF720FCD9
:102F5000234604460028F3D14FF480710448FDF75E
:102F6000A3FCFFF789FF204610BD0124FBE700BF4B
:102F7000000C014070B50546012383F31088FFF76C
:102F80007BFF002413E04FF400711348FDF75CFC55
:102F9000114E4FF480713046FDF756FC4FF48071AE
:102FA0003046FDF781FC6D00EDB20134E4B2072C30
:102FB0000DD84FF480710848FDF776FC15F0800FAE
:102FC000E1D14FF400710448FDF76EFCE0E7002307
:102FD00083F3108870BD00BF000C014010B504469B
:102FE000FFF776FF7820FFF7C5FFFFF79FFF68B96F
:102FF0000020FFF7BFFFFFF799FF70B159220F21A3
:103000000E48FFF721FD0224204610BD59220F2152
:103010000B48FFF719FD0124F6E72046FFF7AAFF4A
:10302000FFF784FF044630B1592210210548FFF70D
:103030000BFD0324E8E7FFF765FFE5E7A88100083B
:1030400098810008B8810008F8B506460D46FFF7DC
:103050003FFF7820FFF78EFFFFF768FF90B9402011
:10306000FFF788FFFFF762FF074698B90446AC42B6
:103070001ED2305DFFF77EFFFFF758FF88B901349D
:10308000E4B2F4E7592211210B48FFF7DDFC0127D8
:103090003846F8BD59220F210848FFF7D5FC022712
:1030A000F6E759220F210648FFF7CEFC0327EFE78A
:1030B000FFF728FFECE700BFCC810008E0810008A3
:1030C000F081000810B504465039C8B2FFF786FFFA
:1030D000200940F01000FFF781FF0120FFF77EFF7D
:1030E000002010BD10B500240BE021460020FFF7A2
:1030F000E9FF8021044800EBC410FFF7A5FF01346D
:10310000E4B2072CF1D910BDF401002008B530B1AC
:10311000FF214FF48062034803F0CCFB08BD00217F
:10312000F7E700BFF401002008B5064B1B78834287
:1031300006D0044B18700020FFF7E8FFFFF7D2FF1E
:1031400008BD00BFF405002010B5FFF77BFE324C30
:1031500040212046FDF7A8FB40212046FDF774FBE7
:1031600059220C212D48FFF76FFCAE20FFF736FFE8
:10317000D520FFF733FF8020FFF730FFA820FFF7AF
:103180002DFF3F20FFF72AFFD320FFF727FF002066
:10319000FFF724FF4020FFF721FF8D20FFF71EFFE0
:1031A0001420FFF71BFFA120FFF718FFC820FFF72F
:1031B00015FFDA20FFF712FF1220FFF70FFF812023
:1031C000FFF70CFFCF20FFF709FFD920FFF706FF1D
:1031D000F120FFF703FFDB20FFF700FF4020FFF7A0
:1031E000FDFEA420FFF7FAFEA620FFF7F7FE002061
:1031F000FFF78CFFFFF776FFAF20FFF7EFFE084BDE
:1032000000221A805A8001245C7159220E2105483F
:10321000FFF71AFC204610BD000C01400082000898
:10322000F805002010820008014B18805980704773
:10323000F80500207F2815D83F2913D8104B1B799B
:1032400013B1B2FA82F25209012A0CD0CB0800EB7A
:10325000C31001F0070101238B400A4A115C21EAE7
:10326000030111547047CB0800EBC31001F00701B4
:1032700001238B40034A115C19431154704700BF6E
:10328000F8050020F40100202DE9F843234B1B88AA
:103290000C7823447F2B3BDC204B5B884C78234409
:1032A0003F2B38DC90460E46814600251CE01B4B28
:1032B00018885988B8FA88F2520929442044FFF73F
:1032C000B9FF013433789C420DD207FA04F313F4AA
:1032D000004FECD0114B18885988424629442044AD
:1032E000FFF7A8FFEDE701357278954208D27168C3
:1032F000A9F1200302FB035331F813700024E1E726
:103300003378064A11880B4413804846BDE8F88399
:103310000020BDE8F8830020BDE8F883F805002010
:1033200070B514461D469DF810601B7803FB00F035
:103330006B7803FB01F101310130FFF775FF207855
:1033400040B132462946FFF79FFF2378984204D1C7
:103350000134F4E7FFF7C6FE2378184670BD00007D
:103360002DE9F04391B0CDE90401CDE90223002419
:103370000D940E94ADF83C400A940B94ADF8304097
:1033800007940894ADF824400420FFF7CDFE344E96
:10339000012500953346334A21462046FFF7C0FFFA
:1033A00000953346304A29462046FFF7B9FF00957D
:1033B00033462E4A02212046FFF7B2FF00953346DE
:1033C0002B4A21460A20FFF7ABFF00953346294AD6
:1033D00029460A20FFF7A4FF00953346264A02211A
:1033E0000A20FFF79DFF10A870E90C89FEF7CAFDBF
:1033F00002270097C3B20DAA40464946FFF740FC9A
:10340000009533460DAA21460320FFF789FF10A837
:1034100070E90E89FEF7B6FD0097C3B20AAA4046CE
:103420004946FFF72DFC009533460AAA294603209A
:10343000FFF776FFDDE9188918A8FEF7A3FD0097CE
:10344000C3B207AA40464946FFF71AFC0095334627
:1034500007AA39460320FFF763FF11B0BDE8F083E8
:1034600034000020F4820008F8820008FC82000882
:103470000083000804830008F082000830B583B0A0
:103480000720FFF751FE094D012400942B46084AFE
:1034900000210846FFF744FF00942B46054A2146C9
:1034A0000020FFF73DFF03B030BD00BF3400002017
:1034B0008C8200089482000830B583B00620FFF7A4
:1034C00033FE134D012400942B46124A0021084676
:1034D000FFF726FF00942B460F4A21460020FFF7F6
:1034E0001FFF00942B460D4A02210020FFF718FF12
:1034F00000942B460A4A02210A20FFF711FF00948C
:103500002B46084A02210520FFF70AFF03B030BD11
:1035100034000020A0820008A8820008B4820008BD
:10352000BC820008C082000830B583B00520FFF7D8
:10353000FBFD134D012400942B46124A002108463E
:10354000FFF7EEFE00942B460F4A21460020FFF7BE
:10355000E7FE00942B460D4A02210020FFF7E0FE13
:1035600000942B460A4A02210A20FFF7D9FE009454
:103570002B46084A02210520FFF7D2FE03B030BDDA
:10358000340000206C820008A8820008B482000881
:10359000BC820008C082000830B583B00320FFF76A
:1035A000C3FD0C4D012400942B460B4A0021084614
:1035B000FFF7B6FE00942B46084A21460020FFF78D
:1035C000AFFE00942B46064A02210020FFF7A8FE1A
:1035D00003B030BD34000020D0820008DC82000837
:1035E000E882000830B583B00820FFF79DFD094D43
:1035F000012400942B46084A00210846FFF790FE5C
:1036000000942B46054A21460020FFF789FE03B0AF
:1036100030BD00BF3400002040820008C482000892
:1036200030B583B00A20FFF77FFD0C4D01240094D4
:103630002B460B4A00210846FFF772FE00942B46EA
:10364000084A21460020FFF76BFE00942B46064AED
:1036500002210020FFF764FE03B030BD34000020DB
:103660002C830008388300084083000830B583B0FD
:103670000A20FFF759FD0C4D012400942B460B4AFC
:1036800000210846FFF74CFE00942B46084A2146CD
:103690000020FFF745FE00942B46064A0221002039
:1036A000FFF73EFE03B030BD340000202C8300083D
:1036B000388300082083000830B583B00B20FFF763
:1036C00033FD0C4D012400942B460B4A0021084683
:1036D000FFF726FE00942B46084A21460020FFF7FC
:1036E0001FFE00942B46064A02210020FFF718FE19
:1036F00003B030BD34000020088300083883000880
:103700001483000830B583B00C20FFF70DFD0C4D7D
:10371000012400942B460B4A00210846FFF700FEC7
:1037200000942B46084A21460020FFF7F9FD00943B
:103730002B46064A02210020FFF7F2FD03B030BD00
:103740003400002008830008388300084083000804
:1037500030B583B00D20FFF7E7FC0C4D0124009439
:103760002B460B4A00210846FFF7DAFD00942B4652
:10377000084A21460020FFF7D3FD00942B46064A55
:1037800002210020FFF7CCFD03B030BD3400002043
:1037900008830008748200088082000830B583B076
:1037A0000E20FFF7C1FC0C4D012400942B460B4A60
:1037B00000210846FFF7B4FD00942B46084A214635
:1037C0000020FFF7ADFD00942B46064A02210020A1
:1037D000FFF7A6FD03B030BD3400002008830008C9
:1037E00074820008608200082DE9F04391B0CDE9B1
:1037F0000401CDE9022300230D930E93ADF83C3074
:103800000A930B93ADF8303007930893ADF824304A
:103810000920FFF789FC049D059C0022002328460F
:10382000214602F0F9FF002862D14FF00409029D01
:10383000039C3FA3D3E900232846214602F0ECFF76
:10384000002865D14FF0040810A870E90C67FEF756
:1038500099FB03240094C3B20DAA30463946FFF702
:103860000FFA10A870E90E67FEF78CFB0094C3B244
:103870000AAA30463946FFF703FADDE9186718A8A7
:10388000FEF780FB0094C3B207AA30463946FFF723
:10389000F7F9294D012400942B46284A00210846B7
:1038A000FFF73EFD00942B46254A21460020FFF7F6
:1038B00037FD00942B46234A02210020FFF730FDFC
:1038C00000942B460DAA00214846FFF729FD0094DD
:1038D0002B460AAA21464046FFF722FD00942B46BC
:1038E00007AA02210420FFF71BFD11B0BDE8F083F9
:1038F0002A4604F10043CDE90423012300930E4B33
:10390000114A00210846FFF70BFD4FF005098EE72D
:103910002A4604F10043CDE9022301210091064B20
:10392000094A0420FFF7FCFC4FF005088CE700BFB4
:10393000F168E388B5F8E43E3400002028820008EE
:1039400030820008388200082482000810B584B054
:1039500004460023ADF80C308DF80E3064281AD0E0
:10396000092C21D9164BA3FB0423DB0803F13002F9
:103970008DF80C2003EB83035A00A21A30328DF825
:103980000D20012300930F4B03AA02210520FFF70E
:10399000C7FC04B010BD012300930A4B0A4A022160
:1039A0000520FFF7BDFCDBE7303404AA02F8044D24
:1039B00001230093034B02210520FFF7B1FCE8E748
:1039C000CDCCCCCC340000202082000808B5FCF718
:1039D0009BFF4FF48030FCF7B7FFFDF7A5F9124BC2
:1039E0001870A8B94FF4E0114FF48030FCF7DAFFFB
:1039F0000120FDF723F83920FDF75CF90028FAD003
:103A00000220FDF72BF8FDF73FF80828FBD108BD91
:103A10000020FDF741F80020FDF782F84FF48060A8
:103A2000FDF75EF8DEE700BFAC07002000B583B00D
:103A3000ADF8041003238DF8063010238DF80730FD
:103A400001A9FCF70DFE03B05DF804FB70B5012180
:103A50000420FDF7E3F801210820FDF7DFF801213C
:103A60001020FDF7DBF8244C4FF480712046FFF75F
:103A7000DDFF224E80213046FFF7D8FF402130463F
:103A8000FFF7D4FF1E4D4FF400412846FFF7CEFF4D
:103A90004FF480412846FFF7C9FF4FF400512846F4
:103AA000FFF7C4FF4FF480512846FFF7BFFF022104
:103AB0002846FFF7BBFF01212846FFF7B7FF20216B
:103AC0003046FFF7B3FF10213046FFF7AFFF8021EC
:103AD0002046FFF7ABFF40212046FFF7A7FF20213C
:103AE0002046FFF7A3FF10212046FFF79FFF02218A
:103AF0002046FFF79BFF70BD000801400010014009
:103B0000000C014070B582B001211020FDF786F84D
:103B10000123ADF8043003258DF8065010238DF8ED
:103B20000730154C01A92046FCF79AFD0223ADF899
:103B300004308DF8065048268DF8076001A920460C
:103B4000FCF78EFD0423ADF804308DF806508DF897
:103B500007600DEB03012046FCF782FD0823ADF85A
:103B600004308DF806508DF8076001A92046FCF757
:103B700077FD02B070BD00BF0010014010B4C47DDD
:103B8000182902D0002010BC70470378552B01D0B3
:103B90001846F8E7037D03F070026F2A02DD022366
:103BA000002204E01846EEE7C15C0A440133162BFC
:103BB000FAD9D2B2944201D00020E4E70120E2E732
:103BC0002DE9F04F8BB080460F461646002407942F
:103BD0000894ADF8244004940594ADF8184001947D
:103BE0000294ADF80C4069238DF8033076238DF8EC
:103BF000023070238DF80130A1462546022D3CD8B5
:103C00007548FEF759F87548FEF756F801210DF191
:103C10000300FEF7B7FE0022714B1A6064230A22EC
:103C200001A96E48FEF728FF044602280FD86C4B06
:103C30001B68012BF2D109F101095FFA89F9B9F189
:103C4000020F00F2BB800022654B1A60E6E75922A2
:103C50000C216448FEF7F8FE5922214601A8FEF720
:103C6000F3FE592202216048FEF7EEFE2CB9022D28
:103C700000F0A9800135EDB2C0E74FF00009CA4657
:103C80004D46BAF1020F3FD85348FEF715F801210F
:103C90000DF10200FEF776FE0022514B1A606423FC
:103CA0000A2204A94D48FEF7E7FE054602280ED871
:103CB0004B4B1B68012BF2D109F101095FFA89F91D
:103CC000B9F1020F7CD80022454B1A60E7E7592270
:103CD000014604A8FEF7B8FE59220C214348FEF71E
:103CE000B3FE5922294604A8FEF7AEFE592202214E
:103CF0003D48FEF7A9FE3DB9BAF1020F62D00AF1C4
:103D0000010A5FFA8AFABCE74FF0000AD346D146AF
:103D1000BBF1020F41D83048FDF7CEFF01210DEB7A
:103D20000100FEF72FFE00222D4B1A6064230A22A9
:103D300007A92A48FEF7A0FE814602280ED8284B84
:103D40001B68012BF2D10AF1010A5FFA8AFABAF173
:103D5000020F3CD80022224B1A60E7E759220146A5
:103D600007A8FEF771FE59220C212148FEF76CFED0
:103D70005922494607A8FEF767FE592202211A4830
:103D8000FEF762FEB9F1000F07D1BBF1020F20D0A0
:103D90000BF1010B5FFA8BFBBAE74A4607A94046D5
:103DA000FEF7D4FF2A4604A93846FEF7CFFF224685
:103DB00001A93046FEF7CAFF012404E0002402E016
:103DC000002400E02C4620460BB0BDE8F08F002414
:103DD000F9E74C46F7E700BF38070020C40600208B
:103DE000F0010020F4830008048600080484000821
:103DF000148400082DE9F04F83B08346924699461B
:103E0000FFF7BCFE012803D0C0B203B0BDE8F08FBD
:103E10009BF80E009BF80F3043EA00239BF810003C
:103E20009BF802209BF8037047EA02229BF804707B
:103E300047EA02279BF808209BF8095045EA02222E
:103E40009BF80A5045EA02259BF811209BF8128046
:103E500048EA02229BF8138048EA02289BF80520D2
:103E60009BF8066046EA02229BF8076046EA0226B3
:103E70009BF80B209BF80C4044EA02229BF80D4073
:103E800044EA022440EA032002F0DEF9CDE9000111
:103E9000404602F0D9F902460B46DDE9000102F086
:103EA00073FBCAE90001384602F0CEF982468B4620
:103EB000304602F0C9F902460B465046594602F018
:103EC00063FBC9E90001284602F0BEF906460F4629
:103ED000204602F0B9F902460B463046394602F058
:103EE00053FB0C9BC3E9000101208EE770B588B03D
:103EF00016461D4600220023CDE90623CDE9042302
:103F0000CDE9022302AB009304AB06AAFFF772FFD0
:103F10000446012802D0204608B070BD104BD3E9FA
:103F20000023DDE9060102F005FA0E4BD3E9002378
:103F300002F04EF8C6E900010B4BD3E90023DDE99E
:103F4000020102F0F7F9094BD3E9002302F040F82F
:103F50000C9BC3E90001DDE90423C5E90023DAE78E
:103F60001806002028060020100600202006002049
:103F700030B593B000230F931093ADF84430B84B95
:103F8000D3E90023CDE90C23B64BD3E90023CDE9D7
:103F90000A23B54BD3E90023CDE90823B34BD3E97A
:103FA0000023CDE90623B24BD3E90023CDE9042356
:103FB000B04BD3E90023CDE9022359220421AE48B6
:103FC000FEF742FD0C9D0D9C002200232846214651
:103FD00002F040FC002800F0D0800CA8FDF7D2FFD2
:103FE00004230093C3B20FAA28462146FEF748FED9
:103FF000592206210FA8FEF727FD592202219F48CA
:10400000FEF722FD592204219D48FEF71DFD0A9D61
:104010000B9C002200232846214602F01BFC0028AE
:1040200000F0C2800AA8FDF7ADFF04230093C3B2DD
:104030000FAA28462146FEF723FE592206210FA883
:10404000FEF702FD592202218C48FEF7FDFC5922A1
:1040500004218C48FEF7F8FC089D099C00220023EF
:104060002846214602F0F6FB002800F0B48008A89C
:10407000FDF788FF04230093C3B20FAA2846214608
:10408000FEF7FEFD592206210FA8FEF7DDFC59229E
:1040900002217A48FEF7D8FC592204217A48FEF71B
:1040A000D3FC069D079C002200232846214602F0EF
:1040B000D1FB002800F0A68006A8FDF763FF0423CB
:1040C0000093C3B20FAA28462146FEF7D9FD592214
:1040D00006210FA8FEF7B8FC592202216748FEF717
:1040E000B3FC592204216948FEF7AEFC049D059CEF
:1040F000002200232846214602F0ACFB002800F0F5
:10410000988004A8FDF73EFF04230093C3B20FAAD2
:1041100028462146FEF7B4FD592206210FA8FEF7D6
:1041200093FC592202215548FEF78EFC59220421A6
:104130005748FEF789FC029D039C00220023284675
:10414000214602F087FB002800F0A68002A8FDF7B8
:1041500019FF04230093C3B20FAA28462146FEF795
:104160008FFD592206210FA8FEF76EFC592202216D
:104170004248FEF769FC13B030BD04F100442A4602
:10418000234612A860E90623FDF7FCFE04230093F2
:10419000C3B20FAA28462146FEF772FD592201211B
:1041A0003C48FEF751FC23E704F100442A4623462D
:1041B00012A860E90823FDF7E5FE04230093C3B2CB
:1041C0000FAA28462146FEF75BFD592201213148FE
:1041D000FEF73AFC31E704F100442A46234612A8D0
:1041E00060E90A23FDF7CEFE04230093C3B20FAAB1
:1041F00028462146FEF744FD592201212548FEF7B5
:1042000023FC3FE704F100442A46234612A860E954
:104210000C23FDF7B7FE04230093C3B20FAA284670
:104220002146FEF72DFD592201211A48FEF70CFC0C
:104230004DE704F100442A46234612A860E90E2304
:10424000FDF7A0FE04230093C3B20FAA284621461F
:10425000FEF716FD592201210E48FEF7F5FB5BE73C
:10426000180600202806002038060020100600202E
:10427000200600203006002028820008048600085E
:104280003082000838820008DC830008E4830008DC
:10429000EC8300082482000804F100442A462346E7
:1042A00012A860E91023FDF76DFE04230093C3B24A
:1042B0000FAA28462146FEF7E3FC592201210248B5
:1042C000FEF7C2FB4DE700BF2482000830B585B081
:1042D00000238DF80F30374B1B78374A1278934202
:1042E0001CD003B3334B1A78334B1A70334D2B78F1
:1042F000303304AC04F8013D592205213048FEF763
:10430000A3FB592201212046FEF79EFB59220221E0
:104310002C48FEF799FB2B78002B3FD02A48FDF75D
:10432000CBFC05B030BD02212848FCF731FA68B952
:10433000274B1B78012B21D001212448FCF7B4FA2C
:10434000FFF716FE224A1378DB43137008211F483B
:10435000FCF71EFA28B9194B1B78BBB10022174B8A
:104360001A7004211948FCF713FA0028BAD1134B2C
:104370001B787BB10022114B1A70B3E7012100F1C9
:10438000804000F58830FCF75FFAD9E701220B4B3B
:104390001A70E6E70222094B1A70A3E70F20FEF716
:1043A000C3FE00200021CDE9000102460B46FEF7C6
:1043B000D7FFB3E79D0000209C00002008060020E6
:1043C0009085000804860008500600200010014077
:1043D0009E000020012919D003291AD006291BD0DC
:1043E0000C291DD014291ED0322922D0462923D0D1
:1043F000642928D0AA292AD0B1F5FA7F2FD0B1F5A7
:10440000167F2FD0B1F57A7F31D07047012303702A
:1044100070470123437070470123837043707047D6
:104420000123C37070470123C3708370437003700E
:10443000704701230371704701230371C3708370B8
:104440004370037070470123037143717047012368
:1044500043710371C370837043700370704701230D
:104460008371704701238371437103717047012386
:104470008371C371C9E7000038B50546002409E01F
:104480000C4B33F814100C4B53F82400FCF7DCF9F8
:104490000134E4B20F2C0BD82B5D002BF0D1054B6F
:1044A00033F81410044B53F82400FCF7FDF9EFE740
:1044B00038BD00BF7C0000203C000020092918D92D
:1044C000002301E00133DBB2994210D9C25C0D2A0E
:1044D000F8D00A2AF6D02C2AF4D04F2AF2D04B2A50
:1044E000F0D0303AD2B2092AECD90020704701202E
:1044F00070470020704700002DE9F04190B004465D
:104500000D461746984600230D930E93ADF83C30A8
:104510000A930B93ADF8303007930893ADF824302D
:1045200000220023CDE90423CDE90223CDE90023B5
:1045300059221E216248FEF787FA59220921614853
:10454000FEF782FA592229462046FEF77DFA5922C3
:1045500010215D48FEF778FA29462046FFF7AEFFA6
:10456000002800F0AA800023E25C303AD2B2092A87
:104570002FD90133DBB2F7E7721CD6B2002203E079
:10458000012E15D0022E1CD00133DBB29D4223D95F
:10459000E018E15C4B291FD02C29EDD0002EEFD183
:1045A0000DF1400E96440EF80C1C0132D2B2E7E732
:1045B00090F800E010A9114401F824EC0132D2B2C5
:1045C000E0E7007810A9114401F8180C511CCAB298
:1045D000DAE700221646D9E7592210213B48FEF7B8
:1045E00033FA592217213A48FEF72EFA0DA8FEF7A2
:1045F0002FFB592201460DA8FEF726FA354C592209
:1046000002212046FEF720FA0DA8FEF721FB024604
:104610000DA904A8FEF79AFB0AA8FEF719FB592278
:1046200001460AA8FEF710FA592202212046FEF799
:104630000BFA0AA8FEF70CFBC21E0AA902A8FEF795
:1046400085FB07A8FEF704FB5922014607A8FEF7E1
:10465000FBF9592202212046FEF7F6F907A8FEF7DA
:10466000F7FA024607A96846FEF770FB59221621A1
:104670001948FEF7E9F90022184BDDE9040101F0C1
:1046800083FFC7E900010022144BDDE9020101F0BC
:104690007BFFC8E900010022104BDDE9000101F0B9
:1046A00073FF169BC3E9000159221F210C48FEF736
:1046B000CBF9012010B0BDE8F0810020FAE700BF7F
:1046C000248400084484000850840008648400089E
:1046D00074840008048600088C84000800408F4021
:1046E000A48400082DE9F04FB5B006469146049227
:1046F00098460593DDF8F8A03F9DDDF800B1419C98
:1047000042990391439FBE4B0DF19C0E0FCBAEE837
:1047100007008EF80030252200210DF1A90002F0DB
:10472000C9F8002324932593ADF898302193229360
:10473000ADF88C301E931F93ADF880301B931C9303
:10474000ADF8743018931993ADF8683030228DF8B5
:10475000602015931693ADF85C304A464346CDE988
:10476000122352462B46CDE910235A462346CDE963
:104770000E23039A3B46CDE90C23012E00F02C8238
:10478000002200230498059902F046F8002840F022
:104790002782002200235046294602F03DF80028D7
:1047A00040F02582002200235846214602F034F8CA
:1047B000002840F02282002200230398394602F0AC
:1047C0002BF8002840F01F8200220023049805994E
:1047D00002F022F8002840F01C8234A870E92289F7
:1047E000FDF7D0FB03230093C3B215AA4046494608
:1047F000FEF746FA5922092115A8FEF725F9592294
:1048000002218048FEF720F9002200235046294665
:1048100002F002F8002840F0028234A870E92489EE
:10482000FDF7B0FB03230093C3B215AA40464946E7
:10483000FEF726FA5922092115A8FEF705F9592293
:1048400002217048FEF700F9002200235846214655
:1048500001F0E2FF002840F0E88134A870E92689E1
:10486000FDF790FB03230093C3B215AA40464946C7
:10487000FEF706FA5922092115A8FEF7E5F8592294
:1048800002216048FEF7E0F8002200230398394631
:1048900001F0C2FF002840F0CE8134A870E92889D9
:1048A000FDF770FB03230093C3B215AA40464946A7
:1048B000FEF7E6F95922092115A8FEF7C5F8592295
:1048C00002215048FEF7C0F800224F4BDDE91201EB
:1048D00001F030FD80468946CDE9128900224A4B1D
:1048E000DDE9100101F026FD02460B46CDE9062365
:1048F000CDE910230022444BDDE90E0101F01AFD41
:1049000002460B46CDE90823CDE90E2300223E4B9B
:10491000DDE90C0101F00EFD02460B46CDE90A234C
:10492000CDE90C234046494601F09EFF374BA3FBDF
:104930000023DB0803EB83035A00831A052B07D9F6
:104940000022334B4046494601F042FBCDE91201BB
:10495000DDE906894046494601F086FF2B4BA3FB63
:104960000023DB0803EB83035A00831A052B07D9C6
:104970000022274B4046494601F02AFBCDE91001B1
:10498000DDE908894046494601F06EFF1F4BA3FB55
:104990000023DB0803EB83035A00831A052B07D996
:1049A00000221B4B4046494601F012FBCDE90E01A7
:1049B000DDE90A894046494601F056FF134BA3FB47
:1049C0000023DB0803EB83035A00831A052B07D966
:1049D00000220F4B4046494601F0FAFACDE90C019E
:1049E00000220B4BDDE9120101F0CEFD8046894625
:1049F000CDE912890022064BDDE910010AE000BF73
:104A00004C8300080486000800408F40CDCCCCCCFD
:104A10000000244001F0B8FDCDE9100100229D4BBB
:104A2000DDE90E0101F0B0FDCDE90E010022994B48
:104A3000DDE90C0101F0A8FDCDE90C0112A8FDF79C
:104A4000A1FA00260096C3B224AA40464946FEF7C2
:104A500017F934A870E92489FDF794FA0096C3B2D7
:104A600021AA40464946FEF70BF934A870E9268989
:104A7000FDF788FA0096C3B21EAA40464946FEF7E3
:104A8000FFF834A870E92889FDF77CFA0096C3B2D4
:104A90001BAA40464946FEF7F3F80022002304987B
:104AA000059901F0B9FE002840F0CB8027A8FEF759
:104AB000CFF8064624A8FEF7CBF8034624AA3146D1
:104AC00027A8FEF7D1F827A8FEF7C2F80123724AFB
:104AD000014627A8FEF7C8F80022002350462946C1
:104AE00001F09AFE002840F0B68027A8FEF7B0F843
:104AF000054621A8FEF7ACF8034621AA294627A8B7
:104B0000FEF7B2F827A8FEF7A3F80123624A014690
:104B100027A8FEF7A9F8002200235846214601F0F5
:104B20007BFE002840F0A18027A8FEF791F80446FC
:104B30001EA8FEF78DF803461EAA214627A8FEF7F9
:104B400093F827A8FEF784F80123534A014627A8C3
:104B5000FEF78AF8002200230398394601F05CFE34
:104B6000002840F08C8027A8FEF772F804461BA8A6
:104B7000FEF76EF803461BAA214627A8FEF774F835
:104B800027A8FEF765F80123434A014627A8FEF748
:104B90006BF827A8FEF75CF8044618A8FEF758F84B
:104BA000034618AA214627A8FEF75EF827A8FEF7B5
:104BB0004FF8014627A8FDF7E5FE02213748FDF72B
:104BC000E1FE27A8FEF744F85922014627A8FDF781
:104BD0003BFF35B0BDE8F08F31238DF8A630CFE52F
:104BE000049A059901F10043CDE91223D1E552461B
:104BF00005F10043CDE91023D4E55A4604F1004302
:104C0000CDE90E23D7E5039A07F10043CDE90C2344
:104C1000DAE5592201212248FDF716FFDDE5592288
:104C200001211F48FDF710FFF7E5592201211C481B
:104C3000FDF70AFF11E6592201211948FDF704FF8B
:104C40002BE627A8FEF704F80123154A014627A8FA
:104C5000FEF70AF82AE727A8FDF7FAFF0123104A12
:104C6000014627A8FEF700F83FE727A8FDF7F0FF69
:104C700001230B4A014627A8FDF7F6FF54E727A8B2
:104C8000FDF7E6FF0123064A014627A8FDF7ECFFE2
:104C900069E700BF000024408C85000804860008F6
:104CA00024820008000000002DE9F04FADF2F46D01
:104CB0000026CDF8E066CDF8E466CDF8E866CDF8DC
:104CC000EC660DF5D664B94D0FCD0FC40FCD0FC4F2
:104CD00095E80F0084E80F00F02231460DF5B8602A
:104CE00001F0E8FD8DF8BF65CDF8A865CDF8AC659D
:104CF000CDF8B065CDF8B465CDF8B86500220023D5
:104D00000DF5B461C1E900230DF5B361C1E90023DC
:104D10000DF5B261C1E900230DF5B161C1E90023D0
:104D20000DF5B061C1E900230DF5AF61C1E90023C4
:104D3000E024224631460DF5936001F0BBFD22468A
:104D40003146EEA801F0B6FD22463146B6A801F084
:104D5000B1FD224631467EA801F0ACFD502422462A
:104D600031466AA801F0A6FD2246314656A801F058
:104D7000A1FD2246314642A801F09CFD2246314663
:104D80002EA801F097FD224631461AA801F092FDA7
:104D90002246314606A801F08DFD3446354603967D
:104DA000039B0B2B00F22B82039B1E460DF5DE624C
:104DB00002EB830353F8401C0DF5DC60FFF70AFBA0
:104DC0000DF5DC60FFF758FB102200210DF5DC60CB
:104DD00001F070FD502200216AA801F06BFD502205
:104DE000002156A801F066FD5022002142A801F0E2
:104DF00061FD502200212EA801F05CFD502200210F
:104E00001AA801F057FD5022002106A801F052FD1A
:104E1000674B1B68012BFBD10134E4B2042C03D88F
:104E20000022634B1A60F3E76248FCF745FF002459
:104E3000A346274690E0F80042AB1A1856AB191863
:104E40006AAB1844FEF7BCFE012815D0BB08DB0096
:104E50006AAA1A4400200021C2E9000156AA1A4495
:104E6000C2E9000142AA1344C3E9000159221021FA
:104E70005148FDF7E9FD7EE00BF1010B5FFA8BFB7A
:104E8000F4E74FEA97094FEAC90042AB1A1856AB4C
:104E900019186AAB1844FEF793FE012816D04FEAA2
:104EA000C9096AAB03EB090100220023C1E9002311
:104EB00056A94944C1E9002342A98944C9E900230C
:104EC000592210213C48FDF7BFFD54E00BF1010BC6
:104ED0005FFA8BFBF4E7102200210DF5DC6001F096
:104EE000E9FC0DF5DC60FFF7C7FA6FF002000DF288
:104EF000F46DBDE8F08F07EB4703DD000DF5B863F7
:104F00001D440023182229462A48FDF7B5FD4E22EC
:104F100018212846FDF798FD18212846FEF72EFE99
:104F2000C5B2012D16D0224B1B68012BE3D10134F1
:104F3000E4B2092CCFD800221D4B1A60DBE707EB47
:104F40004703D900002318220DF5B8600144194821
:104F5000FDF792FD0137FFB2092F13D80DF5DE637F
:104F600003EB860353F8408CB8F1310F7FF663AF43
:104F700017F0030F85D0B8F1000FE0D000220C4BE2
:104F80001A60D0E7BBF1000F02D04FF0000935E006
:104F9000102200210DF5DC6001F08CFC0DF5DC60C9
:104FA000FFF76AFA4FF0FF30A1E700BF80830008E7
:104FB000F001002050060020708500084FEAC90A61
:104FC0006AAB5344F700B6AA02EB0708D3E9002303
:104FD000D8E9000100F0FCFFC8E9000142AB5344EE
:104FE0007EAA1744D3E90023D7E9000100F0F0FFBF
:104FF000C7E9000109F101095FFA89F9D945DDD353
:105000004FEAC608B6AB03EB08074FF00409CDF82A
:10501000009005230DF5B562D7E90001FDF730FEDC
:10502000592209210DF5B560FDF70EFD5922022127
:10503000B748FDF709FD584601F016F9CDE904011E
:1050400002460B46D7E9000101F09EFA82468B46E4
:10505000C7E900AB7EAB9844DDE90423D8E9000141
:1050600001F092FAC8E90001CDF8009005230DF592
:10507000B56250465946FDF703FE592209210DF548
:10508000B560FDF7E1FC59220221A148FDF7DCFCE7
:105090004FF000094F4610E0FB002EAA1A440020F2
:1050A0000021C2E900011AAA1A44C2E9000106AAB5
:1050B0001344C3E900010137FFB2092F17D807EBEA
:1050C0004703D800FA0006AB134400931AAB13440D
:1050D0002EA90A4418210DF5B86E7044FEF78AFE19
:1050E0000128D9D109F101095FFA89F9E3E7B9F19A
:1050F000000F02D04FF0000A2DE0102200210DF524
:10510000DC6001F0D7FB0DF5DC60FFF7B5F96FF05F
:105110000100ECE64FEACA0B2EAB5B44F7000DF53D
:10512000936202EB0708D3E90023D8E9000100F0FD
:105130004FFFC8E9000106AB5B44EEAA1744D3E970
:105140000023D7E9000100F043FFC7E900010AF19D
:10515000010A5FFA8AFABAF1090FDBD9F6000DF5F8
:1051600093639F194FF0040ACDF800A005230DF5B5
:10517000B562D7E90001FDF783FD592209210DF53C
:10518000B560FDF761FC592202216148FDF75CFC26
:10519000484601F069F8CDE9040102460B46D7E91B
:1051A000000101F0F1F980468946C7E90089EEABBC
:1051B0009F19DDE90423D7E9000101F0E5F9C7E90A
:1051C0000001CDF800A005230DF5B5624046494623
:1051D000FDF756FD592209210DF5B560FDF734FCA8
:1051E000592251464B48FDF72FFC632E02DC304616
:1051F000FEF7ACFB039B0133DBB20393D0E5303306
:105200008DF8BF35592201210DF2BF50FDF71CFC6E
:105210006420FEF79BFB0DF5B26401940DF5B363BA
:1052200000930DF5B4631C22B6A90DF59360FCF74D
:105230002DFE0DF5AF6301930DF5B06300930DF5F1
:10524000B1631C227EA9EEA8FCF720FED4E90089F8
:105250002DA3D3E900234046494601F0FBFA58B19B
:105260000DF5AF63D3E9006727A3D3E900233046E8
:10527000394601F0EFFAE8B90DF5B363D3E900233D
:105280000DF5B461D1E900010DF5B264D4E9006710
:10529000CDE90067FEF7A8FA102200210DF5DC60C9
:1052A00001F008FB0DF5DC60FFF7E6F8002D27D1D3
:1052B00000201CE60DF5B463D3E90001164BC3E9E9
:1052C00000010DF5B363D3E90001144BC3E90001FC
:1052D000134BC3E900890DF5B163D3E90001114B0C
:1052E000C3E900010DF5B063D3E900010E4BC3E93A
:1052F00000010E4BC3E90067FDF7A6F80125BBE7E7
:105300000120F4E5AFF30080CDCCCCCCCCCCEC3F8D
:10531000048600088485000818060020280600205E
:10532000380600201006002020060020300600204D
:105330002DE9F04FADF2447D0024CDF83047CDF893
:105340003447CDF83847CDF83C470DF5E065BE4E03
:105350000FCE0FC50FCE0FC596E80F0085E80F00E2
:105360008DF8FF46F02221460DF20C6001F0A2FA02
:10537000322221460DF5BB6001F09CFACDF8C44500
:10538000CDF8C845CDF8CC45CDF8D045CDF8D445BD
:10539000CDF8B845CDF8BC45ADF8C0450022002396
:1053A0000DF5B661C1E900230DF5B561C1E9002332
:1053B0000DF5B461C1E900230DF5B361C1E9002326
:1053C0000DF5B261C1E900230DF5B161C1E900231A
:1053D000E0252A4621460DF5956001F06BFA2A4634
:1053E0002146F2A801F066FA2A462146BAA801F041
:1053F00061FA2A46214682A801F05CFA2A46214633
:105400004AA801F057FA50252A46214636A801F04D
:1054100051FA2A46214622A801F04CFA2A46214692
:105420000EA801F047FA894B1C60894D0D212846D2
:10543000FDF7A8FA59220D212846FDF705FB26465F
:10544000022306220DF5BB618248FDF715FB0546D8
:1054500058B97E4B1B68012BF2D10134E4B2022C07
:105460002CD80022794B1A60EAE7592211217A4898
:10547000FDF7EAFA592229460DF5BB60FDF7E4FA7B
:10548000592202217548FDF7DFFA042274490DF50F
:10549000BB6001F01FFA002800F02E82022E00F2FD
:1054A000C4836B4D0D212846FDF76CFA59220D215E
:1054B0002846FDF7C9FA0136F6B2CAE75922122189
:1054C0006848FDF7C1FA0022604B1A606FF00200D5
:1054D000ADE30022644B1A60592211216348FDF7A5
:1054E000B3FA614B1B68012BF6D1013414F0FF04B1
:1054F000EFD05848FCF7E0FB5D4C0F212046FDF74C
:1055000041FA59220F212046FDF79EFA00252C462C
:1055100015E0022D00F28F834E48FCF7CDFB544F6F
:105520000D213846FDF72EFA59220D213846FDF798
:105530008BFA0135EDB2454B1B68012B2FD032227F
:1055400000210DF5BB6001F0B5F9022306220DF52F
:10555000BB614048FDF790FA07460028EBD059227E
:1055600013214448FDF770FA592239460DF5BB6006
:10557000FDF76AFA592202213848FDF765FA9DF8CD
:10558000DA354F2BC5D19DF8DB354B2BC1D13A48CD
:10559000FCF792FB00272D4B1F603D4683E0013452
:1055A000E4B2022C03D80022284B1A60C7E7592224
:1055B00012212C48FDF748FA0022244B1A606FF0A4
:1055C000020034E30134E4B2092C03D800221F4B5B
:1055D0001A601FE0592211212848FDF735FA1022E0
:1055E00000210DF5E66001F065F90DF5E660FEF7C6
:1055F00043FF0022154B1A604FF0FF3017E30135CF
:10560000EDB2052D3CD00022104B1A600F4B1B68E9
:10561000012BD7D005EB45034FEAC3080DF20C630D
:1056200098440023182241461348FDF725FA182113
:105630004046FEF7A3FAC0B20128E0D018220021AC
:10564000404601F037F9E1E780830008F0010020CF
:10565000C4840008C4060020D4840008048600081E
:10566000E8840008F084000804060020048500088F
:105670001885000828850008500600203C85000891
:10568000322200210DF5BB6001F014F90223322211
:105690000DF5BB61B248FDF7EFF9099038B9B14B90
:1056A0001B68012B16D0002EEAD00024AEE7592249
:1056B0000D21AD48FDF7C8F9592209990DF5BB60D8
:1056C000FDF7C2F959220221A848FDF7BDF90026CD
:1056D00037461BE00137FFB20E2F03D80022A14B43
:1056E0001A60E0E7102200210DF5E66001F0E2F813
:1056F0000DF5E660FEF7C0FE00229A4B1A606FF0CF
:10570000010094E20137FFB20136F6B2B54222D968
:1057100006EB4603D800F2000EAB1344009322AB15
:10572000134436A90A4418210DF20C6E7044FEF79A
:1057300061FB0128E6D0F30036AA1A4400200021BC
:10574000C2E9000122AA1A44C2E900010EAA1344C8
:10575000C3E90001D8E7002F00F0708200260C9406
:105760003AE04FEAC60936AB4B4418CB19462246FD
:105770004FEACA031C460DF5956303EB0408CDE917
:105780000A1213460A46D8E9000100F021FCC8E9D4
:1057900000010EAA9144F2AA02EB0408D9E9002301
:1057A000D8E9000100F014FCC8E9000104230093CB
:1057B00005230DF2C452DDE90A01FDF761FA592211
:1057C0000A210DF2C450FDF73FF959220221674822
:1057D000FDF73AF90136F6B2B542C2D80C9C07F192
:1057E00030030DF5E86000F8413D59220121FDF735
:1057F0002BF9592202215D48FDF726F9384600F0C1
:1058000033FD06460F464FEACA050DF5956303EBD7
:10581000050902460B46D9E9000100F0B5FECDE9C5
:105820000A01F2AB03EB050832463B46D8E900011A
:1058300000F0AAFECDE90C014D4BD3E90023DDE9D0
:105840000A0100F077FD4B4BD3E9002300F0C0FBC9
:1058500006460F46C9E90067474BD3E90023DDE957
:105860000C0100F067FD454BD3E9002300F0B0FBCD
:10587000C8E90001042300930DF2C45230463946B2
:10588000FDF7FEF9592209210DF2C450FDF7DCF8AD
:10589000592202213548FDF7D7F84AAB2B44009333
:1058A00082AB2B44BAAA2A4409990DF5BB60FEF7D6
:1058B00023FE002800F0C581BAAB03EBCA03D3E98D
:1058C0000001042500952B460DF2C452FDF7D8F9CE
:1058D000592209210DF2C450FDF7B6F85922294684
:1058E0002748FDF7B1F8089BD800FEF72FF80BF119
:1058F000010B5FFA8BFB02E04FF0000B5C46CDF82A
:1059000020B0BBF10B0F26D8DA460DF5E86303EBA8
:105910008B0353F8406C31460DF5E660FEF75AFDF7
:105920000DF5E660FEF7A8FD102200210DF5E660FA
:1059300000F0C0FFF02200210DF20C6000F0BAFF71
:10594000022332220DF5BB610548FDF795F80022D0
:105950000C4B1A60C0E56420FDF7F8FF002530E02D
:10596000C4060020F00100205085000804860008CD
:10597000180600202806002010060020200600201F
:105980008485000804060020BAAB03EBC500D0E90B
:105990000067FCF7F7FA03230093C3B20DF2C45279
:1059A00030463946FDF76CF9592209210DF2C450F1
:1059B000FDF74AF859220221A548FDF745F80135BF
:1059C000EDB20B2DE0D959220221A148FDF73CF898
:1059D00000251DE00DF5956303EBC500D0E90067D8
:1059E000FCF7D0FA03230093C3B20DF5B76230463B
:1059F0003946FDF745F9592209210DF5B760FDF744
:105A000023F8592202219248FDF71EF80135EDB224
:105A10000B2DDFD9592202218D48FDF715F80025FD
:105A20001CE04AAB03EBC500D0E90067FCF7AAFA1B
:105A300003230093C3B20DF2C45230463946FDF73A
:105A40001FF9592209210DF2C450FCF7FDFF59221C
:105A500002217F48FCF7F8FF0135EDB20B2DE0D9AC
:105A6000592202217A48FCF7EFFF00251CE0F2AB37
:105A700003EBC500D0E90067FCF784FA0323009329
:105A8000C3B20DF5B76230463946FDF7F9F8592231
:105A900009210DF5B760FCF7D7FF592202216C48A8
:105AA000FCF7D2FF0135EDB20B2DE0D959220221CE
:105AB0006748FCF7C9FF0DF5B46501950DF5B563B1
:105AC00000930DF5B6630C220DF59561BAA8FCF7AD
