:020000040800F2
:1000000000C00020F9020008FF02000803030008F6
:100010007503000879030008C10300080000000010
:1000200000000000000000000000000009040008BB
:100030000D04000800000000110400081504000869
:1000400025040008250400082504000825040008EC
:1000500025040008250400082504000825040008DC
:1000600025040008250400082504000825040008CC
:1000700025040008250400082504000825040008BC
:1000800025040008250400082504000825040008AC
:10009000250400082504000825040008250400089C
:1000A000250400082504000825040008250400088C
:1000B000593100082504000825040008250400081B
:1000C000250400082504000825040008250400086C
:1000D000250400089D360008D136000805370008C1
:1000E000250400082504000825040008250400084C
:1000F000250400082504000825040008250400083C
:10010000250400082504000825040008250400082B
:1001100039370008250400082504000825040008D4
:10012000250400082504000825040008250400080B
:1001300000000000000000000000000000000000BF
:1001400000000000000000000000000000000000AF
:10015000000000000000000000000000000000009F
:10016000000000000000000000000000000000008F
:10017000000000000000000000000000000000007F
:10018000000000000000000000000000000000006F
:10019000000000000000000000000000000000005F
:1001A000000000000000000000000000000000004F
:1001B000000000000000000000000000000000003F
:1001C000000000000000000000000000000000002F
:1001D000000000000000000000000000000000001F
:1001E0005FF8E0F100B583B001F0F4FB304B314A29
:1001F0001360314A1360314B314A03E011681960D2
:10020000043304322F498B42F8D32A4B1A682E4B01
:100210009A4200D0FEE7284B1A682C4B9A42F9D13B
:10022000234B2B4A13602B4A13602B4B02E0002216
:100230001A600433294A9342F9D3254B1B6813B93A
:10024000244B1B6803B1FEE701F0D0FB694601A80F
:1002500001F052FB224B234CE41AA4100025AC42BF
:1002600014DC214B214CE41AA4100025AC4213DC11
:100270000099019808F0E2FE05461D4B1D4CE41A5A
:10028000A410002C0EDC284601F008FB144B53F898
:10029000253098470135E2E7134B53F8253098474E
:1002A0000135E3E7013C124B53F824309847E8E767
:1002B000BABADECA000000200401002000000020BD
:1002C000C0BC0008080100207856341232547698D9
:1002D00008010020200A002008010020240A002034
:1002E000500400085004000850040008500400089E
:1002F000500400085004000808B5FFF773FF00BE63
:10030000FEE71EF0040F0CBFEFF30880EFF3098047
:100310007146414A10472DE9F04182B004468846B3
:10032000124B5E6B9F6B9D6A1B6B13F0020F03D029
:100330000E4BDB6A002B0CDB0D4801F0EFFACDF819
:1003400000803B4632462946204601F053FB00BE62
:10035000FEE74BF6AB6101F0C7FB0028ECD04FF095
:100360000042024BDA6202B0BDE8F08100ED00E02D
:10037000A0A7000800BEFEE71EF0040F0CBFEFF3BD
:100380000880EFF309807146244A10472DE9F041B7
:1003900082B004468846084B5E6B9F6B9D6A074897
:1003A00001F0BCFACDF800803B4632462946204693
:1003B00001F020FB00BEFEE700ED00E0B0A7000862
:1003C0001EF0040F0CBFEFF30880EFF309807146B5
:1003D000134A10472DE9F04182B004468846084B85
:1003E0005E6B9F6B9D6A074801F098FACDF800801C
:1003F0003B4632462946204601F0FCFA00BEFEE7A5
:1004000000ED00E0BCA7000800BEFEE700BEFEE76E
:1004100000BEFEE770470000170300088D030008C8
:08042000D503000800BEFEE751
:10042800C0BC00080000002008010020C0BC000873
:10043800000000000000000008010020240A00203D
:080448000000000000000000AC
:1004500010B50446B0F5E06F0FD0B0F5C06F0CD00A
:10046000B0F5A06F09D0B0F5806F06D0B0F5407F31
:1004700003D06321044801F047FA44F0BF6444F418
:100480000034024BDC6010BD20A5000800ED00E048
:1004900010B50446C378012B03D97521204801F01B
:1004A00033FA63780F2B10D8A3780F2B12D8E37888
:1004B000ABB923785A0903F01F03012101FA03F3B2
:1004C0002032184941F8223010BD7621144801F03D
:1004D0001BFAE9E77721124801F016FAE7E7124B19
:1004E000DA68D243C2F30222C2F104000F2121FADA
:1004F00002F263788340A1780A4013431B012278FB
:10050000DBB208490A4482F800332378580903F023
:100510001F03012202FA03F341F8203010BD00BF8F
:1005200020A5000800E100E000ED00E0034B044AD4
:100530005A6002F188325A60704700BF00200240C2
:1005400023016745024A136943F080031361704732
:10055000002002400B4BDB6813F0010F0DD1094B5B
:10056000DB6813F0040F01D002207047054BDB68F5
:1005700013F0100F03D003207047012070470420B0
:10058000704700BF0020024010B50446FFF7E2FFAD
:1005900002E0FFF7DFFF013C012801D1002CF8D178
:1005A00004B9052010BD000038B5044600F17842BA
:1005B000124B9A4206D84FF43020FFF7E5FF04288B
:1005C00006D038BD40F2A7110D4801F09DF9F2E7C1
:1005D0000C4D2B6943F002032B616C612B6943F0D6
:1005E00040032B614FF43020FFF7CEFF2B6923F03F
:1005F0000203DB04DB0C2B61E3E700BFFEFF0F000F
:1006000048A500080020024070B504460D4600F1E0
:100610007842104B9A4206D84FF40050FFF7B4FFCF
:10062000042806D070BD4FF45D710B4801F06CF9E1
:10063000F2E70A4E336943F00103336125804FF43A
:100640000050FFF7A1FF336923F00103DB04DB0C4B
:100650003361E7E7FEFF0F0048A5000800200240D5
:10066000F8B505460C46484B98421BD003F580630D
:10067000984217D003F58063984213D003F5806346
:1006800098420FD003F5806398420BD003F5806346
:10069000984207D003F58063984203D0B2213B48CB
:1006A00001F032F9E3788BB1042B0FD0282B0DD059
:1006B000482B0BD0142B09D0102B07D01C2B05D0A6
:1006C000182B03D0B321314801F01EF9238893B1D0
:1006D000E37803F00F06304613F0100F06D0A3782E
:1006E000013BDBB2022B0BD8A0783043237833B325
:1006F0002E6800230BE0B421244801F005F9E7E758
:10070000BB21224801F000F9EEE76A610133072BB3
:1007100014D801229A40218832EA0101F6D19900C9
:100720000F278F4026EA070600FA01F10E43E17811
:100730002829EAD04829E9D12A61E7E72E602388F1
:10074000FF2B20D96E68002302E06A6115E00133B7
:10075000072B17D803F1080101228A40218832EAC9
:100760000101F4D199000F278F4026EA070600FA0D
:1007700001F10E43E1782829E7D0E1784829E6D154
:100780002A61E4E76E60F8BD000801407CA500081E
:1007900038B504460D462A4B98421CD003F58063B9
:1007A000984218D003F58063984214D003F5806313
:1007B000984210D003F5806398420CD003F5806313
:1007C000984208D003F58063984204D04FF48F71AB
:1007D0001C4801F099F86B1E9BB2012B28D9042DFF
:1007E00026D0082D24D0102D22D0202D20D0402D11
:1007F0001ED0802D1CD0B5F5807F19D0B5F5007FB7
:1008000016D0B5F5806F13D0B5F5006F10D0B5F5E3
:10081000805F0DD0B5F5005F0AD0B5F5804F07D0E9
:10082000B5F5004F04D040F21F11064801F06CF8F6
:10083000A3681D4201D1002038BD012038BD00BF92
:10084000000801407CA5000838B504460D46144B4D
:1008500098421CD003F58063984218D003F580635A
:10086000984214D003F58063984210D003F580635A
:1008700098420CD003F58063984208D003F580635A
:10088000984204D04FF4B571064801F03DF80DB11F
:10089000256138BD40F26B11024801F035F8F7E7E9
:1008A000000801407CA5000838B504460D46144BED
:1008B00098421CD003F58063984218D003F58063FA
:1008C000984214D003F58063984210D003F58063FA
:1008D00098420CD003F58063984208D003F58063FA
:1008E000984204D04FF4BD71064801F00DF80DB1E7
:1008F000656138BD40F27B11024801F005F8F7E769
:10090000000801407CA500080D4B1A6842F0010266
:100910001A6059680B4A0A405A601A6822F08472B9
:1009200022F480321A601A6822F480221A605A680F
:1009300022F4FE025A604FF41F029A60704700BF13
:10094000001002400000FFF810B5044650B1B0F5A9
:10095000803F07D0B0F5802F04D040F211110F482E
:1009600000F0D2FF0E4B1A6822F480321A601A6827
:1009700022F480221A60B4F5803F03D0B4F5802FB2
:1009800006D010BD064A136843F48033136010BDCF
:10099000034A136843F4A023136010BDB0A50008F8
:1009A0000010024038B50C46054650B1B0F5803F06
:1009B00007D0B0F5403F04D040F27F111D4800F051
:1009C000A3FF74B3B4F5802F2BD0B4F5002F28D03B
:1009D000B4F5402F25D0B4F5801F22D0B4F5A01F68
:1009E0001FD0B4F5C01F1CD0B4F5E01F19D0B4F56A
:1009F000001F16D0B4F5101F13D0B4F5201F10D06F
:100A0000B4F5301F0DD0B4F5401F0AD0B4F5501F17
:100A100007D0B4F5601F04D04FF4C071054800F052
:100A200073FF054B596821F47C112C432143596015
:100A300038BD00BFB0A500080010024010B5044644
:100A4000012804D94FF4CA71024800F05DFF024B3F
:100A50001C6010BDB0A500086000424210B50446FD
:100A6000022806D8064A536823F003031C43546047
:100A700010BD4FF40E71034800F046FFF2E700BFCF
:100A800000100240B0A50008024B586800F00C00AE
:100A9000704700BF0010024010B50446A0B1802886
:100AA00012D0902810D0A0280ED0B0280CD0C0288A
:100AB0000AD0D02808D0E02806D0F02804D04FF47F
:100AC0001971054800F020FF044A536823F0F00331
:100AD0001C43546010BD00BFB0A5000800100240C8
:100AE00010B5044680B1B0F5806F0DD0B0F5A06FA1
:100AF0000AD0B0F5C06F07D0B0F5E06F04D040F277
:100B00007E21054800F000FF044A536823F4E063A7
:100B10001C43546010BD00BFB0A500080010024087
:100B200010B5044680B1B0F5806F0DD0B0F5A06F60
:100B30000AD0B0F5C06F07D0B0F5E06F04D04FF425
:100B40002671054800F0E0FE044B586820F4605020
:100B500040EAC400586010BDB0A500080010024073
:100B600010B4294B5B6803F00C03042B2BD0082B2B
:100B70002CD013B1254B036001E0244B03602249C4
:100B80004B68C3F30313224CE35CDAB20368D3402F
:100B900043604A68C2F30222A25CD2B223FA02F294
:100BA00082604A68C2F3C222A25CD2B2D340C36060
:100BB0004A68C2F3813217498A5CD2B2B3FBF2F3BE
:100BC000036110BC7047114B0360D8E70E4A5368AD
:100BD0005268C3F38343023312F4803F09D00A4AB8
:100BE000526812F4003F09D00B4A02FB03F3036082
:100BF000C5E7094A02FB03F30360C0E7034A02FBAF
:100C000003F30360BBE700BF0010024000127A004C
:100C1000080000200400002000093D0038B504460B
:100C20000D460E4B034003B920B940F24A410C482F
:100C300000F06AFE012D04D940F24B41084800F053
:100C400063FE2DB9074A936923EA0404946138BD11
:100C5000044B9A6914439C6138BD00BF0200C0FF79
:100C6000B0A500080010024038B504460D460E4BF2
:100C7000184200D120B940F269410C4800F044FE0E
:100C8000012D04D940F26A41084800F03DFE2DB91B
:100C9000074AD36923EA0404D46138BD044BDA69F6
:100CA0001443DC6138BD00BF00360181B0A50008E7
:100CB0000010024010B50446212818D0312816D063
:100CC000392814D0412812D0612810D07A280ED0AB
:100CD0007B280CD07C280AD07D2808D07E2806D01E
:100CE0007F2804D040F234510D4800F00DFE630916
:100CF000012B0CD0022B0DD00A4B5B6A04F01F04B1
:100D000023FA04F414F0010F07D1002010BD054BA5
:100D10001B68F3E7034B1B6AF0E7012010BD00BF1F
:100D2000B0A500080010024000B583B00023019375
:100D30003120FFF7BFFF019B01330193019BB3F506
:100D4000A06F01D00028F3D03120FFF7B3FF18B90E
:100D5000002003B05DF804FB0120FAE738B5044633
:100D60000D46524B984242D0B0F1804F3FD0A3F590
:100D7000943398423BD003F58063984237D003F513
:100D80008063984233D003F5806398422FD003F5F7
:100D9000806398422BD003F59033984227D003F517
:100DA000C053984223D003F5806398421FD003F5C7
:100DB000806398421BD0A3F59E33984217D003F569
:100DC0008063984213D003F5806398420FD003F5F7
:100DD000903398420BD003F58063984207D003F517
:100DE0008063984203D0E721314800F08DFD6B8885
:100DF0005BB1102B09D0202B07D0402B05D0602BE6
:100E000003D0E8212A4800F07FFDEB884BB1B3F511
:100E1000807F06D0B3F5007F03D0E921244800F09D
:100E200073FD23889BB2214A944212D002F50062DE
:100E300094420ED0B4F1804F0BD0A2F59832944278
:100E400007D002F58062944203D002F5806294429A
:100E500003D123F070036A881343164A944208D0E2
:100E600002F58062944204D023F440739BB2EA8876
:100E700013432380AB88A3852B8823850B4B9C428F
:100E80000FD003F500639C420BD003F540639C42F6
:100E900007D003F580639C4203D003F580639C4236
:100EA00001D12B7A23860123A38238BD002C014077
:100EB000E0A500080010004038B504460D462E4B52
:100EC000984243D0B0F1804F40D0A3F5943398427C
:100ED0003CD003F58063984238D003F58063984294
:100EE00034D003F58063984230D003F58063984294
:100EF0002CD003F59033984228D003F5C053984284
:100F000024D003F58063984220D003F58063984293
:100F10001CD0A3F59E33984218D003F58063984205
:100F200014D003F58063984210D003F590339842B3
:100F30000CD003F58063984208D003F58063984293
:100F400004D040F229310D4800F0DEFC012D04D917
:100F500040F22A31094800F0D7FC35B923889BB20A
:100F600023F001039BB2238038BD23889BB243F05A
:100F70000103238038BD00BF002C0140E0A500081C
:100F800070B504460D461646314B984243D0B0F139
:100F9000804F40D0A3F5943398423CD003F5806352
:100FA000984238D003F58063984234D003F58063CB
:100FB000984230D003F5806398422CD003F59033EB
:100FC000984228D003F5C053984224D003F580639B
:100FD000984220D003F5806398421CD0A3F59E333D
:100FE000984218D003F58063984214D003F58063CB
:100FF000984210D003F5903398420CD003F58063EB
:10100000984208D003F58063984204D040F26B31D7
:10101000104800F079FC15F47F4F00D125B94FF44A
:101020005B710C4800F070FC012E04D940F26D3168
:10103000084800F069FC2EB9A389ED43ADB21D400C
:10104000A58170BDA3899BB21D43A58170BD00BF62
:10105000002C0140E0A5000838B504460D462A4B97
:10106000984243D0B0F1804F40D0A3F594339842DA
:101070003CD003F58063984238D003F580639842F2
:1010800034D003F58063984230D003F580639842F2
:101090002CD003F59033984228D003F5C0539842E2
:1010A00024D003F58063984220D003F580639842F2
:1010B0001CD0A3F59E33984218D003F58063984264
:1010C00014D003F58063984210D003F59033984212
:1010D0000CD003F58063984208D003F580639842F2
:1010E00004D040F63621094800F00EFC15F4614F9B
:1010F00000D125B940F63721044800F005FCED4346
:10110000ADB2258238BD00BF002C0140E0A500082B
:1011100038B504460D46344B984243D0B0F1804F69
:1011200040D0A3F5943398423CD003F580639842B5
:1011300038D003F58063984234D003F58063984239
:1011400030D003F5806398422CD003F59033984259
:1011500028D003F5C053984224D003F58063984209
:1011600020D003F5806398421CD0A3F59E339842AB
:1011700018D003F58063984214D003F58063984239
:1011800010D003F5903398420CD003F58063984259
:1011900008D003F58063984204D040F658211348E4
:1011A00000F0B2FB6B1E9BB2012B10D9042D0ED0A8
:1011B000082D0CD0102D0AD0202D08D0402D06D09F
:1011C000802D04D040F65921084800F09DFB228A6A
:1011D000A3892B40154202D01BB9002038BD002046
:1011E00038BD012038BD00BF002C0140E0A500083B
:1011F00038B504460D462A4B984243D0B0F1804F93
:1012000040D0A3F5943398423CD003F580639842D4
:1012100038D003F58063984234D003F58063984258
:1012200030D003F5806398422CD003F59033984278
:1012300028D003F5C053984224D003F58063984228
:1012400020D003F5806398421CD0A3F59E339842CA
:1012500018D003F58063984214D003F58063984258
:1012600010D003F5903398420CD003F58063984278
:1012700008D003F58063984204D040F682210948E3
:1012800000F042FB15F47F4F00D125B940F68321D1
:10129000044800F039FBED43ADB2258238BD00BFF4
:1012A000002C0140E0A5000830B587B004460D468B
:1012B000654B984213D0A3F5744398420FD003F5C1
:1012C000806398420BD003F58063984207D003F502
:1012D0008063984203D0B8215C4800F015FB2B686E
:1012E000013B5B4A934200F29480AB8833B1B3F583
:1012F000805F03D0BA21554800F006FBEB8863B14C
:10130000B3F5805F09D0B3F5005F06D0B3F5405F59
:1013100003D0BB214D4800F0F7FA2B894BB1B3F550
:10132000806F06D0B3F5C06F03D0BC21474800F0F2
:10133000EBFA6A8922F00C039BB203B91AB9BD21FA
:10134000424800F0E1FAAB8963B1B3F5807F09D080
:10135000B3F5007F06D0B3F5407F03D0BE213B48F4
:1013600000F0D2FAAB8973B1374B9C420BD0A3F596
:1013700074439C4207D003F580639C4203D0C22192
:10138000324800F0C1FA238A9BB2EA8823F4405322
:1013900013432382A3899BB2A98828896A890143C0
:1013A0000A4323F4B05323F00C031343A381A38A0D
:1013B0009BB2AA8923F440731343A38201A8FFF7C9
:1013C000CFFB214B9C4229D0039BA28912F4004FF2
:1013D00026D103EB830303EB830329688900B3FB66
:1013E000F1F11C4BA3FB012358090501642300FB09
:1013F0001313A28912F4004F1BD11B013233154A7B
:10140000A2FB0323C3F343132B439BB2238107B0F7
:1014100030BDB9210D4800F077FA66E7049BD4E7A8
:1014200003EB830303EB830329684900B3FBF1F16A
:10143000D7E7D9003231074AA2FB0131C1F342128A
:1014400045EA0203E1E700BF0038014010A60008AA
:101450001FAA44001F85EB5138B504460D46164BB4
:10146000984214D0A3F57443984210D003F58063DA
:1014700098420CD003F58063984208D003F580634E
:10148000984204D04FF4B1710C4800F03DFA012DA0
:1014900004D940F26311094800F036FA35B9A3893E
:1014A0009BB223F400539BB2A38138BDA3899BB2A6
:1014B00043F40053A38138BD0038014010A6000852
:1014C00070B504460D461646374B984214D0A3F526
:1014D0007443984210D003F5806398420CD003F512
:1014E0008063984208D003F58063984204D040F2AC
:1014F00089112E4800F008FA282D1ED040F22773DB
:101500009D421AD040F226639D4216D040F22553E8
:101510009D4212D040F224439D420ED040F6460335
:101520009D420AD040F66A139D4206D0602D04D039
:101530004FF4C5711D4800F0E7F9012E04D940F2BF
:101540008B111A4800F0E0F940F66A139D4211D061
:10155000C5F3421205F01F05012303FA05F59A426F
:1015600019D0022A19D01434CEB9236823EA05050C
:10157000256070BD0C4B9C42EAD0A3F574439C429D
:10158000E6D003F580639C42E2D040F28F11074819
:1015900000F0BAF9DCE70C34E6E71034E4E723683E
:1015A0001D43256070BD00BF0038014010A6000833
:1015B00038B504460D46124B984214D0A3F5744337
:1015C000984210D003F5806398420CD003F58063F5
:1015D000984208D003F58063984204D040F25F211E
:1015E000084800F091F9B5F5007F03D2C5F308056E
:1015F000A58038BD4FF41871024800F085F9F5E771
:101600000038014010A6000810B504460D4B984262
:1016100014D0A3F57443984210D003F58063984228
:101620000CD003F58063984208D003F5806398429C
:1016300004D04FF41C71044800F066F9A088C0F390
:10164000080010BD0038014010A6000838B5054656
:101650000C46274B984214D0A3F57443984210D0FF
:1016600003F5806398420CD003F58063984208D05C
:1016700003F58063984204D040F286311D4800F0A3
:1016800043F9012C18D0802C16D0402C14D0202CDB
:1016900012D0102C10D0B4F5807F0DD0B4F5007F9F
:1016A0000AD0082C08D0042C06D0022C04D040F21A
:1016B0008731104800F028F9B4F5007F04D02B885A
:1016C0001C4212D1002038BD094B9D42F7D0A3F532
:1016D00074439D42F3D003F580639D42EFD040F206
:1016E0008B31044800F010F9E9E7012038BD00BF54
:1016F0000038014010A6000838B505460C463C4BA2
:10170000984214D0A3F57443984210D003F5806337
:1017100098420CD003F58063984208D003F58063AB
:10172000984204D040F2D931324800F0EDF8282C2C
:1017300025D040F227739C4221D040F226639C4280
:101740001DD040F225539C4219D040F224439C42C4
:1017500015D040F646039C4211D040F66A139C42D5
:101760000DD0B4F5587F0AD0B4F5187F07D0B4F582
:10177000B07F04D040F2DA311E4800F0C5F840F6E0
:101780006A139C4217D0C4F3421204F01F010123D4
:101790008B40012A20D0022A22D0AA8A92B213407A
:1017A000240A012202FA04F42A8892B21440DBB11E
:1017B000E4B9002038BD0E4B9D42E4D0A3F574433C
:1017C0009D42E0D003F580639D42DCD040F2DE31E3
:1017D000084800F099F8D6E7AA8992B21340DFE7EB
:1017E0002A8A92B21340DBE7002038BD012038BDC1
:1017F0000038014010A6000838B505460C46254BB8
:10180000984214D0A3F57443984210D003F5806336
:1018100098420CD003F58063984208D003F58063AA
:10182000984204D040F222411B4800F06DF840F28B
:1018300026639C4210D040F225539C420CD040F6C7
:1018400046039C4208D040F66A139C4204D040F202
:101850002341114800F058F840F66A139C4207D023
:10186000240A0123A3409BB2DB439BB22B8038BDEB
:10187000084B9D42F4D0A3F574439D42F0D003F58C
:1018800080639D42ECD040F22741034800F03CF8D1
:10189000E6E700BF0038014010A60008FEE70000A0
:1018A00008B5034800F052F80120FFF7F7FF00BF2A
:1018B00044A6000808B503460C4A12685AB10B4A00
:1018C0001068033323F003030344094A934206D804
:1018D000064A136008BD0749044A1160EFE708F0A3
:1018E000B5F90C2303604FF0FF3008BD0C01002058
:1018F00000BC0020240A002001230360014B0B6080
:10190000704700BF1800002008B50A46014602488B
:1019100000F004F8FFF7C4FF58A600080FB400B5A4
:1019200083B004AB53F8042B01938021064808F0E0
:10193000EDF9002803DD0146034800F047F803B045
:101940005DF804EB04B070471401002010B50446A4
:1019500008F095F90146204600F038F801210248C8
:1019600000F034F810BD00BF4CBA00082DE9F04378
:1019700085B004460F4643560BB10E461EE00425C3
:1019800028462146ABBE0446384605B0BDE8F08384
:1019900014F9011B04AA1A4402F8101C0133AB42CB
:1019A000F6D304AA1344002203F8102CE9464FF0A2
:1019B000040840464946ABBE8046761B002EE3D065
:1019C0003546102E28BF10250023E8E708B5FFF79D
:1019D000CDFF08BD08B500F0FDF8024B024A9A6041
:1019E00008BD00BF00ED00E00000000808B500F0F1
:1019F00019F908BDF8B504460D4617461E46274896
:101A0000FFF78CFF21682648FFF788FF61682548AB
:101A1000FFF784FFA1682448FFF780FFE1682348AF
:101A2000FFF77CFF21692248FFF778FF61692148B1
:101A3000FFF774FFA1692048FFF770FFE1691F48B5
:101A4000FFF76CFF1E48FFF769FF29461D48FFF7A7
:101A500065FF1D4CE16A1D48FFF760FF216B1C48C4
:101A6000FFF75CFFE16B1B48FFF758FF15F0800F95
:101A70000AD115F4004F0CD11748FFF74FFF069914
:101A80001648FFF74BFFF8BD39461548FFF746FFEC
:101A9000EFE731461348FFF741FFEDE784A6000862
:101AA00094A60008A4A60008B4A60008C4A60008CE
:101AB000D4A60008E4A60008F4A6000804A70008BD
:101AC00014A7000820A7000800ED00E030A70008D8
:101AD00040A7000850A7000880A7000888A70008B2
:101AE00060A7000870A7000883691A888A4201D09D
:101AF000002070470268033A012A03D80233836149
:101B0000012070470020704782B0002301930093AA
:101B10002C4A136843F4803313602A4B1B6803F488
:101B200000330093019B01330193009B1BB9019B80
:101B3000B3F5A06FF1D1234B1B6813F4003F06D01F
:101B400001230093009B012B04D002B070470023B7
:101B50000093F7E71C4B1A6842F010021A601A68EB
:101B600022F003021A601A6842F002021A60A3F51A
:101B700080535A685A605A685A605A6842F48062C0
:101B80005A605A6822F47C125A605A6842F4E81289
:101B90005A601A6842F080721A600A4B1B6813F090
:101BA000007FFAD0074B5A6822F003025A605A6845
:101BB00042F002025A60034B5B6803F00C03082BEF
:101BC000F9D1C2E7001002400020024008B5FFF73B
:101BD0009BFF08BD08B5104B1A6842F001021A605D
:101BE00059680E4A0A405A601A6822F0847222F438
:101BF00080321A601A6822F480221A605A6822F42D
:101C0000FE025A604FF41F029A60FFF7DFFF4FF0A9
:101C10000062034B9A6008BD001002400000FFF80C
:101C200000ED00E01F4B5B6803F00C03042B15D0A4
:101C3000082B17D01BB11C4A1C4B1A6002E01A4A31
:101C40001A4B1A60174B5B68C3F30313184AD35C33
:101C5000DAB216490B68D3400B607047124A134B37
:101C60001A60EFE70F4A53685268C3F383430233A5
:101C700012F4803F0AD00B4A526812F4003F0BD096
:101C80000C4A02FB03F3094A1360DBE7094A02FB33
:101C900003F3064A1360D5E7034A02FB03F3034A42
:101CA0001360CFE70010024000127A0030000020DD
:101CB0002000002000093D000146002302E0002230
:101CC000CA540133EF2BFAD9F023C1F8F0300020C9
:101CD000C1F8F400C1F8F800C1F8FC00C1F8000137
:101CE00070470131814201D0084670470021FBE76F
:101CF00038B50446D0F8F450D0F8F00085420CDA3C
:101D00000B46D4F8F8106354FFF7EBFFC4F8F80063
:101D10000135C4F8F450002038BD4FF0FF3038BD15
:101D2000F8B5D0F8F450002D12DD0F460446D0F877
:101D3000FC603146D0F8F000FFF7D3FFC4F8FC0098
:101D4000013DC4F8F450F6B2A35D3B700020F8BD2D
:101D50006FF00100F8BD00002DE9F04D82B0834620
:101D60008846924600260027CDE90067002514E04A
:101D7000EC000BEB0403D3E90023DDE9000107F0DD
:101D8000F9FACDE900014444D4E90023304639464C
:101D900007F0F0FA06460F4601355545E8D35046A0
:101DA00007F024FC04460D4602460B46DDE900011F
:101DB00007F0BCFD074BC3E9000122462B46304625
:101DC000394607F0B3FD044BC3E9000102B0BDE89A
:101DD000F08D00BF98010020A00100202DE9F04700
:101DE000814688461746002546E0EC0009EB0406CC
:101DF0004444D4E90023D6E9000107F06DFCDFF884
:101E0000A4A002460B46DAE9000107F0B3FACAE9DA
:101E10000001DFF888A0D6E90023DAE9000107F025
:101E2000A9FACAE90001DFF880A0D4E90023DAE9C1
:101E3000000107F09FFACAE90001D6E90001024655
:101E40000B4607F049FC134E02460B46D6E900014B
:101E500007F090FAC6E90001D4E9000102460B46FA
:101E600007F03AFC0C4C02460B46D4E9000107F09F
:101E700081FAC4E900010135BD42B6D3074BD3E96D
:101E8000000102460B4607F027FC054BC3E90001A1
:101E9000BDE8F087C8010020E8010020C001002053
:101EA000D0010020D8010020E00100202DE9F04FF2
:101EB00087B00390894617461E46FFF78FFF3846C6
:101EC00007F094FBCDE900013D4DD5E9002307F073
:101ED00003FCCDE90401DFF804B1DFF804A1DAE97D
:101EE0000023DBE9000107F0F7FB02460B46DDE9C2
:101EF000040107F03DFACDE90401324CD4E9002396
:101F0000DDE9000107F0E8FBDFF8D880D8E900231D
:101F100007F02EFA02460B46DDE9040107F006FD44
:101F2000C6E900013A4649460398FFF715FF264FD8
:101F3000D7E90023D6E9000107F0CEFB234E024685
:101F40000B46D6E9000107F013FA109BC3E9000124
:101F5000D5E900231046194607F0BEFBCDE9000184
:101F6000DFF88490D9E90023D4E9000107F0B4FB3D
:101F700002460B46DDE9000107F0D8FC119BC3E9DE
:101F8000000100220023C5E90023CBE90023CAE9B0
:101F90000023C4E90023C9E90023C8E90023C7E9F5
:101FA0000023C6E900230A49C1E900230949C1E920
:101FB00000230949C1E9002307B0BDE8F08F00BF45
:101FC000D8010020C801002098010020A0010020B5
:101FD000A8010020B0010020B8010020C0010020AD
:101FE000E0010020D0010020E801002038B5D0E950
:101FF00000450022154B2046294607F0DFFD08BBAF
:102000000022124B2046294607F0F6FD40B100227F
:102010000F4B2046294607F0D1FD08B1022038BDFC
:1020200000220B4B2046294607F0E6FD08B90420A4
:1020300038BD0022074B2046294607F0BFFD18B9DE
:10204000042038BD012038BD032038BD00002440E5
:102050000000594000408F402DE9F04F95B00446F4
:10206000012900F06882C04B1A680092D3F80480FE
:10207000BE4B1A6808925F68BD4B1A6809925E6889
:10208000BC4B1A680A925D68BB4B1A680B925B687E
:102090000193BA4B1A680C925B680293B84B1A68AA
:1020A0000D925B680393B74B1A680E925B680493BA
:1020B000B54B1A680F925B680593B44B1A6810927F
:1020C000D3F80490B24B1A681192D3F804A0B14B24
:1020D0001A6812925B680793AF4B1A6813925B6899
:1020E000069359232380002200230098414607F0DD
:1020F00065FD002840F05E8200236380DDF800B0BB
:102100005846414607F082FD07F070FA02460B463A
:10211000CDF800B05846414607F02AF990A3D3E91C
:10212000002307F0D9FA07F071FD1FFA80FB009831
:10213000414607F06BFDA080A4F806B00022002302
:102140000898394607F03AFD002840F0388200230D
:102150002381DDF820B05846394607F057FD07F0D7
:1021600045FA02460B465846394607F001F97CA36A
:10217000D3E9002307F0B0FA07F048FD1FFA80F812
:102180005846394607F042FD6081A4F80C800022D1
:1021900000230998314607F011FD002840F0148211
:1021A0000023E381DDF824804046314607F02EFD10
:1021B00007F01CFA02460B464046314607F0D8F8B5
:1021C00067A3D3E9002307F087FA07F01FFD87B262
:1021D0004046314607F01AFD208267820022002324
:1021E0000A98294607F0EAFC002840F0F281002313
:1021F000A3820A9F3846294607F008FD07F0F6F942
:1022000002460B463846294607F0B2F854A3D3E9F4
:10221000002307F061FA07F0F9FC86B23846294638
:1022200007F0F4FCE0822683002200230B9801993A
:1022300007F0C4FC002840F0D181002363830B9F8A
:102240003846019E314607F0E1FC07F0CFF902461F
:102250000B463846314607F08BF841A3D3E90023FB
:1022600007F03AFA07F0D2FC85B23846314607F05B
:10227000CDFCA083E583002200230C98029907F08F
:102280009DFC002840F0B181002323840C9F384638
:10229000029E314607F0BAFC07F0A8F902460B4649
:1022A0003846314607F064F82DA3D3E9002307F040
:1022B00013FA07F0ABFC85B23846314607F0A6FCAE
:1022C0006084A584002200231398069907F076FC09
:1022D000002840F091810023E384139F3846069E36
:1022E000314607F093FC07F081F902460B46384669
:1022F000314607F03DF81AA3D3E9002307F0ECF9C3
:1023000007F084FC85B23846314607F07FFC208513
:102310006585002200230D98039907F04FFC0028E3
:1023200040F071810023A3850D9F3846039E3146FE
:1023300007F06CFC07F05AF902460B463846314666
:1023400007F016F806A3D3E9002307F0C5F907F054
:102350005DFC85B23846314607F058FCE0851DE04B
:10236000000000000088C34068060020A806002086
:10237000E80600203806002078060020B806002075
:102380005806002098060020D806002048060020A5
:1023900088060020C8060020F806002025860022B6
:1023A00000230E98049907F009FC002840F03281C0
:1023B000002363860E9F3846049E314607F026FCB4
:1023C00007F014F902460B463846314606F0D0FFB6
:1023D000A1A3D3E9002307F07FF907F017FC85B22A
:1023E0003846314607F012FCA086E586002200231D
:1023F0000F98059907F0E2FB002840F012810023B6
:1024000023870F9F3846059E314607F0FFFB07F0F4
:10241000EDF802460B463846314606F0A9FF8EA37A
:10242000D3E9002307F058F907F0F0FB85B23846EE
:10243000314607F0EBFB6087A58700220023109848
:10244000494607F0BBFB002840F0F2800023E387F9
:10245000109E3046494607F0D9FB07F0C7F8024600
:102460000B463046494606F083FF7BA3D3E90023A1
:1024700007F032F907F0CAFB85B23046494607F04B
:10248000C5FBA4F84000A4F8425000220023119894
:10249000514607F093FB002840F0CF800023A4F8BA
:1024A0004430119E3046514607F0B0FB07F09EF8CD
:1024B00002460B463046514606F05AFF66A3D3E962
:1024C000002307F009F907F0A1FB85B23046514619
:1024D00007F09CFBA4F84600A4F848500022002313
:1024E0001298079907F06AFB002840F0AC8000239F
:1024F000A4F84A30129F3846079E314607F086FB03
:1025000007F074F802460B463846314606F030FFB5
:1025100051A3D3E9002307F0DFF807F077FB85B27A
:102520003846314607F072FBA4F84C00A4F84E5030
:1025300015B0BDE8F08F4A4B1A680092D3F80480BA
:10254000484B1A6808925F68474B1A6809925E68A0
:10255000464B1A680A925D68454B1A680B925B6895
:102560000193444B1A680C925B680293424B1A68C1
:102570000D925B680393414B1A680E925B6804935B
:102580003F4B1A680F925B6805933E4B1A68109296
:10259000D3F804903C4B1A681192D3F804A03B4B3B
:1025A0001A6812925B680793394B1A6813925B683A
:1025B000069396E508F10048012363809EE507F144
:1025C000004701232381C4E506F100460123E3818E
:1025D000E8E505F100450123A3820AE6019B03F12A
:1025E000004301930123638329E6029B03F1004327
:1025F00002930123238449E6069B03F100430693DB
:102600000123E38469E6039B03F100430393012361
:10261000A38589E6049B03F10043049301236386A9
:10262000C8E6059B03F10043059301232387E8E6F1
:1026300009F100490123E3870AE70AF1004A01236F
:10264000A4F844302DE7079B03F1004307930123CF
:10265000A4F84A304EE700BF000000000088C340E5
:1026600060060020A0060020E006002030060020C2
:1026700070060020B00600205006002090060020C2
:10268000D00600204006002080060020C006002062
:10269000F006002000000000D0B50446408806F097
:1026A000A5FF06460F46A08806F0A0FFC0A3D3E909
:1026B000002307F03BF902460B462188002940F031
:1026C0004A813046394606F055FEBB4BC3E900014E
:1026D000208906F08BFF06460F46608906F086FFCC
:1026E000B3A3D3E9002307F021F902460B46E188A2
:1026F000002940F03B813046394606F03BFEAF4BA7
:10270000C3E90001E08906F071FF06460F46208A02
:1027100006F06CFFA6A3D3E9002307F007F90246F1
:102720000B46A189002940F02C813046394606F03D
:1027300021FEA34BC3E90001A08A06F057FF06461D
:102740000F46E08A06F052FF99A3D3E9002307F071
:10275000EDF802460B46618A002940F01D813046A3
:10276000394606F007FE974BC3E90001608B06F07F
:102770003DFF06460F46A08B06F038FF8CA3D3E939
:10278000002307F0D3F802460B46218B002940F0C6
:102790002D813046394606F0EDFD8B4BC3E9000133
:1027A000208C06F023FF06460F46608C06F01EFFC5
:1027B0007FA3D3E9002307F0B9F802460B46E18B6B
:1027C000002940F01E813046394606F0D3FD7F4B8C
:1027D000C3E90001E08C06F009FF06460F46208D94
:1027E00006F004FF72A3D3E9002307F09FF8024626
:1027F0000B46A18C002940F00F813046394606F087
:10280000B9FD734BC3E90001A08D06F0EFFE06464B
:102810000F46E08D06F0EAFE65A3D3E9002307F03A
:1028200085F802460B46618D002940F00081304654
:10283000394606F09FFD674BC3E90001608E06F044
:10284000D5FE06460F46A08E06F0D0FE58A3D3E96B
:10285000002307F06BF802460B46218E002940F05A
:10286000F1803046394606F085FD5B4BC3E9000137
:10287000208F06F0BBFE06460F46608F06F0B6FEC0
:102880004BA3D3E9002307F051F802460B46E18E33
:10289000002940F0E2803046394606F06BFD4F4B90
:1028A000C3E90001E08F06F0A1FE06460F46B4F82A
:1028B000400006F09BFE3EA3D3E9002307F036F864
:1028C00002460B46A18F002940F0D280304639469F
:1028D00006F050FD424BC3E90001B4F8440006F095
:1028E00085FE06460F46B4F8460006F07FFE30A38C
:1028F000D3E9002307F01AF802460B46B4F8421059
:10290000002940F0C0803046394606F033FD354B93
:10291000C3E90001B4F84A0006F068FE06460F4617
:10292000B4F84C0006F062FE21A3D3E9002306F0C0
:10293000FDFF02460B46B4F84810002900F0AE80B7
:102940003046394606F016FD024601F1004326499D
:10295000C1E90023D0BD3046394606F00BFD0246E2
:1029600001F100431449C1E90023B1E6304639467C
:1029700006F000FD024601F100431049C1E90023C1
:10298000C0E63046394606F0F5FC024601F1004348
:102990000B49C1E90023CFE63046394606F0EAFC90
:1029A000024601F100430749C1E90023DEE600BF0A
:1029B000000000000088C34060060020A006002040
:1029C000E00600203006002070060020B00600203F
:1029D000F00600205006002090060020D0060020BF
:1029E0004006002080060020C00600203046394600
:1029F00006F0C0FC024601F100432C49C1E9002366
:102A0000CEE63046394606F0B5FC024601F10043F9
:102A10002749C1E90023DDE63046394606F0AAFC25
:102A2000024601F100432349C1E90023ECE63046A8
:102A3000394606F09FFC024601F100431E49C1E9F8
:102A40000023FBE63046394606F094FC024601F1CD
:102A500000431A49C1E900230AE73046394606F027
:102A600089FC024601F100431549C1E9002319E739
:102A70003046394606F07EFC024601F1004311491A
:102A8000C1E9002329E73046394606F073FC0246C7
:102A900001F100430C49C1E900233BE730463946C8
:102AA00006F068FC094BC3E90001D0BD70060020A8
:102AB000B0060020F00600205006002090060020FE
:102AC000D00600204006002080060020C00600201E
:102AD000D0B50446408806F089FD06460F46A0881A
:102AE00006F084FDC0A3D3E9002306F01FFF0246D1
:102AF0000B462188002940F04A813046394606F0CD
:102B000039FCBB4BC3E90001208906F06FFD064686
:102B10000F46608906F06AFDB3A3D3E9002306F0EF
:102B200005FF02460B46E188002940F03B81304614
:102B3000394606F01FFCAF4BC3E90001E08906F0FF
:102B400055FD06460F46208A06F050FDA6A3D3E9A0
:102B5000002306F0EBFE02460B46A189002940F057
:102B60002C813046394606F005FCA34BC3E9000131
:102B7000A08A06F03BFD06460F46E08A06F036FDC9
:102B800099A3D3E9002306F0D1FE02460B46618AE1
:102B9000002940F01D813046394606F0EBFB974B8B
:102BA000C3E90001608B06F021FD06460F46A08BAD
:102BB00006F01CFD8CA3D3E9002306F0B7FE024605
:102BC0000B46218B002940F02D813046394606F016
:102BD000D1FB8B4BC3E90001208C06F007FD0646B4
:102BE0000F46608C06F002FD7FA3D3E9002306F0B8
:102BF0009DFE02460B46E18B002940F01E813046C7
:102C0000394606F0B7FB7F4BC3E90001E08C06F0C4
:102C1000EDFC06460F46208D06F0E8FC72A3D3E9D2
:102C2000002306F083FE02460B46A18C002940F0EB
:102C30000F813046394606F09DFB734BC3E9000116
:102C4000A08D06F0D3FC06460F46E08D06F0CEFCC4
:102C500065A3D3E9002306F069FE02460B46618DA9
:102C6000002940F000813046394606F083FB674B6F
:102C7000C3E90001608E06F0B9FC06460F46A08E3F
:102C800006F0B4FC58A3D3E9002306F04FFE024639
:102C90000B46218E002940F0F1803046394606F07F
:102CA00069FB5B4BC3E90001208F06F09FFC0646E1
:102CB0000F46608F06F09AFC4BA3D3E9002306F081
:102CC00035FE02460B46E18E002940F0E280304698
:102CD000394606F04FFB4F4BC3E90001E08F06F089
:102CE00085FC06460F46B4F8400006F07FFC3EA384
:102CF000D3E9002306F01AFE02460B46A18F0029F5
:102D000040F0D2803046394606F034FB424BC3E9EE
:102D10000001B4F8440006F069FC06460F46B4F81A
:102D2000460006F063FC30A3D3E9002306F0FEFD65
:102D300002460B46B4F84210002940F0C0803046ED
:102D4000394606F017FB354BC3E90001B4F84A00D9
:102D500006F04CFC06460F46B4F84C0006F046FC64
:102D600021A3D3E9002306F0E1FD02460B46B4F8A7
:102D70004810002900F0AE803046394606F0FAFAD5
:102D8000024601F100432649C1E90023D0BD304687
:102D9000394606F0EFFA024601F100431449C1E951
:102DA0000023B1E63046394606F0E4FA024601F166
:102DB00000431049C1E90023C0E63046394606F019
:102DC000D9FA024601F100430B49C1E90023CFE6DD
:102DD0003046394606F0CEFA024601F10043074973
:102DE000C1E90023DEE600BF000000000088C34008
:102DF00068060020A8060020E8060020380600200B
:102E000078060020B8060020F806002058060020AA
:102E100098060020D80600204806002088060020DA
:102E2000C80600203046394606F0A4FA024601F1F1
:102E300000432C49C1E90023CEE63046394606F06E
:102E400099FA024601F100432749C1E90023DDE672
:102E50003046394606F08EFA024601F10043234916
:102E6000C1E90023ECE63046394606F083FA024613
:102E700001F100431E49C1E90023FBE63046394613
:102E800006F078FA024601F100431A49C1E900232D
:102E90000AE73046394606F06DFA024601F1004372
:102EA0001549C1E9002319E73046394606F062FAB0
:102EB000024601F100431149C1E9002329E73046E8
:102EC000394606F057FA024601F100430C49C1E9C0
:102ED00000233BE73046394606F04CFA094BC3E97C
:102EE0000001D0BD78060020B8060020F8060020BA
:102EF0005806002098060020D8060020480600202A
:102F000088060020C806002010B594B00446502260
:102F10000021684606F0ABFE21466846FFF79CF8A4
:102F2000012C09D0282269460A4800F061F80446BD
:102F30004CB9204614B010BD28226946064800F05E
:102F400057F80446F4E759221021044800F002FB28
:102F5000EFE700BF0048060800400608CCA70008BD
:102F600010B5A8B05024224600210DEB040006F055
:102F70007EFE22460021684606F079FE28220DEBEF
:102F800004010F4800F023F8282269460D4800F09C
:102F90001EF8BDF85030592B02D0002028B010BDCB
:102FA000BDF80030592B01D00020F7E70DF1520099
:102FB000FFF772FB0DF10200FFF78AFD0120EDE73C
:102FC0000040060800480608008880B27047F8B53F
:102FD00007460E461546002407E007EB4400FFF7BE
:102FE000F3FF26F814000134A4B2AC42F5D3F8BDC7
:102FF000B0F1006F25D3F8B500F17843DB0A03F593
:103000008033DC0200EB42050F4B9D4201D90020CA
:10301000F8BD16460F460546FDF788FA2046FDF72F
:10302000C3FA002407E037F8141005EB4400FDF75D
:10303000EBFA0134A4B2A642F5D8FDF783FA0120D9
:10304000F8BD0020704700BFFFFF070810B584B02F
:1030500001210846FDF708FE4FF4FA63ADF8083089
:103060004723ADF804300024ADF80A40ADF806401F
:1030700001A94FF08040FDF771FE01214FF0804023
:10308000FDF7EAFF012211464FF08040FDF778FF7F
:1030900001214FF08040FDF70FFF21460120FDF791
:1030A000E3FD04B010BD00B583B04FF4E060FDF760
:1030B000CFF91C238DF8043001238DF805308DF8ED
:1030C00006308DF8073001A8FDF7E2F903B05DF88E
:1030D00004FB08B5FFF7BAFFFFF7E5FF012108463B
:1030E000FDF7C2FD08BD000008B502211648FDF736
:1030F0004FFBB8B9154A136801331360134B1B68B3
:10310000142B04D90023114A1360114A1370114B78
:103110001B68142B05D900220E4B1A6001220C4BA0
:103120001A7008BD04210848FDF732FB0028E1D0E1
:1031300008210548FDF72CFB0028DBD0054A136861
:1031400001331360DAE700BF0010014018060020C9
:103150009D0000200007002008B501214FF08040AD
:10316000FDF7D6FF00B3204B1B6833B91F4A136825
:1031700001331360B3F5FA7F17D01D4B1B682BB9D1
:103180001C4A136801331360642B15D01A4B1B685B
:10319000012B18D00022194B1A60FFF7A5FF01215F
:1031A0004FF08040FEF724F808BD00220F4B1A6054
:1031B00001220D4B1A60E0E701220D4B1A6000223C
:1031C0000C4B1A60E2E70D4B1B680D4A12689342E4
:1031D00003D20133094A1360DFE70022064B1A606D
:1031E0000122084B1A60D8E708020020F0010020F5
:1031F00028060020F401002004020020FC01002029
:10320000F80100200002002030B583B00121042025
:10321000FDF704FD0425ADF8045018238DF80730A0
:1032200003238DF80630094C0DEB05012046FDF710
:1032300017FA0823ADF804308DF807500DEB05019F
:103240002046FDF70DFA03B030BD00BF0008014075
:1032500010B582B001210420FDF7E0FC4FF40073AB
:10326000ADF8043018238DF8073003238DF80630AD
:10327000094C01A92046FDF7F3F94FF48063ADF83E
:10328000043004238DF807300DEB03012046FDF7D1
:10329000E7F902B010BD00BF0008014010B582B0D0
:1032A00001210820FDF7BAFC4FF48063ADF804302B
:1032B00018238DF8073003238DF80630094C01A937
:1032C0002046FDF7CDF94FF40063ADF80430042338
:1032D0008DF807300DEB03012046FDF7C1F902B070
:1032E00010BD00BF000C014000B583B04FF4E0609A
:1032F000FDF7AEF826238DF8043000238DF8053055
:103300008DF8063001238DF8073001A8FDF7C0F8CD
:1033100003B05DF804FB000010B584B0FFF774FF44
:1033200001214FF40030FDF79FFC4FF496530093BA
:103330000023ADF80430ADF806304FF48062ADF8EC
:1033400008200C22ADF80A20ADF80C30094C694673
:103350002046FDF7A9FF012240F225512046FEF745
:10336000AFF8FFF7C1FF01212046FEF775F804B062
:1033700010BD00BF0044004000B583B04FF4E060D2
:10338000FDF766F825238DF8043002238DF805300B
:1033900003238DF8063001238DF8073001A8FDF7CF
:1033A00077F803B05DF804FB10B584B0FFF750FF69
:1033B00001214FF48040FDF731FC4FF41653009388
:1033C0000023ADF80430ADF80630ADF808300C221B
:1033D000ADF80A20ADF80C30094C69462046FDF7DF
:1033E00063FF012240F225512046FEF769F8FFF7FE
:1033F000C3FF01212046FEF72FF804B010BD00BF27
:103400000038014000B583B04FF4E060FDF720F8CC
:1034100027238DF8043002238DF8053004238DF81E
:10342000063001238DF8073001A8FDF731F803B00D
:103430005DF804FB10B584B0FFF730FF01214FF4B5
:103440008020FDF711FC4FF4165300930023ADF8D4
:103450000430ADF80630ADF808300C22ADF80A2083
:10346000ADF80C30094C69462046FDF71DFF0122DE
:1034700040F225512046FEF723F8FFF7C3FF012154
:103480002046FDF7E9FF04B010BD00BF0048004032
:1034900070B506460D4600240AE0315D0648FEF789
:1034A00087F880210448FEF7D1F80028F9D00134CC
:1034B000AC42F2D370BD00BF0048004010B582B0EE
:1034C00001211020FDF7AAFB4FF48063ADF8043012
:1034D00018238DF8073003238DF80630094C01A915
:1034E0002046FDF7BDF84FF40063ADF80430042327
:1034F0008DF807300DEB03012046FDF7B1F802B05F
:1035000010BD00BF0010014010B584B0FFF7D6FF1A
:1035100001214FF40020FDF7A7FB4FF41653009351
:103520000023ADF80430ADF80630ADF808300C22B9
:10353000ADF80A20ADF80C30054C69462046FDF781
:10354000B3FE01212046FDF787FF04B010BD00BF88
:10355000004C0040592A00D0704770B50D46064611
:1035600000240AE0315D0648FEF722F88021044875
:10357000FEF76CF80028F9D00134AC42F2D370BDEC
:10358000004C00402DE9F04383B0064689461746BB
:103590001C4600258DF80750ADF804502B46A84670
:1035A0001BE05A2B3BD19DF8042089F8002089F8B4
:1035B00001304546A04632E09DF8073009F8053055
:1035C00001350023314A1360314A13608CBB6422F9
:1035D000304B1A602346012B4DD0D6F8F420002A38
:1035E0003FDDBD424ED00DF107013046FEF798FB9E
:1035F0000028E6D1002CDFD19DF8073009F805300E
:1036000003F11002D2B20E2A03D9552B01D0AA2BF6
:1036100002D18DF80430A046B8F1010FC1D00135B8
:1036200008F10108182DCCD199F80030552BC8D1DC
:1036300028E0012C05D0022C09D0142C0CD000233A
:10364000C9E74FF47A72134B1A600023C3E7642270
:10365000104B1A600023BEE714220E4B1A600023A1
:10366000B9E7002BB7D10121084A116000210A4AAD
:1036700011600133AFE7064A1268012AADD100227A
:10368000034B1A60284603B0BDE8F0830402002013
:1036900000020020F8010020FC01002010B540F2DB
:1036A00025510948FEF728F800B910BD064C40F234
:1036B00025512046FEF7A0F82046FDF7A5FFC1B230
:1036C0000248FEF715FBF0E700380140180900201A
:1036D00010B540F225510948FEF70EF800B910BDAB
:1036E000064C40F225512046FEF786F82046FDF7AD
:1036F0008BFFC1B20248FEF7FBFAF0E7004400403E
:103700001007002010B540F225510948FDF7F4FFDD
:1037100000B910BD064C40F225512046FEF76CF86A
:103720002046FDF771FFC1B20248FEF7E1FAF0E76B
:10373000004800401408002010B540F22551094807
:10374000FDF7DAFF00B910BD064C40F225512046C6
:10375000FEF752F82046FDF757FFC1B20248FEF7C8
:10376000C7FAF0E7004C004018090020034638B1C2
:10377000002001E0013001331A78002AFAD17047A5
:103780000020704770B4002403E06518165D4655AC
:1037900001349C42F9D370BC704700002DE9F84316
:1037A00006460F4690461D469DF8209006F02EFADC
:1037B000012211E0A91A214BA3FB0043DB0803EB14
:1037C00083035C00031B303308F801301B4BA3FB61
:1037D0000030C0080132D2B2AA4206D80028E9D18E
:1037E000AB1A302108F80310F0E7B9F1000F23D02D
:1037F0002E2308F80530012417E00022104B304634
:10380000394605F069FF06460F4606F0FFF929190B
:103810000A4BA3FB0023DB0803EB83035A00831A44
:10382000303308F801300134E4B24C45E5D94D4459
:103830000135002308F80530BDE8F883CDCCCCCCA9
:10384000000024400B09092B08D83033037001F025
:103850000F01092905D9373141707047373303709B
:10386000F5E73031417070472DE9F04782B081466D
:103870000D4690460024444504D22B5D2E2B28D0C3
:103880000134F8E7002600274FF0000A10E015F891
:103890000A00303805F0BAFE32463B4605F06AFDB4
:1038A00000222D4B05F018FF06460F460AF1010ACB
:1038B0005445ECD80022284B3046394606F036F8FD
:1038C000CDE90001B8EB040A08D001340026002736
:1038D00018E0002600274FF0000AE9E703460C46EF
:1038E000C9E9003433E0285D303805F08FFE3246F8
:1038F0003B4605F03FFD0022174B05F0EDFE064666
:103900000F4601344445EED30022134B304639466E
:1039100006F00CF804460D4600201049002604E08D
:1039200000220D4B05F0D8FE01360AF1FF339E420E
:10393000F6D302460B462046294605F0F7FF02461D
:103940000B46DDE9000105F015FDC9E90001012084
:1039500002B0BDE8F08700BF000024400000F03F47
:1039600000B583B001210820FDF758F94FF45073DA
:10397000ADF8043003238DF8063010238DF807309E
:1039800001A90348FCF76CFE03B05DF804FB00BF1F
:10399000000C014000B583B04FF40073ADF8043063
:1039A00003238DF8063010238DF8073001A9034852
:1039B000FCF756FE03B05DF804FB00BF000C0140AD
:1039C00000B583B04FF40073ADF8043003238DF8D5
:1039D000063048238DF8073001A90348FCF740FE64
:1039E00003B05DF804FB00BF000C014010B50B4CA8
:1039F0004FF400712046FCF727FF4FF480712046FA
:103A0000FCF722FF4FF400712046FCF74DFF4FF406
:103A100080712046FCF748FF10BD00BF000C01403C
:103A200010B5084C4FF480712046FCF70DFF4FF4A1
:103A300000712046FCF738FF4FF400712046FCF778
:103A400003FF10BD000C014010B5FFF7B9FF4FF4A4
:103A500080710E48FCF7F8FE42F210735C1E002BDA
:103A600011DD4FF400710948FCF792FE234604462D
:103A70000028F3D14FF480710448FCF715FFFFF7DD
:103A800089FF204610BD0124FBE700BF000C014068
:103A900070B50546012383F31088FFF77BFF0024F0
:103AA00013E04FF400711348FCF7CEFE114E4FF4B3
:103AB00080713046FCF7C8FE4FF480713046FCF749
:103AC000F3FE6D00EDB20134E4B2072C0DD84FF4D3
:103AD00080710848FCF7E8FE15F0800FE1D14FF443
:103AE00000710448FCF7E0FEE0E7002383F3108850
:103AF00070BD00BF000C014010B50446FFF776FF13
:103B00007820FFF7C5FFFFF79FFF68B90020FFF798
:103B1000BFFFFFF799FF70B159220F210E48FFF741
:103B200019FD0224204610BD59220F210B48FFF732
:103B300011FD0124F6E72046FFF7AAFFFFF784FFF7
:103B4000044630B1592210210548FFF703FD032434
:103B5000E8E7FFF765FFE5E74CB500083CB500086E
:103B60005CB50008F8B506460D46FFF73FFF782024
:103B7000FFF78EFFFFF768FF90B94020FFF788FF3F
:103B8000FFF762FF074698B90446AC421ED2305D8B
:103B9000FFF77EFFFFF758FF88B90134E4B2F4E77E
:103BA000592211210B48FFF7D5FC01273846F8BDF3
:103BB00059220F210848FFF7CDFC0227F6E75922CA
:103BC0000F210648FFF7C6FC0327EFE7FFF728FFA2
:103BD000ECE700BF70B5000884B5000894B5000894
:103BE00010B504465039C8B2FFF786FF200940F0EF
:103BF0001000FFF781FF0120FFF77EFF002010BDBE
:103C000010B500240BE021460020FFF7E9FF8021DA
:103C1000044800EBC410FFF7A5FF0134E4B2072C01
:103C2000F1D910BD0C02002008B530B1FF214FF4CE
:103C30008062034806F01BF808BD0021F7E700BFCB
:103C40000C02002008B5064B1B78834206D0044BBB
:103C500018700020FFF7E8FFFFF7D2FF08BD00BF94
:103C60000C06002010B5FFF77BFE324C40212046A9
:103C7000FCF71AFE40212046FCF7E6FD59220C21F4
:103C80002D48FFF767FCAE20FFF736FFD520FFF782
:103C900033FF8020FFF730FFA820FFF72DFF3F20E4
:103CA000FFF72AFFD320FFF727FF0020FFF724FFAD
:103CB0004020FFF721FF8D20FFF71EFF1420FFF7A4
:103CC0001BFFA120FFF718FFC820FFF715FFDA2020
:103CD000FFF712FF1220FFF70FFF8120FFF70CFF05
:103CE000CF20FFF709FFD920FFF706FFF120FFF7EC
:103CF00003FFDB20FFF700FF4020FFF7FDFEA420BD
:103D0000FFF7FAFEA620FFF7F7FE0020FFF78CFF73
:103D1000FFF776FFAF20FFF7EFFE084B00221A8077
:103D20005A8001245C7159220E210548FFF712FCCC
:103D3000204610BD000C0140A4B50008100600206C
:103D4000B4B50008014B1880598070471006002058
:103D50007F2815D83F2913D8104B1B7913B1B2FA1D
:103D600082F25209012A0CD0CB0800EBC31001F0FB
:103D7000070101238B400A4A115C21EA0301115417
:103D80007047CB0800EBC31001F0070101238B4003
:103D9000034A115C19431154704700BF10060020FC
:103DA0000C0200202DE9F843234B1B880C78234498
:103DB0007F2B3BDC204B5B884C7823443F2B38DC4B
:103DC00090460E46814600251CE01B4B18885988FA
:103DD000B8FA88F2520929442044FFF7B9FF0134A8
:103DE00033789C420DD207FA04F313F4004FECD061
:103DF000114B18885988424629442044FFF7A8FFF0
:103E0000EDE701357278954208D27168A9F1200377
:103E100002FB035331F813700024E1E73378064ABC
:103E200011880B4413804846BDE8F8830020BDE8A4
:103E3000F8830020BDE8F8831006002070B5144612
:103E40001D469DF810601B7803FB00F06B7803FBA8
:103E500001F101310130FFF775FF207840B13246A2
:103E60002946FFF79FFF2378984204D10134F4E7F5
:103E7000FFF7C6FE2378184670BD00002DE9F04319
:103E800091B0CDE90401CDE9022300240D940E94F4
:103E9000ADF83C400A940B94ADF830400794089478
:103EA000ADF824400420FFF7CDFE344E01250095E7
:103EB0003346334A21462046FFF7C0FF009533467C
:103EC000304A29462046FFF7B9FF009533462E4A6F
:103ED00002212046FFF7B2FF009533462B4A2146C8
:103EE0000A20FFF7ABFF00953346294A29460A20EE
:103EF000FFF7A4FF00953346264A02210A20FFF768
:103F00009DFF10A870E90C89FEF770F80227009752
:103F1000C3B20DAA40464946FFF740FC0095334620
:103F20000DAA21460320FFF789FF10A870E90E892A
:103F3000FEF75CF80097C3B20AAA40464946FFF76D
:103F40002DFC009533460AAA29460320FFF776FF89
:103F5000DDE9188918A8FEF749F80097C3B207AA47
:103F600040464946FFF71AFC0095334607AA3946F2
:103F70000320FFF763FF11B0BDE8F0833400002099
:103F8000A8B60008ACB60008B0B60008B4B6000881
:103F9000B8B60008A4B6000830B583B00720FFF714
:103FA00051FE094D012400942B46084A0021084681
:103FB000FFF744FF00942B46054A21460020FFF7F7
:103FC0003DFF03B030BD00BF3400002040B6000804
:103FD00048B6000830B583B00620FFF733FE134D16
:103FE000012400942B46124A00210846FFF726FFC1
:103FF00000942B460F4A21460020FFF71FFF009434
:104000002B460D4A02210020FFF718FF00942B4693
:104010000A4A02210A20FFF711FF00942B46084AA2
:1040200002210520FFF70AFF03B030BD3400002055
:1040300054B600085CB6000868B6000870B6000800
:1040400074B6000830B583B00520FFF7FBFD134DB3
:10405000012400942B46124A00210846FFF7EEFE89
:1040600000942B460F4A21460020FFF7E7FE0094FC
:104070002B460D4A02210020FFF7E0FE00942B465C
:104080000A4A02210A20FFF7D9FE00942B46084A6B
:1040900002210520FFF7D2FE03B030BD340000201E
:1040A00020B600085CB6000868B6000870B60008C4
:1040B00074B6000830B583B00320FFF7C3FD0C4D84
:1040C000012400942B460B4A00210846FFF7B6FE58
:1040D00000942B46084A21460020FFF7AFFE0094CB
:1040E0002B46064A02210020FFF7A8FE03B030BD90
:1040F0003400002084B6000890B600089CB6000882
:1041000030B583B00820FFF79DFD094D01240094D0
:104110002B46084A00210846FFF790FE00942B46E4
:10412000054A21460020FFF789FE03B030BD00BFDD
:1041300034000020F4B5000878B6000830B583B02C
:104140000A20FFF77FFD0C4D012400942B460B4AFB
:1041500000210846FFF772FE00942B46084A2146CC
:104160000020FFF76BFE00942B46064A0221002038
:10417000FFF764FE03B030BD34000020E0B6000855
:10418000ECB60008F4B6000830B583B00A20FFF79B
:1041900059FD0C4D012400942B460B4A0021084682
:1041A000FFF74CFE00942B46084A21460020FFF7FB
:1041B00045FE00942B46064A02210020FFF73EFEF2
:1041C00003B030BD34000020E0B60008ECB60008B3
:1041D000D4B6000830B583B00B20FFF733FD0C4D8B
:1041E000012400942B460B4A00210846FFF726FEC7
:1041F00000942B46084A21460020FFF71FFE00943A
:104200002B46064A02210020FFF718FE03B030BDFE
:1042100034000020BCB60008ECB60008C8B60008A0
:1042200030B583B00C20FFF70DFD0C4D0124009438
:104230002B460B4A00210846FFF700FE00942B4650
:10424000084A21460020FFF7F9FD00942B46064A54
:1042500002210020FFF7F2FD03B030BD3400002042
:10426000BCB60008ECB60008F4B6000830B583B060
:104270000D20FFF7E7FC0C4D012400942B460B4A60
:1042800000210846FFF7DAFD00942B46084A214634
:104290000020FFF7D3FD00942B46064A02210020A0
:1042A000FFF7CCFD03B030BD34000020BCB60008E1
:1042B00028B6000834B6000830B583B00E20FFF7EA
:1042C000C1FC0C4D012400942B460B4A00210846EA
:1042D000FFF7B4FD00942B46084A21460020FFF763
:1042E000ADFD00942B46064A02210020FFF7A6FDF3
:1042F00003B030BD34000020BCB6000828B600086A
:1043000014B60008000000002DE9F04391B0CDE99B
:104310000401CDE9022300230D930E93ADF83C3048
:104320000A930B93ADF8303007930893ADF824301F
:104330000920FFF787FC049D059C002200232846E6
:10434000214605F03BFC002862D14FF00409029D94
:10435000039C3FA3D3E900232846214605F02EFC09
:10436000002865D14FF0040810A870E90C67FDF72C
:104370003DFE03240094C3B20DAA30463946FFF730
:104380000DFA10A870E90E67FDF730FE0094C3B275
:104390000AAA30463946FFF701FADDE9186718A87E
:1043A000FDF724FE0094C3B207AA30463946FFF752
:1043B000F5F9294D012400942B46284A002108468E
:1043C000FFF73CFD00942B46254A21460020FFF7CD
:1043D00035FD00942B46234A02210020FFF72EFDD5
:1043E00000942B460DAA00214846FFF727FD0094B4
:1043F0002B460AAA21464046FFF720FD00942B4693
:1044000007AA02210420FFF719FD11B0BDE8F083CF
:104410002A4604F10043CDE90423012300930E4B07
:10442000114A00210846FFF709FD4FF005098EE704
:104430002A4604F10043CDE9022301210091064BF5
:10444000094A0420FFF7FAFC4FF005088CE700BF8B
:10445000F168E388B5F8E43E34000020CCB50008EC
:10446000D4B50008DCB50008C8B50008000000009D
:104470002DE9F04F9DB002908A46049103921F46A9
:10448000DDF89890DDF89C80DDF8A0B0299E00232F
:1044900019931A93ADF86C3016931793ADF86030FA
:1044A00013931493ADF8543010931193ADF8483032
:1044B00000240025CDE90E45CDE90C45CDE90A459E
:1044C000CDE908451020FFF7BDFB22462B46029898
:1044D000514605F073FB002840F0B380022305939A
:1044E00073A3D3E900230398394605F067FB00283E
:1044F00040F0B5804FF0020A0022002348464146B2
:1045000005F05CFB002840F0B7800723069368A302
:10451000D3E900235846314605F050FB002840F00F
:10452000B780072307930022634B0298049905F094
:10453000D3F804460D46CDE90E4500225E4B0398A4
:10454000394605F0C9F8CDE90C0100225A4B48461E
:10455000414605F0C1F8CDE90A010022564B584604
:10456000314605F0B9F8CDE908010EA8FDF73EFD8A
:1045700000260096C3B219AA20462946FFF70EF975
:104580001CA870E91045FDF731FD0096C3B216AACC
:1045900020462946FFF702F91CA870E91245FDF7ED
:1045A00025FD0096C3B213AA20462946FFF7F6F868
:1045B0001CA870E91445FDF719FD0096C3B210AAB6
:1045C00020462946FFF7EAF83C4D012400942B468B
:1045D0003B4A31460220FFF731FC00942B46394A12
:1045E00031460720FFF72AFC00942B46364A214625
:1045F0003046FFF723FC00942B46344A0221304614
:10460000FFF71CFC00942B4619AA21460598FFF7DA
:1046100015FC00942B4616AA02215046FFF70EFC0B
:1046200000942B4613AA21460698FFF707FC009436
:104630002B4610AA02210798FFF700FC1DB0BDE829
:10464000F08F049B03F100430493012100911B4B65
:104650001F4A0220FFF7F2FB0323059340E707F10F
:10466000004701230093154B194A02210846FFF722
:10467000E5FB4FF0030A3FE708F1004801210091F4
:104680000E4B134A0720FFF7D9FB082306933EE79A
:1046900006F1004601230093084B0D4A0221072032
:1046A000FFF7CCFB082307933DE700BFAFF3008083
:1046B000F168E388B5F8E43E00408F403400002004
:1046C000E4B50008E8B50008ECB50008F0B500084E
:1046D000C8B5000810B584B004460023ADF80C300E
:1046E0008DF80E3064281AD0092C21D9164BA3FB63
:1046F0000423DB0803F130028DF80C2003EB830365
:104700005A00A21A30328DF80D20012300930F4B6E
:1047100003AA02210520FFF791FB04B010BD01237D
:1047200000930A4B0A4A02210520FFF787FBDBE7CB
:10473000303404AA02F8044D01230093034B0221F4
:104740000520FFF77BFBE8E7CDCCCCCC3400002084
:10475000C4B5000808B5FCF7D7F84FF48030FCF773
:10476000F3F8FCF7E1FA124B1870A8B94FF4E01116
:104770004FF48030FCF716F90120FCF75FF939207F
:10478000FCF798FA0028FAD00220FCF767F9FCF74A
:104790007BF90828FBD108BD0020FCF77DF900203B
:1047A000FCF7BEF94FF48060FCF79AF9DEE700BF32
:1047B0001C0A002000B583B0ADF8041003238DF867
:1047C000063010238DF8073001A9FBF749FF03B02D
:1047D0005DF804FB70B501210420FCF71FFA0121EC
:1047E0000820FCF71BFA01211020FCF717FA244CD3
:1047F0004FF480712046FFF7DDFF224E80213046C6
:10480000FFF7D8FF40213046FFF7D4FF1E4D4FF48D
:1048100000412846FFF7CEFF4FF480412846FFF7BE
:10482000C9FF4FF400512846FFF7C4FF4FF48051F1
:104830002846FFF7BFFF02212846FFF7BBFF0121F3
:104840002846FFF7B7FF20213046FFF7B3FF1021BE
:104850003046FFF7AFFF80212046FFF7ABFF402136
:104860002046FFF7A7FF20212046FFF7A3FF1021D6
:104870002046FFF79FFF02212046FFF79BFF70BDF8
:104880000008014000100140000C014070B582B0EA
:1048900001211020FCF7C2F90123ADF804300325F3
:1048A0008DF8065010238DF80730154C01A92046CD
:1048B000FBF7D6FE0223ADF804308DF806504826EB
:1048C0008DF8076001A92046FBF7CAFE0423ADF866
:1048D00004308DF806508DF807600DEB030120467B
:1048E000FBF7BEFE0823ADF804308DF806508DF8B6
:1048F000076001A92046FBF7B3FE02B070BD00BF00
:104900000010014010B4C47D182902D0002010BC52
:1049100070470378552B01D01846F8E7037D03F064
:1049200070026F2A02DD0223002204E01846EEE73F
:10493000C15C0A440133162BFAD9D2B2944201D099
:104940000020E4E70120E2E72DE9F04F8BB080463C
:104950000F461646002407940894ADF824400494AA
:104960000594ADF8184001940294ADF80C40692309
:104970008DF8033076238DF8023070238DF80130E6
:10498000A1462546022D3CD87548FDF795F9754896
:10499000FDF792F901210DF10300FEF779FD0022E8
:1049A000714B1A6064230A2201A96E48FEF7EAFDE2
:1049B000044602280FD86C4B1B68012BF2D109F179
:1049C00001095FFA89F9B9F1020F00F2BB800022F8
:1049D000654B1A60E6E759220C216448FEF7BAFDE0
:1049E0005922214601A8FEF7B5FD5922022160484F
:1049F000FEF7B0FD2CB9022D00F0A9800135EDB213
:104A0000C0E74FF00009CA464D46BAF1020F3FD841
:104A10005348FDF751F901210DF10200FEF738FD71
:104A20000022514B1A6064230A2204A94D48FEF764
:104A3000A9FD054602280ED84B4B1B68012BF2D16D
:104A400009F101095FFA89F9B9F1020F7CD8002256
:104A5000454B1A60E7E75922014604A8FEF77AFDA4
:104A600059220C214348FEF775FD5922294604A816
:104A7000FEF770FD592202213D48FEF76BFD3DB95E
:104A8000BAF1020F62D00AF1010A5FFA8AFABCE7B2
:104A90004FF0000AD346D146BBF1020F41D830484F
:104AA000FDF70AF901210DEB0100FEF7F1FC0022F0
:104AB0002D4B1A6064230A2207A92A48FEF762FDDB
:104AC000814602280ED8284B1B68012BF2D10AF12F
:104AD000010A5FFA8AFABAF1020F3CD80022224B8F
:104AE0001A60E7E75922014607A8FEF733FD59226D
:104AF0000C212148FEF72EFD5922494607A8FEF752
:104B000029FD592202211A48FEF724FDB9F1000FB0
:104B100007D1BBF1020F20D00BF1010B5FFA8BFB29
:104B2000BAE74A4607A94046FEF79EFE2A4604A970
:104B30003846FEF799FE224601A93046FEF794FE5C
:104B4000012404E0002402E0002400E02C4620467A
:104B50000BB0BDE8F08F0024F9E74C46F7E700BF43
:104B600018090020140800200802002070B900086D
:104B7000A0BB000880B9000890B900082DE9F04FEB
:104B800083B0834692469946FFF7BCFE012803D0C6
:104B9000C0B203B0BDE8F08F9BF80E009BF80F3059
:104BA00043EA00239BF810009BF802209BF8037057
:104BB00047EA02229BF8047047EA02279BF8082084
:104BC0009BF8095045EA02229BF80A5045EA022563
:104BD0009BF811209BF8128048EA02229BF8138070
:104BE00048EA02289BF805209BF8066046EA022264
:104BF0009BF8076046EA02269BF80B209BF80C40C6
:104C000044EA02229BF80D4044EA022440EA0320D1
:104C100004F0ECFCCDE90001404604F0E7FC02465C
:104C20000B46DDE9000104F081FECAE900013846C7
:104C300004F0DCFC82468B46304604F0D7FC02468A
:104C40000B465046594604F071FEC9E9000128465A
:104C500004F0CCFC06460F46204604F0C7FC024692
:104C60000B463046394604F061FE0C9BC3E9000157
:104C700001208EE7F0B589B017461E460E9D002232
:104C80000023CDE90623CDE90423CDE9022302ABBD
:104C9000009304AB06AAFFF771FF0446012802D077
:104CA000204609B0F0BDDDE90623C7E90023DDE9B0
:104CB0000423C6E90023DDE90223C5E9002300221D
:104CC000564BD6E9000104F079FF002856D00022A7
:104CD000534BD7E9000104F08FFF002835D00022A4
:104CE000504BDDE9060104F0F7FC4F4BD3E90023FC
:104CF00004F0F2FC4D4BD3E9002304F03BFB00220F
:104D0000484B04F013FEC7E900010022484BD5E9E7
:104D1000000104F071FF002826D0464BD3E90023A0
:104D2000DDE9020104F0D8FC434BD3E9002304F091
:104D300021FBC5E90001414BD3E90023DDE9040172
:104D400004F018FBC6E90001AAE73D4BD3E90023B4
:104D5000DDE9060104F0C0FC3A4BD3E9002304F07E
:104D600009FBC7E90001D0E7374BD3E90023DDE9B0
:104D7000020104F0B1FCC5E90001DCE70022334B7D
:104D8000D7E9000104F038FF00282ED0304BD3E9DA
:104D90000023DDE9060104F09FFC2E4BD3E900233C
:104DA00004F0E8FAC7E9000100224FF08043D5E99A
:104DB000000104F021FF002826D0274BD3E900236F
:104DC000DDE9020104F088FC244BD3E9002304F060
:104DD000D1FAC5E90001224BD3E90023DDE9040142
:104DE00004F0C8FAC6E900015AE71E4BD3E90023D4
:104DF000DDE9060104F070FC1B4BD3E9002304F04D
:104E0000B9FAC7E90001CFE7184BD3E90023DDE980
:104E1000020104F061FCC5E90001DCE70000694023
:104E2000000018400000244058060020980600208A
:104E30000000F03F3806002078060020F806002029
:104E400068060020A806002048060020000039401F
:104E5000500600209006002030060020700600203A
:104E6000F006002060060020A0060020400600207A
:104E700030B5A1B000231D931E93ADF87C30B34B29
:104E8000D3E90023CDE91A23B14BD3E90023CDE9BF
:104E90001823B04BD3E90023CDE91623AE4BD3E959
:104EA0000023CDE91423AD4BD3E90023CDE9122330
:104EB000AB4BD3E90023CDE91023AA4BD3E9002360
:104EC000CDE90E23A84BD3E90023CDE90C23A74B52
:104ED000D3E90023CDE90A23A54BD3E90023CDE98B
:104EE0000823A44BD3E90023CDE90623A24BD3E941
:104EF0000023CDE90423A14BD3E90023CDE902230C
:104F0000592209219E48FEF725FB1A9D1B9C002271
:104F100000232846214604F06FFE002800F030826E
:104F20001AA8FDF763F804230093C3B21DAA28460C
:104F30002146FEF733FC592206211DA8FEF70AFB85
:104F4000592202218F48FEF705FB592209218E487C
:104F5000FEF700FB189D199C0022002328462146DD
:104F600004F04AFE002800F0228218A8FDF73EF85F
:104F700004230093C3B21DAA28462146FEF70EFC67
:104F8000592206211DA8FEF7E5FA592202217D4883
:104F9000FEF7E0FA592209217C48FEF7DBFA169D5C
:104FA000179C002200232846214604F025FE0028F5
:104FB00000F0148216A8FDF719F804230093C3B279
:104FC0001DAA28462146FEF7E9FB592206211DA805
:104FD000FEF7C0FA592204216D48FEF7BBFA5922A8
:104FE00009216C48FEF7B6FA1A9D1B9C002200238B
:104FF0002846214604F000FE002800F0068220A882
:1050000070E90C45FCF7F2FF04230093C3B21DAA1C
:1050100020462946FEF7C2FB592206211DA8FEF7AD
:1050200099FA592202215748FEF794FA5922092188
:105030005948FEF78FFA189D199C00220023284634
:10504000214604F0D9FD002800F0F78120A870E97E
:105050000E45FCF7CBFF04230093C3B21DAA2046E4
:105060002946FEF79BFB592206211DA8FEF772FA7E
:10507000592202214348FEF76DFA59220921474877
:10508000FEF768FA169D179C002200232846214649
:1050900004F0B2FD002800F0E88120A870E9104576
:1050A000FCF7A4FF04230093C3B21DAA204629469F
:1050B000FEF774FB592206211DA8FEF74BFA592270
:1050C00004213348FEF746FA592209213448FEF7F5
:1050D00041FA0E9D0F9C002200232846214604F031
:1050E0008BFD002800F0EC810EA8FCF77FFF042365
:1050F0000093C3B21DAA28462146FEF74FFB592252
:1051000006211DA8FEF726FA592202211D48FEF7A6
:1051100021FA592209212348FEF71CFA0C9D0D9C07
:10512000002200232846214604F066FD002800F0F6
:10513000DE810CA8FCF75AFF04230093C3B21DAA1A
:1051400028462146FEF72AFB2EE000BF6806002015
:10515000A8060020E8060020580600209806002037
:10516000D80600204806002088060020C806002037
:105170003806002078060020B8060020F806002037
:1051800064B80008A0BB000870B800087CB800082C
:1051900088B8000890B800089CB80008A8B80008B3
:1051A000B4B80008C0B80008592206211DA8FEF7AF
:1051B000D1F959220221B948FEF7CCF95922092127
:1051C000B748FEF7C7F90A9D0B9C0022002328462A
:1051D000214604F011FD002800F0A081DDE904451E
:1051E0000AA8FCF703FF04230093C3B21DAA2046BC
:1051F0002946FEF7D3FA592206211DA8FEF7AAF97F
:1052000059220221A548FEF7A5F959220821A548EF
:10521000FEF7A0F9029D039C0022002328462146A8
:1052200004F0EAFC002800F0908102A8FCF7DEFE02
:1052300004230093C3B21DAA28462146FEF7AEFA06
:10524000592206211DA8FEF785F959220421964806
:10525000FEF780F9592208219448FEF77BF9089D52
:10526000099C002200232846214604F0C5FC0028A2
:1052700000F0828108A8FCF7B9FE04230093C3B2B2
:105280001DAA28462146FEF789FA592206211DA8A3
:10529000FEF760F9592202218048FEF75BF9592296
:1052A00008218348FEF756F9069D079C002200233B
:1052B0002846214604F0A0FC002800F0748106A8CE
:1052C000FCF794FE04230093C3B21DAA284621468E
:1052D000FEF764FA592206211DA8FEF73BF9592270
:1052E00002216E48FEF736F9592208217148FEF76F
:1052F00031F9049D059C002200232846214604F034
:105300007BFC002800F0668104A8FCF76FFE0423F4
:105310000093C3B21DAA28462146FEF73FFA592240
:1053200006211DA8FEF716F9592202215B48FEF757
:1053300011F9592204216048FEF70CF9029D039CE3
:10534000002200232846214604F056FC002800F0E5
:10535000588102A8FCF74AFE04230093C3B21DAA99
:1053600028462146FEF71AFA592206211DA8FEF703
:10537000F1F8592202214948FEF7ECF821B030BD7E
:1053800004F100442A46234620A860E90623FCF7DE
:105390002DFE04230093C3B21DAA28462146FEF722
:1053A000FDF9592201214548FEF7D4F8C3E504F17F
:1053B00000442A46234620A860E90823FCF716FE8D
:1053C00004230093C3B21DAA28462146FEF7E6F93E
:1053D000592201213948FEF7BDF8D1E504F1004416
:1053E0002A46234620A860E90A23FCF7FFFD042390
:1053F0000093C3B21DAA28462146FEF7CFF95922D1
:1054000001212E48FEF7A6F8DFE52A4604F1004305
:10541000CDE91A2320A870E90C45FCF7E7FD042329
:105420000093C3B21DAA20462946FEF7B7F95922B8
:1054300001212248FEF78EF8EEE52A4604F10043EA
:10544000CDE9182320A870E90E45FCF7CFFD042311
:105450000093C3B21DAA20462946FEF79FF95922A0
:1054600001211648FEF776F8FDE52A4604F10043CF
:10547000CDE9162320A870E91045FCF7B7FD0423F9
:105480000093C3B21DAA20462946FEF787F9592288
:1054900001210A48FEF75EF80CE600BFA0BB000839
:1054A000CCB80008D8B8000888B80008E4B80008EC
:1054B000F0B80008FCB8000808B90008C8B5000832
:1054C00004F100442A46234620A860E91223FCF791
:1054D0008DFD04230093C3B21DAA28462146FEF782
:1054E0005DF9592201215248FEF734F807E604F12C
:1054F00000442A46234620A860E91423FCF776FDE1
:1055000004230093C3B21DAA28462146FEF746F99C
:10551000592201214648FEF71DF845E604F10044F2
:105520002A46234620A860E91623FCF75FFD0423E2
:105530000093C3B21DAA28462146FEF72FF959222F
:1055400001213B48FEF706F855E604F100442A46DF
:10555000234620A860E91E23FCF748FD042300939E
:10556000C3B21DAA28462146FEF718F95922012187
:105570002F48FDF7EFFF63E604F100442A46234677
:1055800020A860E91823FCF731FD04230093C3B27F
:105590001DAA28462146FEF701F959220121244877
:1055A000FDF7D8FF71E604F100442A46234620A8FF
:1055B00060E91A23FCF71AFD04230093C3B21DAA65
:1055C00028462146FEF7EAF8592201211848FDF73E
:1055D000C1FF7FE604F100442A46234620A860E983
:1055E0001C23FCF703FD04230093C3B21DAA284625
:1055F0002146FEF7D3F8592201210D48FDF7AAFFF5
:105600008DE604F100442A46234620A860E91E23C3
:10561000FCF7ECFC04230093C3B21DAA28462146E4
:10562000FEF7BCF8592201210148FDF793FF9BE6E4
:10563000C8B5000830B5A1B000231D931E93ADF886
:105640007C30B34BD3E90023CDE91A23B14BD3E926
:105650000023CDE91823B04BD3E90023CDE916236D
:10566000AE4BD3E90023CDE91423AD4BD3E900239E
:10567000CDE91223AB4BD3E90023CDE91023AA4B8C
:10568000D3E90023CDE90E23A84BD3E90023CDE9CC
:105690000C23A74BD3E90023CDE90A23A54BD3E97B
:1056A0000023CDE90823A44BD3E90023CDE9062349
:1056B000A24BD3E90023CDE90423A14BD3E9002376
:1056C000CDE90223592205219E48FDF743FF1A9D8B
:1056D0001B9C002200232846214604F08DFA002856
:1056E00000F02E821AA8FCF781FC04230093C3B2B9
:1056F0001DAA28462146FEF751F8592206211DA869
:10570000FDF728FF592202218F48FDF723FF592278
:1057100005218E48FDF71EFF189D199C00220023CD
:105720002846214604F068FA002800F0208218A8D4
:10573000FCF75CFC04230093C3B21DAA2846214653
:10574000FEF72CF8592206211DA8FDF703FF592268
:1057500002217D48FDF7FEFE592205217C48FDF718
:10576000F9FE169D179C002200232846214604F0CE
:1057700043FA002800F0128216A8FCF737FC042335
:105780000093C3B21DAA28462146FEF707F8592206
:1057900006211DA8FDF7DEFE592204216D48FDF704
:1057A000D9FE592205216C48FDF7D4FE1A9D1B9C99
:1057B000002200232846214604F01EFA002800F0AB
:1057C000048220A870E90C45FCF710FC0423009328
:1057D000C3B21DAA20462946FDF7E0FF5922062143
:1057E0001DA8FDF7B7FE592202215748FDF7B2FE6A
:1057F000592205215948FDF7ADFE189D199C00223C
:1058000000232846214604F0F7F9002800F0F5812E
:1058100020A870E90E45FCF7E9FB04230093C3B20E
:105820001DAA20462946FDF7B9FF592206211DA8C9
:10583000FDF790FE592202214348FDF78BFE5922C5
:1058400005214748FDF786FE169D179C0022002380
:105850002846214604F0D0F9002800F0E68120A86F
:1058600070E91045FCF7C2FB04230093C3B21DAAE4
:1058700020462946FDF792FF592206211DA8FDF773
:1058800069FE592204213348FDF764FE592205219F
:105890003448FDF75FFE0E9D0F9C00220023284632
:1058A000214604F0A9F9002800F0E8810EA8FCF7D1
:1058B0009DFB04230093C3B21DAA28462146FDF791
:1058C0006DFF592206211DA8FDF744FE5922022131
:1058D0001D48FDF73FFE592205212348FDF73AFEFA
:1058E0000C9D0D9C002200232846214604F084F9DB
:1058F000002800F0DA810CA8FCF778FB0423009361
:10590000C3B21DAA28462146FDF748FF2EE000BF7E
:1059100060060020A0060020E006002050060020BF
:1059200090060020D00600204006002080060020BF
:10593000C00600203006002070060020B0060020BF
:10594000F006002010B90008A0BB000818B9000834
:1059500020B9000888B8000828B9000830B9000844
:1059600038B9000840B9000848B900085922062192
:105970001DA8FDF7EFFD59220221B848FDF7EAFD09
:1059800059220521B648FDF7E5FD0A9D0B9C002232
:1059900000232846214604F02FF9002800F09C81BE
:1059A0000AA8FCF723FB04230093C3B21DAA2846D0
:1059B0002146FDF7F3FE592206211DA8FDF7CAFD79
:1059C00059220221A548FDF7C5FD59220421A54809
:1059D000FDF7C0FD029D039C0022002328462146BE
:1059E00004F00AF9002800F08E8102A8FCF7FEFA04
:1059F00004230093C3B21DAA28462146FDF7CEFE1C
:105A0000592206211DA8FDF7A5FD5922042196481B
:105A1000FDF7A0FD592204219448FDF79BFD089D48
:105A2000099C002200232846214604F0E5F80028BE
:105A300000F0808108A8FCF7D9FA04230093C3B2D0
:105A40001DAA28462146FDF7A9FE592206211DA8B8
:105A5000FDF780FD592202218048FDF77BFD592288
:105A600004218348FDF776FD069D079C0022002354
:105A70002846214604F0C0F8002800F0738106A8EB
:105A8000FCF7B4FA04230093C3B21DAA28462146AA
:105A9000FDF784FE592206211DA8FDF75BFD592262
:105AA00002216E48FDF756FD592204217148FDF789
:105AB00051FD049D059C002200232846214604F048
:105AC0009BF8002800F0658104A8FCF78FFA0423F6
