:020000040800F2
:1000000000C00020F9020008FF02000803030008F6
:100010007503000879030008C10300080000000010
:1000200000000000000000000000000009040008BB
:100030000D04000800000000110400081504000869
:1000400025040008250400082504000825040008EC
:1000500025040008250400082504000825040008DC
:1000600025040008250400082504000825040008CC
:1000700025040008250400082504000825040008BC
:1000800025040008250400082504000825040008AC
:10009000250400082504000825040008250400089C
:1000A000250400082504000825040008250400088C
:1000B0004D26000825040008250400082504000832
:1000C000250400082504000825040008250400086C
:1000D00025040008692B00089D2B0008D12B00087F
:1000E000250400082504000825040008250400084C
:1000F000250400082504000825040008250400083C
:10010000250400082504000825040008250400082B
:10011000052C000825040008250400082504000813
:10012000250400082504000825040008250400080B
:1001300000000000000000000000000000000000BF
:1001400000000000000000000000000000000000AF
:10015000000000000000000000000000000000009F
:10016000000000000000000000000000000000008F
:10017000000000000000000000000000000000007F
:10018000000000000000000000000000000000006F
:10019000000000000000000000000000000000005F
:1001A000000000000000000000000000000000004F
:1001B000000000000000000000000000000000003F
:1001C000000000000000000000000000000000002F
:1001D000000000000000000000000000000000001F
:1001E0005FF8E0F100B583B001F0F4FB304B314A29
:1001F0001360314A1360314B314A03E011681960D2
:10020000043304322F498B42F8D32A4B1A682E4B01
:100210009A4200D0FEE7284B1A682C4B9A42F9D13B
:10022000234B2B4A13602B4A13602B4B02E0002216
:100230001A600433294A9342F9D3254B1B6813B93A
:10024000244B1B6803B1FEE701F0D0FB694601A80F
:1002500001F052FB224B234CE41AA4100025AC42BF
:1002600014DC214B214CE41AA4100025AC4213DC11
:100270000099019804F0C0FE05461D4B1D4CE41A80
:10028000A410002C0EDC284601F008FB144B53F898
:10029000253098470135E2E7134B53F8253098474E
:1002A0000135E3E7013C124B53F824309847E8E767
:1002B000BABADECA000000200401002000000020BD
:1002C0001C790008080100207856341232547698C0
:1002D00008010020A807002008010020AC0700202A
:1002E000500400085004000850040008500400089E
:1002F000500400085004000808B5FFF773FF00BE63
:10030000FEE71EF0040F0CBFEFF30880EFF3098047
:100310007146414A10472DE9F04182B004468846B3
:10032000124B5E6B9F6B9D6A1B6B13F0020F03D029
:100330000E4BDB6A002B0CDB0D4801F0EFFACDF819
:1003400000803B4632462946204601F053FB00BE62
:10035000FEE74BF6AB6101F0C7FB0028ECD04FF095
:100360000042024BDA6202B0BDE8F08100ED00E02D
:100370002867000800BEFEE71EF0040F0CBFEFF375
:100380000880EFF309807146244A10472DE9F041B7
:1003900082B004468846084B5E6B9F6B9D6A074897
:1003A00001F0BCFACDF800803B4632462946204693
:1003B00001F020FB00BEFEE700ED00E0386700081A
:1003C0001EF0040F0CBFEFF30880EFF309807146B5
:1003D000134A10472DE9F04182B004468846084B85
:1003E0005E6B9F6B9D6A074801F098FACDF800801C
:1003F0003B4632462946204601F0FCFA00BEFEE7A5
:1004000000ED00E04467000800BEFEE700BEFEE726
:1004100000BEFEE770470000170300088D030008C8
:08042000D503000800BEFEE751
:100428001C79000800000020080100201C79000841
:10043800000000000000000008010020AC070020B8
:080448000000000000000000AC
:1004500010B50446B0F5E06F0FD0B0F5C06F0CD00A
:10046000B0F5A06F09D0B0F5806F06D0B0F5407F31
:1004700003D06321044801F047FA44F0BF6444F418
:100480000034024BDC6010BDA864000800ED00E001
:1004900010B50446C378012B03D97521204801F01B
:1004A00033FA63780F2B10D8A3780F2B12D8E37888
:1004B000ABB923785A0903F01F03012101FA03F3B2
:1004C0002032184941F8223010BD7621144801F03D
:1004D0001BFAE9E77721124801F016FAE7E7124B19
:1004E000DA68D243C2F30222C2F104000F2121FADA
:1004F00002F263788340A1780A4013431B012278FB
:10050000DBB208490A4482F800332378580903F023
:100510001F03012202FA03F341F8203010BD00BF8F
:10052000A864000800E100E000ED00E0034B044A8D
:100530005A6002F188325A60704700BF00200240C2
:1005400023016745024A136943F080031361704732
:10055000002002400B4BDB6813F0010F0DD1094B5B
:10056000DB6813F0040F01D002207047054BDB68F5
:1005700013F0100F03D003207047012070470420B0
:10058000704700BF0020024010B50446FFF7E2FFAD
:1005900002E0FFF7DFFF013C012801D1002CF8D178
:1005A00004B9052010BD000038B5044600F17842BA
:1005B000124B9A4206D84FF43020FFF7E5FF04288B
:1005C00006D038BD40F2A7110D4801F09DF9F2E7C1
:1005D0000C4D2B6943F002032B616C612B6943F0D6
:1005E00040032B614FF43020FFF7CEFF2B6923F03F
:1005F0000203DB04DB0C2B61E3E700BFFEFF0F000F
:10060000D06400080020024070B504460D4600F199
:100610007842104B9A4206D84FF40050FFF7B4FFCF
:10062000042806D070BD4FF45D710B4801F06CF9E1
:10063000F2E70A4E336943F00103336125804FF43A
:100640000050FFF7A1FF336923F00103DB04DB0C4B
:100650003361E7E7FEFF0F00D0640008002002408E
:10066000F8B505460C46484B98421BD003F580630D
:10067000984217D003F58063984213D003F5806346
:1006800098420FD003F5806398420BD003F5806346
:10069000984207D003F58063984203D0B2213B48CB
:1006A00001F032F9E3788BB1042B0FD0282B0DD059
:1006B000482B0BD0142B09D0102B07D01C2B05D0A6
:1006C000182B03D0B321314801F01EF9238893B1D0
:1006D000E37803F00F06304613F0100F06D0A3782E
:1006E000013BDBB2022B0BD8A0783043237833B325
:1006F0002E6800230BE0B421244801F005F9E7E758
:10070000BB21224801F000F9EEE76A610133072BB3
:1007100014D801229A40218832EA0101F6D19900C9
:100720000F278F4026EA070600FA01F10E43E17811
:100730002829EAD04829E9D12A61E7E72E602388F1
:10074000FF2B20D96E68002302E06A6115E00133B7
:10075000072B17D803F1080101228A40218832EAC9
:100760000101F4D199000F278F4026EA070600FA0D
:1007700001F10E43E1782829E7D0E1784829E6D154
:100780002A61E4E76E60F8BD0008014004650008D6
:1007900038B504460D462A4B98421CD003F58063B9
:1007A000984218D003F58063984214D003F5806313
:1007B000984210D003F5806398420CD003F5806313
:1007C000984208D003F58063984204D04FF48F71AB
:1007D0001C4801F099F86B1E9BB2012B28D9042DFF
:1007E00026D0082D24D0102D22D0202D20D0402D11
:1007F0001ED0802D1CD0B5F5807F19D0B5F5007FB7
:1008000016D0B5F5806F13D0B5F5006F10D0B5F5E3
:10081000805F0DD0B5F5005F0AD0B5F5804F07D0E9
:10082000B5F5004F04D040F21F11064801F06CF8F6
:10083000A3681D4201D1002038BD012038BD00BF92
:10084000000801400465000838B504460D46144B05
:1008500098421CD003F58063984218D003F580635A
:10086000984214D003F58063984210D003F580635A
:1008700098420CD003F58063984208D003F580635A
:10088000984204D04FF4B571064801F03DF80DB11F
:10089000256138BD40F26B11024801F035F8F7E7E9
:1008A000000801400465000838B504460D46144BA5
:1008B00098421CD003F58063984218D003F58063FA
:1008C000984214D003F58063984210D003F58063FA
:1008D00098420CD003F58063984208D003F58063FA
:1008E000984204D04FF4BD71064801F00DF80DB1E7
:1008F000656138BD40F27B11024801F005F8F7E769
:1009000000080140046500080D4B1A6842F001021E
:100910001A6059680B4A0A405A601A6822F08472B9
:1009200022F480321A601A6822F480221A605A680F
:1009300022F4FE025A604FF41F029A60704700BF13
:10094000001002400000FFF810B5044650B1B0F5A9
:10095000803F07D0B0F5802F04D040F211110F482E
:1009600000F0D2FF0E4B1A6822F480321A601A6827
:1009700022F480221A60B4F5803F03D0B4F5802FB2
:1009800006D010BD064A136843F48033136010BDCF
:10099000034A136843F4A023136010BD38650008B0
:1009A0000010024038B50C46054650B1B0F5803F06
:1009B00007D0B0F5403F04D040F27F111D4800F051
:1009C000A3FF74B3B4F5802F2BD0B4F5002F28D03B
:1009D000B4F5402F25D0B4F5801F22D0B4F5A01F68
:1009E0001FD0B4F5C01F1CD0B4F5E01F19D0B4F56A
:1009F000001F16D0B4F5101F13D0B4F5201F10D06F
:100A0000B4F5301F0DD0B4F5401F0AD0B4F5501F17
:100A100007D0B4F5601F04D04FF4C071054800F052
:100A200073FF054B596821F47C112C432143596015
:100A300038BD00BF386500080010024010B50446FC
:100A4000012804D94FF4CA71024800F05DFF024B3F
:100A50001C6010BD386500086000424210B50446B5
:100A6000022806D8064A536823F003031C43546047
:100A700010BD4FF40E71034800F046FFF2E700BFCF
:100A80000010024038650008024B586800F00C0066
:100A9000704700BF0010024010B50446A0B1802886
:100AA00012D0902810D0A0280ED0B0280CD0C0288A
:100AB0000AD0D02808D0E02806D0F02804D04FF47F
:100AC0001971054800F020FF044A536823F0F00331
:100AD0001C43546010BD00BF386500080010024080
:100AE00010B5044680B1B0F5806F0DD0B0F5A06FA1
:100AF0000AD0B0F5C06F07D0B0F5E06F04D040F277
:100B00007E21054800F000FF044A536823F4E063A7
:100B10001C43546010BD00BF38650008001002403F
:100B200010B5044680B1B0F5806F0DD0B0F5A06F60
:100B30000AD0B0F5C06F07D0B0F5E06F04D04FF425
:100B40002671054800F0E0FE044B586820F4605020
:100B500040EAC400586010BD38650008001002402B
:100B600010B4294B5B6803F00C03042B2BD0082B2B
:100B70002CD013B1254B036001E0244B03602249C4
:100B80004B68C3F30313224CE35CDAB20368D3402F
:100B900043604A68C2F30222A25CD2B223FA02F294
:100BA00082604A68C2F3C222A25CD2B2D340C36060
:100BB0004A68C2F3813217498A5CD2B2B3FBF2F3BE
:100BC000036110BC7047114B0360D8E70E4A5368AD
:100BD0005268C3F38343023312F4803F09D00A4AB8
:100BE000526812F4003F09D00B4A02FB03F3036082
:100BF000C5E7094A02FB03F30360C0E7034A02FBAF
:100C000003F30360BBE700BF0010024000127A004C
:100C1000080000200400002000093D0038B504460B
:100C20000D460E4B034003B920B940F24A410C482F
:100C300000F06AFE012D04D940F24B41084800F053
:100C400063FE2DB9074A936923EA0404946138BD11
:100C5000044B9A6914439C6138BD00BF0200C0FF79
:100C6000386500080010024038B504460D460E4BAA
:100C7000184200D120B940F269410C4800F044FE0E
:100C8000012D04D940F26A41084800F03DFE2DB91B
:100C9000074AD36923EA0404D46138BD044BDA69F6
:100CA0001443DC6138BD00BF00360181386500089F
:100CB0000010024010B50446212818D0312816D063
:100CC000392814D0412812D0612810D07A280ED0AB
:100CD0007B280CD07C280AD07D2808D07E2806D01E
:100CE0007F2804D040F234510D4800F00DFE630916
:100CF000012B0CD0022B0DD00A4B5B6A04F01F04B1
:100D000023FA04F414F0010F07D1002010BD054BA5
:100D10001B68F3E7034B1B6AF0E7012010BD00BF1F
:100D2000386500080010024000B583B0002301932D
:100D30003120FFF7BFFF019B01330193019BB3F506
:100D4000A06F01D00028F3D03120FFF7B3FF18B90E
:100D5000002003B05DF804FB0120FAE738B5044633
:100D60000D46524B984242D0B0F1804F3FD0A3F590
:100D7000943398423BD003F58063984237D003F513
:100D80008063984233D003F5806398422FD003F5F7
:100D9000806398422BD003F59033984227D003F517
:100DA000C053984223D003F5806398421FD003F5C7
:100DB000806398421BD0A3F59E33984217D003F569
:100DC0008063984213D003F5806398420FD003F5F7
:100DD000903398420BD003F58063984207D003F517
:100DE0008063984203D0E721314800F08DFD6B8885
:100DF0005BB1102B09D0202B07D0402B05D0602BE6
:100E000003D0E8212A4800F07FFDEB884BB1B3F511
:100E1000807F06D0B3F5007F03D0E921244800F09D
:100E200073FD23889BB2214A944212D002F50062DE
:100E300094420ED0B4F1804F0BD0A2F59832944278
:100E400007D002F58062944203D002F5806294429A
:100E500003D123F070036A881343164A944208D0E2
:100E600002F58062944204D023F440739BB2EA8876
:100E700013432380AB88A3852B8823850B4B9C428F
:100E80000FD003F500639C420BD003F540639C42F6
:100E900007D003F580639C4203D003F580639C4236
:100EA00001D12B7A23860123A38238BD002C014077
:100EB000686500080010004038B504460D462E4B0A
:100EC000984243D0B0F1804F40D0A3F5943398427C
:100ED0003CD003F58063984238D003F58063984294
:100EE00034D003F58063984230D003F58063984294
:100EF0002CD003F59033984228D003F5C053984284
:100F000024D003F58063984220D003F58063984293
:100F10001CD0A3F59E33984218D003F58063984205
:100F200014D003F58063984210D003F590339842B3
:100F30000CD003F58063984208D003F58063984293
:100F400004D040F229310D4800F0DEFC012D04D917
:100F500040F22A31094800F0D7FC35B923889BB20A
:100F600023F001039BB2238038BD23889BB243F05A
:100F70000103238038BD00BF002C014068650008D4
:100F800070B504460D461646314B984243D0B0F139
:100F9000804F40D0A3F5943398423CD003F5806352
:100FA000984238D003F58063984234D003F58063CB
:100FB000984230D003F5806398422CD003F59033EB
:100FC000984228D003F5C053984224D003F580639B
:100FD000984220D003F5806398421CD0A3F59E333D
:100FE000984218D003F58063984214D003F58063CB
:100FF000984210D003F5903398420CD003F58063EB
:10100000984208D003F58063984204D040F26B31D7
:10101000104800F079FC15F47F4F00D125B94FF44A
:101020005B710C4800F070FC012E04D940F26D3168
:10103000084800F069FC2EB9A389ED43ADB21D400C
:10104000A58170BDA3899BB21D43A58170BD00BF62
:10105000002C01406865000838B504460D462A4B4F
:10106000984243D0B0F1804F40D0A3F594339842DA
:101070003CD003F58063984238D003F580639842F2
:1010800034D003F58063984230D003F580639842F2
:101090002CD003F59033984228D003F5C0539842E2
:1010A00024D003F58063984220D003F580639842F2
:1010B0001CD0A3F59E33984218D003F58063984264
:1010C00014D003F58063984210D003F59033984212
:1010D0000CD003F58063984208D003F580639842F2
:1010E00004D040F63621094800F00EFC15F4614F9B
:1010F00000D125B940F63721044800F005FCED4346
:10110000ADB2258238BD00BF002C014068650008E3
:1011100038B504460D46344B984243D0B0F1804F69
:1011200040D0A3F5943398423CD003F580639842B5
:1011300038D003F58063984234D003F58063984239
:1011400030D003F5806398422CD003F59033984259
:1011500028D003F5C053984224D003F58063984209
:1011600020D003F5806398421CD0A3F59E339842AB
:1011700018D003F58063984214D003F58063984239
:1011800010D003F5903398420CD003F58063984259
:1011900008D003F58063984204D040F658211348E4
:1011A00000F0B2FB6B1E9BB2012B10D9042D0ED0A8
:1011B000082D0CD0102D0AD0202D08D0402D06D09F
:1011C000802D04D040F65921084800F09DFB228A6A
:1011D000A3892B40154202D01BB9002038BD002046
:1011E00038BD012038BD00BF002C014068650008F3
:1011F00038B504460D462A4B984243D0B0F1804F93
:1012000040D0A3F5943398423CD003F580639842D4
:1012100038D003F58063984234D003F58063984258
:1012200030D003F5806398422CD003F59033984278
:1012300028D003F5C053984224D003F58063984228
:1012400020D003F5806398421CD0A3F59E339842CA
:1012500018D003F58063984214D003F58063984258
:1012600010D003F5903398420CD003F58063984278
:1012700008D003F58063984204D040F682210948E3
:1012800000F042FB15F47F4F00D125B940F68321D1
:10129000044800F039FBED43ADB2258238BD00BFF4
:1012A000002C01406865000830B587B004460D4643
:1012B000654B984213D0A3F5744398420FD003F5C1
:1012C000806398420BD003F58063984207D003F502
:1012D0008063984203D0B8215C4800F015FB2B686E
:1012E000013B5B4A934200F29480AB8833B1B3F583
:1012F000805F03D0BA21554800F006FBEB8863B14C
:10130000B3F5805F09D0B3F5005F06D0B3F5405F59
:1013100003D0BB214D4800F0F7FA2B894BB1B3F550
:10132000806F06D0B3F5C06F03D0BC21474800F0F2
:10133000EBFA6A8922F00C039BB203B91AB9BD21FA
:10134000424800F0E1FAAB8963B1B3F5807F09D080
:10135000B3F5007F06D0B3F5407F03D0BE213B48F4
:1013600000F0D2FAAB8973B1374B9C420BD0A3F596
:1013700074439C4207D003F580639C4203D0C22192
:10138000324800F0C1FA238A9BB2EA8823F4405322
:1013900013432382A3899BB2A98828896A890143C0
:1013A0000A4323F4B05323F00C031343A381A38A0D
:1013B0009BB2AA8923F440731343A38201A8FFF7C9
:1013C000CFFB214B9C4229D0039BA28912F4004FF2
:1013D00026D103EB830303EB830329688900B3FB66
:1013E000F1F11C4BA3FB012358090501642300FB09
:1013F0001313A28912F4004F1BD11B013233154A7B
:10140000A2FB0323C3F343132B439BB2238107B0F7
:1014100030BDB9210D4800F077FA66E7049BD4E7A8
:1014200003EB830303EB830329684900B3FBF1F16A
:10143000D7E7D9003231074AA2FB0131C1F342128A
:1014400045EA0203E1E700BF003801409865000863
:101450001FAA44001F85EB5138B504460D46164BB4
:10146000984214D0A3F57443984210D003F58063DA
:1014700098420CD003F58063984208D003F580634E
:10148000984204D04FF4B1710C4800F03DFA012DA0
:1014900004D940F26311094800F036FA35B9A3893E
:1014A0009BB223F400539BB2A38138BDA3899BB2A6
:1014B00043F40053A38138BD00380140986500080B
:1014C00070B504460D461646374B984214D0A3F526
:1014D0007443984210D003F5806398420CD003F512
:1014E0008063984208D003F58063984204D040F2AC
:1014F00089112E4800F008FA282D1ED040F22773DB
:101500009D421AD040F226639D4216D040F22553E8
:101510009D4212D040F224439D420ED040F6460335
:101520009D420AD040F66A139D4206D0602D04D039
:101530004FF4C5711D4800F0E7F9012E04D940F2BF
:101540008B111A4800F0E0F940F66A139D4211D061
:10155000C5F3421205F01F05012303FA05F59A426F
:1015600019D0022A19D01434CEB9236823EA05050C
:10157000256070BD0C4B9C42EAD0A3F574439C429D
:10158000E6D003F580639C42E2D040F28F11074819
:1015900000F0BAF9DCE70C34E6E71034E4E723683E
:1015A0001D43256070BD00BF0038014098650008EC
:1015B00038B504460D46124B984214D0A3F5744337
:1015C000984210D003F5806398420CD003F58063F5
:1015D000984208D003F58063984204D040F25F211E
:1015E000084800F091F9B5F5007F03D2C5F308056E
:1015F000A58038BD4FF41871024800F085F9F5E771
:10160000003801409865000810B504460D4B98421B
:1016100014D0A3F57443984210D003F58063984228
:101620000CD003F58063984208D003F5806398429C
:1016300004D04FF41C71044800F066F9A088C0F390
:10164000080010BD003801409865000838B505460F
:101650000C46274B984214D0A3F57443984210D0FF
:1016600003F5806398420CD003F58063984208D05C
:1016700003F58063984204D040F286311D4800F0A3
:1016800043F9012C18D0802C16D0402C14D0202CDB
:1016900012D0102C10D0B4F5807F0DD0B4F5007F9F
:1016A0000AD0082C08D0042C06D0022C04D040F21A
:1016B0008731104800F028F9B4F5007F04D02B885A
:1016C0001C4212D1002038BD094B9D42F7D0A3F532
:1016D00074439D42F3D003F580639D42EFD040F206
:1016E0008B31044800F010F9E9E7012038BD00BF54
:1016F000003801409865000838B505460C463C4B5B
:10170000984214D0A3F57443984210D003F5806337
:1017100098420CD003F58063984208D003F58063AB
:10172000984204D040F2D931324800F0EDF8282C2C
:1017300025D040F227739C4221D040F226639C4280
:101740001DD040F225539C4219D040F224439C42C4
:1017500015D040F646039C4211D040F66A139C42D5
:101760000DD0B4F5587F0AD0B4F5187F07D0B4F582
:10177000B07F04D040F2DA311E4800F0C5F840F6E0
:101780006A139C4217D0C4F3421204F01F010123D4
:101790008B40012A20D0022A22D0AA8A92B213407A
:1017A000240A012202FA04F42A8892B21440DBB11E
:1017B000E4B9002038BD0E4B9D42E4D0A3F574433C
:1017C0009D42E0D003F580639D42DCD040F2DE31E3
:1017D000084800F099F8D6E7AA8992B21340DFE7EB
:1017E0002A8A92B21340DBE7002038BD012038BDC1
:1017F000003801409865000838B505460C46254B71
:10180000984214D0A3F57443984210D003F5806336
:1018100098420CD003F58063984208D003F58063AA
:10182000984204D040F222411B4800F06DF840F28B
:1018300026639C4210D040F225539C420CD040F6C7
:1018400046039C4208D040F66A139C4204D040F202
:101850002341114800F058F840F66A139C4207D023
:10186000240A0123A3409BB2DB439BB22B8038BDEB
:10187000084B9D42F4D0A3F574439D42F0D003F58C
:1018800080639D42ECD040F22741034800F03CF8D1
:10189000E6E700BF0038014098650008FEE7000059
:1018A00008B5034800F052F80120FFF7F7FF00BF2A
:1018B000CC65000808B503460C4A12685AB10B4AB9
:1018C0001068033323F003030344094A934206D804
:1018D000064A136008BD0749044A1160EFE704F0A7
:1018E00079F90C2303604FF0FF3008BD0C01002094
:1018F00000BC0020AC07002001230360014B0B60FB
:10190000704700BF1800002008B50A46014602488B
:1019100000F004F8FFF7C4FFE06500080FB400B55D
:1019200083B004AB53F8042B01938021064804F0E4
:10193000B1F9002803DD0146034800F047F803B081
:101940005DF804EB04B070471401002010B50446A4
:1019500004F059F90146204600F038F80121024808
:1019600000F034F810BD00BF7C7700082DE9F0438B
:1019700085B004460F4643560BB10E461EE00425C3
:1019800028462146ABBE0446384605B0BDE8F08384
:1019900014F9011B04AA1A4402F8101C0133AB42CB
:1019A000F6D304AA1344002203F8102CE9464FF0A2
:1019B000040840464946ABBE8046761B002EE3D065
:1019C0003546102E28BF10250023E8E708B5FFF79D
:1019D000CDFF08BD08B500F0FDF8024B024A9A6041
:1019E00008BD00BF00ED00E00000000808B500F0F1
:1019F00019F908BDF8B504460D4617461E46274896
:101A0000FFF78CFF21682648FFF788FF61682548AB
:101A1000FFF784FFA1682448FFF780FFE1682348AF
:101A2000FFF77CFF21692248FFF778FF61692148B1
:101A3000FFF774FFA1692048FFF770FFE1691F48B5
:101A4000FFF76CFF1E48FFF769FF29461D48FFF7A7
:101A500065FF1D4CE16A1D48FFF760FF216B1C48C4
:101A6000FFF75CFFE16B1B48FFF758FF15F0800F95
:101A70000AD115F4004F0CD11748FFF74FFF069914
:101A80001648FFF74BFFF8BD39461548FFF746FFEC
:101A9000EFE731461348FFF741FFEDE70C6600081A
:101AA0001C6600082C6600083C6600084C660008AE
:101AB0005C6600086C6600087C6600088C6600089E
:101AC0009C660008A866000800ED00E0B866000803
:101AD000C8660008D8660008086700081067000894
:101AE000E8660008F866000883691A888A4201D00F
:101AF000002070470268033A012A03D80233836149
:101B0000012070470020704782B0002301930093AA
:101B10002C4A136843F4803313602A4B1B6803F488
:101B200000330093019B01330193009B1BB9019B80
:101B3000B3F5A06FF1D1234B1B6813F4003F06D01F
:101B400001230093009B012B04D002B070470023B7
:101B50000093F7E71C4B1A6842F010021A601A68EB
:101B600022F003021A601A6842F002021A60A3F51A
:101B700080535A685A605A685A605A6842F48062C0
:101B80005A605A6822F47C125A605A6842F4E81289
:101B90005A601A6842F080721A600A4B1B6813F090
:101BA000007FFAD0074B5A6822F003025A605A6845
:101BB00042F002025A60034B5B6803F00C03082BEF
:101BC000F9D1C2E7001002400020024008B5FFF73B
:101BD0009BFF08BD08B5104B1A6842F001021A605D
:101BE00059680E4A0A405A601A6822F0847222F438
:101BF00080321A601A6822F480221A605A6822F42D
:101C0000FE025A604FF41F029A60FFF7DFFF4FF0A9
:101C10000062034B9A6008BD001002400000FFF80C
:101C200000ED00E01F4B5B6803F00C03042B15D0A4
:101C3000082B17D01BB11C4A1C4B1A6002E01A4A31
:101C40001A4B1A60174B5B68C3F30313184AD35C33
:101C5000DAB216490B68D3400B607047124A134B37
:101C60001A60EFE70F4A53685268C3F383430233A5
:101C700012F4803F0AD00B4A526812F4003F0BD096
:101C80000C4A02FB03F3094A1360DBE7094A02FB33
:101C900003F3064A1360D5E7034A02FB03F3034A42
:101CA0001360CFE70010024000127A0030000020DD
:101CB0002000002000093D000146002302E0002230
:101CC000CA5401335F2BFAD960230B6600204866A3
:101CD0008866C866086770470131814201D00846AE
:101CE00070470021FBE738B50446456E006E85421B
:101CF00009DA0B46A16E6354FFF7EEFFA0660135CB
:101D00006566002038BD4FF0FF3038BDF8B5456E30
:101D1000002D0EDD0F460446C66E3146006EFFF7FD
:101D2000DBFFE066013D6566F6B2A35D3B70002017
:101D3000F8BD6FF00100F8BD2DE9F04D82B083468B
:101D40008846924600260027CDE90067002514E06A
:101D5000EC000BEB0403D3E90023DDE9000103F001
:101D6000A5FACDE900014444D4E9002330463946C0
:101D700003F09CFA06460F4601355545E8D3504618
:101D800003F0D0FB04460D4602460B46DDE9000198
:101D900003F068FD074BC3E9000122462B4630469D
:101DA000394603F05FFD044BC3E9000102B0BDE812
:101DB000F08D00BF98010020A00100202DE9F04720
:101DC000814688461746002546E0EC0009EB0406EC
:101DD0004444D4E90023D6E9000103F019FCDFF8FC
:101DE000A4A002460B46DAE9000103F05FFACAE953
:101DF0000001DFF888A0D6E90023DAE9000103F04A
:101E000055FACAE90001DFF880A0D4E90023DAE935
:101E1000000103F04BFACAE90001D6E900010246CD
:101E20000B4603F0F5FB134E02460B46D6E90001C4
:101E300003F03CFAC6E90001D4E9000102460B4672
:101E400003F0E6FB0C4C02460B46D4E9000103F01C
:101E50002DFAC4E900010135BD42B6D3074BD3E9E1
:101E6000000102460B4603F0D3FB054BC3E900011A
:101E7000BDE8F087B0010020D0010020A8010020BB
:101E8000B8010020C0010020C80100202DE9F04F5A
:101E900083B007468A4616461D46FFF78FFF304639
:101EA00003F040FBCDE900012E4CD4E9002303F000
:101EB000AFFB804689462C4BD3E900232B49D1E95F
:101EC000000103F0A5FB02460B464046494603F0DD
:101ED000EBF980468946DFF8A8B0DBE90023DDE9AD
:101EE000000103F095FB224BD3E9002303F0DCF95A
:101EF00002460B464046494603F0B4FCC5E90001E2
:101F0000324651463846FFF717FF1A4BD3E90023F4
:101F1000D5E9000103F07CFB02460B461649D1E9E6
:101F2000000103F0C1F90C9BC3E90001D4E90001F1
:101F300002460B4603F06CFB04460D460F4BD3E9FB
:101F40000023DBE9000103F063FB02460B46204659
:101F5000294603F087FC0D9BC3E9000103B0BDE8EF
:101F6000F08F00BFC0010020C8010020A8010020A0
:101F7000B801002098010020A0010020D00100201D
:101F8000B001002038B5D0E900450022154B2046AD
:101F9000294603F0AFFD08BB0022124B204629461C
:101FA00003F0C6FD40B100220F4B2046294603F046
:101FB000A1FD08B1022038BD00220B4B2046294666
:101FC00003F0B6FD08B9042038BD0022074B2046B7
:101FD000294603F08FFD18B9042038BD012038BD13
:101FE000032038BD000024400000594000408F40CD
:101FF0002DE9F04F87B00446974B1A680092D3F84A
:102000000490964B19680191D3F80480944B196899
:1020100002915F68934B196803915E68924B19684F
:1020200004915D68914B19680591D3F804A0592378
:102030000380002200230098494603F05BFD00283E
:1020400040F0E78000236380DDF800B05846494641
:1020500003F0A0FD03F066FA02460B46CDF800B08F
:102060005846494603F020F979A3D3E9002303F049
:10207000CFFA03F08FFD1FFA80FB0098494603F06A
:1020800089FDA080A4F806B00022002301984146F3
:1020900003F030FD002840F0C18000232381DDF8EB
:1020A00004B05846414603F075FD03F03BFA024682
:1020B0000B465846414603F0F7F865A3D3E90023E1
:1020C00003F0A6FA03F066FD1FFA80F95846414670
:1020D00003F060FD6081A4F80C90002200230298B8
:1020E000394603F007FD002840F09D800023E3817E
:1020F000DDF808904846394603F04CFD03F012FA2B
:1021000002460B464846394603F0CEF850A3D3E9C1
:10211000002303F07DFA03F03DFD1FFA80F84846E6
:10212000394603F037FD2082A4F8128000220023F4
:102130000398314603F0DEFC002879D10023A38206
:10214000DDF80C804046314603F024FD03F0EAF947
:1021500002460B464046314603F0A6F83CA3D3E9BD
:10216000002303F055FA03F015FD87B240463146CF
:1021700003F010FDE0822783002200230498294603
:1021800003F0B8FC002858D100236383049F38462D
:10219000294603F0FFFC03F0C5F902460B4638461A
:1021A000294603F081F82AA3D3E9002303F030FA8B
:1021B00003F0F0FC86B23846294603F0EBFCA0831E
:1021C000E683002200230598514603F093FC002883
:1021D00038D100232384059E3046514603F0DAFCB3
:1021E00003F0A0F902460B463046514603F05CF876
:1021F00017A3D3E9002303F00BFA03F0CBFC85B25D
:102200003046514603F0C6FC6084A58407B0BDE8A3
:10221000F08F09F100490123638015E708F10048B8
:10222000012323813BE707F100470123E3815FE7B7
:1022300006F100460123A38282E705F10045012350
:102240006383A3E70AF1004A01232384C3E700BFA5
:10225000000000000088C340100600202006002077
:10226000300600200806002018060020280600205E
:10227000D0B50446408803F055F906460F46A088BD
:1022800003F050F968A3D3E9002303F0EBFA024608
:102290000B462188002940F088803046394603F0FB
:1022A00005F8634BC3E90001208903F03BF90646BA
:1022B0000F46608903F036F95BA3D3E9002303F0EE
:1022C000D1FA02460B46E188002979D130463946D9
:1022D00002F0ECFF574BC3E90001E08903F022F95B
:1022E00006460F46208A03F01DF94FA3D3E90023C9
:1022F00003F0B8FA02460B46A18900296BD130469B
:10230000394602F0D3FF4C4BC3E90001A08A03F029
:1023100009F906460F46E08A03F004F942A3D3E91F
:10232000002303F09FFA02460B46618A00295DD123
:102330003046394602F0BAFF404BC3E90001608BDA
:1023400003F0F0F806460F46A08B03F0EBF836A337
:10235000D3E9002303F086FA02460B46218B0029BD
:102360004FD13046394602F0A1FF354BC3E9000199
:10237000208C03F0D7F806460F46608C03F0D2F8A5
:1023800029A3D3E9002303F06DFA02460B46E18B43
:10239000002941D03046394602F088FF024601F15B
:1023A00000432849C1E90023D0BD3046394602F038
:1023B0007DFF024601F100431D49C1E9002373E797
:1023C0003046394602F072FF024601F100431949D6
:1023D000C1E9002381E73046394602F067FF024633
:1023E00001F100431449C1E900238FE73046394623
:1023F00002F05CFF024601F100431049C1E90023ED
:102400009DE73046394602F051FF024601F1004394
:102410000B49C1E90023ABE73046394602F046FFDD
:10242000084BC3E90001D0BD000000000088C34094
:10243000100600202006002030060020080600209C
:10244000180600202806002010B58AB02822002196
:10245000684603F0D0FB6846FFF7CAFD14226946C0
:10246000064800F03FF8044610B920460AB010BDF7
:102470004E221021024800F0D5FAF6E70040060887
:102480005467000800B58BB028220021684603F08D
:10249000B2FB14226946084800F013F8BDF800307A
:1024A000592B03D000200BB05DF804FB0DF10200A6
:1024B000FFF7DEFE0120F6E700400608008880B244
:1024C0007047F8B507460E461546002407E007EBAF
:1024D0004400FFF7F3FF26F814000134A4B2AC4225
:1024E000F5D3F8BDB0F1006F25D3F8B500F178430E
:1024F000DB0A03F58033DC0200EB42050F4B9D4203
:1025000001D90020F8BD16460F460546FEF70EF825
:102510002046FEF749F8002407E037F8141005EBD1
:102520004400FEF771F80134A4B2A642F5D8FEF7D4
:1025300009F80120F8BD0020704700BFFFFF070821
:1025400010B584B001210846FEF78EFB4FF4FA6304
:10255000ADF808304723ADF804300024ADF80A4048
:10256000ADF8064001A94FF08040FEF7F7FB0121CE
:102570004FF08040FEF770FD012211464FF0804081
:10258000FEF7FEFC01214FF08040FEF795FC21464E
:102590000120FEF769FB04B010BD00B583B04FF415
:1025A000E060FDF755FF1C238DF8043001238DF802
:1025B00005308DF806308DF8073001A8FDF768FF6B
:1025C00003B05DF804FB08B5FFF7BAFFFFF7E5FFBE
:1025D00001210846FEF748FB08BD000008B50221AE
:1025E0001648FEF7D5F8B8B9154A136801331360D9
:1025F000134B1B68142B04D90023114A1360114A92
:102600001370114B1B68142B05D900220E4B1A6056
:1026100001220C4B1A7008BD04210848FEF7B8F8D7
:102620000028E1D008210548FEF7B2F80028DBD0E9
:10263000054A136801331360DAE700BF0010014058
:10264000FC0500209D0000203806002008B501216F
:102650004FF08040FEF75CFDB8B1184B1B6833B9F2
:10266000174A136801331360B3F5967F0ED0154BEC
:102670001B68012B11D00022134B1A60FFF7AEFF2D
:1026800001214FF08040FEF7B3FD08BD00220C4B46
:102690001A600122094B1A60E9E70B4B1B680B4AD1
:1026A0001268934203D20133074A1360E6E700221F
:1026B000044B1A600122064B1A60DFE7EC01002090
:1026C000D8010020E8010020E0010020DC0100200A
:1026D000E401002030B583B001210420FEF79EFA0A
:1026E0000425ADF8045018238DF8073003238DF826
:1026F0000630094C0DEB05012046FDF7B1FF08231C
:10270000ADF804308DF807500DEB05012046FDF7BC
:10271000A7FF03B030BD00BF0008014010B582B074
:1027200001210420FEF77AFA4FF40073ADF804306B
:1027300018238DF8073003238DF80630094C01A9C2
:102740002046FDF78DFF4FF48063ADF8043004237D
:102750008DF807300DEB03012046FDF781FF02B035
:1027600010BD00BF0008014010B582B00121082053
:10277000FEF754FA4FF48063ADF8043018238DF857
:10278000073003238DF80630094C01A92046FDF7D8
:1027900067FF4FF40063ADF8043004238DF8073071
:1027A0000DEB03012046FDF75BFF02B010BD00BF3B
:1027B000000C014000B583B04FF4E060FDF748FE27
:1027C00026238DF8043000238DF805308DF806306F
:1027D00001238DF8073001A8FDF75AFE03B05DF81C
:1027E00004FB000010B584B0FFF774FF01214FF423
:1027F0000030FEF739FA4FF4965300930023ADF8FA
:102800000430ADF806304FF48062ADF808200C2299
:10281000ADF80A20ADF80C30094C69462046FEF7A9
:1028200043FD012240F225512046FEF749FEFFF705
:10283000C1FF01212046FEF70FFE04B010BD00BF0E
:102840000044004000B583B04FF4E060FDF700FEA7
:1028500025238DF8043002238DF8053003238DF8ED
:10286000063001238DF8073001A8FDF711FE03B0F3
:102870005DF804FB10B584B0FFF750FF01214FF461
:102880008040FEF7CBF94FF4165300930023ADF8C8
:102890000430ADF80630ADF808300C22ADF80A204F
:1028A000ADF80C30094C69462046FEF7FDFC0122CC
:1028B00040F225512046FEF703FEFFF7C3FF01213A
:1028C0002046FEF7C9FD04B010BD00BF003801402E
:1028D00000B583B04FF4E060FDF7BAFD26238DF814
:1028E000043002238DF8053004238DF806300123CF
:1028F0008DF8073001A8FDF7CBFD03B05DF804FBB0
:1029000010B584B0FFF730FF01214FF48020FEF7AF
:10291000ABF94FF4165300930023ADF80430ADF833
:102920000630ADF808300C23ADF80A304FF4807350
:10293000ADF80C30094C69462046FEF7B5FC012283
:1029400040F225512046FEF7BBFDFFF7C1FF0121F4
:102950002046FEF781FD04B010BD00BF00480040D6
:1029600070B506460D4600240AE0315D0648FEF7C4
:102970001FFE80210448FEF769FE0028F9D00134CB
:10298000AC42F2D370BD00BF0048004010B582B029
:1029900001211020FEF742F94FF48063ADF80430B6
:1029A00018238DF8073003238DF80630094C01A950
:1029B0002046FDF755FE4FF40063ADF804300423C4
:1029C0008DF807300DEB03012046FDF749FE02B0FC
:1029D00010BD00BF0010014010B584B0FFF7D6FF56
:1029E00001214FF40020FEF73FF94FF416530093F6
:1029F0000023ADF80430ADF80630ADF808300C22F5
:102A0000ADF80A20ADF80C30054C69462046FEF7BB
:102A10004BFC01212046FEF71FFD04B010BD00BF96
:102A2000004C0040592A00D0704770B50D4606464C
:102A300000240AE0315D0648FEF7BAFD8021044813
:102A4000FEF704FE0028F9D00134AC42F2D370BD89
:102A5000004C00402DE9F04383B0054689461746F7
:102A60001C4600268DF80760ADF804603346B0467A
:102A700011E00DF107012846FFF748F90023364A17
:102A80001360364A1360002C3CD10A22344B1A6082
:102A90002346012B55D06A6E002A48DDBE42E8D09D
:102AA0000DF107012846FFF731F90028E6D13CBBBC
:102AB0009DF8073009F8063003F11002D2B20E2A51
:102AC00003D9552B01D0AA2B02D18DF80430A04692
:102AD000B8F1010F09D0013608F10108182ECDD147
:102AE00099F80030552BC9D132E05A2BF3D19DF81B
:102AF000042089F8002089F801304646A046EAE71C
:102B00000136BBE7012C07D0022C0AD04FF4FA7231
:102B1000134B1A600023BCE7FA22114B1A60002302
:102B2000B7E74FF4FA720E4B1A600023B1E7002B9F
:102B3000AFD10121084A116000210A4A1160013316
:102B4000A7E7064A1268012AA5D10022034B1A60A2
:102B5000304603B0BDE8F083E8010020E401002026
:102B6000DC010020E001002010B540F225510948A9
:102B7000FEF7C2FD00B910BD064C40F225512046BB
:102B8000FEF73AFE2046FEF73FFDC1B20248FFF7CE
:102B9000AAF8F0E7003801403007002010B540F2F5
:102BA00025510948FEF7A8FD00B910BD064C40F2BA
:102BB00025512046FEF720FE2046FEF725FDC1B236
:102BC0000248FFF790F8F0E7004400404806002074
:102BD00010B540F225510948FEF78EFD00B910BD31
:102BE000064C40F225512046FEF706FE2046FEF731
:102BF0000BFDC1B20248FFF776F8F0E7004800404D
:102C0000BC06002010B540F225510948FEF774FDBE
:102C100000B910BD064C40F225512046FEF7ECFDF0
:102C20002046FEF7F1FCC1B20248FFF75CF8F0E77E
:102C3000004C004030070020034638B1002001E07E
:102C4000013001331A78002AFAD17047002070470A
:102C500070B4002403E06518165D465501349C42AB
:102C6000F9D370BC7047000010B50246012308E09C
:102C700003EB830463000E4C84FB02E4D217C2EB27
:102C8000A4020A2AF4DC0DE090FBF3F202F1300416
:102C90000C7003FB1200064A82FB0342DB17C3EBF6
:102CA000A2030131002BEFDC00230B7010BD00BF2D
:102CB000676666662DE9F84306460F4690461D4650
:102CC0009DF8209002F066FF012211E0A91A204B26
:102CD000A3FB0043DB0803EB83035C00031B3033DF
:102CE00008F801301A4BA3FB0030C0080132D2B201
:102CF000AA4206D80028E9D1AB1A302108F80310FF
:102D0000F0E72E2308F80530012417E00022114BCC
:102D10003046394602F07CFC06460F4602F03AFF88
:102D200029190B4BA3FB0023DB0803EB83035A0099
:102D3000831A303308F801300134E4B24C45E5D948
:102D40004D440135002308F80530BDE8F88300BF85
:102D5000CDCCCCCC000024400B09092B08D8303353
:102D6000037001F00F01092905D93731417070470F
:102D700037330370F5E73031417070472DE9F04784
:102D800082B007460D4616460024B44204D22B5D9D
:102D90002E2B2ED00134F8E74FF000084FF0000939
:102DA0004FF0000A10E015F80A00303802F0CAFBB4
:102DB00042464B4602F07AFA0022304B02F028FCE1
:102DC000804689460AF1010A5445ECD800222B4B73
:102DD0004046494602F046FDCDE90001A6EB040A53
:102DE000BAF1010F0CD001344FF000084FF0000988
:102DF0001AE04FF000084FF000094FF0000AE3E737
:102E000003460C46C7E9003433E0285D303802F051
:102E100099FB42464B4602F049FA0022174B02F05A
:102E2000F7FB804689460134B442EED30022134BAF
:102E30004046494602F016FD04460D460020104962
:102E4000002604E000220D4B02F0E2FB01360AF1FD
:102E5000FF339E42F6D302460B462046294602F037
:102E600001FD02460B46DDE9000102F01FFAC7E949
:102E70000001012002B0BDE8F08700BF000024403F
:102E80000000F03F00B583B001210820FDF7C6FE29
:102E90004FF45073ADF8043003238DF8063010233F
:102EA0008DF8073001A90348FDF7DAFB03B05DF8A0
:102EB00004FB00BF000C014000B583B04FF4007369
:102EC000ADF8043003238DF8063010238DF8073059
:102ED00001A90348FDF7C4FB03B05DF804FB00BF84
:102EE000000C014000B583B04FF40073ADF804301E
:102EF00003238DF8063048238DF8073001A90348D5
:102F0000FDF7AEFB03B05DF804FB00BF000C014011
:102F100010B50B4C4FF400712046FDF795FC4FF4B3
:102F200080712046FDF790FC4FF400712046FDF7BC
:102F3000BBFC4FF480712046FDF7B6FC10BD00BF0E
:102F4000000C014010B5084C4FF480712046FDF78D
:102F50007BFC4FF400712046FDF7A6FC4FF4007196
:102F60002046FDF771FC10BD000C014010B5FFF7C5
:102F7000B9FF4FF480710E48FDF766FC42F2107302
:102F80005C1E002B11DD4FF400710948FDF700FCB9
:102F9000234604460028F3D14FF480710448FDF71E
:102FA00083FCFFF789FF204610BD0124FBE700BF2B
:102FB000000C014070B50546012383F31088FFF72C
:102FC0007BFF002413E04FF400711348FDF73CFC35
:102FD000114E4FF480713046FDF736FC4FF480718E
:102FE0003046FDF761FC6D00EDB20134E4B2072C10
:102FF0000DD84FF480710848FDF756FC15F0800F8E
:10300000E1D14FF400710448FDF74EFCE0E70023E6
:1030100083F3108870BD00BF000C014010B504465A
:10302000FFF776FF7820FFF7C5FFFFF79FFF68B92E
:103030000020FFF7BFFFFFF799FF70B159220F2162
:103040000E48FFF7EFFC0224204610BD59220F2145
:103050000B48FFF7E7FC0124F6E72046FFF7AAFF3D
:10306000FFF784FF044630B1592210210548FFF7CD
:10307000D9FC0324E8E7FFF765FFE5E7D47400080F
:10308000C4740008E4740008F8B506460D46FFF75E
:103090003FFF7820FFF78EFFFFF768FF90B94020D1
:1030A000FFF788FFFFF762FF074698B90446AC4276
:1030B0001ED2305DFFF77EFFFFF758FF88B901345D
:1030C000E4B2F4E7592211210B48FFF7ABFC0127CA
:1030D0003846F8BD59220F210848FFF7A3FC022704
:1030E000F6E759220F210648FFF79CFC0327EFE77C
:1030F000FFF728FFECE700BFF87400080C75000824
:103100001C75000810B504465039C8B2FFF786FF99
:10311000200940F01000FFF781FF0120FFF77EFF3C
:10312000002010BD10B500240BE021460020FFF761
:10313000E9FF8021044800EBC410FFF7A5FF01342C
:10314000E4B2072CF1D910BDF001002008B530B170
:10315000FF214FF48062034802F04DFD08BD0021BD
:10316000F7E700BFF001002008B5064B1B7883424B
:1031700006D0044B18700020FFF7E8FFFFF7D2FFDE
:1031800008BD00BFF005002010B5FFF77BFE324CF4
:1031900040212046FDF788FB40212046FDF754FBE7
:1031A0004E220C212D48FFF73DFCAE20FFF736FFE5
:1031B000D520FFF733FF8020FFF730FFA820FFF76F
:1031C0002DFF3F20FFF72AFFD320FFF727FF002026
:1031D000FFF724FF4020FFF721FF8D20FFF71EFFA0
:1031E0001420FFF71BFFA120FFF718FFC820FFF7EF
:1031F00015FFDA20FFF712FF1220FFF70FFF8120E3
:10320000FFF70CFFCF20FFF709FFD920FFF706FFDC
:10321000F120FFF703FFDB20FFF700FF4020FFF75F
:10322000FDFEA420FFF7FAFEA620FFF7F7FE002020
:10323000FFF78CFFFFF776FFAF20FFF7EFFE084B9D
:1032400000221A805A8001245C714E220E2105480A
:10325000FFF7E8FB204610BD000C01402C7500086C
:10326000F40500203C750008014B18805980704718
:10327000F40500207F2815D83F2913D8104B1B795F
:1032800013B1B2FA82F25209012A0CD0CB0800EB3A
:10329000C31001F0070101238B400A4A115C21EAA7
:1032A000030111547047CB0800EBC31001F0070174
:1032B00001238B40034A115C19431154704700BF2E
:1032C000F4050020F00100202DE9F843234B1B8872
:1032D0000C7823447F2B3BDC204B5B884C782344C9
:1032E0003F2B38DC90460E46814600251CE01B4BE8
:1032F00018885988B8FA88F2520929442044FFF7FF
:10330000B9FF013433789C420DD207FA04F313F469
:10331000004FECD0114B188859884246294420446C
:10332000FFF7A8FFEDE701357278954208D2716882
:10333000A9F1200302FB035331F813700024E1E7E5
:103340003378064A11880B4413804846BDE8F88359
:103350000020BDE8F8830020BDE8F883F4050020D4
:1033600070B514461D469DF810601B7803FB00F0F5
:103370006B7803FB01F101310130FFF775FF207815
:1033800040B132462946FFF79FFF2378984204D187
:103390000134F4E7FFF7C6FE2378184670BD00003D
:1033A0002DE9F04391B0CDE90401CDE902230024D9
:1033B0000D940E94ADF83C400A940B94ADF8304057
:1033C00007940894ADF824400420FFF7CDFE344E56
:1033D000012500953346334A21462046FFF7C0FFBA
:1033E00000953346304A29462046FFF7B9FF00953D
:1033F00033462E4A02212046FFF7B2FF009533469E
:103400002B4A21460A20FFF7ABFF00953346294A95
:1034100029460A20FFF7A4FF00953346264A0221D9
:103420000A20FFF79DFF10A870E90C89FEF7AAFD9E
:1034300002270097C3B20DAA40464946FFF73AFC5F
:10344000009533460DAA21460320FFF789FF10A8F7
:1034500070E90E89FEF796FD0097C3B20AAA4046AE
:103460004946FFF727FC009533460AAA2946032060
:10347000FFF776FFDDE9188918A8FEF783FD0097AE
:10348000C3B207AA40464946FFF714FC00953346ED
:1034900007AA39460320FFF763FF11B0BDE8F083A8
:1034A00034000020FC75000800760008047600084F
:1034B000087600080C760008F875000830B583B06F
:1034C0000720FFF751FE094D012400942B46084ABE
:1034D00000210846FFF744FF00942B46054A214689
:1034E0000020FFF73DFF03B030BD00BF34000020D7
:1034F000947500089C75000830B583B00620FFF76E
:1035000033FE134D012400942B46124A0021084635
:10351000FFF726FF00942B460F4A21460020FFF7B5
:103520001FFF00942B460D4A02210020FFF718FFD1
:1035300000942B460A4A02210A20FFF711FF00944B
:103540002B46084A02210520FFF70AFF03B030BDD1
:1035500034000020A8750008B0750008BC7500088C
:10356000C4750008C875000830B583B00520FFF7A2
:10357000FBFD134D012400942B46124A00210846FE
:10358000FFF7EEFE00942B460F4A21460020FFF77E
:10359000E7FE00942B460D4A02210020FFF7E0FED3
:1035A00000942B460A4A02210A20FFF7D9FE009414
:1035B0002B46084A02210520FFF7D2FE03B030BD9A
:1035C000340000208C750008B0750008BC75000838
:1035D000C4750008C875000830B583B00320FFF734
:1035E000C3FD0C4D012400942B460B4A00210846D4
:1035F000FFF7B6FE00942B46084A21460020FFF74D
:10360000AFFE00942B46064A02210020FFF7A8FED9
:1036100003B030BD34000020D8750008E475000800
:10362000F0750008F0B585B00446002504AE26F814
:10363000045D0120FFF798FD21463046FFF78CFB23
:103640000F4F012400943B460E4A29462846FFF7B7
:1036500087FE00943B460C4A21462846FFF780FE31
:1036600000943B46094A02212846FFF779FE009460
:103670003B46324602210720FFF772FE05B0F0BD3F
:10368000340000206C750008787500088475000807
:1036900030B583B00820FFF767FD094D0124009481
:1036A0002B46084A00210846FFF75AFE00942B4695
:1036B000054A21460020FFF753FE03B030BD00BF8E
:1036C000340000206C750008CC7500082DE9F04727
:1036D0008CB08246894615461C46002309930A93FE
:1036E000ADF82C3006930793ADF820300393049384
:1036F000ADF814300920FFF737FD002200235046B3
:10370000494602F0F7F900284FD14FF00408002293
:1037100000232846214602F0EDF9002852D1042763
:1037200004260096012309AA50464946FFF7C2FA2B
:103730000096012306AA28462146FFF7BBFA009609
:10374000012303AADDE91401FFF7B4FA234D012494
:1037500000942B46224A00210846FFF701FE009400
:103760002B46204A21460020FFF7FAFD00942B4605
:103770001D4A02210020FFF7F3FD00942B4609AA01
:1037800000214046FFF7ECFD00942B4606AA214697
:103790003846FFF7E5FD00942B4603AA0221304688
:1037A000FFF7DEFD0CB0BDE8F08709F10049012309
:1037B00000930A4B0D4A00210846FFF7D1FD4FF058
:1037C0000508A4E704F1004401210091034B074AD6
:1037D0000420FFF7C5FD0527A2E700BF3400002045
:1037E000547500085C750008647500085075000881
:1037F00010B584B004460023ADF80C3064281AD00C
:10380000092C21D9164BA3FB0423DB0803F130025A
:103810008DF80C2003EB83035A00A21A30328DF886
:103820000D20012300930F4B03AA02210520FFF76F
:1038300097FD04B010BD012300930A4B0A4A0221F0
:103840000520FFF78DFDDBE7303404AA02F8044DB4
:1038500001230093034B02210520FFF781FDE8E7D8
:10386000CDCCCCCC340000204C75000808B5FDF759
:103870004BF84FF48030FDF767F8FDF755FA124B1F
:103880001870A8B94FF4E0114FF48030FDF78AF8B2
:103890000120FDF7D3F83920FDF70CFA0028FAD003
:1038A0000220FDF7DBF8FDF7EFF80828FBD108BD93
:1038B0000020FDF7F1F80020FDF732F94FF48060A9
:1038C000FDF70EF9DEE700BFA407002000B583B0C6
:1038D000ADF8041003238DF8063010238DF807305F
:1038E00001A9FCF7BDFE03B05DF804FB70B5012132
:1038F0000420FDF793F901210820FDF78FF901213C
:103900001020FDF78BF9244C4FF480712046FFF70F
:10391000DDFF224E80213046FFF7D8FF40213046A0
:10392000FFF7D4FF1E4D4FF400412846FFF7CEFFAE
:103930004FF480412846FFF7C9FF4FF40051284655
:10394000FFF7C4FF4FF480512846FFF7BFFF022165
:103950002846FFF7BBFF01212846FFF7B7FF2021CC
:103960003046FFF7B3FF10213046FFF7AFFF80214D
:103970002046FFF7ABFF40212046FFF7A7FF20219D
:103980002046FFF7A3FF10212046FFF79FFF0221EB
:103990002046FFF79BFF70BD00080140001001406A
:1039A000000C014030B583B001211020FDF736F93D
:1039B0000123ADF8043003258DF8065010238DF84F
:1039C0000730094C01A92046FCF74AFE0223ADF856
:1039D00004308DF8065048238DF8073001A92046A1
:1039E000FCF73EFE03B030BD0010014010B4C47DB2
:1039F000182902D0002010BC70470378552B01D045
:103A00001846F8E7037D03F070026F2A02DD0223F7
:103A1000002204E01846EEE7C15C0A440133162B8D
:103A2000FAD9D2B2944201D00020E4E70120E2E7C3
:103A3000F0B58BB007460E461546324B93E80300AF
:103A40000790ADF820100024CDF8224003F10C02BD
:103A500092E803000490ADF81410090C8DF81610CC
:103A6000ADF817408DF81940183393E80300019022
:103A70008DF80810CDF809408DF80D40022C0DD8B6
:103A800013212148FEF76CFF02230A2201A91F48D7
:103A9000FEF7E0FF10B90134E4B2EFE70024022C96
:103AA0000DD813211A48FEF75BFF02230A2204A94E
:103AB0001648FEF7CFFF10B90134E4B2EFE7002457
:103AC000022C0DD811211348FEF74AFF02230A22C7
:103AD00007A90E48FEF7BEFF10B90134E4B2EFE7C4
:103AE000052207A93846FFF749F9062204A93046FE
:103AF000FFF744F9032201A92846FFF73FF9012007
:103B00000BB0F0BD1076000834770008BC0600202A
:103B1000487700085C7700082DE9F04F83B08346B2
:103B200092469946FFF762FF012803D0C0B203B066
:103B3000BDE8F08F9BF80E009BF80F3043EA00239E
:103B40009BF810009BF802209BF8037047EA0222C2
:103B50009BF8047047EA02279BF808209BF809505D
:103B600045EA02229BF80A5045EA02259BF81120FB
:103B70009BF8128048EA02229BF8138048EA022848
:103B80009BF805209BF8066046EA02229BF8076036
:103B900046EA02269BF80B209BF80C4044EA0222DE
:103BA0009BF80D4044EA022440EA032001F0BAFCED
:103BB000CDE90001404601F0B5FC02460B46DDE9C7
:103BC000000101F04FFECAE90001384601F0AAFCED
:103BD00082468B46304601F0A5FC02460B46504615
:103BE000594601F03FFEC9E90001284601F09AFC60
:103BF00006460F46204601F095FC02460B4630462D
:103C0000394601F02FFE0C9BC3E9000101208EE72D
:103C100070B588B016461D4600220023CDE9062364
:103C2000CDE90423CDE9022302AB009304AB06AA3D
:103C3000FFF772FF0446012802D0204608B070BD8D
:103C4000104BD3E90023DDE9060101F0E1FC0E4B46
:103C5000D3E9002301F02AFBC6E900010B4BD3E9AD
:103C60000023DDE9020101F0D3FC094BD3E9002375
:103C700001F01CFB0C9BC3E90001DDE90423C5E94D
:103C80000023DAE7100600202006002008060020A6
:103C90001806002030B593B000230F931093ADF8B1
:103CA0004430B84BD3E90023CDE90C23B64BD3E91C
:103CB0000023CDE90A23B54BD3E90023CDE908233E
:103CC000B34BD3E90023CDE90623B24BD3E900235C
:103CD000CDE90423B04BD3E90023CDE902234E22E2
:103CE0000421AE48FEF79EFE0C9D0D9C0022002391
:103CF0002846214601F01CFF002800F0D0800CA8C7
:103D0000FEF740F904230093C3B20FAA28462146C8
:103D1000FEF7D0FF4E2206210FA8FEF783FE4E22AB
:103D200002219F48FEF77EFE4E2204219D48FEF7A9
:103D300079FE0A9D0B9C002200232846214601F0B3
:103D4000F7FE002800F0C2800AA8FEF71BF9042342
:103D50000093C3B20FAA28462146FEF7ABFF4E22BE
:103D600006210FA8FEF75EFE4E2202218C48FEF7C8
:103D700059FE4E2204218C48FEF754FE089D099CF2
:103D8000002200232846214601F0D2FE002800F040
:103D9000B48008A8FEF7F6F804230093C3B20FAA74
:103DA00028462146FEF786FF4E2206210FA8FEF781
:103DB00039FE4E2202217A48FEF734FE4E220421BB
:103DC0007A48FEF72FFE069D079C00220023284616
:103DD000214601F0ADFE002800F0A68006A8FEF7FF
:103DE000D1F804230093C3B20FAA28462146FEF758
:103DF00061FF4E2206210FA8FEF714FE4E2202217B
:103E00006748FEF70FFE4E2204216948FEF70AFEBE
:103E1000049D059C002200232846214601F088FECF
:103E2000002800F0988004A8FEF7ACF80423009363
:103E3000C3B20FAA28462146FEF73CFF4E220621B8
:103E40000FA8FEF7EFFD4E2202215548FEF7EAFDCE
:103E50004E2204215748FEF7E5FD029D039C0022F7
:103E600000232846214601F063FE002800F0A680CA
:103E700002A8FEF787F804230093C3B20FAA2846CE
:103E80002146FEF717FF4E2206210FA8FEF7CAFDB6
:103E90004E2202214248FEF7C5FD13B030BD04F1A9
:103EA00000442A46234612A860E90623FEF76AF872
:103EB00004230093C3B20FAA28462146FEF7FAFE58
:103EC0004E2201213C48FEF7ADFD23E704F10044FA
:103ED0002A46234612A860E90823FEF753F8042374
:103EE0000093C3B20FAA28462146FEF7E3FE4E22F6
:103EF00001213148FEF796FD31E704F100442A46DE
:103F0000234612A860E90A23FEF73CF80423009335
:103F1000C3B20FAA28462146FEF7CCFE4E2201214D
:103F20002548FEF77FFD3FE704F100442A4623467B
:103F300012A860E90C23FEF725F804230093C3B20E
:103F40000FAA28462146FEF7B5FE4E2201211A4847
:103F5000FEF768FD4DE704F100442A46234612A807
:103F600060E90E23FEF70EF804230093C3B20FAAF4
:103F700028462146FEF79EFE4E2201210E48FEF7FE
:103F800051FD5BE7100600202006002030060020CF
:103F90000806002018060020280600205475000896
:103FA000147800085C750008647500081C77000828
:103FB000247700082C7700085075000804F10044AD
:103FC0002A46234612A860E91023FDF7DBFF0423ED
:103FD0000093C3B20FAA28462146FEF76BFE4E227D
:103FE00001210248FEF71EFD4DE700BF5075000895
:103FF00008B5234B1B78234A1278934204D023B18F
:104000001F4B1A781F4B1A7008BD02211E48FCF77F
:10401000BFFB58B91D4B1B78012B21D001211A4839
:10402000FCF742FC194A1378DB431370042116484D
:10403000FCF7AEFB30B9164B1B78012B18D00122D0
:10404000134B1A7008211048FCF7A2FB0028D7D1A7
:104050000F4B1B78022B0FD002220D4B1A70CFE7AB
:10406000012100F1804000F58830FCF7EDFBD9E735
:104070000022074B1A70E5E70022054B1A70BFE7D4
:104080009D0000209C000020001001409E000020A8
:104090000006002001294CD002294DD003294ED022
:1040A00004294FD0052950D0062951D0072952D0D4
:1040B000082953D0092954D00A2955D00F2956D0A0
:1040C0003C2958D0782959D0B1F5167F5AD0B1F58E
:1040D000257F5AD0B1F5347F5BD0B1F5966F5DD0B6
:1040E00040F2EC4399425DD0B1F5A56F5FD0B1F5D8
:1040F000E16F62D040F24473994263D0B1F5F06F42
:1041000066D0B1F5166F6AD040F69C1399426CD018
:1041100040F6D81399426FD040F6B833994273D025
:1041200040F65843994276D040F6944399427AD06B
:1041300070470123037070470123437070470123C8
:10414000837070470123C370704701230371704768
:104150000123437170470123837170470123C371A9
:104160007047012303727047012343727047012394
:104170000371437270470123837270470123837276
:10418000C372704701230373704701238372037363
:10419000704701238372C372037370470123037353
:1041A0004373704701230373437383727047012382
:1041B000037343738372C3727047012303734373A2
:1041C0008373704701230373437383738372704750
:1041D00001230373437383738372C3727047012394
:1041E000037343738373C373704701230373437370
:1041F0008373C373837270470123037343738373A1
:10420000C3738372C3727047012303734373837351
:10421000C373037470470123037343738373C373BE
:104220000374837270470123037343738373C373EF
:1042300003748372C3727BE738B50546002409E036
:104240000C4B33F814100C4B53F82400FCF7FCFA19
:104250000134E4B20F2C0BD82B5D002BF0D1054BB1
:1042600033F81410044B53F82400FCF71DFBEFE760
:1042700038BD00BF7C0000203C0000202DE97043C9
:1042800090B016461D4600230D930E93ADF83C30BA
:104290000A930B93ADF8303007930893ADF82430B0
:1042A0004FF000084FF00009CDE90489CDE90289FB
:1042B000CDE900898B420BD2C25C0D2A08D02C2A92
:1042C00006D010AC1C4404F80C2C0133DBB2F1E72F
:1042D0000DA8FEF7B1FC02460DA904A8FEF74EFD9D
:1042E0000DA8FEF7A9FC02460AA902A8FEF746FDA2
:1042F0000DA8FEF7A1FC024607A96846FEF73EFDA1
:1043000000220E4BDDE9040101F0ACFAC6E9000120
:1043100000220A4BDDE9020101F0A4FAC5E900011F
:104320000022064BDDE9000101F09CFA169BC3E96F
:104330000001012010B0BDE8708300BF00408F4035
:104340002DE9F04F9FB0814601929846289F299E03
:10435000DDF8A8B0DDF8ACA02C9D2D9C11ABC44AB3
:1043600007CA03C323F8022B120C1A70272200215C
:104370000DF14F0001F03FFC00230E930F93ADF8B9
:1043800040300B930C93ADF8343008930993ADF89B
:10439000283005930693ADF81C3002930393ADF8D3
:1043A000103030238DF80830B9F1010F00F04F8143
:1043B00030238DF84E30002200230198414601F051
:1043C00099FB002840F047810022002338463146FF
:1043D00001F090FB002840F0418100220023584664
:1043E000514601F087FB002840F03B81002200236A
:1043F0002846214601F07EFB002840F0358100224E
:104400009C4B0198414601F003F980468946002201
:10441000984B3846314601F0FBF806460F4600221D
:10442000944B5846514601F0F3F882468B460022E1
:10443000904B2846214601F0EBF804460D464046D5
:10444000494601F0A7FB8C4BA3FB0023DB0803EBE1
:1044500083035A00831A052B07D90022874B404655
:10446000494600F023FF804689463046394601F030
:1044700091FB814BA3FB0023DB0803EB83035A0072
:10448000831A052B07D900227C4B3046394600F0B1
:104490000DFF06460F465046594601F07BFB764B12
:1044A000A3FB0023DB0803EB83035A00831A052BCD
:1044B00007D90022714B5046594600F0F7FE82465C
:1044C0008B462046294601F065FB6B4BA3FB00237E
:1044D000DB0803EB83035A00831A052B07D900225C
:1044E000664B2046294600F0E1FE04460D460022B8
:1044F000624B4046494601F0B5F9804689460022A4
:104500005E4B3046394601F0ADF906460F460022B3
:104510005A4B5046594601F0A5F982468B46002277
:10452000564B2046294601F09DF904460D4640466B
:10453000494601F007FB0EA9FEF796FB30463946C7
:1045400001F000FB0BA9FEF78FFB5046594601F026
:10455000F9FA08A9FEF788FB2046294601F0F2FA8D
:1045600005A9FEF781FB11A8FEF766FB04460EA81D
:10457000FEF762FB03460EAA214611A8FEF768FB70
:1045800011A8FEF759FB3E4C01232246014611A813
:10459000FEF75EFB11A8FEF74FFB05460BA8FEF7E2
:1045A0004BFB03460BAA294611A8FEF751FB11A8A5
:1045B000FEF742FB01232246014611A8FEF748FB05
:1045C00011A8FEF739FB054608A8FEF735FB0346A0
:1045D00008AA294611A8FEF73BFB11A8FEF72CFB01
:1045E00001232246014611A8FEF732FB11A8FEF76F
:1045F00023FB054605A8FEF71FFB034605AA29462F
:1046000011A8FEF725FB11A8FEF716FB0123224691
:10461000014611A8FEF71CFB11A8FEF70DFB04468E
:1046200002A8FEF709FB034602AA214611A8FEF7DD
:104630000FFB11A8FEF700FB014611A8FEF790F949
:1046400002211048FEF78CF91FB0BDE8F08F31232E
:104650008DF84E30AFE608F10048B5E606F10046A9
:10466000BBE60AF1004AC1E604F10044C7E600BF18
:104670003476000800408F40CDCCCCCC00002440E4
:10468000A4770008147800082DE9F04FADF25C6DB6
:104690000025CDF84856CDF84C56CDF85056CDF8FB
:1046A00054564422C4490DF2046001F099FAF022F4
:1046B00029460DF2145001F09EFAADF81055CDF8D0
:1046C000FC54CDF80055CDF80455CDF80855CDF87B
:1046D0000C558DF8FB54002200230DF59E61C1E9B5
:1046E00000230DF59D61C1E900230DF59C61C1E931
:1046F00000230DF59B61C1E900230DF59A61C1E925
:1047000000230DF59961C1E90023E02422462946E2
:10471000FAA801F070FA22462946C2A801F06BFA05
:10472000224629468AA801F066FA2246294652A85E
:1047300001F061FA4C954D954E954F9550955195D8
:1047400046954795489549954A954B95409541958D
:1047500042954395449545955024224629462CA8D8
:1047600001F049FA2246294618A801F044FA2246E7
:10477000294604A801F03FFA2C46102D00F2B5811D
:104780002E460DF5CB6303EB850353F8541C0DF552
:10479000C960FFF77FFC0DF5C960FFF74DFD874845
:1047A000FDF78AFA4FF00008C14620E04FEA990071
:1047B000C00040AB1A1846AB19184CAB1844FFF7B1
:1047C00037F9012819D108F101085FFA88F814E0D7
:1047D00009EB4903D900002318220DF214500144BB
:1047E0007648FEF737F909F101095FFA89F9B9F15D
:1047F000090F26D819F0030FD8D00DF5CB6303EBC2
:10480000860353F8543C0A2BE2D80027312FEAD80C
:1048100009EB4903DC000DF214531C440023182259
:1048200021466648FEF716F918212046FFF7DEF804
:10483000C4B2012CD7D0312F00F0C6810137FFB2AE
:10484000E4E7B8F1000F00F0C5814E2209215C4871
:10485000FEF7E8F85B4BA3FB0523DB0803F130020E
:104860008DF8102503EB83035A00AB1A30338DF813
:1048700011354E2202210DF5A260FEF7D3F84E222B
:1048800002215148FEF7CEF84CAFD7E90223D7E911
:10489000000100F00BFDD7E9042300F007FDF7004D
:1048A0008AAB03EB070ACDE9020102460B46CAE9CF
:1048B00000230DF58079D9E90223D9E9000100F040
:1048C000F5FCD9E9042300F0F1FC52AB1F44C7E921
:1048D00000014FF0040BCDF800B05B460DF2FC4236
:1048E000DDE90201FEF7E6F9592209210DF2FC404B
:1048F000FEF798F8592202213348FEF793F8404614
:1049000000F020FECDE9020102460B46DAE9000183
:1049100000F0A8FF80468946CAE90089DDE9022344
:10492000D7E9000100F09EFFC7E90001CDF800B013
:104930005B460DF2FC4240464946FEF7BBF9592260
:1049400009210DF2FC40FEF76DF8592202211E48A4
:10495000FEF768F80027B84605E00137FFB208F116
:1049600001085FFA88F8B8F1090F2FD808EB48035F
:10497000D8004FEAC80204AB1344009318AB1344A9
:104980002CA90A4418210DF2145E7044FFF7C4F8F4
:104990000128E2D04FEAC8032CAA1A4400200021C3
:1049A000C2E9000118AA1A44C2E9000104AA13448A
:1049B000C3E90001D3E700BF68760008480600207D
:1049C00094770008CDCCCCCC14780008002F00F0F0
:1049D00004814FF0000A20E04FEACA0B2CAB5B4485
:1049E0004FEAC608FAAA02EB0809D3E90023D9E97D
:1049F000000100F05BFCC9E9000104AB5B44C2AA02
:104A00009044D3E90023D8E9000100F04FFCC8E945
:104A100000010AF1010A5FFA8AFABAF1090FDBD93B
:104A20004FEAC60AFAAB03EB0A084FF00409CDF8C7
:104A300000904B460DF2FC42D8E90001FEF73AF92E
:104A4000592209210DF2FC40FDF7ECFFDFF89CB183
:104A5000592202215846FDF7E5FF384600F072FD65
:104A6000CDE9020102460B46D8E9000100F0FAFE4A
:104A7000C8E90001C2AB9A44DDE90223DAE900018A
:104A800000F0F0FECAE9000130378DF8FB745922BE
:104A900001210DF2FB40FDF7C5FF592202215248CA
:104AA000FDF7C0FFD8E90001CDF800904B460DF2AC
:104AB000FC42FEF7FFF8592209210DF2FC40FDF7F8
:104AC000B1FF592202215846FDF7ACFF06EB46061E
:104AD0007000632801DCFEF78BFE4E220221434862
:104AE000FDF7A0FF0135EDB247E66420FEF780FE3A
:104AF0000DF59C6501950DF59D6300930DF59E6385
:104B00001C228AA9FAA8FDF7C1F90DF59963019352
:104B10000DF59A6300930DF59B631C2252A9C2A860
:104B2000FDF7B4F9D5E900892DA3D3E90023404668
:104B3000494600F0FDFF58B10DF59963D3E90067D0
:104B400027A3D3E900233046394600F0F1FF98B996
:104B50000DF59D63D3E900230DF59E61D1E90001B8
:104B60000DF59C65D5E90067CDE90067FEF7AEFD60
:104B7000002C27D1002029E00DF59E63D3E9000128
:104B80001B4BC3E900010DF59D63D3E90001194BEF
:104B9000C3E90001184BC3E900890DF59B63D3E914
:104BA0000001164BC3E900010DF59A63D3E900013A
:104BB000134BC3E90001134BC3E90067FDF744FC45
:104BC0000124C5E7012001E06FF002000DF25C6DE9
:104BD000BDE8F08F4FF0FF30F8E76FF00100F5E728
:104BE000CDCCCCCCCCCCEC3FA0770008147800081E
:104BF00010060020200600203006002008060020B5
:104C000018060020280600202DE9F04FADF2547D53
:104C10000024CDF84047CDF84447CDF84847CDF8BB
:104C20004C477022A5490DF5DA6000F0D9FFF0225B
:104C300021460DF5BC6000F0DEFF322221460DF268
:104C4000AC5000F0D8FF002200230DF5B461C1E99B
:104C500000230DF5B361C1E900230DF5B261C1E98F
:104C600000230DF5B161C1E900230DF5B061C1E983
:104C700000230DF5AF61C1E90023E0252A46214656
:104C80000DF5936000F0B7FF2A462146EEA800F02C
:104C9000B2FF2A462146B6A800F0ADFF2A462146BB
:104CA0007EA800F0A8FF2A46214646A800F0A3FFF0
:104CB00050252A46214632A800F09DFF2A4621466B
:104CC0001EA800F098FF2A4621460AA800F093FF8C
:104CD0007B4B1B78012B09D0794B1B78022B40F0C2
:104CE00051814FF0000A5446D346C6E00D21754865
:104CF000FDF736FE022332220DF2AC517248FDF769
:104D0000A9FE08B900204DE1022270490DF2AC5015
:104D100000F081FF0028DFD1694A13780133137056
:104D2000DAE70135EDB2312D17D8092CF9D804EBAB
:104D300044034FEAC3080DF5BC63984400231822CE
:104D400041466348FDF786FE18214046FEF74EFEB9
:104D5000C0B20128E5D10134E4B2022332220DF2BF
:104D6000AC515948FDF776FEF8B90A2EF5D8002562
:104D7000D9E70135EDB2AC421AD905EB4503D800AD
:104D8000EA000AAB134400931EAB134432A90A4451
:104D900018210DF5BC663044FEF7BEFE0128E8D1AF
:104DA0000AF1010A5FFA8AFAE3E709900025E2E7CF
:104DB000BAF1000F00F01881002518E032AB03EBC8
:104DC000C503D3E900890DF5936303EBC706D6E964
:104DD00000234046494600F069FA02460B46404629
:104DE000494600F063FAC6E900010135EDB2092D2C
:104DF000E4D9504600F0A6FB80468946FF000DF539
:104E00009363DD1902460B46D5E9000100F02AFD47
:104E100042464B4600F026FD2E4BD3E9002300F01E
:104E2000F7FB2D4BD3E9002300F040FAC5E9000160
:104E3000EEABDD19294BD3E90023D5E9000100F0E1
:104E4000E7FB274BD3E9002300F030FAC5E9000166
:104E500046AB3B4400937EAB3B44B6AA3A44099927
:104E60000DF2AC50FFF70AFA089B03EB4300FEF784
:104E7000BFFC0BF1010B5FFA8BFBCDF820B0BBF14F
:104E80001B0F31D85F460DF5EA6303EB8B0353F834
:104E9000806C31460DF5E860FFF7FCF80DF5E86031
:104EA000FFF7CAF9022332220DF2AC510648FDF792
:104EB000D1FD0D210B48FDF753FD56E7AC760008F8
:104EC000FA05002070770008BC06002080770008F3
:104ED00048060020100600202006002008060020BA
:104EE00018060020847700086420FEF781FC0DF589
:104EF000B26401940DF5B36300930DF5B4631C2205
:104F00000DF59361B6A8FCF7C1FF0DF5AF630193F2
:104F10000DF5B06300930DF5B1631C22EEA946A810
:104F2000FCF7B4FF32A3D3E90023D4E9000100F079
:104F3000FFFD50B12EA3D3E900230DF5AF61D1E9F8
:104F4000000100F0F5FD002830D10DF5B463D3E980
:104F5000002300200021CDE906010DF5B061D1E963
:104F60000001CDE904010DF5B161D1E90001CDE900
:104F700002010DF5B361D1E90001CDE90001002086
:104F8000FFF7DEF90DF5B363D3E900230DF5B46146
:104F9000D1E900010DF5B06430CCCDE90045FEF754
:104FA00095FB00200DF2547DBDE8F08F0DF5B46344
:104FB000D3E9002300200021CDE906010DF5B06101
:104FC000D1E90001CDE904010DF5B161D1E900019C
:104FD000CDE902010DF5B361D1E90001CDE9000190
:104FE0000120FFF7ADF9CDE76FF00100DAE700BF70
:104FF000CDCCCCCCCCCCEC3F2DE9F041ADF5067D51
:105000000022002384A9C1E9002382A9C1E9002369
:1050100080A9C1E900234FF4FA72002103A800F02F
:10502000EAFD0025ADF80850FEF720FCFDF7DAFB9D
:10503000FDF720FCFDF764FCFDF7CEFCFEF7B2FCAB
:10504000FEF754FCFDF7BFFA8148FCF735FE8148B6
:10505000FCF732FE8048FCF72FFEFEF795F82E464F
:105060002F468DE04E221B217C48FDF7DBFCFEF72E
:1050700043FAFFF709FB01280DD010F1030F13D0FD
:10508000B0F1FF3F16D010F1020F19D0F0B1042299
:10509000734B1A7074E04E2210217248FDF7C2FC67
:1050A0000122714B1A70F2E74E221E216F48FDF764
:1050B000B9FCECE74E221E216D48FDF7B3FCE6E794
:1050C0004E221B216B48FDF7ADFCE0E74E22132179
:1050D0006948FDF7A7FCDAE7634B1B784BB14E221A
:1050E0001E216648FDF79EFCFEF73EFAFFF78CFD99
:1050F00046E0FEF7E3F943E04E2210216048FDF759
:1051000091FC80ABD3E90023CDE9002382ABD3E946
:10511000002384A9D1E90001FEF742F927E0013715
:10512000FFB2092F23D94E2218215648FDF77AFCE9
:10513000FEF752FA27461AE00136F6B2092E16D9C2
:105140004E2215215048FDF76DFC414602A8FDF79F
:1051500003FE4E22022102A8FDF764FC4E2202212A
:105160004A48FDF75FFC264601E0FEF791FA00226F
:10517000474B1A604FF4FA72002103A800F03BFD80
:10518000FEF736FF364B1C78012C3FF46BAF022C38
:10519000A2D0002CF4D1344B1B78002B41D000233B
:1051A0004FF4FA7203A92A48FDF754FC8046384BA5
:1051B0001B68012BDED14E22014603A8FDF732FC0D
:1051C000B8F1000FD1D080AB009382AB84AA4146E6
:1051D00003A8FEF71DFD804601288DD0AA289ED089
:1051E00000F11003DBB20E2BA6D80135EDB2092D6C
:1051F000BDD94E2215212748FDF714FC414602A8CF
:10520000FDF7AAFD4E22022102A8FDF70BFC4E225B
:1052100002211E48FDF706FC4046FEF703FA25462C
:10522000A5E7FDF72FF950B101220F4B1A704E225E
:105230000C211948FDF7F6FBFEF72CFDA0E74E22E6
:105240000D211648FDF7EEFBFEF738F998E700BF91
:105250004806002030070020BC060020A877000880
:1052600000060020C477000801060020D877000857
:10527000F8770008187800083478000848780008A3
:10528000687800087C780008B07800081478000876
:10529000EC01002098780008C8780008D878000849
:1052A00081F0004102E000BF83F0004330B54FEAD7
:1052B00041044FEA430594EA050F08BF90EA020F44
:1052C0001FBF54EA000C55EA020C7FEA645C7FEAD7
:1052D000655C00F0E2804FEA5454D4EB5555B8BFFA
:1052E0006D420CDD2C4480EA020281EA030382EA6B
:1052F000000083EA010180EA020281EA0303362DFD
:1053000088BF30BD11F0004F4FEA01314FF4801CCF
:105310004CEA113102D0404261EB410113F0004FE1
:105320004FEA03334CEA133302D0524263EB430398
:1053300094EA050F00F0A780A4F10104D5F1200E36
:105340000DDB02FA0EFC22FA05F2801841F1000191
:1053500003FA0EF2801843FA05F359410EE0A5F165
:1053600020050EF1200E012A03FA0EFC28BF4CF096
:10537000020C43FA05F3C01851EBE37101F000454C
:1053800007D54FF0000EDCF1000C7EEB00006EEB59
:105390000101B1F5801F1BD3B1F5001F0CD34908E3
:1053A0005FEA30004FEA3C0C04F101044FEA44523A
:1053B00012F5800F80F09A80BCF1004F08BF5FEAC1
:1053C000500C50F1000041EB045141EA050130BDA1
:1053D0005FEA4C0C404141EB010111F4801FA4F144
:1053E0000104E9D191F0000F04BF01460020B1FA99
:1053F00081F308BF2033A3F10B03B3F120020CDAD1
:105400000C3208DD02F1140CC2F10C0201FA0CF0AE
:1054100021FA02F10CE002F11402D8BFC2F1200C13
:1054200001FA02F120FA0CFCDCBF41EA0C019040C9
:10543000E41AA2BF01EB0451294330BD6FEA040412
:105440001F3C1CDA0C340EDC04F11404C4F12002FD
:1054500020FA04F001FA02F340EA030021FA04F30F
:1054600045EA030130BDC4F10C04C4F1200220FA66
:1054700002F001FA04F340EA0300294630BD21FAA4
:1054800004F0294630BD94F0000F83F4801306BF6A
:1054900081F480110134013D4EE77FEA645C18BF5E
:1054A0007FEA655C29D094EA050F08BF90EA020FF5
:1054B00005D054EA000C04BF1946104630BD91EAED
:1054C000030F1EBF0021002030BD5FEA545C05D1F0
:1054D0004000494128BF41F0004130BD14F580042F
:1054E0003CBF01F5801130BD01F0004545F0FE41A3
:1054F00041F470014FF0000030BD7FEA645C1ABFD8
:10550000194610467FEA655C1CBF0B46024650EA0E
:10551000013406BF52EA033591EA030F41F400213A
:1055200030BD00BF90F0000F04BF0021704730B5C0
:105530004FF4806404F132044FF000054FF0000195
:1055400050E700BF90F0000F04BF0021704730B556
:105550004FF4806404F1320410F0004548BF40422B
:105560004FF000013EE700BF42004FEAE2014FEA80
:1055700031014FEA02701FBF12F07F4393F07F4F5B
:1055800081F06051704792F0000F14BF93F07F4F8D
:10559000704730B54FF4607401F0004521F00041D0
:1055A00020E700BF50EA010208BF704730B54FF056
:1055B00000050AE050EA010208BF704730B511F05B
:1055C000004502D5404261EB41014FF4806404F193
:1055D00032045FEA915C3FF4DCAE4FF003025FEA15
:1055E000DC0C18BF03325FEADC0C18BF033202EB9D
:1055F000DC02C2F1200300FA03FC20FA02F001FAF7
:1056000003FE40EA0E0021FA02F11444C1E600BF95
:1056100070B54FF0FF0C4CF4E06C1CEA11541DBF48
:105620001CEA135594EA0C0F95EA0C0F00F0DEF813
:105630002C4481EA030621EA4C5123EA4C5350EAF8
:10564000013518BF52EA033541F4801143F4801349
:1056500038D0A0FB02CE4FF00005E1FB02E506F0DA
:105660000042E0FB03E54FF00006E1FB03569CF02F
:10567000000F18BF4EF0010EA4F1FF04B6F5007F35
:1056800064F5407404D25FEA4E0E6D4146EB0606A7
:1056900042EAC62141EA55514FEAC52040EA5E5030
:1056A0004FEACE2EB4F1FD0C88BFBCF5E06F1ED8DA
:1056B000BEF1004F08BF5FEA500E50F1000041EB11
:1056C000045170BD06F0004646EA010140EA0200BE
:1056D00081EA0301B4EB5C04C2BFD4EB0C0541EAE0
:1056E000045170BD41F480114FF0000E013C00F3F5
:1056F000AB8014F1360FDEBF002001F0004170BD19
:10570000C4F10004203C35DA0C341BDC04F1140431
:10571000C4F1200500FA05F320FA04F001FA05F2BD
:1057200040EA020001F0004221F0004110EBD3708A
:1057300021FA04F642EB06015EEA430E08BF20EAB6
:10574000D37070BDC4F10C04C4F1200500FA04F359
:1057500020FA05F001FA04F240EA020001F00041EB
:1057600010EBD37041F100015EEA430E08BF20EA5E
:10577000D37070BDC4F1200500FA05F24EEA020EA6
:1057800020FA04F301FA05F243EA020321FA04F0D5
:1057900001F0004121FA04F220EA020000EBD3708C
:1057A0005EEA430E08BF20EAD37070BD94F0000F8C
:1057B0000FD101F00046400041EB010111F4801FC0
:1057C00008BF013CF7D041EA060195F0000F18BF71
:1057D000704703F00046520043EB030313F4801FAD
:1057E00008BF013DF7D043EA0603704794EA0C0F67
:1057F0000CEA135518BF95EA0C0F0CD050EA41067D
:1058000018BF52EA4306D1D181EA030101F00041F9
:105810004FF0000070BD50EA410606BF1046194621
:1058200052EA430619D094EA0C0F02D150EA01362D
:1058300013D195EA0C0F05D152EA03361CBF10466E
:1058400019460AD181EA030101F0004141F0FE410D
:1058500041F470014FF0000070BD41F0FE4141F491
:10586000780170BD70B54FF0FF0C4CF4E06C1CEA91
:1058700011541DBF1CEA135594EA0C0F95EA0C0F46
:1058800000F0A7F8A4EB050481EA030E52EA033501
:105890004FEA013100F088804FEA03334FF0805522
:1058A00045EA131343EA12634FEA022245EA11154F
:1058B00045EA10654FEA00260EF000419D4208BF00
:1058C000964244F1FD0404F5407402D25B084FEAAD
:1058D0003202B61A65EB03055B084FEA32024FF459
:1058E00080104FF4002CB6EB020E75EB030E22BFB6
:1058F000B61A754640EA0C005B084FEA3202B6EB76
:10590000020E75EB030E22BFB61A754640EA5C0024
:105910005B084FEA3202B6EB020E75EB030E22BFB4
:10592000B61A754640EA9C005B084FEA3202B6EBB5
:10593000020E75EB030E22BFB61A754640EADC0074
:1059400055EA060E18D04FEA051545EA16754FEAD6
:1059500006164FEAC30343EA52734FEAC2025FEAF4
:105960001C1CC0D111F4801F0BD141EA00014FF083
:1059700000004FF0004CB6E711F4801F04BF014354
:105980000020B4F1FD0C88BFBCF5E06F3FF6AFAE70
:10599000B5EB030C04BFB6EB020C5FEA500C50F100
:1059A000000041EB045170BD0EF0004E4EEA113183
:1059B00014EB5C04C2BFD4EB0C0541EA045170BD8A
:1059C00041F480114FF0000E013C90E645EA060ECE
:1059D0008DE60CEA135594EA0C0F08BF95EA0C0FFC
:1059E0003FF43BAF94EA0C0F0AD150EA01347FF444
:1059F00034AF95EA0C0F7FF425AF104619462CE71B
:105A000095EA0C0F06D152EA03353FF4FDAE10467D
:105A1000194622E750EA410618BF52EA43067FF4CE
:105A2000C5AE50EA41047FF40DAF52EA43057FF45E
:105A3000EBAE12E74FF0FF3C06E000BF4FF0010C69
:105A400002E000BF4FF0010C4DF804CD4FEA410CCD
:105A50007FEA6C5C4FEA430C18BF7FEA6C5C1BD09A
:105A600001B050EA410C0CBF52EA430C91EA030F1B
:105A700002BF90EA020F0020704710F1000F91EA78
:105A8000030F58BF994208BF90422CBFD8176FEA46
:105A9000E37040F0010070474FEA410C7FEA6C5C14
:105AA00002D150EA013C07D14FEA430C7FEA6C5C1B
:105AB000D6D152EA033CD3D05DF8040B704700BF47
:105AC0008446104662468C461946634600E000BF95
