:020000040800F2
:1000000000C00020F9020008FF02000803030008F6
:100010007503000879030008C10300080000000010
:1000200000000000000000000000000009040008BB
:100030000D04000800000000110400081504000869
:1000400025040008250400082504000825040008EC
:1000500025040008250400082504000825040008DC
:1000600025040008250400082504000825040008CC
:1000700025040008250400082504000825040008BC
:1000800025040008250400082504000825040008AC
:10009000250400082504000825040008250400089C
:1000A000250400082504000825040008250400088C
:1000B0008D2D0008250400082504000825040008EB
:1000C000250400082504000825040008250400086C
:1000D00025040008D1320008053300083933000830
:1000E000250400082504000825040008250400084C
:1000F000250400082504000825040008250400083C
:10010000250400082504000825040008250400082B
:100110006D330008250400082504000825040008A4
:10012000250400082504000825040008250400080B
:1001300000000000000000000000000000000000BF
:1001400000000000000000000000000000000000AF
:10015000000000000000000000000000000000009F
:10016000000000000000000000000000000000008F
:10017000000000000000000000000000000000007F
:10018000000000000000000000000000000000006F
:10019000000000000000000000000000000000005F
:1001A000000000000000000000000000000000004F
:1001B000000000000000000000000000000000003F
:1001C000000000000000000000000000000000002F
:1001D000000000000000000000000000000000001F
:1001E0005FF8E0F100B583B001F0F4FB304B314A29
:1001F0001360314A1360314B314A03E011681960D2
:10020000043304322F498B42F8D32A4B1A682E4B01
:100210009A4200D0FEE7284B1A682C4B9A42F9D13B
:10022000234B2B4A13602B4A13602B4B02E0002216
:100230001A600433294A9342F9D3254B1B6813B93A
:10024000244B1B6803B1FEE701F0D0FB694601A80F
:1002500001F052FB224B234CE41AA4100025AC42BF
:1002600014DC214B214CE41AA4100025AC4213DC11
:100270000099019807F02EFB05461D4B1D4CE41A12
:10028000A410002C0EDC284601F008FB144B53F898
:10029000253098470135E2E7134B53F8253098474E
:1002A0000135E3E7013C124B53F824309847E8E767
:1002B000BABADECA000000200401002000000020BD
:1002C00020A4000808010020785634123254769891
:1002D00008010020E809002008010020EC090020A6
:1002E000500400085004000850040008500400089E
:1002F000500400085004000808B5FFF773FF00BE63
:10030000FEE71EF0040F0CBFEFF30880EFF3098047
:100310007146414A10472DE9F04182B004468846B3
:10032000124B5E6B9F6B9D6A1B6B13F0020F03D029
:100330000E4BDB6A002B0CDB0D4801F0EFFACDF819
:1003400000803B4632462946204601F053FB00BE62
:10035000FEE74BF6AB6101F0C7FB0028ECD04FF095
:100360000042024BDA6202B0BDE8F08100ED00E02D
:100370003890000800BEFEE71EF0040F0CBFEFF33C
:100380000880EFF309807146244A10472DE9F041B7
:1003900082B004468846084B5E6B9F6B9D6A074897
:1003A00001F0BCFACDF800803B4632462946204693
:1003B00001F020FB00BEFEE700ED00E048900008E1
:1003C0001EF0040F0CBFEFF30880EFF309807146B5
:1003D000134A10472DE9F04182B004468846084B85
:1003E0005E6B9F6B9D6A074801F098FACDF800801C
:1003F0003B4632462946204601F0FCFA00BEFEE7A5
:1004000000ED00E05490000800BEFEE700BEFEE7ED
:1004100000BEFEE770470000170300088D030008C8
:08042000D503000800BEFEE751
:1004280020A40008000000200801002020A40008E3
:10043800000000000000000008010020EC09002076
:080448000000000000000000AC
:1004500010B50446B0F5E06F0FD0B0F5C06F0CD00A
:10046000B0F5A06F09D0B0F5806F06D0B0F5407F31
:1004700003D06321044801F047FA44F0BF6444F418
:100480000034024BDC6010BDB88D000800ED00E0C8
:1004900010B50446C378012B03D97521204801F01B
:1004A00033FA63780F2B10D8A3780F2B12D8E37888
:1004B000ABB923785A0903F01F03012101FA03F3B2
:1004C0002032184941F8223010BD7621144801F03D
:1004D0001BFAE9E77721124801F016FAE7E7124B19
:1004E000DA68D243C2F30222C2F104000F2121FADA
:1004F00002F263788340A1780A4013431B012278FB
:10050000DBB208490A4482F800332378580903F023
:100510001F03012202FA03F341F8203010BD00BF8F
:10052000B88D000800E100E000ED00E0034B044A54
:100530005A6002F188325A60704700BF00200240C2
:1005400023016745024A136943F080031361704732
:10055000002002400B4BDB6813F0010F0DD1094B5B
:10056000DB6813F0040F01D002207047054BDB68F5
:1005700013F0100F03D003207047012070470420B0
:10058000704700BF0020024010B50446FFF7E2FFAD
:1005900002E0FFF7DFFF013C012801D1002CF8D178
:1005A00004B9052010BD000038B5044600F17842BA
:1005B000124B9A4206D84FF43020FFF7E5FF04288B
:1005C00006D038BD40F2A7110D4801F09DF9F2E7C1
:1005D0000C4D2B6943F002032B616C612B6943F0D6
:1005E00040032B614FF43020FFF7CEFF2B6923F03F
:1005F0000203DB04DB0C2B61E3E700BFFEFF0F000F
:10060000E08D00080020024070B504460D4600F160
:100610007842104B9A4206D84FF40050FFF7B4FFCF
:10062000042806D070BD4FF45D710B4801F06CF9E1
:10063000F2E70A4E336943F00103336125804FF43A
:100640000050FFF7A1FF336923F00103DB04DB0C4B
:100650003361E7E7FEFF0F00E08D00080020024055
:10066000F8B505460C46484B98421BD003F580630D
:10067000984217D003F58063984213D003F5806346
:1006800098420FD003F5806398420BD003F5806346
:10069000984207D003F58063984203D0B2213B48CB
:1006A00001F032F9E3788BB1042B0FD0282B0DD059
:1006B000482B0BD0142B09D0102B07D01C2B05D0A6
:1006C000182B03D0B321314801F01EF9238893B1D0
:1006D000E37803F00F06304613F0100F06D0A3782E
:1006E000013BDBB2022B0BD8A0783043237833B325
:1006F0002E6800230BE0B421244801F005F9E7E758
:10070000BB21224801F000F9EEE76A610133072BB3
:1007100014D801229A40218832EA0101F6D19900C9
:100720000F278F4026EA070600FA01F10E43E17811
:100730002829EAD04829E9D12A61E7E72E602388F1
:10074000FF2B20D96E68002302E06A6115E00133B7
:10075000072B17D803F1080101228A40218832EAC9
:100760000101F4D199000F278F4026EA070600FA0D
:1007700001F10E43E1782829E7D0E1784829E6D154
:100780002A61E4E76E60F8BD00080140148E00089D
:1007900038B504460D462A4B98421CD003F58063B9
:1007A000984218D003F58063984214D003F5806313
:1007B000984210D003F5806398420CD003F5806313
:1007C000984208D003F58063984204D04FF48F71AB
:1007D0001C4801F099F86B1E9BB2012B28D9042DFF
:1007E00026D0082D24D0102D22D0202D20D0402D11
:1007F0001ED0802D1CD0B5F5807F19D0B5F5007FB7
:1008000016D0B5F5806F13D0B5F5006F10D0B5F5E3
:10081000805F0DD0B5F5005F0AD0B5F5804F07D0E9
:10082000B5F5004F04D040F21F11064801F06CF8F6
:10083000A3681D4201D1002038BD012038BD00BF92
:1008400000080140148E000838B504460D46144BCC
:1008500098421CD003F58063984218D003F580635A
:10086000984214D003F58063984210D003F580635A
:1008700098420CD003F58063984208D003F580635A
:10088000984204D04FF4B571064801F03DF80DB11F
:10089000256138BD40F26B11024801F035F8F7E7E9
:1008A00000080140148E000838B504460D46144B6C
:1008B00098421CD003F58063984218D003F58063FA
:1008C000984214D003F58063984210D003F58063FA
:1008D00098420CD003F58063984208D003F58063FA
:1008E000984204D04FF4BD71064801F00DF80DB1E7
:1008F000656138BD40F27B11024801F005F8F7E769
:1009000000080140148E00080D4B1A6842F00102E5
:100910001A6059680B4A0A405A601A6822F08472B9
:1009200022F480321A601A6822F480221A605A680F
:1009300022F4FE025A604FF41F029A60704700BF13
:10094000001002400000FFF810B5044650B1B0F5A9
:10095000803F07D0B0F5802F04D040F211110F482E
:1009600000F0D2FF0E4B1A6822F480321A601A6827
:1009700022F480221A60B4F5803F03D0B4F5802FB2
:1009800006D010BD064A136843F48033136010BDCF
:10099000034A136843F4A023136010BD488E000877
:1009A0000010024038B50C46054650B1B0F5803F06
:1009B00007D0B0F5403F04D040F27F111D4800F051
:1009C000A3FF74B3B4F5802F2BD0B4F5002F28D03B
:1009D000B4F5402F25D0B4F5801F22D0B4F5A01F68
:1009E0001FD0B4F5C01F1CD0B4F5E01F19D0B4F56A
:1009F000001F16D0B4F5101F13D0B4F5201F10D06F
:100A0000B4F5301F0DD0B4F5401F0AD0B4F5501F17
:100A100007D0B4F5601F04D04FF4C071054800F052
:100A200073FF054B596821F47C112C432143596015
:100A300038BD00BF488E00080010024010B50446C3
:100A4000012804D94FF4CA71024800F05DFF024B3F
:100A50001C6010BD488E00086000424210B504467C
:100A6000022806D8064A536823F003031C43546047
:100A700010BD4FF40E71034800F046FFF2E700BFCF
:100A800000100240488E0008024B586800F00C002D
:100A9000704700BF0010024010B50446A0B1802886
:100AA00012D0902810D0A0280ED0B0280CD0C0288A
:100AB0000AD0D02808D0E02806D0F02804D04FF47F
:100AC0001971054800F020FF044A536823F0F00331
:100AD0001C43546010BD00BF488E00080010024047
:100AE00010B5044680B1B0F5806F0DD0B0F5A06FA1
:100AF0000AD0B0F5C06F07D0B0F5E06F04D040F277
:100B00007E21054800F000FF044A536823F4E063A7
:100B10001C43546010BD00BF488E00080010024006
:100B200010B5044680B1B0F5806F0DD0B0F5A06F60
:100B30000AD0B0F5C06F07D0B0F5E06F04D04FF425
:100B40002671054800F0E0FE044B586820F4605020
:100B500040EAC400586010BD488E000800100240F2
:100B600010B4294B5B6803F00C03042B2BD0082B2B
:100B70002CD013B1254B036001E0244B03602249C4
:100B80004B68C3F30313224CE35CDAB20368D3402F
:100B900043604A68C2F30222A25CD2B223FA02F294
:100BA00082604A68C2F3C222A25CD2B2D340C36060
:100BB0004A68C2F3813217498A5CD2B2B3FBF2F3BE
:100BC000036110BC7047114B0360D8E70E4A5368AD
:100BD0005268C3F38343023312F4803F09D00A4AB8
:100BE000526812F4003F09D00B4A02FB03F3036082
:100BF000C5E7094A02FB03F30360C0E7034A02FBAF
:100C000003F30360BBE700BF0010024000127A004C
:100C1000080000200400002000093D0038B504460B
:100C20000D460E4B034003B920B940F24A410C482F
:100C300000F06AFE012D04D940F24B41084800F053
:100C400063FE2DB9074A936923EA0404946138BD11
:100C5000044B9A6914439C6138BD00BF0200C0FF79
:100C6000488E00080010024038B504460D460E4B71
:100C7000184200D120B940F269410C4800F044FE0E
:100C8000012D04D940F26A41084800F03DFE2DB91B
:100C9000074AD36923EA0404D46138BD044BDA69F6
:100CA0001443DC6138BD00BF00360181488E000866
:100CB0000010024010B50446212818D0312816D063
:100CC000392814D0412812D0612810D07A280ED0AB
:100CD0007B280CD07C280AD07D2808D07E2806D01E
:100CE0007F2804D040F234510D4800F00DFE630916
:100CF000012B0CD0022B0DD00A4B5B6A04F01F04B1
:100D000023FA04F414F0010F07D1002010BD054BA5
:100D10001B68F3E7034B1B6AF0E7012010BD00BF1F
:100D2000488E00080010024000B583B000230193F4
:100D30003120FFF7BFFF019B01330193019BB3F506
:100D4000A06F01D00028F3D03120FFF7B3FF18B90E
:100D5000002003B05DF804FB0120FAE738B5044633
:100D60000D46524B984242D0B0F1804F3FD0A3F590
:100D7000943398423BD003F58063984237D003F513
:100D80008063984233D003F5806398422FD003F5F7
:100D9000806398422BD003F59033984227D003F517
:100DA000C053984223D003F5806398421FD003F5C7
:100DB000806398421BD0A3F59E33984217D003F569
:100DC0008063984213D003F5806398420FD003F5F7
:100DD000903398420BD003F58063984207D003F517
:100DE0008063984203D0E721314800F08DFD6B8885
:100DF0005BB1102B09D0202B07D0402B05D0602BE6
:100E000003D0E8212A4800F07FFDEB884BB1B3F511
:100E1000807F06D0B3F5007F03D0E921244800F09D
:100E200073FD23889BB2214A944212D002F50062DE
:100E300094420ED0B4F1804F0BD0A2F59832944278
:100E400007D002F58062944203D002F5806294429A
:100E500003D123F070036A881343164A944208D0E2
:100E600002F58062944204D023F440739BB2EA8876
:100E700013432380AB88A3852B8823850B4B9C428F
:100E80000FD003F500639C420BD003F540639C42F6
:100E900007D003F580639C4203D003F580639C4236
:100EA00001D12B7A23860123A38238BD002C014077
:100EB000788E00080010004038B504460D462E4BD1
:100EC000984243D0B0F1804F40D0A3F5943398427C
:100ED0003CD003F58063984238D003F58063984294
:100EE00034D003F58063984230D003F58063984294
:100EF0002CD003F59033984228D003F5C053984284
:100F000024D003F58063984220D003F58063984293
:100F10001CD0A3F59E33984218D003F58063984205
:100F200014D003F58063984210D003F590339842B3
:100F30000CD003F58063984208D003F58063984293
:100F400004D040F229310D4800F0DEFC012D04D917
:100F500040F22A31094800F0D7FC35B923889BB20A
:100F600023F001039BB2238038BD23889BB243F05A
:100F70000103238038BD00BF002C0140788E00089B
:100F800070B504460D461646314B984243D0B0F139
:100F9000804F40D0A3F5943398423CD003F5806352
:100FA000984238D003F58063984234D003F58063CB
:100FB000984230D003F5806398422CD003F59033EB
:100FC000984228D003F5C053984224D003F580639B
:100FD000984220D003F5806398421CD0A3F59E333D
:100FE000984218D003F58063984214D003F58063CB
:100FF000984210D003F5903398420CD003F58063EB
:10100000984208D003F58063984204D040F26B31D7
:10101000104800F079FC15F47F4F00D125B94FF44A
:101020005B710C4800F070FC012E04D940F26D3168
:10103000084800F069FC2EB9A389ED43ADB21D400C
:10104000A58170BDA3899BB21D43A58170BD00BF62
:10105000002C0140788E000838B504460D462A4B16
:10106000984243D0B0F1804F40D0A3F594339842DA
:101070003CD003F58063984238D003F580639842F2
:1010800034D003F58063984230D003F580639842F2
:101090002CD003F59033984228D003F5C0539842E2
:1010A00024D003F58063984220D003F580639842F2
:1010B0001CD0A3F59E33984218D003F58063984264
:1010C00014D003F58063984210D003F59033984212
:1010D0000CD003F58063984208D003F580639842F2
:1010E00004D040F63621094800F00EFC15F4614F9B
:1010F00000D125B940F63721044800F005FCED4346
:10110000ADB2258238BD00BF002C0140788E0008AA
:1011100038B504460D46344B984243D0B0F1804F69
:1011200040D0A3F5943398423CD003F580639842B5
:1011300038D003F58063984234D003F58063984239
:1011400030D003F5806398422CD003F59033984259
:1011500028D003F5C053984224D003F58063984209
:1011600020D003F5806398421CD0A3F59E339842AB
:1011700018D003F58063984214D003F58063984239
:1011800010D003F5903398420CD003F58063984259
:1011900008D003F58063984204D040F658211348E4
:1011A00000F0B2FB6B1E9BB2012B10D9042D0ED0A8
:1011B000082D0CD0102D0AD0202D08D0402D06D09F
:1011C000802D04D040F65921084800F09DFB228A6A
:1011D000A3892B40154202D01BB9002038BD002046
:1011E00038BD012038BD00BF002C0140788E0008BA
:1011F00038B504460D462A4B984243D0B0F1804F93
:1012000040D0A3F5943398423CD003F580639842D4
:1012100038D003F58063984234D003F58063984258
:1012200030D003F5806398422CD003F59033984278
:1012300028D003F5C053984224D003F58063984228
:1012400020D003F5806398421CD0A3F59E339842CA
:1012500018D003F58063984214D003F58063984258
:1012600010D003F5903398420CD003F58063984278
:1012700008D003F58063984204D040F682210948E3
:1012800000F042FB15F47F4F00D125B940F68321D1
:10129000044800F039FBED43ADB2258238BD00BFF4
:1012A000002C0140788E000830B587B004460D460A
:1012B000654B984213D0A3F5744398420FD003F5C1
:1012C000806398420BD003F58063984207D003F502
:1012D0008063984203D0B8215C4800F015FB2B686E
:1012E000013B5B4A934200F29480AB8833B1B3F583
:1012F000805F03D0BA21554800F006FBEB8863B14C
:10130000B3F5805F09D0B3F5005F06D0B3F5405F59
:1013100003D0BB214D4800F0F7FA2B894BB1B3F550
:10132000806F06D0B3F5C06F03D0BC21474800F0F2
:10133000EBFA6A8922F00C039BB203B91AB9BD21FA
:10134000424800F0E1FAAB8963B1B3F5807F09D080
:10135000B3F5007F06D0B3F5407F03D0BE213B48F4
:1013600000F0D2FAAB8973B1374B9C420BD0A3F596
:1013700074439C4207D003F580639C4203D0C22192
:10138000324800F0C1FA238A9BB2EA8823F4405322
:1013900013432382A3899BB2A98828896A890143C0
:1013A0000A4323F4B05323F00C031343A381A38A0D
:1013B0009BB2AA8923F440731343A38201A8FFF7C9
:1013C000CFFB214B9C4229D0039BA28912F4004FF2
:1013D00026D103EB830303EB830329688900B3FB66
:1013E000F1F11C4BA3FB012358090501642300FB09
:1013F0001313A28912F4004F1BD11B013233154A7B
:10140000A2FB0323C3F343132B439BB2238107B0F7
:1014100030BDB9210D4800F077FA66E7049BD4E7A8
:1014200003EB830303EB830329684900B3FBF1F16A
:10143000D7E7D9003231074AA2FB0131C1F342128A
:1014400045EA0203E1E700BF00380140A88E00082A
:101450001FAA44001F85EB5138B504460D46164BB4
:10146000984214D0A3F57443984210D003F58063DA
:1014700098420CD003F58063984208D003F580634E
:10148000984204D04FF4B1710C4800F03DFA012DA0
:1014900004D940F26311094800F036FA35B9A3893E
:1014A0009BB223F400539BB2A38138BDA3899BB2A6
:1014B00043F40053A38138BD00380140A88E0008D2
:1014C00070B504460D461646374B984214D0A3F526
:1014D0007443984210D003F5806398420CD003F512
:1014E0008063984208D003F58063984204D040F2AC
:1014F00089112E4800F008FA282D1ED040F22773DB
:101500009D421AD040F226639D4216D040F22553E8
:101510009D4212D040F224439D420ED040F6460335
:101520009D420AD040F66A139D4206D0602D04D039
:101530004FF4C5711D4800F0E7F9012E04D940F2BF
:101540008B111A4800F0E0F940F66A139D4211D061
:10155000C5F3421205F01F05012303FA05F59A426F
:1015600019D0022A19D01434CEB9236823EA05050C
:10157000256070BD0C4B9C42EAD0A3F574439C429D
:10158000E6D003F580639C42E2D040F28F11074819
:1015900000F0BAF9DCE70C34E6E71034E4E723683E
:1015A0001D43256070BD00BF00380140A88E0008B3
:1015B00038B504460D46124B984214D0A3F5744337
:1015C000984210D003F5806398420CD003F58063F5
:1015D000984208D003F58063984204D040F25F211E
:1015E000084800F091F9B5F5007F03D2C5F308056E
:1015F000A58038BD4FF41871024800F085F9F5E771
:1016000000380140A88E000810B504460D4B9842E2
:1016100014D0A3F57443984210D003F58063984228
:101620000CD003F58063984208D003F5806398429C
:1016300004D04FF41C71044800F066F9A088C0F390
:10164000080010BD00380140A88E000838B50546D6
:101650000C46274B984214D0A3F57443984210D0FF
:1016600003F5806398420CD003F58063984208D05C
:1016700003F58063984204D040F286311D4800F0A3
:1016800043F9012C18D0802C16D0402C14D0202CDB
:1016900012D0102C10D0B4F5807F0DD0B4F5007F9F
:1016A0000AD0082C08D0042C06D0022C04D040F21A
:1016B0008731104800F028F9B4F5007F04D02B885A
:1016C0001C4212D1002038BD094B9D42F7D0A3F532
:1016D00074439D42F3D003F580639D42EFD040F206
:1016E0008B31044800F010F9E9E7012038BD00BF54
:1016F00000380140A88E000838B505460C463C4B22
:10170000984214D0A3F57443984210D003F5806337
:1017100098420CD003F58063984208D003F58063AB
:10172000984204D040F2D931324800F0EDF8282C2C
:1017300025D040F227739C4221D040F226639C4280
:101740001DD040F225539C4219D040F224439C42C4
:1017500015D040F646039C4211D040F66A139C42D5
:101760000DD0B4F5587F0AD0B4F5187F07D0B4F582
:10177000B07F04D040F2DA311E4800F0C5F840F6E0
:101780006A139C4217D0C4F3421204F01F010123D4
:101790008B40012A20D0022A22D0AA8A92B213407A
:1017A000240A012202FA04F42A8892B21440DBB11E
:1017B000E4B9002038BD0E4B9D42E4D0A3F574433C
:1017C0009D42E0D003F580639D42DCD040F2DE31E3
:1017D000084800F099F8D6E7AA8992B21340DFE7EB
:1017E0002A8A92B21340DBE7002038BD012038BDC1
:1017F00000380140A88E000838B505460C46254B38
:10180000984214D0A3F57443984210D003F5806336
:1018100098420CD003F58063984208D003F58063AA
:10182000984204D040F222411B4800F06DF840F28B
:1018300026639C4210D040F225539C420CD040F6C7
:1018400046039C4208D040F66A139C4204D040F202
:101850002341114800F058F840F66A139C4207D023
:10186000240A0123A3409BB2DB439BB22B8038BDEB
:10187000084B9D42F4D0A3F574439D42F0D003F58C
:1018800080639D42ECD040F22741034800F03CF8D1
:10189000E6E700BF00380140A88E0008FEE7000020
:1018A00008B5034800F052F80120FFF7F7FF00BF2A
:1018B000DC8E000808B503460C4A12685AB10B4A80
:1018C0001068033323F003030344094A934206D804
:1018D000064A136008BD0749044A1160EFE706F0A5
:1018E00001FE0C2303604FF0FF3008BD0C01002007
:1018F00000BC0020EC09002001230360014B0B60B9
:10190000704700BF1800002008B50A46014602488B
:1019100000F004F8FFF7C4FFF08E00080FB400B524
:1019200083B004AB53F8042B01938021064806F0E2
:101930002DFE002803DD0146034800F047F803B000
:101940005DF804EB04B070471401002010B50446A4
:1019500006F0D6FD0146204600F038F80121024885
:1019600000F034F810BD00BFD8A100082DE9F04305
:1019700085B004460F4643560BB10E461EE00425C3
:1019800028462146ABBE0446384605B0BDE8F08384
:1019900014F9011B04AA1A4402F8101C0133AB42CB
:1019A000F6D304AA1344002203F8102CE9464FF0A2
:1019B000040840464946ABBE8046761B002EE3D065
:1019C0003546102E28BF10250023E8E708B5FFF79D
:1019D000CDFF08BD08B500F0FDF8024B024A9A6041
:1019E00008BD00BF00ED00E00000000808B500F0F1
:1019F00019F908BDF8B504460D4617461E46274896
:101A0000FFF78CFF21682648FFF788FF61682548AB
:101A1000FFF784FFA1682448FFF780FFE1682348AF
:101A2000FFF77CFF21692248FFF778FF61692148B1
:101A3000FFF774FFA1692048FFF770FFE1691F48B5
:101A4000FFF76CFF1E48FFF769FF29461D48FFF7A7
:101A500065FF1D4CE16A1D48FFF760FF216B1C48C4
:101A6000FFF75CFFE16B1B48FFF758FF15F0800F95
:101A70000AD115F4004F0CD11748FFF74FFF069914
:101A80001648FFF74BFFF8BD39461548FFF746FFEC
:101A9000EFE731461348FFF741FFEDE71C8F0008E1
:101AA0002C8F00083C8F00084C8F00085C8F0008CA
:101AB0006C8F00087C8F00088C8F00089C8F0008BA
:101AC000AC8F0008B88F000800ED00E0C88F000858
:101AD000D88F0008E88F00081890000820900008B0
:101AE000F88F00080890000883691A888A4201D09C
:101AF000002070470268033A012A03D80233836149
:101B0000012070470020704782B0002301930093AA
:101B10002C4A136843F4803313602A4B1B6803F488
:101B200000330093019B01330193009B1BB9019B80
:101B3000B3F5A06FF1D1234B1B6813F4003F06D01F
:101B400001230093009B012B04D002B070470023B7
:101B50000093F7E71C4B1A6842F010021A601A68EB
:101B600022F003021A601A6842F002021A60A3F51A
:101B700080535A685A605A685A605A6842F48062C0
:101B80005A605A6822F47C125A605A6842F4E81289
:101B90005A601A6842F080721A600A4B1B6813F090
:101BA000007FFAD0074B5A6822F003025A605A6845
:101BB00042F002025A60034B5B6803F00C03082BEF
:101BC000F9D1C2E7001002400020024008B5FFF73B
:101BD0009BFF08BD08B5104B1A6842F001021A605D
:101BE00059680E4A0A405A601A6822F0847222F438
:101BF00080321A601A6822F480221A605A6822F42D
:101C0000FE025A604FF41F029A60FFF7DFFF4FF0A9
:101C10000062034B9A6008BD001002400000FFF80C
:101C200000ED00E01F4B5B6803F00C03042B15D0A4
:101C3000082B17D01BB11C4A1C4B1A6002E01A4A31
:101C40001A4B1A60174B5B68C3F30313184AD35C33
:101C5000DAB216490B68D3400B607047124A134B37
:101C60001A60EFE70F4A53685268C3F383430233A5
:101C700012F4803F0AD00B4A526812F4003F0BD096
:101C80000C4A02FB03F3094A1360DBE7094A02FB33
:101C900003F3064A1360D5E7034A02FB03F3034A42
:101CA0001360CFE70010024000127A0030000020DD
:101CB0002000002000093D000146002302E0002230
:101CC000CA540133EF2BFAD9F023C1F8F0300020C9
:101CD000C1F8F400C1F8F800C1F8FC00C1F8000137
:101CE00070470131814201D0084670470021FBE76F
:101CF00038B50446D0F8F450D0F8F00085420CDA3C
:101D00000B46D4F8F8106354FFF7EBFFC4F8F80063
:101D10000135C4F8F450002038BD4FF0FF3038BD15
:101D2000F8B5D0F8F450002D12DD0F460446D0F877
:101D3000FC603146D0F8F000FFF7D3FFC4F8FC0098
:101D4000013DC4F8F450F6B2A35D3B700020F8BD2D
:101D50006FF00100F8BD00002DE9F04D82B0834620
:101D60008846924600260027CDE90067002514E04A
:101D7000EC000BEB0403D3E90023DDE9000105F0DF
:101D800045FFCDE900014444D4E9002330463946FB
:101D900005F03CFF06460F4601355545E8D3504651
:101DA00006F070F804460D4602460B46DDE90001D8
:101DB00006F008FA074BC3E9000122462B463046DD
:101DC000394606F0FFF9044BC3E9000102B0BDE853
:101DD000F08D00BF98010020A00100202DE9F04700
:101DE000814688461746002546E0EC0009EB0406CC
:101DF0004444D4E90023D6E9000106F0B9F8DFF83D
:101E0000A4A002460B46DAE9000105F0FFFECAE98C
:101E10000001DFF888A0D6E90023DAE9000105F027
:101E2000F5FECAE90001DFF880A0D4E90023DAE971
:101E3000000105F0EBFECAE90001D6E90001024607
:101E40000B4606F095F8134E02460B46D6E9000104
:101E500005F0DCFEC6E90001D4E9000102460B46AC
:101E600006F086F80C4C02460B46D4E9000105F05A
:101E7000CDFEC4E900010135BD42B6D3074BD3E91D
:101E8000000102460B4606F073F8054BC3E900015A
:101E9000BDE8F087C8010020E8010020C001002053
:101EA000D0010020D8010020E00100202DE9F04FF2
:101EB00087B00390894617461E46FFF78FFF3846C6
:101EC00005F0E0FFCDE900013D4DD5E9002306F026
:101ED0004FF8CDE90401DFF804B1DFF804A1DAE935
:101EE0000023DBE9000106F043F802460B46DDE97A
:101EF000040105F089FECDE90401324CD4E9002348
:101F0000DDE9000106F034F8DFF8D880D8E90023D5
:101F100005F07AFE02460B46DDE9040106F052F9AF
:101F2000C6E900013A4649460398FFF715FF264FD8
:101F3000D7E90023D6E9000106F01AF8234E02463D
:101F40000B46D6E9000105F05FFE109BC3E90001D6
:101F5000D5E900231046194606F00AF8CDE900013C
:101F6000DFF88490D9E90023D4E9000106F000F8F5
:101F700002460B46DDE9000106F024F9119BC3E996
:101F8000000100220023C5E90023CBE90023CAE9B0
:101F90000023C4E90023C9E90023C8E90023C7E9F5
:101FA0000023C6E900230A49C1E900230949C1E920
:101FB00000230949C1E9002307B0BDE8F08F00BF45
:101FC000D8010020C801002098010020A0010020B5
:101FD000A8010020B0010020B8010020C0010020AD
:101FE000E0010020D0010020E801002038B5D0E950
:101FF00000450022154B2046294606F02BFA08BB67
:102000000022124B2046294606F042FA40B1002237
:102010000F4B2046294606F01DFA08B1022038BDB4
:1020200000220B4B2046294606F032FA08B904205C
:1020300038BD0022074B2046294606F00BFA18B996
:10204000042038BD012038BD032038BD00002440E5
:102050000000594000408F402DE9F04F8FB00446FA
:10206000012900F0D581BE4B1A680092D3F8048094
:10207000BC4B1A6805925F68BB4B1A6806925E6893
:10208000BA4B1A6807925D68B94B1A6808925B6888
:102090000193B84B1A6809925B680293B64B1A68B1
:1020A0000A92D3F80490B54B1A680B92D3F804A0A7
:1020B000B34B1A680C925B680493B24B1A680D928A
:1020C0005B68039359232380002200230098414634
:1020D00006F0C0F9002840F0C68100236380DDF8D7
:1020E00000B05846414606F0DDF905F0CBFE024649
:1020F0000B46CDF800B05846414605F085FD96A345
:10210000D3E9002305F034FF06F0CCF91FFA80FB79
:102110000098414606F0C6F9A080A4F806B0002257
:1021200000230598394606F095F9002840F0A08173
:1021300000232381DDF814B05846394606F0B2F981
:1021400005F0A0FE02460B465846394605F05CFDF8
:1021500081A3D3E9002305F00BFF06F0A3F91FFAD2
:1021600080F85846394606F09DF96081A4F80C8045
:10217000002200230698314606F06CF9002840F052
:102180007C810023E381DDF818804046314606F06B
:1021900089F905F077FE02460B464046314605F0C8
:1021A00033FD6DA3D3E9002305F0E2FE06F07AF9D2
:1021B00087B24046314606F075F9208267820022D8
:1021C00000230798294606F045F9002840F05A8177
:1021D0000023A382079F3846294606F063F905F0DD
:1021E00051FE02460B463846294605F00DFD5AA31E
:1021F000D3E9002305F0BCFE06F054F986B2384658
:10220000294606F04FF9E082268300220023089831
:10221000019906F01FF9002840F0398100236383FB
:10222000089F3846019E314606F03CF905F02AFE2B
:1022300002460B463846314605F0E6FC46A3D3E994
:10224000002305F095FE06F02DF985B2384631469B
:1022500006F028F9A083E58300220023099802995B
:1022600006F0F8F8002840F0198100232384099F24
:102270003846029E314606F015F905F003FE024687
:102280000B463846314605F0BFFC33A3D3E90023A3
:1022900005F06EFE06F006F985B23846314606F0C6
:1022A00001F96084A584002200230D98039906F0AB
:1022B000D1F8002840F0F9800023E3840D9F3846D0
:1022C000039E314606F0EEF805F0DCFD02460B46B3
:1022D0003846314605F098FC1FA3D3E9002305F0EA
:1022E00047FE06F0DFF885B23846314606F0DAF8E8
:1022F00020856585002200230A98494606F0AAF841
:10230000002840F0D9800023A3850A9E3046494624
:1023100006F0C8F805F0B6FD02460B4630464946C1
:1023200005F072FC0CA3D3E9002305F021FE06F0B2
:10233000B9F885B23046494606F0B4F8E0852586FE
:10234000002200230B98514606F084F8002840F044
:10235000B8800023638617E0000000000088C340B7
:102360005806002088060020B80600203806002005
:102370006806002098060020480600207806002005
:10238000A8060020C00600200B9E3046514606F0ED
:1023900089F805F077FD02460B463046514605F0B8
:1023A00033FC4FA3D3E9002305F0E2FD06F07AF8F1
:1023B00085B23046514606F075F8A086E5860022C3
:1023C00000230C98049906F045F800287ED10023DC
:1023D00023870C9F3846049E314606F063F805F0CB
:1023E00051FD02460B463846314605F00DFC3CA334
:1023F000D3E9002305F0BCFD06F054F885B2384659
:10240000314606F04FF86087A5870FB0BDE8F08F22
:10241000354B1A680092D3F80480344B1A68059241
:102420005F68334B1A6806925E68324B1A680792EF
:102430005D68314B1A6808925B6801932F4B1A68EC
:1024400009925B6802932E4B1A680A92D3F80490A3
:102450002C4B1A680B92D3F804A02B4B1A680C92E1
:102460005B68049329E608F100480123638036E69F
:1024700007F10047012323815CE606F100460123B2
:10248000E38180E605F100450123A382A2E6019BDA
:1024900003F10043019301236383C1E6029B03F12F
:1024A0000043029301232384E1E6039B03F10043ED
:1024B00003930123E38401E709F100490123A38584
:1024C00023E70AF1004A012363865DE7049B03F1D9
:1024D00000430493012323877BE700BFAFF3008011
:1024E000000000000088C340500600208006002045
:1024F000B006002030060020600600209006002074
:102500004006002070060020A00600200000000009
:10251000D0B50446408805F0B5FC06460F46A088B5
:1025200005F0B0FCB4A3D3E9002305F04BFE02464E
:102530000B462188002940F0F3803046394605F0EB
:1025400065FBAF4BC3E90001208905F09BFC064603
:102550000F46608905F096FCA7A3D3E9002305F098
:1025600031FE02460B46E188002940F0E480304607
:10257000394605F04BFBA34BC3E90001E08905F0A8
:1025800081FC06460F46208A05F07CFC9AA3D3E91D
:10259000002305F017FE02460B46A189002940F0F2
:1025A000D5803046394605F031FB974BC3E9000131
:1025B000A08A05F067FC06460F46E08A05F062FC3B
:1025C0008DA3D3E9002305F0FDFD02460B46618A89
:1025D000002940F0C6803046394605F017FB8B4B8A
:1025E000C3E90001608B05F04DFC06460F46A08B49
:1025F00005F048FC80A3D3E9002305F0E3FD024683
:102600000B46218B002940F0B7803046394605F053
:10261000FDFA7F4BC3E90001208C05F033FC064630
:102620000F46608C05F02EFC73A3D3E9002305F060
:10263000C9FD02460B46E18B002940F0A8803046D8
:10264000394605F0E3FA734BC3E90001E08C05F06D
:1026500019FC06460F46208D05F014FC66A3D3E94D
:10266000002305F0AFFD02460B46A18C002940F087
:1026700099803046394605F0C9FA674BC3E9000135
:10268000A08D05F0FFFB06460F46E08D05F0FAFB36
:1026900059A3D3E9002305F095FD02460B46618D51
:1026A000002940F08A803046394605F0AFFA5B4B8E
:1026B000C3E90001608E05F0E5FB06460F46A08EDB
:1026C00005F0E0FB4CA3D3E9002305F07BFD0246B7
:1026D0000B46218E00297BD13046394605F096FA0B
:1026E0004F4BC3E90001208F05F0CCFB06460F4697
:1026F000608F05F0C7FB40A3D3E9002305F062FD1E
:1027000002460B46E18E00296DD03046394605F071
:102710007DFA024601F100434249C1E90023D0BDE0
:102720003046394605F072FA024601F10043344959
:10273000C1E9002308E73046394605F067FA02464A
:1027400001F100432F49C1E9002317E7304639461C
:1027500005F05CFA024601F100432B49C1E9002370
:1027600026E73046394605F051FA024601F10043AA
:102770002649C1E9002335E73046394605F046FAD7
:10278000024601F100432249C1E9002344E73046F3
:10279000394605F03BFA024601F100431D49C1E903
:1027A000002353E73046394605F030FA024601F17E
:1027B00000431949C1E9002362E73046394605F074
:1027C00025FA024601F100431449C1E9002371E7EB
:1027D0003046394605F01AFA024601F10043104925
:1027E000C1E900237FE73046394605F00FFA0D4B6B
:1027F000C3E90001D0BD00BF000000000088C34055
:102800005006002080060020B00600203006002080
:102810006006002090060020C00600204006002030
:1028200070060020A0060020D0B50446408805F0C0
:1028300029FB06460F46A08805F024FBB4A3D3E984
:10284000002305F0BFFC02460B462188002940F01A
:10285000F3803046394605F0D9F9AF4BC3E90001A2
:10286000208905F00FFB06460F46608905F00AFB3C
:10287000A7A3D3E9002305F0A5FC02460B46E18897
:10288000002940F0E4803046394605F0BFF9A34BFB
:10289000C3E90001E08905F0F5FA06460F46208AF3
:1028A00005F0F0FA9AA3D3E9002305F08BFC024669
:1028B0000B46A189002940F0D5803046394605F005
:1028C000A5F9974BC3E90001A08A05F0DBFA06469B
:1028D0000F46E08A05F0D6FA8DA3D3E9002305F070
:1028E00071FC02460B46618A002940F0C6803046E2
:1028F000394605F08BF98B4BC3E90001608B05F07D
:10290000C1FA06460F46A08B05F0BCFA80A3D3E9B6
:10291000002305F057FC02460B46218B002940F0AE
:10292000B7803046394605F071F97F4BC3E90001A5
:10293000208C05F0A7FA06460F46608C05F0A2FA37
:1029400073A3D3E9002305F03DFC02460B46E18B5F
:10295000002940F0A8803046394605F057F9734BFE
:10296000C3E90001E08C05F08DFA06460F46208D84
:1029700005F088FA66A3D3E9002305F023FC02469C
:102980000B46A18C002940F099803046394605F06D
:102990003DF9674BC3E90001A08D05F073FA0646C7
:1029A0000F46E08D05F06EFA59A3D3E9002305F038
:1029B00009FC02460B46618D002940F08A803046B2
:1029C000394605F023F95B4BC3E90001608E05F041
:1029D00059FA06460F46A08E05F054FA4CA3D3E9E7
:1029E000002305F0EFFB02460B46218E00297BD128
:1029F0003046394605F00AF94F4BC3E90001208FF4
:102A000005F040FA06460F46608F05F03BFA40A3FA
:102A1000D3E9002305F0D6FB02460B46E18E0029E0
:102A20006DD03046394605F0F1F8024601F1004319
:102A30004249C1E90023D0BD3046394605F0E6F8E9
:102A4000024601F100433449C1E9002308E730465A
:102A5000394605F0DBF8024601F100432F49C1E990
:102A6000002317E73046394605F0D0F8024601F159
:102A700000432B49C1E9002326E73046394605F0DB
:102A8000C5F8024601F100432649C1E9002335E7B4
:102A90003046394605F0BAF8024601F100432249B2
:102AA000C1E9002344E73046394605F0AFF8024655
:102AB00001F100431D49C1E9002353E7304639467F
:102AC00005F0A4F8024601F100431949C1E90023C9
:102AD00062E73046394605F099F8024601F10043B5
:102AE0001449C1E9002371E73046394605F08EF8F4
:102AF000024601F100431049C1E900237FE7304657
:102B0000394605F083F80D4BC3E90001D0BD00BF85
:102B1000000000000088C3405806002088060020FE
:102B2000B80600203806002068060020980600201D
:102B3000C00600204806002078060020A8060020D5
:102B400010B590B004463E220021684605F0D0FC46
:102B500021466846FFF780FA012C09D01F226946FA
:102B60000A4800F05FF804464CB9204610B010BD8A
:102B70001F226946064800F055F80446F4E759223A
:102B80001021044800F000FBEFE700BF00480608F2
:102B9000004006086490000810B5A0B03E2422460C
:102BA000002110A805F0A4FC22460021684605F08B
:102BB0009FFC1F2210A90F4800F023F81F2269462E
:102BC0000D4800F01EF8BDF84030592B02D000200F
:102BD00020B010BDBDF80030592B01D00020F7E720
:102BE0000DF14200FFF794FC0DF10200FFF71CFE0F
:102BF0000120EDE70040060800480608008880B282
:102C00007047F8B507460E461546002407E007EB67
:102C10004400FFF7F3FF26F814000134A4B2AC42DD
:102C2000F5D3F8BDB0F1006F25D3F8B500F17843C6
:102C3000DB0A03F58033DC0200EB42050F4B9D42BB
:102C400001D90020F8BD16460F460546FDF76EFC7B
:102C50002046FDF7A9FC002407E037F8141005EB27
:102C60004400FDF7D1FC0134A4B2A642F5D8FDF72B
:102C700069FC0120F8BD0020704700BFFFFF070876
:102C800010B584B001210846FDF7EEFF4FF4FA635A
:102C9000ADF808304723ADF804300024ADF80A4001
:102CA000ADF8064001A94FF08040FEF757F801212A
:102CB0004FF08040FEF7D0F9012211464FF08040DE
:102CC000FEF75EF901214FF08040FEF7F5F821464E
:102CD0000120FDF7C9FF04B010BD00B583B04FF46B
:102CE000E060FDF7B5FB1C238DF8043001238DF85F
:102CF00005308DF806308DF8073001A8FDF7C8FBC8
:102D000003B05DF804FB08B5FFF7BAFFFFF7E5FF76
:102D100001210846FDF7A8FF08BD000008B5022103
:102D20001648FDF735FDB8B9154A1368013313602D
:102D3000134B1B68142B04D90023114A1360114A4A
:102D40001370114B1B68142B05D900220E4B1A600F
:102D500001220C4B1A7008BD04210848FDF718FD2C
:102D60000028E1D008210548FDF712FD0028DBD03E
:102D7000054A136801331360DAE700BF0010014011
:102D8000180600209D000020C806002008B501217B
:102D90004FF08040FEF7BCF900B3204B1B6833B9FD
:102DA0001F4A136801331360B3F5FA7F17D01D4B28
:102DB0001B682BB91C4A136801331360642B15D0B0
:102DC0001A4B1B68012B18D00022194B1A60FFF711
:102DD000A5FF01214FF08040FEF70AFA08BD00224E
:102DE0000F4B1A6001220D4B1A60E0E701220D4BD8
:102DF0001A6000220C4B1A60E2E70D4B1B680D4A6B
:102E00001268934203D20133094A1360DFE70022BC
:102E1000064B1A600122084B1A60D8E7080200200E
:102E2000F001002028060020F40100200402002008
:102E3000FC010020F80100200002002030B583B022
:102E400001210420FDF7EAFE0425ADF80450182303
:102E50008DF8073003238DF80630094C0DEB050182
:102E60002046FDF7FDFB0823ADF804308DF8075030
:102E70000DEB05012046FDF7F3FB03B030BD00BFAD
:102E80000008014010B582B001210420FDF7C6FE04
:102E90004FF40073ADF8043018238DF80730032386
:102EA0008DF80630094C01A92046FDF7D9FB4FF4F7
:102EB0008063ADF8043004238DF807300DEB030177
:102EC0002046FDF7CDFB02B010BD00BF0008014059
:102ED00010B582B001210820FDF7A0FE4FF48063F9
:102EE000ADF8043018238DF8073003238DF8063031
:102EF000094C01A92046FDF7B3FB4FF40063ADF880
:102F0000043004238DF807300DEB03012046FDF754
:102F1000A7FB02B010BD00BF000C014000B583B09C
:102F20004FF4E060FDF794FA26238DF80430002377
:102F30008DF805308DF8063001238DF8073001A893
:102F4000FDF7A6FA03B05DF804FB000010B584B0ED
:102F5000FFF774FF01214FF40030FDF785FE4FF4B9
:102F6000965300930023ADF80430ADF806304FF4CB
:102F70008062ADF808200C22ADF80A20ADF80C30C4
:102F8000094C69462046FEF78FF9012240F225518F
:102F90002046FEF795FAFFF7C1FF01212046FEF714
:102FA0005BFA04B010BD00BF0044004000B583B020
:102FB0004FF4E060FDF74CFA25238DF8043002232E
:102FC0008DF8053003238DF8063001238DF8073086
:102FD00001A8FDF75DFA03B05DF804FB10B584B0FD
:102FE000FFF750FF01214FF48040FDF717FE4FF42B
:102FF000165300930023ADF80430ADF80630ADF859
:1030000008300C22ADF80A20ADF80C30094C6946A6
:103010002046FEF749F9012240F225512046FEF7ED
:103020004FFAFFF7C3FF01212046FEF715FA04B05F
:1030300010BD00BF0038014000B583B04FF4E06020
:10304000FDF706FA27238DF8043002238DF80530AA
:1030500004238DF8063001238DF8073001A8FDF711
:1030600017FA03B05DF804FB10B584B0FFF730FF2A
:1030700001214FF48020FDF7F7FD4FF41653009324
:103080000023ADF80430ADF80630ADF808300C225E
:10309000ADF80A20ADF80C30094C69462046FEF721
:1030A00003F9012240F225512046FEF709FAFFF705
:1030B000C3FF01212046FEF7CFF904B010BD00BFC9
:1030C0000048004070B506460D4600240AE0315D18
:1030D0000648FEF76DFA80210448FEF7B7FA00288B
:1030E000F9D00134AC42F2D370BD00BF00480040BB
:1030F00010B582B001211020FDF790FD4FF48063E0
:10310000ADF8043018238DF8073003238DF806300E
:10311000094C01A92046FDF7A3FA4FF40063ADF86E
:10312000043004238DF807300DEB03012046FDF732
:1031300097FA02B010BD00BF0010014010B584B076
:10314000FFF7D6FF01214FF40020FDF78DFD4FF46E
:10315000165300930023ADF80430ADF80630ADF8F7
:1031600008300C22ADF80A20ADF80C30054C694649
:103170002046FEF799F801212046FEF76DF904B0CC
:1031800010BD00BF004C0040592A00D0704770B5F8
:103190000D46064600240AE0315D0648FEF708FAAF
:1031A00080210448FEF752FA0028F9D00134AC42DD
:1031B000F2D370BD004C00402DE9F04383B00646C9
:1031C000894617461C4600258DF80750ADF8045077
:1031D0002B46A8461BE05A2B3BD19DF8042089F8CA
:1031E000002089F801304546A04632E09DF80730BE
:1031F00009F8053001350023314A1360314A136064
:103200008CBB6422304B1A602346012B4DD0D6F87C
:10321000F420002A3FDDBD424ED00DF107013046BB
:10322000FEF77EFD0028E6D1002CDFD19DF80730A7
:1032300009F8053003F11002D2B20E2A03D9552B3A
:1032400001D0AA2B02D18DF80430A046B8F1010FAD
:10325000C1D0013508F10108182DCCD199F8003002
:10326000552BC8D128E0012C05D0022C09D0142CF4
:103270000CD00023C9E74FF47A72134B1A60002375
:10328000C3E76422104B1A600023BEE714220E4BE2
:103290001A600023B9E7002BB7D10121084A116059
:1032A00000210A4A11600133AFE7064A1268012A79
:1032B000ADD10022034B1A60284603B0BDE8F0836D
:1032C0000402002000020020F8010020FC01002080
:1032D00010B540F225510948FEF70EFA00B910BDAD
:1032E000064C40F225512046FEF786FA2046FEF7AE
:1032F0008BF9C1B20248FEF7FBFCF0E70038014051
:10330000E008002010B540F225510948FEF7F4F915
:1033100000B910BD064C40F225512046FEF76CFA6C
:103320002046FEF771F9C1B20248FEF7E1FCF0E772
:1033300000440040D806002010B540F2255109484D
:10334000FEF7DAF900B910BD064C40F225512046CF
:10335000FEF752FA2046FEF757F9C1B20248FEF7CF
:10336000C7FCF0E700480040DC07002010B540F241
:1033700025510948FEF7C0F900B910BD064C40F2CE
:1033800025512046FEF738FA2046FEF73DF9C1B236
:103390000248FEF7ADFCF0E7004C0040E0080020DA
:1033A000034638B1002001E0013001331A78002AC9
:1033B000FAD170470020704770B4002403E065180C
:1033C000165D465501349C42F9D370BC704700002D
:1033D0002DE9F84306460F4690461D469DF820907D
:1033E00005F060F8012211E0A91A214BA3FB00436C
:1033F000DB0803EB83035C00031B303308F8013068
:103400001B4BA3FB0030C0080132D2B2AA4206D83F
:103410000028E9D1AB1A302108F80310F0E7B9F120
:10342000000F23D02E2308F80530012417E00022D6
:10343000104B3046394604F09BFD06460F4605F01A
:1034400031F829190A4BA3FB0023DB0803EB8303A4
:103450005A00831A303308F801300134E4B24C4585
:10346000E5D94D440135002308F80530BDE8F8835F
:10347000CDCCCCCC000024400B09092B08D830332C
:10348000037001F00F01092905D9373141707047E8
:1034900037330370F5E73031417070472DE9F0475D
:1034A00082B081460D4690460024444504D22B5DEF
:1034B0002E2B28D00134F8E7002600274FF0000A11
:1034C00010E015F80A00303804F0ECFC32463B46B8
:1034D00004F09CFB00222D4B04F04AFD06460F46EB
:1034E0000AF1010A5445ECD80022284B30463946EF
:1034F00004F068FECDE90001B8EB040A08D00134FD
:103500000026002718E0002600274FF0000AE9E710
:1035100003460C46C9E9003433E0285D303804F036
:10352000C1FC32463B4604F071FB0022174B04F00D
:103530001FFD06460F4601344445EED30022134BCF
:103540003046394604F03EFE04460D460020104940
:10355000002604E000220D4B04F00AFD01360AF1BA
:10356000FF339E42F6D302460B462046294604F01E
:1035700029FE02460B46DDE9000104F047FBC9E9DC
:103580000001012002B0BDE8F08700BF0000244028
:103590000000F03F00B583B001210820FDF73EFB9D
:1035A0004FF45073ADF8043003238DF80630102328
:1035B0008DF8073001A90348FDF752F803B05DF814
:1035C00004FB00BF000C014000B583B04FF4007352
:1035D000ADF8043003238DF8063010238DF8073042
:1035E00001A90348FDF73CF803B05DF804FB00BFF8
:1035F000000C014000B583B04FF40073ADF8043007
:1036000003238DF8063048238DF8073001A90348BD
:10361000FDF726F803B05DF804FB00BF000C014085
:1036200010B50B4C4FF400712046FDF70DF94FF427
:1036300080712046FDF708F94FF400712046FDF730
:1036400033F94FF480712046FDF72EF910BD00BF0D
:10365000000C014010B5084C4FF480712046FDF776
:10366000F3F84FF400712046FDF71EF94FF4007196
:103670002046FDF7E9F810BD000C014010B5FFF73A
:10368000B9FF4FF480710E48FDF7DEF842F2107377
:103690005C1E002B11DD4FF400710948FDF778F82E
:1036A000234604460028F3D14FF480710448FDF707
:1036B000FBF8FFF789FF204610BD0124FBE700BFA0
:1036C000000C014070B50546012383F31088FFF715
:1036D0007BFF002413E04FF400711348FDF7B4F8AA
:1036E000114E4FF480713046FDF7AEF84FF4807103
:1036F0003046FDF7D9F86D00EDB20134E4B2072C85
:103700000DD84FF480710848FDF7CEF815F0800F02
:10371000E1D14FF400710448FDF7C6F8E0E700235B
:1037200083F3108870BD00BF000C014010B5044643
:10373000FFF776FF7820FFF7C5FFFFF79FFF68B917
:103740000020FFF7BFFFFFF799FF70B159220F214B
:103750000E48FFF719FD0224204610BD59220F2103
:103760000B48FFF711FD0124F6E72046FFF7AAFFFB
:10377000FFF784FF044630B1592210210548FFF7B6
:1037800003FD0324E8E7FFF765FFE5E7E49D000894
:10379000D49D0008F49D0008F8B506460D46FFF7D5
:1037A0003FFF7820FFF78EFFFFF768FF90B94020BA
:1037B000FFF788FFFFF762FF074698B90446AC425F
:1037C0001ED2305DFFF77EFFFFF758FF88B9013446
:1037D000E4B2F4E7592211210B48FFF7D5FC012789
:1037E0003846F8BD59220F210848FFF7CDFC0227C3
:1037F000F6E759220F210648FFF7C6FC0327EFE73B
:10380000FFF728FFECE700BF089E00081C9E000899
:103810002C9E000810B504465039C8B2FFF786FF49
:10382000200940F01000FFF781FF0120FFF77EFF25
:10383000002010BD10B500240BE021460020FFF74A
:10384000E9FF8021044800EBC410FFF7A5FF013415
:10385000E4B2072CF1D910BD0C02002008B530B13C
:10386000FF214FF48062034804F042FE08BD0021AE
:10387000F7E700BF0C02002008B5064B1B78834217
:1038800006D0044B18700020FFF7E8FFFFF7D2FFC7
:1038900008BD00BF0C06002010B5FFF77BFE324CC0
:1038A00040212046FDF700F840212046FCF7CCFFE0
:1038B00059220C212D48FFF767FCAE20FFF736FF99
:1038C000D520FFF733FF8020FFF730FFA820FFF758
:1038D0002DFF3F20FFF72AFFD320FFF727FF00200F
:1038E000FFF724FF4020FFF721FF8D20FFF71EFF89
:1038F0001420FFF71BFFA120FFF718FFC820FFF7D8
:1039000015FFDA20FFF712FF1220FFF70FFF8120CB
:10391000FFF70CFFCF20FFF709FFD920FFF706FFC5
:10392000F120FFF703FFDB20FFF700FF4020FFF748
:10393000FDFEA420FFF7FAFEA620FFF7F7FE002009
:10394000FFF78CFFFFF776FFAF20FFF7EFFE084B86
:1039500000221A805A8001245C7159220E210548E8
:10396000FFF712FC204610BD000C01403C9E0008F1
:10397000100600204C9E0008014B188059807047AB
:10398000100600207F2815D83F2913D8104B1B792B
:1039900013B1B2FA82F25209012A0CD0CB0800EB23
:1039A000C31001F0070101238B400A4A115C21EA90
:1039B000030111547047CB0800EBC31001F007015D
:1039C00001238B40034A115C19431154704700BF17
:1039D000100600200C0200202DE9F843234B1B8821
:1039E0000C7823447F2B3BDC204B5B884C782344B2
:1039F0003F2B38DC90460E46814600251CE01B4BD1
:103A000018885988B8FA88F2520929442044FFF7E7
:103A1000B9FF013433789C420DD207FA04F313F452
:103A2000004FECD0114B1888598842462944204455
:103A3000FFF7A8FFEDE701357278954208D271686B
:103A4000A9F1200302FB035331F813700024E1E7CE
:103A50003378064A11880B4413804846BDE8F88342
:103A60000020BDE8F8830020BDE8F88310060020A0
:103A700070B514461D469DF810601B7803FB00F0DE
:103A80006B7803FB01F101310130FFF775FF2078FE
:103A900040B132462946FFF79FFF2378984204D170
:103AA0000134F4E7FFF7C6FE2378184670BD000026
:103AB0002DE9F04391B0CDE90401CDE902230024C2
:103AC0000D940E94ADF83C400A940B94ADF8304040
:103AD00007940894ADF824400420FFF7CDFE344E3F
:103AE000012500953346334A21462046FFF7C0FFA3
:103AF00000953346304A29462046FFF7B9FF009526
:103B000033462E4A02212046FFF7B2FF0095334686
:103B10002B4A21460A20FFF7ABFF00953346294A7E
:103B200029460A20FFF7A4FF00953346264A0221C2
:103B30000A20FFF79DFF10A870E90C89FEF756FADE
:103B400002270097C3B20DAA40464946FFF740FC42
:103B5000009533460DAA21460320FFF789FF10A8E0
:103B600070E90E89FEF742FA0097C3B20AAA4046EE
:103B70004946FFF72DFC009533460AAA2946032043
:103B8000FFF776FFDDE9188918A8FEF72FFA0097EE
:103B9000C3B207AA40464946FFF71AFC00953346D0
:103BA00007AA39460320FFF763FF11B0BDE8F08391
:103BB00034000020409F0008449F0008489F0008F0
:103BC0004C9F0008509F00083C9F000830B583B010
:103BD0000720FFF751FE094D012400942B46084AA7
:103BE00000210846FFF744FF00942B46054A214672
:103BF0000020FFF73DFF03B030BD00BF34000020C0
:103C0000D89E0008E09E000830B583B00620FFF77C
:103C100033FE134D012400942B46124A002108461E
:103C2000FFF726FF00942B460F4A21460020FFF79E
:103C30001FFF00942B460D4A02210020FFF718FFBA
:103C400000942B460A4A02210A20FFF711FF009434
:103C50002B46084A02210520FFF70AFF03B030BDBA
:103C600034000020EC9E0008F49E0008009F00082D
:103C7000089F00080C9F000830B583B00520FFF7AF
:103C8000FBFD134D012400942B46124A00210846E7
:103C9000FFF7EEFE00942B460F4A21460020FFF767
:103CA000E7FE00942B460D4A02210020FFF7E0FEBC
:103CB00000942B460A4A02210A20FFF7D9FE0094FD
:103CC0002B46084A02210520FFF7D2FE03B030BD83
:103CD00034000020B89E0008F49E0008009F0008F1
:103CE000089F00080C9F000830B583B00320FFF741
:103CF000C3FD0C4D012400942B460B4A00210846BD
:103D0000FFF7B6FE00942B46084A21460020FFF735
:103D1000AFFE00942B46064A02210020FFF7A8FEC2
:103D200003B030BD340000201C9F0008289F00080D
:103D3000349F000830B583B00820FFF79DFD094D82
:103D4000012400942B46084A00210846FFF790FE04
:103D500000942B46054A21460020FFF789FE03B058
:103D600030BD00BF340000208C9E0008109F00086A
:103D700030B583B00A20FFF77FFD0C4D012400947D
:103D80002B460B4A00210846FFF772FE00942B4693
:103D9000084A21460020FFF76BFE00942B46064A96
:103DA00002210020FFF764FE03B030BD3400002084
:103DB000789F0008849F00088C9F000830B583B06E
:103DC0000A20FFF759FD0C4D012400942B460B4AA5
:103DD00000210846FFF74CFE00942B46084A214676
:103DE0000020FFF745FE00942B46064A02210020E2
:103DF000FFF73EFE03B030BD34000020789F00087E
:103E0000849F00086C9F000830B583B00B20FFF73B
:103E100033FD0C4D012400942B460B4A002108462B
:103E2000FFF726FE00942B46084A21460020FFF7A4
:103E30001FFE00942B46064A02210020FFF718FEC1
:103E400003B030BD34000020549F0008849F000858
:103E5000609F000830B583B00C20FFF70DFD0C4DBE
:103E6000012400942B460B4A00210846FFF700FE70
:103E700000942B46084A21460020FFF7F9FD0094E4
:103E80002B46064A02210020FFF7F2FD03B030BDA9
:103E900034000020549F0008849F00088C9F000875
:103EA00030B583B00D20FFF7E7FC0C4D01240094E2
:103EB0002B460B4A00210846FFF7DAFD00942B46FB
:103EC000084A21460020FFF7D3FD00942B46064AFE
:103ED00002210020FFF7CCFD03B030BD34000020EC
:103EE000549F0008C09E0008CC9E000830B583B0E7
:103EF0000E20FFF7C1FC0C4D012400942B460B4A09
:103F000000210846FFF7B4FD00942B46084A2146DD
:103F10000020FFF7ADFD00942B46064A0221002049
:103F2000FFF7A6FD03B030BD34000020549F000809
:103F3000C09E0008AC9E00082DE9F04391B0CDE989
:103F40000401CDE9022300230D930E93ADF83C301C
:103F50000A930B93ADF8303007930893ADF82430F3
:103F60000920FFF789FC049D059C002200232846B8
:103F7000214604F06FFA002862D14FF00409029D37
:103F8000039C3FA3D3E900232846214604F062FAAC
:103F9000002865D14FF0040810A870E90C67FEF7FF
:103FA00025F803240094C3B20DAA30463946FFF722
:103FB0000FFA10A870E90E67FEF718F80094C3B264
:103FC0000AAA30463946FFF703FADDE9186718A850
:103FD000FEF70CF80094C3B207AA30463946FFF743
:103FE000F7F9294D012400942B46284A0021084660
:103FF000FFF73EFD00942B46254A21460020FFF79F
:1040000037FD00942B46234A02210020FFF730FDA4
:1040100000942B460DAA00214846FFF729FD009485
:104020002B460AAA21464046FFF722FD00942B4664
:1040300007AA02210420FFF71BFD11B0BDE8F083A1
:104040002A4604F10043CDE90423012300930E4BDB
:10405000114A00210846FFF70BFD4FF005098EE7D6
:104060002A4604F10043CDE9022301210091064BC9
:10407000094A0420FFF7FCFC4FF005088CE700BF5D
:10408000F168E388B5F8E43E34000020649E00083F
:104090006C9E0008749E0008609E000800000000EE
:1040A0002DE9F04F9DB002908A46049103921F467D
:1040B000DDF89890DDF89C80DDF8A0B0299E002303
:1040C00019931A93ADF86C3016931793ADF86030CE
:1040D00013931493ADF8543010931193ADF8483006
:1040E00000240025CDE90E45CDE90C45CDE90A4572
:1040F000CDE908451020FFF7BFFB22462B4602986A
:10410000514604F0A7F9002840F0B380022305933C
:1041100073A3D3E900230398394604F09BF90028E0
:1041200040F0B5804FF0020A002200234846414685
:1041300004F090F9002840F0B7800723069368A3A5
:10414000D3E900235846314604F084F9002840F0B2
:10415000B780072307930022634B0298049903F06A
:1041600007FF04460D46CDE90E4500225E4B03983D
:10417000394603F0FDFECDE90C0100225A4B4846BA
:10418000414603F0F5FECDE90A010022564B5846A0
:10419000314603F0EDFECDE908010EA8FDF726FF3C
:1041A00000260096C3B219AA20462946FFF710F947
:1041B0001CA870E91045FDF719FF0096C3B216AAB6
:1041C00020462946FFF704F91CA870E91245FDF7BF
:1041D0000DFF0096C3B213AA20462946FFF7F8F850
:1041E0001CA870E91445FDF701FF0096C3B210AAA0
:1041F00020462946FFF7ECF83C4D012400942B465D
:104200003B4A31460220FFF733FC00942B46394AE3
:1042100031460720FFF72CFC00942B46364A2146F6
:104220003046FFF725FC00942B46344A02213046E5
:10423000FFF71EFC00942B4619AA21460598FFF7AC
:1042400017FC00942B4616AA02215046FFF710FCDB
:1042500000942B4613AA21460698FFF709FC009408
:104260002B4610AA02210798FFF702FC1DB0BDE8FB
:10427000F08F049B03F100430493012100911B4B39
:104280001F4A0220FFF7F4FB0323059340E707F1E1
:10429000004701230093154B194A02210846FFF7F6
:1042A000E7FB4FF0030A3FE708F1004801210091C6
:1042B0000E4B134A0720FFF7DBFB082306933EE76C
:1042C00006F1004601230093084B0D4A0221072006
:1042D000FFF7CEFB082307933DE700BFAFF3008055
:1042E000F168E388B5F8E43E00408F4034000020D8
:1042F0007C9E0008809E0008849E0008889E00081E
:10430000609E000810B584B004460023ADF80C3060
:104310008DF80E3064281AD0092C21D9164BA3FB36
:104320000423DB0803F130028DF80C2003EB830338
:104330005A00A21A30328DF80D20012300930F4B42
:1043400003AA02210520FFF793FB04B010BD01234F
:1043500000930A4B0A4A02210520FFF789FBDBE79D
:10436000303404AA02F8044D01230093034B0221C8
:104370000520FFF77DFBE8E7CDCCCCCC3400002056
:104380005C9E000808B5FCF7BFFA4FF48030FCF7DC
:10439000DBFAFCF7C9FC124B1870A8B94FF4E01116
:1043A0004FF48030FCF7FEFA0120FCF747FB392080
:1043B000FCF780FC0028FAD00220FCF74FFBFCF74A
:1043C00063FB0828FBD108BD0020FCF765FB00203B
:1043D000FCF7A6FB4FF48060FCF782FBDEE700BF32
:1043E000E409002000B583B0ADF8041003238DF874
:1043F000063010238DF8073001A9FCF731F903B01E
:104400005DF804FB70B501210420FCF707FC0121D5
:104410000820FCF703FC01211020FCF7FFFB244CD3
:104420004FF480712046FFF7DDFF224E8021304699
:10443000FFF7D8FF40213046FFF7D4FF1E4D4FF461
:1044400000412846FFF7CEFF4FF480412846FFF792
:10445000C9FF4FF400512846FFF7C4FF4FF48051C5
:104460002846FFF7BFFF02212846FFF7BBFF0121C7
:104470002846FFF7B7FF20213046FFF7B3FF102192
:104480003046FFF7AFFF80212046FFF7ABFF40210A
:104490002046FFF7A7FF20212046FFF7A3FF1021AA
:1044A0002046FFF79FFF02212046FFF79BFF70BDCC
:1044B0000008014000100140000C014070B582B0BE
:1044C00001211020FCF7AAFB0123ADF804300325DD
:1044D0008DF8065010238DF80730154C01A92046A1
:1044E000FCF7BEF80223ADF804308DF806504826DC
:1044F0008DF8076001A92046FCF7B2F80423ADF857
:1045000004308DF806508DF807600DEB030120464E
:10451000FCF7A6F80823ADF804308DF806508DF8A6
:10452000076001A92046FCF79BF802B070BD00BFF0
:104530000010014010B4C47D182902D0002010BC26
:1045400070470378552B01D01846F8E7037D03F038
:1045500070026F2A02DD0223002204E01846EEE713
:10456000C15C0A440133162BFAD9D2B2944201D06D
:104570000020E4E70120E2E72DE9F04F8BB0804610
:104580000F461646002407940894ADF8244004947E
:104590000594ADF8184001940294ADF80C406923DD
:1045A0008DF8033076238DF8023070238DF80130BA
:1045B000A1462546022D3CD87548FDF77DFB754880
:1045C000FDF77AFB01210DF10300FEF77BFD0022D0
:1045D000714B1A6064230A2201A96E48FEF7ECFDB4
:1045E000044602280FD86C4B1B68012BF2D109F14D
:1045F00001095FFA89F9B9F1020F00F2BB800022CC
:10460000654B1A60E6E759220C216448FEF7BCFDB1
:104610005922214601A8FEF7B7FD59220221604820
:10462000FEF7B2FD2CB9022D00F0A9800135EDB2E4
:10463000C0E74FF00009CA464D46BAF1020F3FD815
:104640005348FDF739FB01210DF10200FEF73AFD59
:104650000022514B1A6064230A2204A94D48FEF738
:10466000ABFD054602280ED84B4B1B68012BF2D13F
:1046700009F101095FFA89F9B9F1020F7CD800222A
:10468000454B1A60E7E75922014604A8FEF77CFD76
:1046900059220C214348FEF777FD5922294604A8E8
:1046A000FEF772FD592202213D48FEF76DFD3DB92E
:1046B000BAF1020F62D00AF1010A5FFA8AFABCE786
:1046C0004FF0000AD346D146BBF1020F41D8304823
:1046D000FDF7F2FA01210DEB0100FEF7F3FC0022D9
:1046E0002D4B1A6064230A2207A92A48FEF764FDAD
:1046F000814602280ED8284B1B68012BF2D10AF103
:10470000010A5FFA8AFABAF1020F3CD80022224B62
:104710001A60E7E75922014607A8FEF735FD59223E
:104720000C212148FEF730FD5922494607A8FEF723
:104730002BFD592202211A48FEF726FDB9F1000F80
:1047400007D1BBF1020F20D00BF1010B5FFA8BFBFD
:10475000BAE74A4607A94046FEF7A0FE2A4604A942
:104760003846FEF79BFE224601A93046FEF796FE2C
:10477000012404E0002402E0002400E02C4620464E
:104780000BB0BDE8F08F0024F9E74C46F7E700BF17
:10479000E0080020DC07002008020020FCA0000840
:1047A00000A300080CA100081CA100082DE9F04F8F
:1047B00083B0834692469946FFF7BCFE012803D09A
:1047C000C0B203B0BDE8F08F9BF80E009BF80F302D
:1047D00043EA00239BF810009BF802209BF803702B
:1047E00047EA02229BF8047047EA02279BF8082058
:1047F0009BF8095045EA02229BF80A5045EA022537
:104800009BF811209BF8128048EA02229BF8138043
:1048100048EA02289BF805209BF8066046EA022237
:104820009BF8076046EA02269BF80B209BF80C4099
:1048300044EA02229BF80D4044EA022440EA0320A5
:1048400003F020FBCDE90001404603F01BFB0246CC
:104850000B46DDE9000103F0B5FCCAE9000138466A
:1048600003F010FB82468B46304603F00BFB0246FA
:104870000B465046594603F0A5FCC9E900012846FD
:1048800003F000FB06460F46204603F0FBFA024603
:104890000B463046394603F095FC0C9BC3E90001FA
:1048A00001208EE70000000070B588B016461D4656
:1048B00000220023CDE90623CDE90423CDE902231C
:1048C00002AB009304AB06AAFFF770FF0446012871
:1048D00002D0204608B070BD0022434BD5E900014C
:1048E00003F0B8FD002846D03DA3D3E90023D6E964
:1048F000000103F0CDFD00282ED000223B4BDDE966
:10490000060103F035FB3A4BD3E9002303F030FBFB
:10491000384BD3E9002303F079F90022334B03F03D
:1049200051FCC6E90001344BD3E90023DDE9020163
:1049300003F01EFB314BD3E9002303F067F90C9B16
:10494000C3E900012E4BD3E90023DDE9040103F0A4
:104950005DF9C5E90001BCE72A4BD3E90023DDE995
:10496000060103F005FB284BD3E9002303F04EF9C1
:10497000C6E90001D7E70022244BD6E9000103F085
:1049800087FDE8B1224BD3E90023DDE9060103F0FE
:10499000EFFA204BD3E9002303F038F9C6E9000110
:1049A0001D4BD3E90023DDE9020103F0E1FA1B4BC3
:1049B000D3E9002303F02AF90C9BC3E90001C1E706
:1049C000174BD3E90023DDE9060103F0D1FA154BBB
:1049D000D3E9002303F01AF9C6E90001E0E700BFBC
:1049E0000000000000C07240000069400000244048
:1049F00048060020780600203806002068060020BF
:104A0000C0060020580600208806002000408F4085
:104A100040060020700600203006002060060020BE
:104A2000500600208006002030B59BB0002317936D
:104A30001893ADF86430B84BD3E90023CDE91423C3
:104A4000B64BD3E90023CDE91223B54BD3E90023BC
:104A5000CDE91023B34BD3E90023CDE90E23B24BAC
:104A6000D3E90023CDE90C23B04BD3E90023CDE9F2
:104A70000A23AF4BD3E90023CDE90823AD4BD3E99B
:104A80000023CDE90623AC4BD3E90023CDE9042371
:104A9000AA4BD3E90023CDE9022359220921A848D2
:104AA000FEF772FB149D159C002200232846214628
:104AB00003F0EEFC002800F0958114A8FDF796FAAB
:104AC00004230093C3B217AA28462146FEF780FCB0
:104AD0005922062117A8FEF757FB592202219948AF
:104AE000FEF752FB592209219748FEF74DFB129D14
:104AF000139C002200232846214603F0C9FC00280D
:104B000000F0878112A8FDF771FA04230093C3B265
:104B100017AA28462146FEF75BFC5922062117A852
:104B2000FEF732FB592202218648FEF72DFB59225F
:104B300009218648FEF728FB109D119C00220023C6
:104B40002846214603F0A4FC002800F0798110A833
:104B5000FDF74CFA04230093C3B217AA2846214656
:104B6000FEF736FC5922062117A8FEF70DFB592245
:104B700004217748FEF708FB592209217548FEF702
:104B800003FB149D159C002200232846214603F0B8
:104B90007FFC002800F06B811AA870E90C45FDF736
:104BA00025FA04230093C3B217AA20462946FEF72C
:104BB0000FFC5922062117A8FEF7E6FA5922022116
:104BC0006048FEF7E1FA592209216348FEF7DCFA52
:104BD000129D139C002200232846214603F058FC16
:104BE000002800F05C811AA870E90E45FDF7FEF977
:104BF00004230093C3B217AA20462946FEF7E8FB18
:104C00005922062117A8FEF7BFFA592202214D4862
:104C1000FEF7BAFA592209215048FEF7B5FA109D5D
:104C2000119C002200232846214603F031FC002875
:104C300000F04D811AA870E91045FDF7D7F904235B
:104C40000093C3B217AA20462946FEF7C1FB59229A
:104C5000062117A8FEF798FA592204213C48FEF7CE
:104C600093FA592208213E48FEF78EFA089D099CC6
:104C7000002200232846214603F00AFC002800F009
:104C80003E8108A8FDF7B2F904230093C3B217AA26
:104C900028462146FEF79CFB5922062117A8FEF75D
:104CA00073FA592202212748FEF76EFA5922082189
:104CB0002C48FEF769FA069D079C0022002328462F
:104CC000214603F0E5FB002800F0308106A8FDF73F
:104CD0008DF904230093C3B217AA28462146FEF794
:104CE00077FB5922062117A8FEF74EFA5922022116
:104CF0001448FEF749FA592208211B48FEF744FAE6
:104D0000049D059C002200232846214603F0C0FB99
:104D1000002800F0228129E05806002088060020A3
:104D2000B80600204806002078060020A8060020CB
:104D3000380600206806002098060020C0060020E3
:104D400038A0000800A3000844A0000850A00008F4
:104D50005CA0000864A0000870A000087CA0000807
:104D600088A0000894A00008A0A0000804A8FDF7EF
:104D70003DF904230093C3B217AA28462146FEF743
:104D800027FB5922062117A8FEF7FEF95922022116
:104D90008948FEF7F9F9592204218848FEF7F4F909
:104DA000029D039C002200232846214603F070FB4D
:104DB000002800F0E98002A8FDF718F90423009309
:104DC000C3B217AA28462146FEF702FB5922062144
:104DD00017A8FEF7D9F9592202217748FEF7D4F92E
:104DE0001BB030BD04F100442A4623461AA860E9EE
:104DF0000623FDF7FBF804230093C3B217AA284645
:104E00002146FEF7E5FA592201216D48FEF7BCF96B
:104E10005EE604F100442A4623461AA860E9082306
:104E2000FDF7E4F804230093C3B217AA28462146ED
:104E3000FEF7CEFA592201216148FEF7A5F96CE68A
:104E400004F100442A4623461AA860E90A23FDF724
:104E5000CDF804230093C3B217AA28462146FEF7D3
:104E6000B7FA592201215648FEF78EF97AE62A460A
:104E700004F10043CDE914231AA870E90C45FDF7AD
:104E8000B5F804230093C3B217AA20462946FEF7BB
:104E90009FFA592201214A48FEF776F989E62A4607
:104EA00004F10043CDE912231AA870E90E45FDF77D
:104EB0009DF804230093C3B217AA20462946FEF7A3
:104EC00087FA592201213E48FEF75EF998E62A4604
:104ED00004F10043CDE910231AA870E91045FDF74D
:104EE00085F804230093C3B217AA20462946FEF78B
:104EF0006FFA592201213248FEF746F9A7E604F17C
:104F000000442A4623461AA860E91223FDF76EF8EA
:104F100004230093C3B217AA28462146FEF758FA85
:104F2000592201212648FEF72FF9B5E604F1004485
:104F30002A4623461AA860E91423FDF757F80423EC
:104F40000093C3B217AA28462146FEF741FA592218
:104F500001211B48FEF718F9C3E604F100442A4674
:104F600023461AA860E91623FDF740F804230093AE
:104F7000C3B217AA28462146FEF72AFA5922012170
:104F80000F48FEF701F9FCE604F100442A462346E7
:104F90001AA860E91823FDF729F804230093C3B287
:104FA00017AA28462146FEF713FA59220121044880
:104FB000FEF7EAF80AE700BF00A30008ACA000086B
:104FC000609E000830B59BB0002317931893ADF88E
:104FD0006430B84BD3E90023CDE91423B64BD3E9B1
:104FE0000023CDE91223B54BD3E90023CDE91023EB
:104FF000B34BD3E90023CDE90E23B24BD3E9002311
:10500000CDE90C23B04BD3E90023CDE90A23AF4B04
:10501000D3E90023CDE90823AD4BD3E90023CDE943
:105020000623AC4BD3E90023CDE90423AA4BD3E9F3
:105030000023CDE9022359220521A848FEF7A4F850
:10504000149D159C002200232846214603F020FAD7
:10505000002800F0958114A8FCF7C8FF04230093F2
:10506000C3B217AA28462146FEF7B2F959220621F3
:1050700017A8FEF789F8592202219948FEF784F80B
:10508000592205219748FEF77FF8129D139C0022B4
:1050900000232846214603F0FBF9002800F0878111
:1050A00012A8FCF7A3FF04230093C3B217AA284653
:1050B0002146FEF78DF95922062117A8FEF764F85C
:1050C000592202218648FEF75FF8592205218648B9
:1050D000FEF75AF8109D119C002200232846214615
:1050E00003F0D6F9002800F0798110A8FCF77EFFC4
:1050F00004230093C3B217AA28462146FEF768F995
:105100005922062117A8FEF73FF8592204217748B3
:10511000FEF73AF8592205217548FEF735F8149D37
:10512000159C002200232846214603F0B1F90028EF
:1051300000F06B811AA870E90C45FCF757FF0423B7
:105140000093C3B217AA20462946FEF741F9592217
:10515000062117A8FEF718F8592202216048FEF729
:1051600013F8592205216348FEF70EF8129D139C8F
:10517000002200232846214603F08AF9002800F087
:105180005C811AA870E90E45FCF730FF04230093F8
:10519000C3B217AA20462946FEF71AF9592206215A
:1051A00017A8FDF7F1FF592202214D48FDF7ECFF4A
:1051B000592205215048FDF7E7FF109D119C002260
:1051C00000232846214603F063F9002800F04D81B2
:1051D0001AA870E91045FCF709FF04230093C3B235
:1051E00017AA20462946FEF7F3F85922062117A8E8
:1051F000FDF7CAFF592204213C48FDF7C5FF59229B
:1052000004213E48FDF7C0FF089D099C00220023B1
:105210002846214603F03CF9002800F03E8108A80A
:10522000FCF7E4FE04230093C3B217AA28462146E4
:10523000FEF7CEF85922062117A8FDF7A5FF59223F
:1052400002212748FDF7A0FF592204212C48FDF731
:105250009BFF069D079C002200232846214603F061
:1052600017F9002800F0308106A8FCF7BFFE0423E0
:105270000093C3B217AA28462146FEF7A9F859227F
:10528000062117A8FDF780FF592202211448FDF7D7
:105290007BFF592204211B48FDF776FF049D059CE6
:1052A000002200232846214603F0F2F8002800F0EF
:1052B000228129E05006002080060020B006002050
:1052C0004006002070060020A006002030060020C6
:1052D0006006002090060020C0060020B4A0000850
:1052E00000A30008BCA00008C4A000085CA000083F
:1052F000CCA00008D4A00008DCA00008E4A00008AE
:10530000ECA00008F4A0000804A8FCF76FFE04233A
:105310000093C3B217AA28462146FEF759F859222E
:10532000062117A8FDF730FF592202218948FDF711
:105330002BFF592204218848FDF726FF029D039C7C
:10534000002200232846214603F0A2F8002800F09E
:10535000E98002A8FCF74AFE04230093C3B217AA0F
:1053600028462146FEF734F85922062117A8FDF7F2
:105370000BFF592204217948FDF706FF1BB030BD11
:1053800004F100442A4623461AA860E90623FCF7E4
:105390002DFE04230093C3B217AA28462146FEF728
:1053A00017F8592201216E48FDF7EEFE5EE604F182
:1053B00000442A4623461AA860E90823FCF716FE93
:1053C00004230093C3B217AA28462146FEF700F82B
:1053D000592201216248FDF7D7FE6CE604F1004432
:1053E0002A4623461AA860E90A23FCF7FFFD042396
:1053F0000093C3B217AA28462146FDF7E9FF5922B8
:1054000001215748FDF7C0FE7AE62A4604F1004321
:10541000CDE914231AA870E90C45FCF7E7FD042335
:105420000093C3B217AA20462946FDF7D1FF59229F
:1054300001214B48FDF7A8FE89E62A4604F1004306
:10544000CDE912231AA870E90E45FCF7CFFD04231D
:105450000093C3B217AA20462946FDF7B9FF592287
:1054600001213F48FDF790FE98E62A4604F10043EB
:10547000CDE910231AA870E91045FCF7B7FD042305
:105480000093C3B217AA20462946FDF7A1FF59226F
:1054900001213348FDF778FEA7E604F100442A46CF
:1054A00023461AA860E91223FCF7A0FD0423009309
:1054B000C3B217AA28462146FDF78AFF59220121C7
:1054C0002748FDF761FEB5E604F100442A4623466D
:1054D0001AA860E91423FCF789FD04230093C3B2E2
:1054E00017AA28462146FDF773FF592201211C48BF
:1054F000FDF74AFEC3E604F100442A4623461AA8F3
:1055000060E91623FCF772FD04230093C3B217AAC7
:1055100028462146FDF75CFF592201211048FDF77E
:1055200033FEFCE604F100442A4623461AA860E94B
:105530001823FCF75BFD04230093C3B217AA284687
:105540002146FDF745FF592201210548FDF71CFEC4
:105550000AE700BF00A30008ACA000085CA0000898
:10556000609E0008012928D0032929D006292AD0C5
:105570000C292CD014292DD0322931D0462932D0F3
:10558000642937D0AA2939D0B1F5FA7F3ED0B1F5D8
:10559000167F3ED0B1F57A7F40D040F2DC5399427D
:1055A00040D0B1F5FA6F42D040F6C413994244D0CE
:1055B00040F6B833994247D07047012303707047D3
:1055C00001234370704701238370437070470123A8
:1055D000C37070470123C3708370437003707047BA
:1055E00001230371704701230371C37083704370FB
:1055F00003707047012303714371704701234371A6
:105600000371C3708370437003707047012383710B
:1056100070470123837143710371704701238371C4
:10562000C371704701238371C371037270470123F3
:105630008371C37103724372704701238371C37115
:10564000037243728372704701238371C3710372C3
:1056500043728372C372AFE738B50546002409E090
:105660000C4B33F814100C4B53F82400FBF7ECF8F8
:105670000134E4B20F2C0BD82B5D002BF0D1054B7D
:1056800033F81410044B53F82400FBF70DF9EFE73F
:1056900038BD00BF7C0000203C000020092918D93B
:1056A000002201E00132D2B2914210D9835C4B2B2F
:1056B00011D00D2BF6D00A2BF4D02C2BF2D04F2B7F
:1056C000F0D0303BDBB2092BECD900207047012031
:1056D0007047002070470120704700002DE9F0411D
:1056E00090B004460D461746984600230D930E933E
:1056F000ADF83C300A930B93ADF830300793089324
:10570000ADF8243000220023CDE90423CDE90223A3
:10571000CDE9002359221E216248FDF735FD5922AB
:1057200009216148FDF730FD592229462046FDF741
:105730002BFD592210215D48FDF726FD2946204604
:10574000FFF7ACFF002800F0AA800023E25C303AAB
:10575000D2B2092A2FD90133DBB2F7E7721CD6B2D5
:10576000002203E0012E15D0022E1CD00133DBB243
:105770009D4223D9E018E15C4B291FD02C29EDD0A4
:10578000002EEFD10DF1400E96440EF80C1C0132A4
:10579000D2B2E7E790F800E010A9114401F824EC38
:1057A0000132D2B2E0E7007810A9114401F8180CD8
:1057B000511CCAB2DAE700221646D9E75922102155
:1057C0003B48FDF7E1FC592217213A48FDF7DCFC84
:1057D0000DA8FDF7E5FD592201460DA8FDF7D4FC03
:1057E000354C592202212046FDF7CEFC0DA8FDF7CD
:1057F000D7FD02460DA904A8FDF750FE0AA8FDF743
:10580000CFFD592201460AA8FDF7BEFC592202210C
:105810002046FDF7B9FC0AA8FDF7C2FDC21E0AA981
:1058200002A8FDF73BFE07A8FDF7BAFD5922014685
:1058300007A8FDF7A9FC592202212046FDF7A4FC88
:1058400007A8FDF7ADFD024607A96846FDF726FE4D
:10585000592216211948FDF797FC0022184BDDE963
:10586000040102F0AFFCC7E900010022144BDDE99E
:10587000020102F0A7FCC8E900010022104BDDE99B
:10588000000102F09FFC169BC3E9000159221F2171
:105890000C48FDF779FC012010B0BDE8F081002034
:1058A000FAE700BF2CA100084CA1000858A100088D
:1058B0006CA100087CA1000800A3000894A10008C6
:1058C00000408F40ACA100082DE9F04FBBB08346EB
:1058D0000392049344990D460591DDF814A146996D
:1058E0000E460691DDF81C8148990F460791DDF8B8
:1058F00024914A9908914B980990BA4B2DAC0FCB43
:1059000007C42370252200210DF1C10002F0F0FD33
:1059100000232A932B93ADF8B03027932893ADF84A
:10592000A43024932593ADF8983021932293ADF8B9
:105930008C301E931F93ADF880301B931C93ADF8F1
:105940007430039A049BCDE918232A465346CDE9C7
:10595000162332464346CDE914233A464B46CDE959
:105960001223089A099BCDE91023BBF1010F00F027
:105970006982002200230398049902F06BFD00283D
:1059800040F06482002200230598514602F062FD37
:10599000002840F06282002200230698414602F06F
:1059A00059FD002840F05F820022002307984946F5
:1059B00002F050FD002840F05C820022002308988D
:1059C000099902F047FD002840F059820022002387
:1059D0000398049902F03EFD002840F057823AA84F
:1059E00070E92245FCF702FB03230093C3B21BAA14
:1059F00020462946FDF7ECFC592209211BA8FDF79A
:105A0000C3FB592202217848FDF7BEFB0022002388
:105A10000598514602F01EFD002840F03D823AA84C
:105A200070E92445FCF7E2FA03230093C3B21BAAF2
:105A300020462946FDF7CCFC592209211BA8FDF779
:105A4000A3FB592202216848FDF79EFB0022002398
:105A50000698414602F0FEFC002840F023823AA856
:105A600070E92645FCF7C2FA03230093C3B21BAAD0
:105A700020462946FDF7ACFC592209211BA8FDF759
:105A800083FB592202215848FDF77EFB00220023A8
:105A90000798494602F0DEFC002840F009823AA847
:105AA00070E92845FCF7A2FA03230093C3B21BAAAE
:105AB00020462946FDF78CFC592209211BA8FDF739
:105AC00063FB592202214848FDF75EFB0022474B49
