:020000040800F2
:1000000000C00020F9020008FF02000803030008F6
:100010007503000879030008C10300080000000010
:1000200000000000000000000000000009040008BB
:100030000D04000800000000110400081504000869
:1000400025040008250400082504000825040008EC
:1000500025040008250400082504000825040008DC
:1000600025040008250400082504000825040008CC
:1000700025040008250400082504000825040008BC
:1000800025040008250400082504000825040008AC
:10009000250400082504000825040008250400089C
:1000A000250400082504000825040008250400088C
:1000B0004D26000825040008250400082504000832
:1000C000250400082504000825040008250400086C
:1000D000250400085D2B0008912B0008C52B0008A3
:1000E000250400082504000825040008250400084C
:1000F000250400082504000825040008250400083C
:10010000250400082504000825040008250400082B
:10011000F92B000825040008250400082504000820
:10012000250400082504000825040008250400080B
:1001300000000000000000000000000000000000BF
:1001400000000000000000000000000000000000AF
:10015000000000000000000000000000000000009F
:10016000000000000000000000000000000000008F
:10017000000000000000000000000000000000007F
:10018000000000000000000000000000000000006F
:10019000000000000000000000000000000000005F
:1001A000000000000000000000000000000000004F
:1001B000000000000000000000000000000000003F
:1001C000000000000000000000000000000000002F
:1001D000000000000000000000000000000000001F
:1001E0005FF8E0F100B583B001F0F4FB304B314A29
:1001F0001360314A1360314B314A03E011681960D2
:10020000043304322F498B42F8D32A4B1A682E4B01
:100210009A4200D0FEE7284B1A682C4B9A42F9D13B
:10022000234B2B4A13602B4A13602B4B02E0002216
:100230001A600433294A9342F9D3254B1B6813B93A
:10024000244B1B6803B1FEE701F0D0FB694601A80F
:1002500001F052FB224B234CE41AA4100025AC42BF
:1002600014DC214B214CE41AA4100025AC4213DC11
:100270000099019804F08AF905461D4B1D4CE41ABB
:10028000A410002C0EDC284601F008FB144B53F898
:10029000253098470135E2E7134B53F8253098474E
:1002A0000135E3E7013C124B53F824309847E8E767
:1002B000BABADECA000000200401002000000020BD
:1002C000986C000808010020785634123254769851
:1002D00008010020A807002008010020AC0700202A
:1002E000500400085004000850040008500400089E
:1002F000500400085004000808B5FFF773FF00BE63
:10030000FEE71EF0040F0CBFEFF30880EFF3098047
:100310007146414A10472DE9F04182B004468846B3
:10032000124B5E6B9F6B9D6A1B6B13F0020F03D029
:100330000E4BDB6A002B0CDB0D4801F0EFFACDF819
:1003400000803B4632462946204601F053FB00BE62
:10035000FEE74BF6AB6101F0C7FB0028ECD04FF095
:100360000042024BDA6202B0BDE8F08100ED00E02D
:10037000D85B000800BEFEE71EF0040F0CBFEFF3D1
:100380000880EFF309807146244A10472DE9F041B7
:1003900082B004468846084B5E6B9F6B9D6A074897
:1003A00001F0BCFACDF800803B4632462946204693
:1003B00001F020FB00BEFEE700ED00E0E85B000876
:1003C0001EF0040F0CBFEFF30880EFF309807146B5
:1003D000134A10472DE9F04182B004468846084B85
:1003E0005E6B9F6B9D6A074801F098FACDF800801C
:1003F0003B4632462946204601F0FCFA00BEFEE7A5
:1004000000ED00E0F45B000800BEFEE700BEFEE782
:1004100000BEFEE770470000170300088D030008C8
:08042000D503000800BEFEE751
:10042800986C00080000002008010020986C000863
:10043800000000000000000008010020AC070020B8
:080448000000000000000000AC
:1004500010B50446B0F5E06F0FD0B0F5C06F0CD00A
:10046000B0F5A06F09D0B0F5806F06D0B0F5407F31
:1004700003D06321044801F047FA44F0BF6444F418
:100480000034024BDC6010BD5859000800ED00E05C
:1004900010B50446C378012B03D97521204801F01B
:1004A00033FA63780F2B10D8A3780F2B12D8E37888
:1004B000ABB923785A0903F01F03012101FA03F3B2
:1004C0002032184941F8223010BD7621144801F03D
:1004D0001BFAE9E77721124801F016FAE7E7124B19
:1004E000DA68D243C2F30222C2F104000F2121FADA
:1004F00002F263788340A1780A4013431B012278FB
:10050000DBB208490A4482F800332378580903F023
:100510001F03012202FA03F341F8203010BD00BF8F
:100520005859000800E100E000ED00E0034B044AE8
:100530005A6002F188325A60704700BF00200240C2
:1005400023016745024A136943F080031361704732
:10055000002002400B4BDB6813F0010F0DD1094B5B
:10056000DB6813F0040F01D002207047054BDB68F5
:1005700013F0100F03D003207047012070470420B0
:10058000704700BF0020024010B50446FFF7E2FFAD
:1005900002E0FFF7DFFF013C012801D1002CF8D178
:1005A00004B9052010BD000038B5044600F17842BA
:1005B000124B9A4206D84FF43020FFF7E5FF04288B
:1005C00006D038BD40F2A7110D4801F09DF9F2E7C1
:1005D0000C4D2B6943F002032B616C612B6943F0D6
:1005E00040032B614FF43020FFF7CEFF2B6923F03F
:1005F0000203DB04DB0C2B61E3E700BFFEFF0F000F
:10060000805900080020024070B504460D4600F1F4
:100610007842104B9A4206D84FF40050FFF7B4FFCF
:10062000042806D070BD4FF45D710B4801F06CF9E1
:10063000F2E70A4E336943F00103336125804FF43A
:100640000050FFF7A1FF336923F00103DB04DB0C4B
:100650003361E7E7FEFF0F008059000800200240E9
:10066000F8B505460C46484B98421BD003F580630D
:10067000984217D003F58063984213D003F5806346
:1006800098420FD003F5806398420BD003F5806346
:10069000984207D003F58063984203D0B2213B48CB
:1006A00001F032F9E3788BB1042B0FD0282B0DD059
:1006B000482B0BD0142B09D0102B07D01C2B05D0A6
:1006C000182B03D0B321314801F01EF9238893B1D0
:1006D000E37803F00F06304613F0100F06D0A3782E
:1006E000013BDBB2022B0BD8A0783043237833B325
:1006F0002E6800230BE0B421244801F005F9E7E758
:10070000BB21224801F000F9EEE76A610133072BB3
:1007100014D801229A40218832EA0101F6D19900C9
:100720000F278F4026EA070600FA01F10E43E17811
:100730002829EAD04829E9D12A61E7E72E602388F1
:10074000FF2B20D96E68002302E06A6115E00133B7
:10075000072B17D803F1080101228A40218832EAC9
:100760000101F4D199000F278F4026EA070600FA0D
:1007700001F10E43E1782829E7D0E1784829E6D154
:100780002A61E4E76E60F8BD00080140B459000832
:1007900038B504460D462A4B98421CD003F58063B9
:1007A000984218D003F58063984214D003F5806313
:1007B000984210D003F5806398420CD003F5806313
:1007C000984208D003F58063984204D04FF48F71AB
:1007D0001C4801F099F86B1E9BB2012B28D9042DFF
:1007E00026D0082D24D0102D22D0202D20D0402D11
:1007F0001ED0802D1CD0B5F5807F19D0B5F5007FB7
:1008000016D0B5F5806F13D0B5F5006F10D0B5F5E3
:10081000805F0DD0B5F5005F0AD0B5F5804F07D0E9
:10082000B5F5004F04D040F21F11064801F06CF8F6
:10083000A3681D4201D1002038BD012038BD00BF92
:1008400000080140B459000838B504460D46144B61
:1008500098421CD003F58063984218D003F580635A
:10086000984214D003F58063984210D003F580635A
:1008700098420CD003F58063984208D003F580635A
:10088000984204D04FF4B571064801F03DF80DB11F
:10089000256138BD40F26B11024801F035F8F7E7E9
:1008A00000080140B459000838B504460D46144B01
:1008B00098421CD003F58063984218D003F58063FA
:1008C000984214D003F58063984210D003F58063FA
:1008D00098420CD003F58063984208D003F58063FA
:1008E000984204D04FF4BD71064801F00DF80DB1E7
:1008F000656138BD40F27B11024801F005F8F7E769
:1009000000080140B45900080D4B1A6842F001027A
:100910001A6059680B4A0A405A601A6822F08472B9
:1009200022F480321A601A6822F480221A605A680F
:1009300022F4FE025A604FF41F029A60704700BF13
:10094000001002400000FFF810B5044650B1B0F5A9
:10095000803F07D0B0F5802F04D040F211110F482E
:1009600000F0D2FF0E4B1A6822F480321A601A6827
:1009700022F480221A60B4F5803F03D0B4F5802FB2
:1009800006D010BD064A136843F48033136010BDCF
:10099000034A136843F4A023136010BDE85900080C
:1009A0000010024038B50C46054650B1B0F5803F06
:1009B00007D0B0F5403F04D040F27F111D4800F051
:1009C000A3FF74B3B4F5802F2BD0B4F5002F28D03B
:1009D000B4F5402F25D0B4F5801F22D0B4F5A01F68
:1009E0001FD0B4F5C01F1CD0B4F5E01F19D0B4F56A
:1009F000001F16D0B4F5101F13D0B4F5201F10D06F
:100A0000B4F5301F0DD0B4F5401F0AD0B4F5501F17
:100A100007D0B4F5601F04D04FF4C071054800F052
:100A200073FF054B596821F47C112C432143596015
:100A300038BD00BFE85900080010024010B5044658
:100A4000012804D94FF4CA71024800F05DFF024B3F
:100A50001C6010BDE85900086000424210B5044611
:100A6000022806D8064A536823F003031C43546047
:100A700010BD4FF40E71034800F046FFF2E700BFCF
:100A800000100240E8590008024B586800F00C00C2
:100A9000704700BF0010024010B50446A0B1802886
:100AA00012D0902810D0A0280ED0B0280CD0C0288A
:100AB0000AD0D02808D0E02806D0F02804D04FF47F
:100AC0001971054800F020FF044A536823F0F00331
:100AD0001C43546010BD00BFE859000800100240DC
:100AE00010B5044680B1B0F5806F0DD0B0F5A06FA1
:100AF0000AD0B0F5C06F07D0B0F5E06F04D040F277
:100B00007E21054800F000FF044A536823F4E063A7
:100B10001C43546010BD00BFE8590008001002409B
:100B200010B5044680B1B0F5806F0DD0B0F5A06F60
:100B30000AD0B0F5C06F07D0B0F5E06F04D04FF425
:100B40002671054800F0E0FE044B586820F4605020
:100B500040EAC400586010BDE85900080010024087
:100B600010B4294B5B6803F00C03042B2BD0082B2B
:100B70002CD013B1254B036001E0244B03602249C4
:100B80004B68C3F30313224CE35CDAB20368D3402F
:100B900043604A68C2F30222A25CD2B223FA02F294
:100BA00082604A68C2F3C222A25CD2B2D340C36060
:100BB0004A68C2F3813217498A5CD2B2B3FBF2F3BE
:100BC000036110BC7047114B0360D8E70E4A5368AD
:100BD0005268C3F38343023312F4803F09D00A4AB8
:100BE000526812F4003F09D00B4A02FB03F3036082
:100BF000C5E7094A02FB03F30360C0E7034A02FBAF
:100C000003F30360BBE700BF0010024000127A004C
:100C1000080000200400002000093D0038B504460B
:100C20000D460E4B034003B920B940F24A410C482F
:100C300000F06AFE012D04D940F24B41084800F053
:100C400063FE2DB9074A936923EA0404946138BD11
:100C5000044B9A6914439C6138BD00BF0200C0FF79
:100C6000E85900080010024038B504460D460E4B06
:100C7000184200D120B940F269410C4800F044FE0E
:100C8000012D04D940F26A41084800F03DFE2DB91B
:100C9000074AD36923EA0404D46138BD044BDA69F6
:100CA0001443DC6138BD00BF00360181E8590008FB
:100CB0000010024010B50446212818D0312816D063
:100CC000392814D0412812D0612810D07A280ED0AB
:100CD0007B280CD07C280AD07D2808D07E2806D01E
:100CE0007F2804D040F234510D4800F00DFE630916
:100CF000012B0CD0022B0DD00A4B5B6A04F01F04B1
:100D000023FA04F414F0010F07D1002010BD054BA5
:100D10001B68F3E7034B1B6AF0E7012010BD00BF1F
:100D2000E85900080010024000B583B00023019389
:100D30003120FFF7BFFF019B01330193019BB3F506
:100D4000A06F01D00028F3D03120FFF7B3FF18B90E
:100D5000002003B05DF804FB0120FAE738B5044633
:100D60000D46524B984242D0B0F1804F3FD0A3F590
:100D7000943398423BD003F58063984237D003F513
:100D80008063984233D003F5806398422FD003F5F7
:100D9000806398422BD003F59033984227D003F517
:100DA000C053984223D003F5806398421FD003F5C7
:100DB000806398421BD0A3F59E33984217D003F569
:100DC0008063984213D003F5806398420FD003F5F7
:100DD000903398420BD003F58063984207D003F517
:100DE0008063984203D0E721314800F08DFD6B8885
:100DF0005BB1102B09D0202B07D0402B05D0602BE6
:100E000003D0E8212A4800F07FFDEB884BB1B3F511
:100E1000807F06D0B3F5007F03D0E921244800F09D
:100E200073FD23889BB2214A944212D002F50062DE
:100E300094420ED0B4F1804F0BD0A2F59832944278
:100E400007D002F58062944203D002F5806294429A
:100E500003D123F070036A881343164A944208D0E2
:100E600002F58062944204D023F440739BB2EA8876
:100E700013432380AB88A3852B8823850B4B9C428F
:100E80000FD003F500639C420BD003F540639C42F6
:100E900007D003F580639C4203D003F580639C4236
:100EA00001D12B7A23860123A38238BD002C014077
:100EB000185A00080010004038B504460D462E4B65
:100EC000984243D0B0F1804F40D0A3F5943398427C
:100ED0003CD003F58063984238D003F58063984294
:100EE00034D003F58063984230D003F58063984294
:100EF0002CD003F59033984228D003F5C053984284
:100F000024D003F58063984220D003F58063984293
:100F10001CD0A3F59E33984218D003F58063984205
:100F200014D003F58063984210D003F590339842B3
:100F30000CD003F58063984208D003F58063984293
:100F400004D040F229310D4800F0DEFC012D04D917
:100F500040F22A31094800F0D7FC35B923889BB20A
:100F600023F001039BB2238038BD23889BB243F05A
:100F70000103238038BD00BF002C0140185A00082F
:100F800070B504460D461646314B984243D0B0F139
:100F9000804F40D0A3F5943398423CD003F5806352
:100FA000984238D003F58063984234D003F58063CB
:100FB000984230D003F5806398422CD003F59033EB
:100FC000984228D003F5C053984224D003F580639B
:100FD000984220D003F5806398421CD0A3F59E333D
:100FE000984218D003F58063984214D003F58063CB
:100FF000984210D003F5903398420CD003F58063EB
:10100000984208D003F58063984204D040F26B31D7
:10101000104800F079FC15F47F4F00D125B94FF44A
:101020005B710C4800F070FC012E04D940F26D3168
:10103000084800F069FC2EB9A389ED43ADB21D400C
:10104000A58170BDA3899BB21D43A58170BD00BF62
:10105000002C0140185A000838B504460D462A4BAA
:10106000984243D0B0F1804F40D0A3F594339842DA
:101070003CD003F58063984238D003F580639842F2
:1010800034D003F58063984230D003F580639842F2
:101090002CD003F59033984228D003F5C0539842E2
:1010A00024D003F58063984220D003F580639842F2
:1010B0001CD0A3F59E33984218D003F58063984264
:1010C00014D003F58063984210D003F59033984212
:1010D0000CD003F58063984208D003F580639842F2
:1010E00004D040F63621094800F00EFC15F4614F9B
:1010F00000D125B940F63721044800F005FCED4346
:10110000ADB2258238BD00BF002C0140185A00083E
:1011100038B504460D46344B984243D0B0F1804F69
:1011200040D0A3F5943398423CD003F580639842B5
:1011300038D003F58063984234D003F58063984239
:1011400030D003F5806398422CD003F59033984259
:1011500028D003F5C053984224D003F58063984209
:1011600020D003F5806398421CD0A3F59E339842AB
:1011700018D003F58063984214D003F58063984239
:1011800010D003F5903398420CD003F58063984259
:1011900008D003F58063984204D040F658211348E4
:1011A00000F0B2FB6B1E9BB2012B10D9042D0ED0A8
:1011B000082D0CD0102D0AD0202D08D0402D06D09F
:1011C000802D04D040F65921084800F09DFB228A6A
:1011D000A3892B40154202D01BB9002038BD002046
:1011E00038BD012038BD00BF002C0140185A00084E
:1011F00038B504460D462A4B984243D0B0F1804F93
:1012000040D0A3F5943398423CD003F580639842D4
:1012100038D003F58063984234D003F58063984258
:1012200030D003F5806398422CD003F59033984278
:1012300028D003F5C053984224D003F58063984228
:1012400020D003F5806398421CD0A3F59E339842CA
:1012500018D003F58063984214D003F58063984258
:1012600010D003F5903398420CD003F58063984278
:1012700008D003F58063984204D040F682210948E3
:1012800000F042FB15F47F4F00D125B940F68321D1
:10129000044800F039FBED43ADB2258238BD00BFF4
:1012A000002C0140185A000830B587B004460D469E
:1012B000654B984213D0A3F5744398420FD003F5C1
:1012C000806398420BD003F58063984207D003F502
:1012D0008063984203D0B8215C4800F015FB2B686E
:1012E000013B5B4A934200F29480AB8833B1B3F583
:1012F000805F03D0BA21554800F006FBEB8863B14C
:10130000B3F5805F09D0B3F5005F06D0B3F5405F59
:1013100003D0BB214D4800F0F7FA2B894BB1B3F550
:10132000806F06D0B3F5C06F03D0BC21474800F0F2
:10133000EBFA6A8922F00C039BB203B91AB9BD21FA
:10134000424800F0E1FAAB8963B1B3F5807F09D080
:10135000B3F5007F06D0B3F5407F03D0BE213B48F4
:1013600000F0D2FAAB8973B1374B9C420BD0A3F596
:1013700074439C4207D003F580639C4203D0C22192
:10138000324800F0C1FA238A9BB2EA8823F4405322
:1013900013432382A3899BB2A98828896A890143C0
:1013A0000A4323F4B05323F00C031343A381A38A0D
:1013B0009BB2AA8923F440731343A38201A8FFF7C9
:1013C000CFFB214B9C4229D0039BA28912F4004FF2
:1013D00026D103EB830303EB830329688900B3FB66
:1013E000F1F11C4BA3FB012358090501642300FB09
:1013F0001313A28912F4004F1BD11B013233154A7B
:10140000A2FB0323C3F343132B439BB2238107B0F7
:1014100030BDB9210D4800F077FA66E7049BD4E7A8
:1014200003EB830303EB830329684900B3FBF1F16A
:10143000D7E7D9003231074AA2FB0131C1F342128A
:1014400045EA0203E1E700BF00380140485A0008BE
:101450001FAA44001F85EB5138B504460D46164BB4
:10146000984214D0A3F57443984210D003F58063DA
:1014700098420CD003F58063984208D003F580634E
:10148000984204D04FF4B1710C4800F03DFA012DA0
:1014900004D940F26311094800F036FA35B9A3893E
:1014A0009BB223F400539BB2A38138BDA3899BB2A6
:1014B00043F40053A38138BD00380140485A000866
:1014C00070B504460D461646374B984214D0A3F526
:1014D0007443984210D003F5806398420CD003F512
:1014E0008063984208D003F58063984204D040F2AC
:1014F00089112E4800F008FA282D1ED040F22773DB
:101500009D421AD040F226639D4216D040F22553E8
:101510009D4212D040F224439D420ED040F6460335
:101520009D420AD040F66A139D4206D0602D04D039
:101530004FF4C5711D4800F0E7F9012E04D940F2BF
:101540008B111A4800F0E0F940F66A139D4211D061
:10155000C5F3421205F01F05012303FA05F59A426F
:1015600019D0022A19D01434CEB9236823EA05050C
:10157000256070BD0C4B9C42EAD0A3F574439C429D
:10158000E6D003F580639C42E2D040F28F11074819
:1015900000F0BAF9DCE70C34E6E71034E4E723683E
:1015A0001D43256070BD00BF00380140485A000847
:1015B00038B504460D46124B984214D0A3F5744337
:1015C000984210D003F5806398420CD003F58063F5
:1015D000984208D003F58063984204D040F25F211E
:1015E000084800F091F9B5F5007F03D2C5F308056E
:1015F000A58038BD4FF41871024800F085F9F5E771
:1016000000380140485A000810B504460D4B984276
:1016100014D0A3F57443984210D003F58063984228
:101620000CD003F58063984208D003F5806398429C
:1016300004D04FF41C71044800F066F9A088C0F390
:10164000080010BD00380140485A000838B505466A
:101650000C46274B984214D0A3F57443984210D0FF
:1016600003F5806398420CD003F58063984208D05C
:1016700003F58063984204D040F286311D4800F0A3
:1016800043F9012C18D0802C16D0402C14D0202CDB
:1016900012D0102C10D0B4F5807F0DD0B4F5007F9F
:1016A0000AD0082C08D0042C06D0022C04D040F21A
:1016B0008731104800F028F9B4F5007F04D02B885A
:1016C0001C4212D1002038BD094B9D42F7D0A3F532
:1016D00074439D42F3D003F580639D42EFD040F206
:1016E0008B31044800F010F9E9E7012038BD00BF54
:1016F00000380140485A000838B505460C463C4BB6
:10170000984214D0A3F57443984210D003F5806337
:1017100098420CD003F58063984208D003F58063AB
:10172000984204D040F2D931324800F0EDF8282C2C
:1017300025D040F227739C4221D040F226639C4280
:101740001DD040F225539C4219D040F224439C42C4
:1017500015D040F646039C4211D040F66A139C42D5
:101760000DD0B4F5587F0AD0B4F5187F07D0B4F582
:10177000B07F04D040F2DA311E4800F0C5F840F6E0
:101780006A139C4217D0C4F3421204F01F010123D4
:101790008B40012A20D0022A22D0AA8A92B213407A
:1017A000240A012202FA04F42A8892B21440DBB11E
:1017B000E4B9002038BD0E4B9D42E4D0A3F574433C
:1017C0009D42E0D003F580639D42DCD040F2DE31E3
:1017D000084800F099F8D6E7AA8992B21340DFE7EB
:1017E0002A8A92B21340DBE7002038BD012038BDC1
:1017F00000380140485A000838B505460C46254BCC
:10180000984214D0A3F57443984210D003F5806336
:1018100098420CD003F58063984208D003F58063AA
:10182000984204D040F222411B4800F06DF840F28B
:1018300026639C4210D040F225539C420CD040F6C7
:1018400046039C4208D040F66A139C4204D040F202
:101850002341114800F058F840F66A139C4207D023
:10186000240A0123A3409BB2DB439BB22B8038BDEB
:10187000084B9D42F4D0A3F574439D42F0D003F58C
:1018800080639D42ECD040F22741034800F03CF8D1
:10189000E6E700BF00380140485A0008FEE70000B4
:1018A00008B5034800F052F80120FFF7F7FF00BF2A
:1018B0007C5A000808B503460C4A12685AB10B4A14
:1018C0001068033323F003030344094A934206D804
:1018D000064A136008BD0749044A1160EFE703F0A8
:1018E000E3FB0C2303604FF0FF3008BD0C01002028
:1018F00000BC0020AC07002001230360014B0B60FB
:10190000704700BF1800002008B50A46014602488B
:1019100000F004F8FFF7C4FF905A00080FB400B5B8
:1019200083B004AB53F8042B01938021064803F0E5
:1019300009FC002803DD0146034800F047F803B026
:101940005DF804EB04B070471401002010B50446A4
:1019500003F0C3FB0146204600F038F8012102489D
:1019600000F034F810BD00BF606C00082DE9F043B2
:1019700085B004460F4643560BB10E461EE00425C3
:1019800028462146ABBE0446384605B0BDE8F08384
:1019900014F9011B04AA1A4402F8101C0133AB42CB
:1019A000F6D304AA1344002203F8102CE9464FF0A2
:1019B000040840464946ABBE8046761B002EE3D065
:1019C0003546102E28BF10250023E8E708B5FFF79D
:1019D000CDFF08BD08B500F0FDF8024B024A9A6041
:1019E00008BD00BF00ED00E00000000808B500F0F1
:1019F00019F908BDF8B504460D4617461E46274896
:101A0000FFF78CFF21682648FFF788FF61682548AB
:101A1000FFF784FFA1682448FFF780FFE1682348AF
:101A2000FFF77CFF21692248FFF778FF61692148B1
:101A3000FFF774FFA1692048FFF770FFE1691F48B5
:101A4000FFF76CFF1E48FFF769FF29461D48FFF7A7
:101A500065FF1D4CE16A1D48FFF760FF216B1C48C4
:101A6000FFF75CFFE16B1B48FFF758FF15F0800F95
:101A70000AD115F4004F0CD11748FFF74FFF069914
:101A80001648FFF74BFFF8BD39461548FFF746FFEC
:101A9000EFE731461348FFF741FFEDE7BC5A000876
:101AA000CC5A0008DC5A0008EC5A0008FC5A00081E
:101AB0000C5B00081C5B00082C5B00083C5B00080A
:101AC0004C5B0008585B000800ED00E0685B000814
:101AD000785B0008885B0008B85B0008C05B000802
:101AE000985B0008A85B000883691A888A4201D0C5
:101AF000002070470268033A012A03D80233836149
:101B0000012070470020704782B0002301930093AA
:101B10002C4A136843F4803313602A4B1B6803F488
:101B200000330093019B01330193009B1BB9019B80
:101B3000B3F5A06FF1D1234B1B6813F4003F06D01F
:101B400001230093009B012B04D002B070470023B7
:101B50000093F7E71C4B1A6842F010021A601A68EB
:101B600022F003021A601A6842F002021A60A3F51A
:101B700080535A685A605A685A605A6842F48062C0
:101B80005A605A6822F47C125A605A6842F4E81289
:101B90005A601A6842F080721A600A4B1B6813F090
:101BA000007FFAD0074B5A6822F003025A605A6845
:101BB00042F002025A60034B5B6803F00C03082BEF
:101BC000F9D1C2E7001002400020024008B5FFF73B
:101BD0009BFF08BD08B5104B1A6842F001021A605D
:101BE00059680E4A0A405A601A6822F0847222F438
:101BF00080321A601A6822F480221A605A6822F42D
:101C0000FE025A604FF41F029A60FFF7DFFF4FF0A9
:101C10000062034B9A6008BD001002400000FFF80C
:101C200000ED00E01F4B5B6803F00C03042B15D0A4
:101C3000082B17D01BB11C4A1C4B1A6002E01A4A31
:101C40001A4B1A60174B5B68C3F30313184AD35C33
:101C5000DAB216490B68D3400B607047124A134B37
:101C60001A60EFE70F4A53685268C3F383430233A5
:101C700012F4803F0AD00B4A526812F4003F0BD096
:101C80000C4A02FB03F3094A1360DBE7094A02FB33
:101C900003F3064A1360D5E7034A02FB03F3034A42
:101CA0001360CFE70010024000127A0030000020DD
:101CB0002000002000093D000146002302E0002230
:101CC000CA5401335F2BFAD960230B6600204866A3
:101CD0008866C866086770470131814201D00846AE
:101CE00070470021FBE738B50446456E006E85421B
:101CF00009DA0B46A16E6354FFF7EEFFA0660135CB
:101D00006566002038BD4FF0FF3038BDF8B5456E30
:101D1000002D0EDD0F460446C66E3146006EFFF7FD
:101D2000DBFFE066013D6566F6B2A35D3B70002017
:101D3000F8BD6FF00100F8BD2DE9F04D82B083468B
:101D40008846924600260027CDE90067002514E06A
:101D5000EC000BEB0403D3E90023DDE9000102F002
:101D600037FDCDE900014444D4E90023304639462B
:101D700002F02EFD06460F4601355545E8D3504684
:101D800002F062FE04460D4602460B46DDE9000104
:101D900002F0FAFF074BC3E9000122462B4630460A
:101DA000394602F0F1FF044BC3E9000102B0BDE87F
:101DB000F08D00BF98010020A00100202DE9F04720
:101DC000814688461746002546E0EC0009EB0406EC
:101DD0004444D4E90023D6E9000102F0ABFEDFF869
:101DE000A4A002460B46DAE9000102F0F1FCCAE9C0
:101DF0000001DFF888A0D6E90023DAE9000102F04B
:101E0000E7FCCAE90001DFF880A0D4E90023DAE9A1
:101E1000000102F0DDFCCAE90001D6E9000102463A
:101E20000B4602F087FE134E02460B46D6E9000130
:101E300002F0CEFCC6E90001D4E9000102460B46DF
:101E400002F078FE0C4C02460B46D4E9000102F089
:101E5000BFFCC4E900010135BD42B6D3074BD3E94D
:101E6000000102460B4602F065FE054BC3E9000186
:101E7000BDE8F087B0010020D0010020A8010020BB
:101E8000B8010020C0010020C80100202DE9F04F5A
:101E900083B007468A4616461D46FFF78FFF304639
:101EA00002F0D2FDCDE900012E4CD4E9002302F06E
:101EB00041FE804689462C4BD3E900232B49D1E9CA
:101EC000000102F037FE02460B464046494602F04A
:101ED0007DFC80468946DFF8A8B0DBE90023DDE918
:101EE000000102F027FE224BD3E9002302F06EFC32
:101EF00002460B464046494602F046FFC5E900014E
:101F0000324651463846FFF717FF1A4BD3E90023F4
:101F1000D5E9000102F00EFE02460B461649D1E952
:101F2000000102F053FC0C9BC3E90001D4E900015D
:101F300002460B4602F0FEFD04460D460F4BD3E968
:101F40000023DBE9000102F0F5FD02460B462046C6
:101F5000294602F019FF0D9BC3E9000103B0BDE85B
:101F6000F08F00BFC0010020C8010020A8010020A0
:101F7000B801002098010020A0010020D00100201D
:101F8000B001002038B5D0E900450022154B2046AD
:101F9000294603F041F808BB0022124B204629468F
:101FA00003F058F840B100220F4B2046294603F0B9
:101FB00033F808B1022038BD00220B4B20462946D9
:101FC00003F048F808B9042038BD0022074B20462A
:101FD000294603F021F818B9042038BD012038BD86
:101FE000032038BD000024400000594000408F40CD
:101FF0002DE9F04F87B00446974B1A680092D3F84A
:102000000490964B19680191D3F80480944B196899
:1020100002915F68934B196803915E68924B19684F
:1020200004915D68914B19680591D3F804A0592378
:102030000380002200230098494602F0EDFF0028AB
:1020400040F0E78000236380DDF800B05846494641
:1020500003F00AF802F0F8FC02460B46CDF800B097
:102060005846494602F0B2FB79A3D3E9002302F0B7
:1020700061FD02F0F9FF1FFA80FB0098494602F06B
:10208000F3FFA080A4F806B0002200230198414687
:1020900002F0C2FF002840F0C18000232381DDF858
:1020A00004B05846414602F0DFFF02F0CDFC024684
:1020B0000B465846414602F089FB65A3D3E900234D
:1020C00002F038FD02F0D0FF1FFA80F95846414671
:1020D00002F0CAFF6081A4F80C900022002302984D
:1020E000394602F099FF002840F09D800023E381EB
:1020F000DDF808904846394602F0B6FF02F0A4FC2D
:1021000002460B464846394602F060FB50A3D3E92D
:10211000002302F00FFD02F0A7FF1FFA80F84846E7
:10212000394602F0A1FF2082A4F812800022002389
:102130000398314602F070FF002879D10023A38272
:10214000DDF80C804046314602F08EFF02F07CFC48
:1021500002460B464046314602F038FB3CA3D3E929
:10216000002302F0E7FC02F07FFF87B240463146D1
:1021700002F07AFFE0822783002200230498294698
:1021800002F04AFF002858D100236383049F384699
:10219000294602F069FF02F057FC02460B4638461A
:1021A000294602F013FB2AA3D3E9002302F0C2FC64
:1021B00002F05AFF86B23846294602F055FFA08346
:1021C000E683002200230598514602F025FF0028EF
:1021D00038D100232384059E3046514602F044FF47
:1021E00002F032FC02460B463046514602F0EEFA4F
:1021F00017A3D3E9002302F09DFC02F035FF85B25E
:102200003046514602F030FF6084A58407B0BDE837
:10221000F08F09F100490123638015E708F10048B8
:10222000012323813BE707F100470123E3815FE7B7
:1022300006F100460123A38282E705F10045012350
:102240006383A3E70AF1004A01232384C3E700BFA5
:10225000000000000088C340100600202006002077
:10226000300600200806002018060020280600205E
:10227000D0B50446408802F0E7FB06460F46A0882A
:1022800002F0E2FB68A3D3E9002302F07DFD0246E1
:102290000B462188002940F088803046394602F0FC
:1022A00097FA634BC3E90001208902F0CDFB064693
:1022B0000F46608902F0C8FB5BA3D3E9002302F05C
:1022C00063FD02460B46E188002979D13046394644
:1022D00002F07EFA574BC3E90001E08902F0B4FB3B
:1022E00006460F46208A02F0AFFB4FA3D3E9002336
:1022F00002F04AFD02460B46A18900296BD1304607
:10230000394602F065FA4C4BC3E90001A08A02F09D
:102310009BFB06460F46E08A02F096FB42A3D3E9F8
:10232000002302F031FD02460B46618A00295DD18F
:102330003046394602F04CFA404BC3E90001608B4D
:1023400002F082FB06460F46A08B02F07DFB36A30F
:10235000D3E9002302F018FD02460B46218B002929
:102360004FD13046394602F033FA354BC3E900010C
:10237000208C02F069FB06460F46608C02F064FB7D
:1023800029A3D3E9002302F0FFFC02460B46E18BB0
:10239000002941D03046394602F01AFA024601F1CE
:1023A00000432849C1E90023D0BD3046394602F038
:1023B0000FFA024601F100431D49C1E9002373E70A
:1023C0003046394602F004FA024601F10043194949
:1023D000C1E9002381E73046394602F0F9F90246A7
:1023E00001F100431449C1E900238FE73046394623
:1023F00002F0EEF9024601F100431049C1E9002361
:102400009DE73046394602F0E3F9024601F1004308
:102410000B49C1E90023ABE73046394602F0D8F951
:10242000084BC3E90001D0BD000000000088C34094
:10243000100600202006002030060020080600209C
:10244000180600202806002010B58AB02822002196
:10245000684602F03AFE6846FFF7CAFD1422694654
:10246000064800F03FF8044610B920460AB010BDF7
:1024700059221021024800F0D3FAF6E7004006087E
:10248000045C000800B58BB028220021684602F0E9
:102490001CFE14226946084800F013F8BDF800300D
:1024A000592B03D000200BB05DF804FB0DF10200A6
:1024B000FFF7DEFE0120F6E700400608008880B244
:1024C0007047F8B507460E461546002407E007EBAF
:1024D0004400FFF7F3FF26F814000134A4B2AC4225
:1024E000F5D3F8BDB0F1006F25D3F8B500F178430E
:1024F000DB0A03F58033DC0200EB42050F4B9D4203
:1025000001D90020F8BD16460F460546FEF70EF825
:102510002046FEF749F8002407E037F8141005EBD1
:102520004400FEF771F80134A4B2A642F5D8FEF7D4
:1025300009F80120F8BD0020704700BFFFFF070821
:1025400010B584B001210846FEF78EFB4FF4FA6304
:10255000ADF808304723ADF804300024ADF80A4048
:10256000ADF8064001A94FF08040FEF7F7FB0121CE
:102570004FF08040FEF770FD012211464FF0804081
:10258000FEF7FEFC01214FF08040FEF795FC21464E
:102590000120FEF769FB04B010BD00B583B04FF415
:1025A000E060FDF755FF1C238DF8043001238DF802
:1025B00005308DF806308DF8073001A8FDF768FF6B
:1025C00003B05DF804FB08B5FFF7BAFFFFF7E5FFBE
:1025D00001210846FEF748FB08BD000008B50221AE
:1025E0001648FEF7D5F8B8B9154A136801331360D9
:1025F000134B1B68142B04D90023114A1360114A92
:102600001370114B1B68142B05D900220E4B1A6056
:1026100001220C4B1A7008BD04210848FEF7B8F8D7
:102620000028E1D008210548FEF7B2F80028DBD0E9
:10263000054A136801331360DAE700BF0010014058
:10264000FC0500209D0000203806002008B501216F
:102650004FF08040FEF75CFDB8B1184B1B6833B9F2
:10266000174A136801331360B3F5967F0ED0154BEC
:102670001B68012B11D00022134B1A60FFF7AEFF2D
:1026800001214FF08040FEF7B3FD08BD00220C4B46
:102690001A600122094B1A60E9E70B4B1B680B4AD1
:1026A0001268934203D20133074A1360E6E700221F
:1026B000044B1A600122064B1A60DFE7EC01002090
:1026C000D8010020E8010020E0010020DC0100200A
:1026D000E401002030B583B001210420FEF79EFA0A
:1026E0000425ADF8045018238DF8073003238DF826
:1026F0000630094C0DEB05012046FDF7B1FF08231C
:10270000ADF804308DF807500DEB05012046FDF7BC
:10271000A7FF03B030BD00BF0008014010B582B074
:1027200001210420FEF77AFA4FF40073ADF804306B
:1027300018238DF8073003238DF80630094C01A9C2
:102740002046FDF78DFF4FF48063ADF8043004237D
:102750008DF807300DEB03012046FDF781FF02B035
:1027600010BD00BF0008014010B582B00121082053
:10277000FEF754FA4FF48063ADF8043018238DF857
:10278000073003238DF80630094C01A92046FDF7D8
:1027900067FF4FF40063ADF8043004238DF8073071
:1027A0000DEB03012046FDF75BFF02B010BD00BF3B
:1027B000000C014000B583B04FF4E060FDF748FE27
:1027C00026238DF8043000238DF805308DF806306F
:1027D00001238DF8073001A8FDF75AFE03B05DF81C
:1027E00004FB000010B584B0FFF774FF01214FF423
:1027F0000030FEF739FA4FF4965300930023ADF8FA
:102800000430ADF806304FF48062ADF808200C2299
:10281000ADF80A20ADF80C30094C69462046FEF7A9
:1028200043FD012240F225512046FEF749FEFFF705
:10283000C1FF01212046FEF70FFE04B010BD00BF0E
:102840000044004000B583B04FF4E060FDF700FEA7
:1028500025238DF8043002238DF8053003238DF8ED
:10286000063001238DF8073001A8FDF711FE03B0F3
:102870005DF804FB10B584B0FFF750FF01214FF461
:102880008040FEF7CBF94FF4165300930023ADF8C8
:102890000430ADF80630ADF808300C22ADF80A204F
:1028A000ADF80C30094C69462046FEF7FDFC0122CC
:1028B00040F225512046FEF703FEFFF7C3FF01213A
:1028C0002046FEF7C9FD04B010BD00BF003801402E
:1028D00000B583B04FF4E060FDF7BAFD26238DF814
:1028E000043002238DF8053004238DF806300123CF
:1028F0008DF8073001A8FDF7CBFD03B05DF804FBB0
:1029000010B584B0FFF730FF01214FF48020FEF7AF
:10291000ABF94FF4165300930023ADF80430ADF833
:102920000630ADF808300C22ADF80A20ADF80C30B6
:10293000094C69462046FEF7B7FC012240F22551BA
:102940002046FEF7BDFDFFF7C3FF01212046FEF73D
:1029500083FD04B010BD00BF0048004070B50646BE
:102960000D4600240AE0315D0648FEF721FE802175
:102970000448FEF76BFE0028F9D00134AC42F2D3D4
:1029800070BD00BF0048004010B582B0012110208A
:10299000FEF744F94FF48063ADF8043018238DF846
:1029A000073003238DF80630094C01A92046FDF7B6
:1029B00057FE4FF40063ADF8043004238DF8073060
:1029C0000DEB03012046FDF74BFE02B010BD00BF2A
:1029D0000010014010B584B0FFF7D6FF01214FF47D
:1029E0000020FEF741F94FF4165300930023ADF891
:1029F0000430ADF80630ADF808300C22ADF80A20EE
:102A0000ADF80C30054C69462046FEF74DFC01211F
:102A10002046FEF721FD04B010BD00BF004C004071
:102A2000592A00D0704770B50D46064600240AE0CA
:102A3000315D0648FEF7BCFD80210448FEF706FE26
:102A40000028F9D00134AC42F2D370BD004C0040F4
:102A50002DE9F04383B00546894617461C460026FB
:102A60008DF80760ADF804603346B04611E00DF113
:102A700007012846FFF74AF90023344A1360344A15
:102A80001360002C3CD10A22324B1A602346012BE2
:102A900050D06A6E002A43DDBE42E8D00DF1070136
:102AA0002846FFF733F90028E6D13CBB9DF80730F4
:102AB00009F8063003F11002D2B20E2A03D9552BC1
:102AC00001D0AA2B02D18DF80430A046B8F1010F35
:102AD00009D0013608F10108182ECDD199F800303F
:102AE000552BC9D12DE05A2BF3D19DF8042089F83C
:102AF000002089F801304646A046EAE70136BBE7E8
:102B0000012C03D0022C06D00023C0E70A22114B6F
:102B10001A600023BBE70A220E4B1A600023B6E7B7
:102B2000002BB4D10121094A116000210A4A116029
:102B30000133ACE7064A1268012AAAD10022044BED
:102B40001A60304603B0BDE8F08300BFE801002002
:102B5000E4010020DC010020E001002010B540F27B
:102B600025510948FEF7C8FD00B910BD064C40F2DA
:102B700025512046FEF740FE2046FEF745FDC1B236
:102B80000248FFF7B0F8F0E70038014030070020B6
:102B900010B540F225510948FEF7AEFD00B910BD51
:102BA000064C40F225512046FEF726FE2046FEF751
:102BB0002BFDC1B20248FFF796F8F0E70044004051
:102BC0004806002010B540F225510948FEF794FD53
:102BD00000B910BD064C40F225512046FEF70CFE10
:102BE0002046FEF711FDC1B20248FFF77CF8F0E77E
:102BF00000480040BC06002010B540F225510948AD
:102C0000FEF77AFD00B910BD064C40F22551204672
:102C1000FEF7F2FD2046FEF7F7FCC1B20248FFF7CF
:102C200062F8F0E7004C0040300700202DE9F8433F
:102C300006460F4690461D469DF8209002F014FA75
:102C4000012211E0A91A204BA3FB0043DB0803EB90
:102C500083035C00031B303308F801301A4BA3FBDD
:102C60000030C0080132D2B2AA4206D80028E9D109
:102C7000AB1A302108F80310F0E72E2308F80530CE
:102C8000012417E00022114B3046394601F052FF73
:102C900006460F4602F0E8F929190B4BA3FB002367
:102CA000DB0803EB83035A00831A303308F8013042
:102CB0000134E4B24C45E5D94D440135002308F810
:102CC0000530BDE8F88300BFCDCCCCCC000024405B
:102CD0000B09092B08D83033037001F00F010929C3
:102CE00005D937314170704737330370F5E730311C
:102CF000417070472DE9F04782B007460D461646F1
:102D00000024B44204D22B5D2E2B2BD00134F8E7E3
:102D10004FF000084FF000094FF0000A10E015F8DE
:102D20000A00303801F0A0FE42464B4601F050FD4B
:102D300000222C4B01F0FEFE804689460AF1010A72
:102D40005445ECD80022274B4046494602F01CF877
:102D5000CDE90001A6EB040A01344FF000084FF062
:102D6000000915E04FF000084FF000094FF0000A8D
:102D7000E6E7285D303801F077FE42464B4601F029
:102D800027FD0022174B01F0D5FE8046894601340D
:102D9000B442EED30022134B4046494601F0F4FF03
:102DA00004460D4600201049002604E000220D4B89
:102DB00001F0C0FE01360AF1FF339E42F6D302460F
:102DC0000B462046294601F0DFFF02460B46DDE9AF
:102DD000000101F0FDFCC7E90001012002B0BDE8DF
:102DE000F08700BF000024400000F03F00B583B032
:102DF00001210820FDF712FF4FF45073ADF80430A5
:102E000003238DF8063010238DF8073001A90348FD
:102E1000FDF726FC03B05DF804FB00BF000C014089
:102E200000B583B04FF40073ADF8043003238DF880
:102E3000063010238DF8073001A90348FDF710FC78
:102E400003B05DF804FB00BF000C014000B583B087
:102E50004FF40073ADF8043003238DF80630482397
:102E60008DF8073001A90348FDF7FAFB03B05DF8C0
:102E700004FB00BF000C014010B50B4C4FF4007177
:102E80002046FDF7E1FC4FF480712046FDF7DCFCA5
:102E90004FF400712046FDF707FD4FF48071204686
:102EA000FDF702FD10BD00BF000C014010B5084C3D
:102EB0004FF480712046FDF7C7FC4FF400712046A7
:102EC000FDF7F2FC4FF400712046FDF7BDFC10BD8C
:102ED000000C014010B5FFF7B9FF4FF480710E48A8
:102EE000FDF7B2FC42F210735C1E002B11DD4FF4B3
:102EF00000710948FDF74CFC234604460028F3D135
:102F00004FF480710448FDF7CFFCFFF789FF20469E
:102F100010BD0124FBE700BF000C014070B5054661
:102F2000012383F31088FFF77BFF002413E04FF4A5
:102F300000711348FDF788FC114E4FF48071304644
:102F4000FDF782FC4FF480713046FDF7ADFC6D005B
:102F5000EDB20134E4B2072C0DD84FF4807108486B
:102F6000FDF7A2FC15F0800FE1D14FF40071044889
:102F7000FDF79AFCE0E7002383F3108870BD00BFE3
:102F8000000C014010B50446FFF776FF7820FFF7EC
:102F9000C5FFFFF79FFF68B90020FFF7BFFFFFF7EE
:102FA00099FF70B159220F210E48FFF739FD022415
:102FB000204610BD59220F210B48FFF731FD012497
:102FC000F6E72046FFF7AAFFFFF784FF044630B17B
:102FD000592210210548FFF723FD0324E8E7FFF7F6
:102FE00065FFE5E7846900087469000894690008D2
:102FF000F8B506460D46FFF73FFF7820FFF78EFF36
:10300000FFF768FF90B94020FFF788FFFFF762FFE6
:10301000074698B90446AC421ED2305DFFF77EFFEA
:10302000FFF758FF88B90134E4B2F4E759221121BF
:103030000B48FFF7F5FC01273846F8BD59220F2150
:103040000848FFF7EDFC0227F6E759220F21064852
:10305000FFF7E6FC0327EFE7FFF728FFECE700BFE9
:10306000A8690008BC690008CC69000810B50446CE
:103070005039C8B2FFF786FF200940F01000FFF773
:1030800081FF0120FFF77EFF002010BD10B5002456
:103090000BE021460020FFF7E9FF8021044800EB08
:1030A000C410FFF7A5FF0134E4B2072CF1D910BD1D
:1030B000F001002008B530B1FF214FF480620348D1
:1030C00002F003F808BD0021F7E700BFF00100207F
:1030D00008B5064B1B78834206D0044B18700020BD
:1030E000FFF7E8FFFFF7D2FF08BD00BFF0050020A3
:1030F00010B5FFF77BFE324C40212046FDF7D4FB94
:1031000040212046FDF7A0FB59220C212D48FFF756
:1031100087FCAE20FFF736FFD520FFF733FF802076
:10312000FFF730FFA820FFF72DFF3F20FFF72AFF12
:10313000D320FFF727FF0020FFF724FF4020FFF7F1
:1031400021FF8D20FFF71EFF1420FFF71BFFA1209A
:10315000FFF718FFC820FFF715FFDA20FFF712FF6F
:103160001220FFF70FFF8120FFF70CFFCF20FFF7A2
:1031700009FFD920FFF706FFF120FFF703FFDB204F
:10318000FFF700FF4020FFF7FDFEA420FFF7FAFE47
:10319000A620FFF7F7FE0020FFF78CFFFFF776FF72
:1031A000AF20FFF7EFFE084B00221A805A8001245F
:1031B0005C7159220E210548FFF732FC204610BDF4
:1031C000000C0140DC690008F4050020EC690008EF
:1031D000014B188059807047F40500207F2815D8CE
:1031E0003F2913D8104B1B7913B1B2FA82F252095E
:1031F000012A0CD0CB0800EBC31001F0070101231A
:103200008B400A4A115C21EA030111547047CB0834
:1032100000EBC31001F0070101238B40034A115C4E
:1032200019431154704700BFF4050020F00100203D
:103230002DE9F843234B1B880C7823447F2B3BDC80
:10324000204B5B884C7823443F2B38DC90460E465D
:10325000814600251CE01B4B18885988B8FA88F273
:10326000520929442044FFF7B9FF013433789C42C6
:103270000DD207FA04F313F4004FECD0114B188869
:103280005988424629442044FFF7A8FFEDE701355D
:103290007278954208D27168A9F1200302FB0353AA
:1032A00031F813700024E1E73378064A11880B44A3
:1032B00013804846BDE8F8830020BDE8F88300206D
:1032C000BDE8F883F405002070B514461D469DF84E
:1032D00010601B7803FB00F06B7803FB01F10131F8
:1032E0000130FFF775FF207840B132462946FFF7DD
:1032F0009FFF2378984204D10134F4E7FFF7C6FE1C
:103300002378184670BD00002DE9F04391B0CDE957
:103310000401CDE9022300240D940E94ADF83C4045
:103320000A940B94ADF8304007940894ADF824400B
:103330000420FFF7CDFE344E012500953346334A75
:1033400021462046FFF7C0FF00953346304A294604
:103350002046FFF7B9FF009533462E4A022120464A
:10336000FFF7B2FF009533462B4A21460A20FFF7AC
:10337000ABFF00953346294A29460A20FFF7A4FFF0
:1033800000953346264A02210A20FFF79DFF10A828
:1033900070E90C89FEF7F6FD02270097C3B20DAA6B
:1033A00040464946FFF742FC009533460DAA2146A8
:1033B0000320FFF789FF10A870E90E89FEF7E2FDF0
:1033C0000097C3B20AAA40464946FFF72FFC009572
:1033D00033460AAA29460320FFF776FFDDE918895C
:1033E00018A8FEF7CFFD0097C3B207AA404649468A
:1033F000FFF71CFC0095334607AA39460320FFF768
:1034000063FF11B0BDE8F08334000020AC6A00080F
:10341000B06A0008B46A0008B86A0008BC6A00080C
:10342000A86A000830B583B00720FFF751FE094DA8
:10343000012400942B46084A00210846FFF744FF68
:1034400000942B46054A21460020FFF73DFF03B0BC
:1034500030BD00BF34000020446A00084C6A0008F8
:1034600030B583B00620FFF733FE134D01240094DE
:103470002B46124A00210846FFF726FF00942B46F0
:103480000F4A21460020FFF71FFF00942B460D4AEC
:1034900002210020FFF718FF00942B460A4A022160
:1034A0000A20FFF711FF00942B46084A022105204D
:1034B000FFF70AFF03B030BD34000020586A00084F
:1034C000606A00086C6A0008746A0008786A00087C
:1034D00030B583B00520FFF7FBFD134D01240094A8
:1034E0002B46124A00210846FFF7EEFE00942B46B9
:1034F0000F4A21460020FFF7E7FE00942B460D4AB5
:1035000002210020FFF7E0FE00942B460A4A022128
:103510000A20FFF7D9FE00942B46084A0221052015
:10352000FFF7D2FE03B030BD340000203C6A000833
:10353000606A00086C6A0008746A0008786A00080B
:1035400030B583B00320FFF7C3FD0C4D0124009478
:103550002B460B4A00210846FFF7B6FE00942B4687
:10356000084A21460020FFF7AFFE00942B46064A8A
:1035700002210020FFF7A8FE03B030BD3400002078
:10358000886A0008946A0008A06A0008F0B585B04F
:103590000446002504AE26F8045D0120FFF798FDDF
:1035A00021463046FFF794FB0F4F012400943B4621
:1035B0000E4A29462846FFF787FE00943B460C4AF0
:1035C00021462846FFF780FE00943B46094A022127
:1035D0002846FFF779FE00943B4632460221072039
:1035E000FFF772FE05B0F0BD340000201C6A000831
:1035F000286A0008346A000830B583B00820FFF755
:1036000067FD094D012400942B46084A0021084615
:10361000FFF75AFE00942B46054A21460020FFF78B
:1036200053FE03B030BD00BF340000201C6A000808
:103630007C6A00082DE9F0478CB0824689469046A6
:103640001D46002309930A93ADF82C300693079387
:10365000ADF8203003930493ADF81430002200231A
:103660005046494601F0D8FC00284ED100270022E0
:1036700000234046294601F0CFFC002850D1002607
:1036800005240094012309AA50464946FFF7CEFAC3
:103690000094012306AA40462946FFF7C7FA009482
:1036A000012303AADDE91401FFF7C0FA224D01242A
:1036B00000942B46214A00210846FFF705FE00949E
:1036C0002B461F4A21460020FFF7FEFD00942B46A3
:1036D0001C4A02210020FFF7F7FD00942B4609AA9F
:1036E0000021381DFFF7F0FD00942B4606AA214665
:1036F000301DFFF7E9FD00942B4603AA02210420A8
:10370000FFF7E2FD0CB0BDE8F08709F100490127A1
:103710000097094B0C4A00210846FFF7D5FDA6E7A4
:1037200005F1004501260096034B074A314600206B
:10373000FFF7CAFDA4E700BF34000020046A0008B8
:103740000C6A0008146A0008006A000810B584B00A
:1037500004460023ADF80C3064281AD0092C21D976
:10376000164BA3FB0423DB0803F130028DF80C2079
:1037700003EB83035A00A21A30328DF80D20012387
:1037800000930F4B03AA02210520FFF79DFD04B013
:1037900010BD012300930A4B0A4A02210520FFF7BE
:1037A00093FDDBE7303404AA02F8044D01230093B3
:1037B000034B02210520FFF787FDE8E7CDCCCCCCF9
:1037C00034000020FC69000808B5FDF79DF84FF4AF
:1037D0008030FDF7B9F8FDF7A7FA124B1870A8B9B9
:1037E0004FF4E0114FF48030FDF7DCF80120FDF7D5
:1037F00025F93920FDF75EFA0028FAD00220FDF7FE
:103800002DF9FDF741F90828FBD108BD0020FDF78F
:1038100043F90020FDF784F94FF48060FDF760F96B
:10382000DEE700BFA407002000B583B0ADF80410A8
:1038300003238DF8063010238DF8073001A9FCF71B
:103840000FFF03B05DF804FB70B501210420FDF704
:10385000E5F901210820FDF7E1F901211020FDF72C
:10386000DDF9244C4FF480712046FFF7DDFF224E36
:1038700080213046FFF7D8FF40213046FFF7D4FFC4
:103880001E4D4FF400412846FFF7CEFF4FF4804114
:103890002846FFF7C9FF4FF400512846FFF7C4FF41
:1038A0004FF480512846FFF7BFFF02212846FFF75B
:1038B000BBFF01212846FFF7B7FF20213046FFF765
:1038C000B3FF10213046FFF7AFFF80212046FFF7FE
:1038D000ABFF40212046FFF7A7FF20212046FFF73E
:1038E000A3FF10212046FFF79FFF02212046FFF78C
:1038F0009BFF70BD0008014000100140000C01401A
:1039000030B583B001211020FDF788F90123ADF80F
:10391000043003258DF8065010238DF80730094C2C
:1039200001A92046FCF79CFE0223ADF804308DF877
:10393000065048238DF8073001A92046FCF790FE79
:1039400003B030BD0010014010B5C47D0223002239
:1039500002E0C15C0A440133162BFAD9D2B2944278
:1039600006D0592210210648FFF75AF8002010BD52
:1039700059220F210348FFF753F8012010BD00BF63
:10398000406B0008306B00082DE9F0418AB080469A
:103990000F461646002407940894ADF8244004947A
:1039A0000594ADF8184001940294ADF80C402546FA
:1039B000022D10D813212748FEF7D0FF02230A2238
:1039C00001A92548FFF744F8044620B9022D3AD052
:1039D0000135EDB2ECE70025022D0FD813211F4869
:1039E000FEF7BCFF02230A2204A91B48FFF730F8A8
:1039F00020B9022D26D00135EDB2EDE70025022DCC
:103A00000FD811211648FEF7A9FF02230A2207A9A1
:103A10001148FFF71DF820B9022D18D00135EDB27D
:103A2000EDE7224607A94046FFF764F9224604A9BC
:103A30003846FFF75FF9224601A93046FFF75AF9E9
:103A4000012400E0044620460AB0BDE8F0810446A7
:103A5000F9E700BF6C6B0008BC060020806B000813
:103A6000946B0008182902D000210846704701789D
:103A70005529FAD12DE9F04F83B0017D01F0700492
:103A80006F2C03DC084603B0BDE8F08F1C461546DA
:103A90008346FFF759FF00286DD09BF80E009BF876
:103AA0000F3043EA00239BF810009BF802209BF89C
:103AB000039049EA02229BF8049049EA02299BF804
:103AC00008209BF8097047EA02229BF80A7047EA2F
:103AD00002279BF811209BF812A04AEA02229BF8C9
:103AE00013A04AEA022A9BF805209BF8068048EAC0
:103AF00002229BF8078048EA02289BF80B209BF8DB
:103B00000C6046EA02229BF80D6046EA022640EA73
:103B1000032000F099FFCDE90001504600F094FF2A
:103B200002460B46DDE9000101F02EF9C5E900016E
:103B3000484600F089FF82468B46404600F084FFED
:103B400002460B465046594601F01EF9C4E90001F1
:103B5000384600F079FF04460D46304600F074FF09
:103B600002460B462046294601F00EF90C9BC3E99C
:103B70000001012186E7002184E7000070B588B0CC
:103B800016461D4600220023CDE90623CDE9042375
:103B9000CDE9022302AB009304AB06AAFFF762FF54
:103BA0000446012802D0204608B070BD104BD3E96E
:103BB0000023DDE9060100F0BDFF0E4BD3E9002331
:103BC00000F006FEC6E900010B4BD3E90023DDE956
:103BD000020100F0AFFF094BD3E9002300F0F8FD2C
:103BE0000C9BC3E90001DDE90423C5E90023DAE702
:103BF00010060020200600200806002018060020DD
:103C000030B593B000230F931093ADF84430B84B08
:103C1000D3E90023CDE90C23B64BD3E90023CDE94A
:103C20000A23B54BD3E90023CDE90823B34BD3E9ED
:103C30000023CDE90623B24BD3E90023CDE90423C9
:103C4000B04BD3E90023CDE9022359220421AE4829
:103C5000FEF7E6FE0C9D0D9C00220023284621461F
:103C600001F0F8F9002800F0D0800CA8FEF78AF9DE
:103C700004230093C3B20FAA28462146FEF7D6FFBD
:103C8000592206210FA8FEF7CBFE592202219F4898
:103C9000FEF7C6FE592204219D48FEF7C1FE0A9D8B
:103CA0000B9C002200232846214601F0D3F900286E
:103CB00000F0C2800AA8FEF765F904230093C3B29E
:103CC0000FAA28462146FEF7B1FF592206210FA868
:103CD000FEF7A6FE592202218C48FEF7A1FE5922CA
:103CE00004218C48FEF79CFE089D099C00220023BD
:103CF0002846214601F0AEF9002800F0B48008A85B
:103D0000FEF740F904230093C3B20FAA28462146C8
:103D1000FEF78CFF592206210FA8FEF781FE5922DB
:103D200002217A48FEF77CFE592204217A48FEF7E8
:103D300077FE069D079C002200232846214601F0BD
:103D400089F9002800F0A68006A8FEF71BF90423D5
:103D50000093C3B20FAA28462146FEF767FF5922F7
:103D600006210FA8FEF75CFE592202216748FEF7E4
:103D700057FE592204216948FEF752FE049D059C16
:103D8000002200232846214601F064F9002800F0B3
:103D9000988004A8FEF7F6F804230093C3B20FAA94
:103DA00028462146FEF742FF592206210FA8FEF7BA
:103DB00037FE592202215548FEF732FE59220421CE
:103DC0005748FEF72DFE029D039C00220023284643
:103DD000214601F03FF9002800F0A68002A8FEF776
:103DE000D1F804230093C3B20FAA28462146FEF758
:103DF0001DFF592206210FA8FEF712FE59220221AB
:103E00004248FEF70DFE13B030BD04F100442A46CF
:103E1000234612A860E90623FEF7B4F804230093B2
:103E2000C3B20FAA28462146FEF700FF59220121FE
:103E30003C48FEF7F5FD23E704F100442A462346FB
:103E400012A860E90823FEF79DF804230093C3B28B
:103E50000FAA28462146FEF7E9FE592201213148E2
:103E6000FEF7DEFD31E704F100442A46234612A89E
:103E700060E90A23FEF786F804230093C3B20FAA71
:103E800028462146FEF7D2FE592201212548FEF799
:103E9000C7FD3FE704F100442A46234612A860E923
:103EA0000C23FEF76FF804230093C3B20FAA284631
:103EB0002146FEF7BBFE592201211A48FEF7B0FD4C
:103EC0004DE704F100442A46234612A860E90E2378
:103ED000FEF758F804230093C3B20FAA28462146E0
:103EE000FEF7A4FE592201210E48FEF799FD5BE77B
:103EF00010060020200600203006002008060020C2
:103F00001806002028060020046A0008C06B00087C
:103F10000C6A0008146A0008546B00085C6B000807
:103F2000646B0008006A000804F100442A46234636
:103F300012A860E91023FEF725F804230093C3B20A
:103F40000FAA28462146FEF771FE59220121024898
:103F5000FEF766FD4DE700BF006A000808B5234B79
:103F60001B78234A1278934204D023B11F4B1A784E
:103F70001F4B1A7008BD02211E48FCF709FC58B9F6
:103F80001D4B1B78012B21D001211A48FCF78CFC1A
:103F9000194A1378DB43137004211648FCF7F8FB29
:103FA00030B9164B1B78012B18D00122134B1A7015
:103FB00008211048FCF7ECFB0028D7D10F4B1B78E9
:103FC000022B0FD002220D4B1A70CFE7012100F116
:103FD000804000F58830FCF737FCD9E70022074B1A
:103FE0001A70E5E70022054B1A70BFE79D0000201C
:103FF0009C000020001001409E00002000060020D0
:1040000001294CD002294DD003294ED004294FD08C
:10401000052950D0062951D0072952D0082953D05C
:10402000092954D00A2955D00F2956D03C2958D0F7
:10403000782959D0B1F5167F5AD0B1F5257F5AD0DD
:10404000B1F5347F5BD0B1F5966F5DD040F2EC43B3
:1040500099425DD0B1F5A56F5FD0B1F5E16F62D047
:1040600040F24473994263D0B1F5F06F66D0B1F578
:10407000166F6AD040F69C1399426CD040F6D81364
:1040800099426FD040F6B833994273D040F6584306
:10409000994276D040F6944399427AD070470123F2
:1040A000037070470123437070470123837070478A
:1040B0000123C370704701230371704701234371CB
:1040C00070470123837170470123C3717047012337
:1040D00003727047012343727047012303714372D7
:1040E000704701238372704701238372C372704744
:1040F0000123037370470123837203737047012305
:104100008372C37203737047012303734373704751
:104110000123037343738372704701230373437353
:104120008372C372704701230373437383737047B1
:1041300001230373437383738372704701230373F3
:10414000437383738372C372704701230373437392
:104150008373C37370470123037343738373C37300
:10416000837270470123037343738373C373837232
:10417000C37270470123037343738373C373037460
:1041800070470123037343738373C3730374837290
:1041900070470123037343738373C3730374837280
:1041A000C3727BE738B50546002409E00C4B33F8B1
:1041B00014100C4B53F82400FCF746FB0134E4B216
:1041C0000F2C0BD82B5D002BF0D1054B33F81410BE
:1041D000044B53F82400FCF767FBEFE738BD00BF42
:1041E0007C0000203C0000202DE9F04FADF2646D12
:1041F0000024CDF85046CDF85446CDF85846CDF8B9
:104200005C467022B6490DF5BC6000F053FFF02209
:1042100021460DF59E6000F058FF002200230DF5A9
:104220009D61C1E900230DF59C61C1E900230DF5F5
:104230009B61C1E900230DF59A61C1E900230DF5E9
:104240009961C1E900230DF59861C1E90023E025DA
:104250002A462146F8A800F038FF2A462146C0A881
:1042600000F033FF2A46214688A800F02EFF2A4698
:10427000214650A800F029FF4A944B944C944D9449
:104280004E944F944494459446944794489449944A
:104290003E943F94409441944294439450252A463E
:1042A00021462AA800F011FF2A46214616A800F050
:1042B0000CFF2A46214602A800F007FFA346254628
:1042C000A246BDE006EB4603D900002318220DF5F7
:1042D0009E6001448348FEF7BBFB0136F6B2092E0F
:1042E00013D816F0030FEDD1B008C0003EAB1A187A
:1042F00044AB19184AAB1844FFF746FB0128E1D13B
:104300000BF1010B5FFA8BFBDCE7BBF1000F00F058
:1043100027814AAED6E90223D6E9000100F058FA17
:10432000D6E9042300F054FA80468946584600F046
:104330009BFB06460F4602460B464046494600F0A8
:1043400023FD4FEAC40888AB4344C3E900010DF1E3
:10435000F809D9E90223DDE93E0100F039FAD9E98B
:10436000042300F035FA32463B4600F00DFD50AB19
:104370009844C8E90001002601E00136F6B2092E92
:1043800015D806EB4603D800F20002AB13440093A5
:1043900016AB13442AA90A4418210DF59E67384428
:1043A000FFF760FB0128E8D10135EDB2E5E7002D0C
:1043B00000F0DC8000261DE04FEAC6092AAB4B4422
:1043C000E700F8AA02EB0708D3E90023D8E90001C7
:1043D00000F0FEF9C8E9000102AB4B44C0AA174443
:1043E000D3E90023D7E9000100F0F2F9C7E90001A1
:1043F0000136F6B2092EDFD9284600F035FB064615
:104400000F464FEAC408F8AB03EB080902460B4617
:10441000D9E9000100F0B8FCC9E90001C0AB98443B
:1044200032463B46D8E9000100F0AEFCC8E9000185
:1044300004EB4400FFF78AF90AF1010A5FFA8AFAED
:10444000BAF11B0F10D854460DF5CC6303EB8A0369
:1044500053F8801C0DF5CA60FFF7D2FD0DF5CA6058
:10446000FFF7A0FE00263AE76420FFF76FF90DF58D
:104470009B6401940DF59C6300930DF59D631C22D4
:1044800088A9F8A8FDF702FD0DF5986301930DF5D5
:10449000996300930DF59A631C2250A9C0A8FDF7FB
:1044A000F5FC30CC0CA3D3E900232046294600F0CC
:1044B000D1FD00283ED00DF59863D3E9006706A32F
:1044C000D3E900233046394600F0C4FD60B900242A
:1044D00031E000BFAFF30080CDCCCCCCCCCCEC3FF6
:1044E000C06A0008480600200DF59D63D3E900016D
:1044F000204BC3E900010DF59C63D3E900011E4B7D
:10450000C3E900011D4BC3E900450DF59A63D3E9EA
:1045100000011B4BC3E900010DF59963D3E90001CC
:10452000184BC3E90001184BC3E90067FDF78CFF86
:10453000012400E000240DF59C63D3E900230DF570
:104540009D61D1E900010DF59B65D5E90067CDE9D5
:104550000067FFF76FF80CB9002003E0012001E0CD
:104560004FF0FF300DF2646DBDE8F08F6FF0010089
:10457000F8E700BF100600202006002030060020CB
:10458000080600201806002028060020F0B5ADF52A
:10459000077D0022002384A9C1E9002382A9C1E983
:1045A000002380A9C1E900234FF4FA72002103A877
:1045B00000F08BFD0024ADF80840FFF705F9FEF789
:1045C00011F9FEF757F9FEF79BF9FEF703FAFFF72B
:1045D00097F9FFF739F9FDF7F6FF6B48FDF76CFB2C
:1045E0006A48FDF769FB6A48FDF766FBFEF780FD48
:1045F0002546264663E059221B216648FEF710FA3D
:10460000FEF72EFFFFF7F0FD012858D10122624B83
:104610001A7054E0604B1B7853B159221E215F4839
:10462000FEF7FEF9FEF754FF00225D4B1A7046E0DC
:10463000FEF7F8FE43E0592210215A48FEF7F0F940
:1046400080ABD3E90023CDE9002382ABD3E900237B
:1046500084A9D1E90001FEF757FE27E00136F6B242
:10466000092E23D9592218214F48FEF7D9F9FEF710
:1046700067FF00261AE00135EDB2092D16D959223F
:1046800015214A48FEF7CCF9394602A8FEF720FB6F
:104690005922022102A8FEF7C3F9592202214448F7
:1046A000FEF7BEF9002501E0FEF7A6FF0022414B10
:1046B0001A604FF4FA72002103A800F006FDFFF71C
:1046C0004DFC374B1B78012B95D0022BA2D0324BDF
:1046D0001B78002B40D000234FF4FA7203A92A481C
:1046E000FEF7B6F90746334B1B68012BE1D14E228A
:1046F000014603A8FEF794F9002FD5D080AB0093B4
:1047000082AB84AA394603A8FFF738FA0746012886
:1047100091D0AA28A2D000F11003DBB20E2BAAD8A8
:104720000134E4B2092CC1D9592215212248FEF7DF
:1047300077F9394602A8FEF7CBFA5922022102A8DE
:10474000FEF76EF9592202211948FEF769F9384639
:10475000FEF71CFF0024A9E7FDF794FEC0B250B19C
:1047600001220D4B1A7059220C211448FEF758F9FA
:10477000FFF746FAA3E759220D211148FEF750F939
:10478000FEF750FE9BE700BF4806002030070020E0
:10479000BC060020A86B000801060020C46B0008BE
:1047A00000060020E46B0008F86B00082C6C000881
:1047B000C06B0008EC010020146C0008446C000879
:1047C000546C000881F0004102E000BF83F0004318
:1047D00030B54FEA41044FEA430594EA050F08BF9C
:1047E00090EA020F1FBF54EA000C55EA020C7FEA60
:1047F000645C7FEA655C00F0E2804FEA5454D4EBDD
:104800005555B8BF6D420CDD2C4480EA020281EAA6
:10481000030382EA000083EA010180EA020281EADE
:104820000303362D88BF30BD11F0004F4FEA013130
:104830004FF4801C4CEA113102D0404261EB41013F
:1048400013F0004F4FEA03334CEA133302D05242C5
:1048500063EB430394EA050F00F0A780A4F1010481
:10486000D5F1200E0DDB02FA0EFC22FA05F28018BB
:1048700041F1000103FA0EF2801843FA05F35941A1
:104880000EE0A5F120050EF1200E012A03FA0EFC20
:1048900028BF4CF0020C43FA05F3C01851EBE3714A
:1048A00001F0004507D54FF0000EDCF1000C7EEB67
:1048B00000006EEB0101B1F5801F1BD3B1F5001FA5
:1048C0000CD349085FEA30004FEA3C0C04F10104C4
:1048D0004FEA445212F5800F80F09A80BCF1004FED
:1048E00008BF5FEA500C50F1000041EB045141EA6F
:1048F000050130BD5FEA4C0C404141EB010111F470
:10490000801FA4F10104E9D191F0000F04BF01461A
:104910000020B1FA81F308BF2033A3F10B03B3F1F8
:1049200020020CDA0C3208DD02F1140CC2F10C0288
:1049300001FA0CF021FA02F10CE002F11402D8BFE6
:10494000C2F1200C01FA02F120FA0CFCDCBF41EAB2
:104950000C019040E41AA2BF01EB0451294330BD81
:104960006FEA04041F3C1CDA0C340EDC04F114045E
:10497000C4F1200220FA04F001FA02F340EA030035
:1049800021FA04F345EA030130BDC4F10C04C4F17B
:10499000200220FA02F001FA04F340EA030029465B
:1049A00030BD21FA04F0294630BD94F0000F83F4A5
:1049B000801306BF81F480110134013D4EE77FEA88
:1049C000645C18BF7FEA655C29D094EA050F08BFD4
:1049D00090EA020F05D054EA000C04BF19461046B5
:1049E00030BD91EA030F1EBF0021002030BD5FEAF9
:1049F000545C05D14000494128BF41F0004130BD21
:104A000014F580043CBF01F5801130BD01F0004574
:104A100045F0FE4141F470014FF0000030BD7FEAE7
:104A2000645C1ABF194610467FEA655C1CBF0B46E2
:104A3000024650EA013406BF52EA033591EA030FF9
:104A400041F4002130BD00BF90F0000F04BF0021F1
:104A5000704730B54FF4806404F132044FF0000524
:104A60004FF0000150E700BF90F0000F04BF00219D
:104A7000704730B54FF4806404F1320410F0004503
:104A800048BF40424FF000013EE700BF42004FEAFE
:104A9000E2014FEA31014FEA02701FBF12F07F437B
:104AA00093F07F4F81F06051704792F0000F14BF78
:104AB00093F07F4F704730B54FF4607401F00045BC
:104AC00021F0004120E700BF50EA010208BF704713
:104AD00030B54FF000050AE050EA010208BF704708
:104AE00030B511F0004502D5404261EB41014FF471
:104AF000806404F132045FEA915C3FF4DCAE4FF075
:104B000003025FEADC0C18BF03325FEADC0C18BF5B
:104B1000033202EBDC02C2F1200300FA03FC20FAAC
:104B200002F001FA03FE40EA0E0021FA02F11444F9
:104B3000C1E600BF70B54FF0FF0C4CF4E06C1CEA0E
:104B400011541DBF1CEA135594EA0C0F95EA0C0F83
:104B500000F0DEF82C4481EA030621EA4C5123EAF6
:104B60004C5350EA013518BF52EA033541F4801125
:104B700043F4801338D0A0FB02CE4FF00005E1FBD8
:104B800002E506F00042E0FB03E54FF00006E1FB22
:104B900003569CF0000F18BF4EF0010EA4F1FF0465
:104BA000B6F5007F64F5407404D25FEA4E0E6D41A5
:104BB00046EB060642EAC62141EA55514FEAC520B6
:104BC00040EA5E504FEACE2EB4F1FD0C88BFBCF532
:104BD000E06F1ED8BEF1004F08BF5FEA500E50F1E3
:104BE000000041EB045170BD06F0004646EA0101A9
:104BF00040EA020081EA0301B4EB5C04C2BFD4EBDB
:104C00000C0541EA045170BD41F480114FF0000ED3
:104C1000013C00F3AB8014F1360FDEBF002001F041
:104C2000004170BDC4F10004203C35DA0C341BDCBB
:104C300004F11404C4F1200500FA05F320FA04F08D
:104C400001FA05F240EA020001F0004221F00041C1
:104C500010EBD37021FA04F642EB06015EEA430E34
:104C600008BF20EAD37070BDC4F10C04C4F1200564
:104C700000FA04F320FA05F001FA04F240EA020017
:104C800001F0004110EBD37041F100015EEA430EE8
:104C900008BF20EAD37070BDC4F1200500FA05F208
:104CA0004EEA020E20FA04F301FA05F243EA020387
:104CB00021FA04F001F0004121FA04F220EA020096
:104CC00000EBD3705EEA430E08BF20EAD37070BDDC
:104CD00094F0000F0FD101F00046400041EB0101BC
:104CE00011F4801F08BF013CF7D041EA060195F09E
:104CF000000F18BF704703F00046520043EB030358
:104D000013F4801F08BF013DF7D043EA0603704744
:104D100094EA0C0F0CEA135518BF95EA0C0F0CD04F
:104D200050EA410618BF52EA4306D1D181EA030195
:104D300001F000414FF0000070BD50EA410606BF8F
:104D40001046194652EA430619D094EA0C0F02D1D4
:104D500050EA013613D195EA0C0F05D152EA033619
:104D60001CBF104619460AD181EA030101F0004137
:104D700041F0FE4141F470014FF0000070BD41F080
:104D8000FE4141F4780170BD70B54FF0FF0C4CF45A
:104D9000E06C1CEA11541DBF1CEA135594EA0C0F79
:104DA00095EA0C0F00F0A7F8A4EB050481EA030EC6
:104DB00052EA03354FEA013100F088804FEA0333AD
:104DC0004FF0805545EA131343EA12634FEA02227B
:104DD00045EA111545EA10654FEA00260EF000413C
:104DE0009D4208BF964244F1FD0404F5407402D28E
:104DF0005B084FEA3202B61A65EB03055B084FEA1F
:104E000032024FF480104FF4002CB6EB020E75EB1B
:104E1000030E22BFB61A754640EA0C005B084FEA43
:104E20003202B6EB020E75EB030E22BFB61A7546C0
:104E300040EA5C005B084FEA3202B6EB020E75EB0B
:104E4000030E22BFB61A754640EA9C005B084FEA83
:104E50003202B6EB020E75EB030E22BFB61A754690
:104E600040EADC0055EA060E18D04FEA051545EA7F
:104E700016754FEA06164FEAC30343EA52734FEA28
:104E8000C2025FEA1C1CC0D111F4801F0BD141EAA1
:104E900000014FF000004FF0004CB6E711F4801F06
:104EA00004BF01430020B4F1FD0C88BFBCF5E06FE6
:104EB0003FF6AFAEB5EB030C04BFB6EB020C5FEAF6
:104EC000500C50F1000041EB045170BD0EF0004E4B
:104ED0004EEA113114EB5C04C2BFD4EB0C0541EA7D
:104EE000045170BD41F480114FF0000E013C90E67A
:104EF00045EA060E8DE60CEA135594EA0C0F08BF3E
:104F000095EA0C0F3FF43BAF94EA0C0F0AD150EA3C
:104F100001347FF434AF95EA0C0F7FF425AF1046CF
:104F200019462CE795EA0C0F06D152EA03353FF4F7
:104F3000FDAE1046194622E750EA410618BF52EA74
:104F400043067FF4C5AE50EA41047FF40DAF52EA48
:104F500043057FF4EBAE12E74FF0FF3C06E000BFE5
:104F60004FF0010C02E000BF4FF0010C4DF804CDF2
:104F70004FEA410C7FEA6C5C4FEA430C18BF7FEAB2
:104F80006C5C1BD001B050EA410C0CBF52EA430CE0
:104F900091EA030F02BF90EA020F0020704710F160
:104FA000000F91EA030F58BF994208BF90422CBFEF
:104FB000D8176FEAE37040F0010070474FEA410CE8
:104FC0007FEA6C5C02D150EA013C07D14FEA430C06
:104FD0007FEA6C5CD6D152EA033CD3D05DF8040B77
:104FE000704700BF8446104662468C4619466346A9
:104FF00000E000BF01B5FFF7B7FF002848BF10F180
:10500000000F01BD4DF808EDFFF7F4FF0CBF0120C4
:1050100000205DF808FB00BF4DF808EDFFF7EAFF40
:1050200034BF012000205DF808FB00BF4DF808EDFB
:10503000FFF7E0FF94BF012000205DF808FB00BFF0
:105040004DF808EDFFF7CEFF94BF012000205DF87A
:1050500008FB00BF4DF808EDFFF7C4FF34BF012087
:1050600000205DF808FB00BF4A0011D212F50012C3
:1050700011D20DD56FF47873B3EB62520ED44FEAB0
:10508000C12343F0004343EA505323FA02F0704730
:105090004FF00000704750EA013002D14FF0FF306E
:1050A00070474FF000007047014B1868704700BF11
:1050B000A000002010B5431E0A44914200D110BD4B
:1050C00011F8014B03F8014FF7E7034602449342FE
:1050D00000D1704703F8011BF9E7034613F8012BD1
:1050E000002AFBD1181A0138704730B5141E054646
:1050F0009BB0184605DA8B234FF0FF302B601BB0B6
:1051000030BD4FF40273ADF80C300CBF234604F1F0
:10511000FF33029305934FF6FF7300910491ADF8AE
:105120000E3002461E9B6946284600F075F8431C67
:10513000BCBF8B232B60002CE1D00022009B1A7097
:10514000DDE7000007B5009313460A460146034811
:105150000068FFF7CAFF03B05DF804FBA000002061
:105160002DE9F0478E6882469E420C46914698464D
:1051700035D88A8912F4906F31D0022325680969E5
:105180006F1A656905EB450595FBF3F508F1010319
:105190003B449D4238BF1D46530531D5294600F09A
:1051A0003BFB064650B90C23CAF80030A3894FF0E8
:1051B000FF3043F04003A381BDE8F0873A46216900
:1051C000FFF778FFA38923F4906343F08003A38162
:1051D00026613E44266046466561ED1BA560464556
:1051E00028BF464649463246206800F0AFFAA36819
:1051F00000209B1BA36023681E442660BDE8F08747
:105200002A4600F067FB06460028E1D12169504696
:1052100000F0B6FAC7E700002DE9F04F9DB0039308
:105220008B8980461C060D4616460FD50B696BB957
:10523000402100F0F1FA2860286128B90C23C8F851
:1052400000304FF0FF30C4E040236B61002309932E
:1052500020238DF8293030234FF0010B8DF82A30B0
:1052600037463C4614F8013B002B3CD1B7EB060A0D
:105270000BD05346324629464046FFF771FF0130B6
:1052800000F0A280099B534409933B78002B00F067
:105290009B8000234FF0FF320493079305920693FF
:1052A0008DF853301A9305222178504800F040FAC7
:1052B000671C049BD8B9D90644BF20228DF853201F
:1052C0001A0744BF2B228DF8532022782A2A16D0A1
:1052D00000210A20079A27463B780134303B092BEE
:1052E00050D9C9B111E0252BC0D02746B9E73F4AB4
:1052F0003C46801A0BFA00F018430490D3E7039A57
:10530000111D12680391002A01DB079204E052424A
:1053100043F00203079204933B782E2B0DD17B7848
:10532000791C2A2B32D1039B02371A1D1B6803926A
:10533000002BB8BF4FF0FF3305932D4C0322397873
:10534000204600F0F5F938B14023001B03FA00F0C5
:10535000049B0137034304933978062225487E1CB9
:105360008DF8281000F0E4F9002835D0224BFBB965
:10537000039B073323F0070308330393099B4B4434
:1053800009936DE700FB02320121A4E700230A2400
:10539000184605930F463A780131303A092A03D965
:1053A000002BCAD00590C8E704FB00200123F1E7D9
:1053B00003AB00932A46114B04A94046AFF300808B
:1053C000B0F1FF3F8146D9D1AB895B063FF539AFDC
:1053D00009981DB0BDE8F08F03AB00932A46074B38
:1053E00004A9404600F084F8EAE700BF646C0008B6
:1053F0006A6C00086E6C0008000000006151000833
:105400002DE9F04791461F468A680B69064693428C
:10541000B8BF1346C9F8003091F843200C46DDF8B8
:10542000208012B10133C9F800302368990642BFC9
:10543000D9F800300233C9F80030256815F00605A8
:1054400007D104F1190AE368D9F800209B1A9D429C
:105450002ADB94F843302268003318BF01239206F8
:105460002FD404F1430239463046C047013022D0E0
:105470002368E56803F00603042B18BF0025D9F85C
:1054800000204FF0000908BFAD1AA368226908BFC9
:1054900025EAE5759342C4BF9B1AED181A344D45B1
:1054A0001BD10020BDE8F087012352463946304623
:1054B000C047013003D14FF0FF30BDE8F087013520
:1054C000C1E73020E11881F843005A1C94F84510D8
:1054D0002244023382F84310C3E7012322463946AF
:1054E0003046C0470130E6D009F10109D7E7000096
:1054F0002DE9F04317460A7E85B06E2A9846064687
:105500000C460C9B01F1430E00F0BC801AD8632AB4
:105510002ED00AD8002A00F0C880582A00F08A80CD
:1055200004F1420584F842202AE0642A01D0692A65
:10553000F6D121681A6811F0800F23D0111D19606F
:10554000136827E0732A00F0B48008D86F2A2AD0A5
:10555000702AE5D10A6842F020020A6003E0752A49
:1055600021D0782ADCD178226F4984F8452064E084
:105570001A6801F14205111D1960136884F8423060
:105580000123A3E011F0400F02F104011960D7D00C
:10559000B2F90030002B03DA2D225B4284F843205D
:1055A00062490A2217E02068196810F0800F03D0C2
:1055B000081D18600B6806E010F0400F01F10400B0
:1055C0001860F7D00B886F2A14BF0A2208225749A7
:1055D000002084F843006568002DA560C0F29C801F
:1055E000206820F004002060002B3FD1002D40F007
:1055F00095807546082A0BD12368DA0708D52369F8
:1056000062689A42DEBF302305F8013C05F1FF35A0
:10561000AEEB05032361CDF800803B4603AA21468B
:105620003046FFF7EDFE013055D14FF0FF3005B0A9
:10563000BDE8F08381F845203C492268186812F0E3
:10564000800F00F104051D6001D0036802E05506DB
:10565000FBD50388D00744BF42F0200222601BB96B
:10566000226822F0200222601022B1E77546B3FBC7
:10567000F2F002FB1033CB5C05F8013D0346002835
:10568000F5D1B7E708681A6810F0800F496904D0AF
:10569000101D18601368196007E010F0400F02F148
:1056A000040018601368F6D0198000237546236142
:1056B000B1E71A68111D1960156800216268284653
:1056C00000F036F808B1401B606063682361002376
:1056D00084F843309FE723692A4639463046C0475D
:1056E0000130A2D023689B0707D5002504F11909D2
:1056F000E368039A9B1A9D4205DBE068039B98428E
:10570000B8BF184693E701234A4639463046C0479A
:1057100001308AD00135EBE7002BA7D10B7804F1DB
:10572000420584F8423065E7866C0008756C000815
:1057300010B5C9B202449042034601D1002010BD09
:105740001C7801308C42F6D1184610BD884210B545
:1057500001EB020303D8421E99420CD110BD9842BE
:10576000F9D28118D21AD34200D110BD13F8014DDD
:1057700001F8014DF7E711F8014B02F8014FEBE793
:1057800038B50546002943D051F8043C0C1F002BC6
:10579000B8BFE41800F0D4F81E4A1368104633B9B5
:1057A000636014602846BDE8384000F0CAB8A342E0
:1057B0000BD921686218934201BF1A685B685218BE
:1057C000226063600460EDE713465A680AB1A242A2
:1057D000FAD919685818A0420BD12068014458180A
:1057E00082421960DED110685268014419605A6023
:1057F000D8E702D90C232B60D4E7206821188A420D
:1058000001BF116852680918216062605C60C9E7D5
:1058100038BD00BF3C06002070B5CD1C25F0030547
:1058200008350C2D38BF0C25002D064601DBA9429A
:1058300003D90C233360002070BD00F081F8234AA7
:105840001468214691B9224C23681BB9304600F0F8
:1058500067F820602946304600F062F8431C26D1E4
:105860000C233046336000F06CF8E4E70B685B1BF8
:105870001AD40B2B0FD90B60CC18CD50304600F04A
:1058800060F804F10B00231D20F00700C31A1BD0A1
:105890005A42E25070BD8C420BBF63684B68136084
:1058A000636018BF0C46E9E70C464968CAE7C41CA8
:1058B00024F00304A04205D0211A304600F030F84D
:1058C0000130CDD02560D9E770BD00BF3C06002077
:1058D00040060020F8B5074614460E4621B9114689
:1058E000BDE8F840FFF798BF22B9FFF749FF25460A
:1058F0002846F8BD00F026F884420FD921463846E4
:10590000FFF78AFF05460028F2D031462246FFF70E
:10591000D1FB31463846FFF733FFE9E73546E7E785
:1059200038B50023054C054608462360FBF7C2FF47
:10593000431C02D1236803B12B6038BD440600200C
:105940007047704751F8040C0028A0F10400BCBF58
:105950000B58C018704700002E2E2F737973746592
:105960006D2F7372632F73746D333266312D7374C0
:10597000647065726970682F6D6973632E630000CF
:105980002E2E2F73797374656D2F7372632F73745A
:105990006D333266312D7374647065726970682F6F
:1059A00073746D3332663130785F666C6173682E64
:1059B000630000002E2E2F73797374656D2F737240
:1059C000632F73746D333266312D73746470657236
:1059D0006970682F73746D3332663130785F677029
:1059E000696F2E63000000002E2E2F73797374658B
:1059F0006D2F7372632F73746D333266312D737430
:105A0000647065726970682F73746D3332663130FB
:105A1000785F7263632E63002E2E2F737973746523
:105A20006D2F7372632F73746D333266312D7374FF
:105A3000647065726970682F73746D3332663130CB
:105A4000785F74696D2E63002E2E2F7379737465E1
:105A50006D2F7372632F73746D333266312D7374CF
:105A6000647065726970682F73746D33326631309B
:105A7000785F75736172742E6300000061626F72EB
:105A80007428292C2065786974696E672E2E2E0083
:105A90006173736572745F706172616D282920662D
:105AA00061696C65643A2066696C65202225732201
:105AB0002C206C696E652025640A000053746163B4
:105AC0006B206672616D653A0A000000205230203A
