:020000040800F2
:1000000000C00020F9020008FF02000803030008F6
:100010007503000879030008C10300080000000010
:1000200000000000000000000000000009040008BB
:100030000D04000800000000110400081504000869
:1000400025040008250400082504000825040008EC
:1000500025040008250400082504000825040008DC
:1000600025040008250400082504000825040008CC
:1000700025040008250400082504000825040008BC
:1000800025040008250400082504000825040008AC
:10009000250400082504000825040008250400089C
:1000A000250400082504000825040008250400088C
:1000B000AD290008250400082504000825040008CF
:1000C000250400082504000825040008250400086C
:1000D00025040008F12E0008252F0008592F0008DC
:1000E000250400082504000825040008250400084C
:1000F000250400082504000825040008250400083C
:10010000250400082504000825040008250400082B
:100110008D2F000825040008250400082504000888
:10012000250400082504000825040008250400080B
:1001300000000000000000000000000000000000BF
:1001400000000000000000000000000000000000AF
:10015000000000000000000000000000000000009F
:10016000000000000000000000000000000000008F
:10017000000000000000000000000000000000007F
:10018000000000000000000000000000000000006F
:10019000000000000000000000000000000000005F
:1001A000000000000000000000000000000000004F
:1001B000000000000000000000000000000000003F
:1001C000000000000000000000000000000000002F
:1001D000000000000000000000000000000000001F
:1001E0005FF8E0F100B583B001F0F4FB304B314A29
:1001F0001360314A1360314B314A03E011681960D2
:10020000043304322F498B42F8D32A4B1A682E4B01
:100210009A4200D0FEE7284B1A682C4B9A42F9D13B
:10022000234B2B4A13602B4A13602B4B02E0002216
:100230001A600433294A9342F9D3254B1B6813B93A
:10024000244B1B6803B1FEE701F0D0FB694601A80F
:1002500001F052FB224B234CE41AA4100025AC42BF
:1002600014DC214B214CE41AA4100025AC4213DC11
:100270000099019806F048FD05461D4B1D4CE41AF7
:10028000A410002C0EDC284601F008FB144B53F898
:10029000253098470135E2E7134B53F8253098474E
:1002A0000135E3E7013C124B53F824309847E8E767
:1002B000BABADECA000000200401002000000020BD
:1002C000E4970008080100207856341232547698DA
:1002D00008010020A009002008010020A409002036
:1002E000500400085004000850040008500400089E
:1002F000500400085004000808B5FFF773FF00BE63
:10030000FEE71EF0040F0CBFEFF30880EFF3098047
:100310007146414A10472DE9F04182B004468846B3
:10032000124B5E6B9F6B9D6A1B6B13F0020F03D029
:100330000E4BDB6A002B0CDB0D4801F0EFFACDF819
:1003400000803B4632462946204601F053FB00BE62
:10035000FEE74BF6AB6101F0C7FB0028ECD04FF095
:100360000042024BDA6202B0BDE8F08100ED00E02D
:100370006884000800BEFEE71EF0040F0CBFEFF318
:100380000880EFF309807146244A10472DE9F041B7
:1003900082B004468846084B5E6B9F6B9D6A074897
:1003A00001F0BCFACDF800803B4632462946204693
:1003B00001F020FB00BEFEE700ED00E078840008BD
:1003C0001EF0040F0CBFEFF30880EFF309807146B5
:1003D000134A10472DE9F04182B004468846084B85
:1003E0005E6B9F6B9D6A074801F098FACDF800801C
:1003F0003B4632462946204601F0FCFA00BEFEE7A5
:1004000000ED00E08484000800BEFEE700BEFEE7C9
:1004100000BEFEE770470000170300088D030008C8
:08042000D503000800BEFEE751
:10042800E49700080000002008010020E497000875
:10043800000000000000000008010020A4090020BE
:080448000000000000000000AC
:1004500010B50446B0F5E06F0FD0B0F5C06F0CD00A
:10046000B0F5A06F09D0B0F5806F06D0B0F5407F31
:1004700003D06321044801F047FA44F0BF6444F418
:100480000034024BDC6010BDE881000800ED00E0A4
:1004900010B50446C378012B03D97521204801F01B
:1004A00033FA63780F2B10D8A3780F2B12D8E37888
:1004B000ABB923785A0903F01F03012101FA03F3B2
:1004C0002032184941F8223010BD7621144801F03D
:1004D0001BFAE9E77721124801F016FAE7E7124B19
:1004E000DA68D243C2F30222C2F104000F2121FADA
:1004F00002F263788340A1780A4013431B012278FB
:10050000DBB208490A4482F800332378580903F023
:100510001F03012202FA03F341F8203010BD00BF8F
:10052000E881000800E100E000ED00E0034B044A30
:100530005A6002F188325A60704700BF00200240C2
:1005400023016745024A136943F080031361704732
:10055000002002400B4BDB6813F0010F0DD1094B5B
:10056000DB6813F0040F01D002207047054BDB68F5
:1005700013F0100F03D003207047012070470420B0
:10058000704700BF0020024010B50446FFF7E2FFAD
:1005900002E0FFF7DFFF013C012801D1002CF8D178
:1005A00004B9052010BD000038B5044600F17842BA
:1005B000124B9A4206D84FF43020FFF7E5FF04288B
:1005C00006D038BD40F2A7110D4801F09DF9F2E7C1
:1005D0000C4D2B6943F002032B616C612B6943F0D6
:1005E00040032B614FF43020FFF7CEFF2B6923F03F
:1005F0000203DB04DB0C2B61E3E700BFFEFF0F000F
:10060000108200080020024070B504460D4600F13B
:100610007842104B9A4206D84FF40050FFF7B4FFCF
:10062000042806D070BD4FF45D710B4801F06CF9E1
:10063000F2E70A4E336943F00103336125804FF43A
:100640000050FFF7A1FF336923F00103DB04DB0C4B
:100650003361E7E7FEFF0F00108200080020024030
:10066000F8B505460C46484B98421BD003F580630D
:10067000984217D003F58063984213D003F5806346
:1006800098420FD003F5806398420BD003F5806346
:10069000984207D003F58063984203D0B2213B48CB
:1006A00001F032F9E3788BB1042B0FD0282B0DD059
:1006B000482B0BD0142B09D0102B07D01C2B05D0A6
:1006C000182B03D0B321314801F01EF9238893B1D0
:1006D000E37803F00F06304613F0100F06D0A3782E
:1006E000013BDBB2022B0BD8A0783043237833B325
:1006F0002E6800230BE0B421244801F005F9E7E758
:10070000BB21224801F000F9EEE76A610133072BB3
:1007100014D801229A40218832EA0101F6D19900C9
:100720000F278F4026EA070600FA01F10E43E17811
:100730002829EAD04829E9D12A61E7E72E602388F1
:10074000FF2B20D96E68002302E06A6115E00133B7
:10075000072B17D803F1080101228A40218832EAC9
:100760000101F4D199000F278F4026EA070600FA0D
:1007700001F10E43E1782829E7D0E1784829E6D154
:100780002A61E4E76E60F8BD000801404482000879
:1007900038B504460D462A4B98421CD003F58063B9
:1007A000984218D003F58063984214D003F5806313
:1007B000984210D003F5806398420CD003F5806313
:1007C000984208D003F58063984204D04FF48F71AB
:1007D0001C4801F099F86B1E9BB2012B28D9042DFF
:1007E00026D0082D24D0102D22D0202D20D0402D11
:1007F0001ED0802D1CD0B5F5807F19D0B5F5007FB7
:1008000016D0B5F5806F13D0B5F5006F10D0B5F5E3
:10081000805F0DD0B5F5005F0AD0B5F5804F07D0E9
:10082000B5F5004F04D040F21F11064801F06CF8F6
:10083000A3681D4201D1002038BD012038BD00BF92
:10084000000801404482000838B504460D46144BA8
:1008500098421CD003F58063984218D003F580635A
:10086000984214D003F58063984210D003F580635A
:1008700098420CD003F58063984208D003F580635A
:10088000984204D04FF4B571064801F03DF80DB11F
:10089000256138BD40F26B11024801F035F8F7E7E9
:1008A000000801404482000838B504460D46144B48
:1008B00098421CD003F58063984218D003F58063FA
:1008C000984214D003F58063984210D003F58063FA
:1008D00098420CD003F58063984208D003F58063FA
:1008E000984204D04FF4BD71064801F00DF80DB1E7
:1008F000656138BD40F27B11024801F005F8F7E769
:1009000000080140448200080D4B1A6842F00102C1
:100910001A6059680B4A0A405A601A6822F08472B9
:1009200022F480321A601A6822F480221A605A680F
:1009300022F4FE025A604FF41F029A60704700BF13
:10094000001002400000FFF810B5044650B1B0F5A9
:10095000803F07D0B0F5802F04D040F211110F482E
:1009600000F0D2FF0E4B1A6822F480321A601A6827
:1009700022F480221A60B4F5803F03D0B4F5802FB2
:1009800006D010BD064A136843F48033136010BDCF
:10099000034A136843F4A023136010BD7882000853
:1009A0000010024038B50C46054650B1B0F5803F06
:1009B00007D0B0F5403F04D040F27F111D4800F051
:1009C000A3FF74B3B4F5802F2BD0B4F5002F28D03B
:1009D000B4F5402F25D0B4F5801F22D0B4F5A01F68
:1009E0001FD0B4F5C01F1CD0B4F5E01F19D0B4F56A
:1009F000001F16D0B4F5101F13D0B4F5201F10D06F
:100A0000B4F5301F0DD0B4F5401F0AD0B4F5501F17
:100A100007D0B4F5601F04D04FF4C071054800F052
:100A200073FF054B596821F47C112C432143596015
:100A300038BD00BF788200080010024010B504469F
:100A4000012804D94FF4CA71024800F05DFF024B3F
:100A50001C6010BD788200086000424210B5044658
:100A6000022806D8064A536823F003031C43546047
:100A700010BD4FF40E71034800F046FFF2E700BFCF
:100A80000010024078820008024B586800F00C0009
:100A9000704700BF0010024010B50446A0B1802886
:100AA00012D0902810D0A0280ED0B0280CD0C0288A
:100AB0000AD0D02808D0E02806D0F02804D04FF47F
:100AC0001971054800F020FF044A536823F0F00331
:100AD0001C43546010BD00BF788200080010024023
:100AE00010B5044680B1B0F5806F0DD0B0F5A06FA1
:100AF0000AD0B0F5C06F07D0B0F5E06F04D040F277
:100B00007E21054800F000FF044A536823F4E063A7
:100B10001C43546010BD00BF7882000800100240E2
:100B200010B5044680B1B0F5806F0DD0B0F5A06F60
:100B30000AD0B0F5C06F07D0B0F5E06F04D04FF425
:100B40002671054800F0E0FE044B586820F4605020
:100B500040EAC400586010BD7882000800100240CE
:100B600010B4294B5B6803F00C03042B2BD0082B2B
:100B70002CD013B1254B036001E0244B03602249C4
:100B80004B68C3F30313224CE35CDAB20368D3402F
:100B900043604A68C2F30222A25CD2B223FA02F294
:100BA00082604A68C2F3C222A25CD2B2D340C36060
:100BB0004A68C2F3813217498A5CD2B2B3FBF2F3BE
:100BC000036110BC7047114B0360D8E70E4A5368AD
:100BD0005268C3F38343023312F4803F09D00A4AB8
:100BE000526812F4003F09D00B4A02FB03F3036082
:100BF000C5E7094A02FB03F30360C0E7034A02FBAF
:100C000003F30360BBE700BF0010024000127A004C
:100C1000080000200400002000093D0038B504460B
:100C20000D460E4B034003B920B940F24A410C482F
:100C300000F06AFE012D04D940F24B41084800F053
:100C400063FE2DB9074A936923EA0404946138BD11
:100C5000044B9A6914439C6138BD00BF0200C0FF79
:100C6000788200080010024038B504460D460E4B4D
:100C7000184200D120B940F269410C4800F044FE0E
:100C8000012D04D940F26A41084800F03DFE2DB91B
:100C9000074AD36923EA0404D46138BD044BDA69F6
:100CA0001443DC6138BD00BF003601817882000842
:100CB0000010024010B50446212818D0312816D063
:100CC000392814D0412812D0612810D07A280ED0AB
:100CD0007B280CD07C280AD07D2808D07E2806D01E
:100CE0007F2804D040F234510D4800F00DFE630916
:100CF000012B0CD0022B0DD00A4B5B6A04F01F04B1
:100D000023FA04F414F0010F07D1002010BD054BA5
:100D10001B68F3E7034B1B6AF0E7012010BD00BF1F
:100D2000788200080010024000B583B000230193D0
:100D30003120FFF7BFFF019B01330193019BB3F506
:100D4000A06F01D00028F3D03120FFF7B3FF18B90E
:100D5000002003B05DF804FB0120FAE738B5044633
:100D60000D46524B984242D0B0F1804F3FD0A3F590
:100D7000943398423BD003F58063984237D003F513
:100D80008063984233D003F5806398422FD003F5F7
:100D9000806398422BD003F59033984227D003F517
:100DA000C053984223D003F5806398421FD003F5C7
:100DB000806398421BD0A3F59E33984217D003F569
:100DC0008063984213D003F5806398420FD003F5F7
:100DD000903398420BD003F58063984207D003F517
:100DE0008063984203D0E721314800F08DFD6B8885
:100DF0005BB1102B09D0202B07D0402B05D0602BE6
:100E000003D0E8212A4800F07FFDEB884BB1B3F511
:100E1000807F06D0B3F5007F03D0E921244800F09D
:100E200073FD23889BB2214A944212D002F50062DE
:100E300094420ED0B4F1804F0BD0A2F59832944278
:100E400007D002F58062944203D002F5806294429A
:100E500003D123F070036A881343164A944208D0E2
:100E600002F58062944204D023F440739BB2EA8876
:100E700013432380AB88A3852B8823850B4B9C428F
:100E80000FD003F500639C420BD003F540639C42F6
:100E900007D003F580639C4203D003F580639C4236
:100EA00001D12B7A23860123A38238BD002C014077
:100EB000A88200080010004038B504460D462E4BAD
:100EC000984243D0B0F1804F40D0A3F5943398427C
:100ED0003CD003F58063984238D003F58063984294
:100EE00034D003F58063984230D003F58063984294
:100EF0002CD003F59033984228D003F5C053984284
:100F000024D003F58063984220D003F58063984293
:100F10001CD0A3F59E33984218D003F58063984205
:100F200014D003F58063984210D003F590339842B3
:100F30000CD003F58063984208D003F58063984293
:100F400004D040F229310D4800F0DEFC012D04D917
:100F500040F22A31094800F0D7FC35B923889BB20A
:100F600023F001039BB2238038BD23889BB243F05A
:100F70000103238038BD00BF002C0140A882000877
:100F800070B504460D461646314B984243D0B0F139
:100F9000804F40D0A3F5943398423CD003F5806352
:100FA000984238D003F58063984234D003F58063CB
:100FB000984230D003F5806398422CD003F59033EB
:100FC000984228D003F5C053984224D003F580639B
:100FD000984220D003F5806398421CD0A3F59E333D
:100FE000984218D003F58063984214D003F58063CB
:100FF000984210D003F5903398420CD003F58063EB
:10100000984208D003F58063984204D040F26B31D7
:10101000104800F079FC15F47F4F00D125B94FF44A
:101020005B710C4800F070FC012E04D940F26D3168
:10103000084800F069FC2EB9A389ED43ADB21D400C
:10104000A58170BDA3899BB21D43A58170BD00BF62
:10105000002C0140A882000838B504460D462A4BF2
:10106000984243D0B0F1804F40D0A3F594339842DA
:101070003CD003F58063984238D003F580639842F2
:1010800034D003F58063984230D003F580639842F2
:101090002CD003F59033984228D003F5C0539842E2
:1010A00024D003F58063984220D003F580639842F2
:1010B0001CD0A3F59E33984218D003F58063984264
:1010C00014D003F58063984210D003F59033984212
:1010D0000CD003F58063984208D003F580639842F2
:1010E00004D040F63621094800F00EFC15F4614F9B
:1010F00000D125B940F63721044800F005FCED4346
:10110000ADB2258238BD00BF002C0140A882000886
:1011100038B504460D46344B984243D0B0F1804F69
:1011200040D0A3F5943398423CD003F580639842B5
:1011300038D003F58063984234D003F58063984239
:1011400030D003F5806398422CD003F59033984259
:1011500028D003F5C053984224D003F58063984209
:1011600020D003F5806398421CD0A3F59E339842AB
:1011700018D003F58063984214D003F58063984239
:1011800010D003F5903398420CD003F58063984259
:1011900008D003F58063984204D040F658211348E4
:1011A00000F0B2FB6B1E9BB2012B10D9042D0ED0A8
:1011B000082D0CD0102D0AD0202D08D0402D06D09F
:1011C000802D04D040F65921084800F09DFB228A6A
:1011D000A3892B40154202D01BB9002038BD002046
:1011E00038BD012038BD00BF002C0140A882000896
:1011F00038B504460D462A4B984243D0B0F1804F93
:1012000040D0A3F5943398423CD003F580639842D4
:1012100038D003F58063984234D003F58063984258
:1012200030D003F5806398422CD003F59033984278
:1012300028D003F5C053984224D003F58063984228
:1012400020D003F5806398421CD0A3F59E339842CA
:1012500018D003F58063984214D003F58063984258
:1012600010D003F5903398420CD003F58063984278
:1012700008D003F58063984204D040F682210948E3
:1012800000F042FB15F47F4F00D125B940F68321D1
:10129000044800F039FBED43ADB2258238BD00BFF4
:1012A000002C0140A882000830B587B004460D46E6
:1012B000654B984213D0A3F5744398420FD003F5C1
:1012C000806398420BD003F58063984207D003F502
:1012D0008063984203D0B8215C4800F015FB2B686E
:1012E000013B5B4A934200F29480AB8833B1B3F583
:1012F000805F03D0BA21554800F006FBEB8863B14C
:10130000B3F5805F09D0B3F5005F06D0B3F5405F59
:1013100003D0BB214D4800F0F7FA2B894BB1B3F550
:10132000806F06D0B3F5C06F03D0BC21474800F0F2
:10133000EBFA6A8922F00C039BB203B91AB9BD21FA
:10134000424800F0E1FAAB8963B1B3F5807F09D080
:10135000B3F5007F06D0B3F5407F03D0BE213B48F4
:1013600000F0D2FAAB8973B1374B9C420BD0A3F596
:1013700074439C4207D003F580639C4203D0C22192
:10138000324800F0C1FA238A9BB2EA8823F4405322
:1013900013432382A3899BB2A98828896A890143C0
:1013A0000A4323F4B05323F00C031343A381A38A0D
:1013B0009BB2AA8923F440731343A38201A8FFF7C9
:1013C000CFFB214B9C4229D0039BA28912F4004FF2
:1013D00026D103EB830303EB830329688900B3FB66
:1013E000F1F11C4BA3FB012358090501642300FB09
:1013F0001313A28912F4004F1BD11B013233154A7B
:10140000A2FB0323C3F343132B439BB2238107B0F7
:1014100030BDB9210D4800F077FA66E7049BD4E7A8
:1014200003EB830303EB830329684900B3FBF1F16A
:10143000D7E7D9003231074AA2FB0131C1F342128A
:1014400045EA0203E1E700BF00380140D882000806
:101450001FAA44001F85EB5138B504460D46164BB4
:10146000984214D0A3F57443984210D003F58063DA
:1014700098420CD003F58063984208D003F580634E
:10148000984204D04FF4B1710C4800F03DFA012DA0
:1014900004D940F26311094800F036FA35B9A3893E
:1014A0009BB223F400539BB2A38138BDA3899BB2A6
:1014B00043F40053A38138BD00380140D8820008AE
:1014C00070B504460D461646374B984214D0A3F526
:1014D0007443984210D003F5806398420CD003F512
:1014E0008063984208D003F58063984204D040F2AC
:1014F00089112E4800F008FA282D1ED040F22773DB
:101500009D421AD040F226639D4216D040F22553E8
:101510009D4212D040F224439D420ED040F6460335
:101520009D420AD040F66A139D4206D0602D04D039
:101530004FF4C5711D4800F0E7F9012E04D940F2BF
:101540008B111A4800F0E0F940F66A139D4211D061
:10155000C5F3421205F01F05012303FA05F59A426F
:1015600019D0022A19D01434CEB9236823EA05050C
:10157000256070BD0C4B9C42EAD0A3F574439C429D
:10158000E6D003F580639C42E2D040F28F11074819
:1015900000F0BAF9DCE70C34E6E71034E4E723683E
:1015A0001D43256070BD00BF00380140D88200088F
:1015B00038B504460D46124B984214D0A3F5744337
:1015C000984210D003F5806398420CD003F58063F5
:1015D000984208D003F58063984204D040F25F211E
:1015E000084800F091F9B5F5007F03D2C5F308056E
:1015F000A58038BD4FF41871024800F085F9F5E771
:1016000000380140D882000810B504460D4B9842BE
:1016100014D0A3F57443984210D003F58063984228
:101620000CD003F58063984208D003F5806398429C
:1016300004D04FF41C71044800F066F9A088C0F390
:10164000080010BD00380140D882000838B50546B2
:101650000C46274B984214D0A3F57443984210D0FF
:1016600003F5806398420CD003F58063984208D05C
:1016700003F58063984204D040F286311D4800F0A3
:1016800043F9012C18D0802C16D0402C14D0202CDB
:1016900012D0102C10D0B4F5807F0DD0B4F5007F9F
:1016A0000AD0082C08D0042C06D0022C04D040F21A
:1016B0008731104800F028F9B4F5007F04D02B885A
:1016C0001C4212D1002038BD094B9D42F7D0A3F532
:1016D00074439D42F3D003F580639D42EFD040F206
:1016E0008B31044800F010F9E9E7012038BD00BF54
:1016F00000380140D882000838B505460C463C4BFE
:10170000984214D0A3F57443984210D003F5806337
:1017100098420CD003F58063984208D003F58063AB
:10172000984204D040F2D931324800F0EDF8282C2C
:1017300025D040F227739C4221D040F226639C4280
:101740001DD040F225539C4219D040F224439C42C4
:1017500015D040F646039C4211D040F66A139C42D5
:101760000DD0B4F5587F0AD0B4F5187F07D0B4F582
:10177000B07F04D040F2DA311E4800F0C5F840F6E0
:101780006A139C4217D0C4F3421204F01F010123D4
:101790008B40012A20D0022A22D0AA8A92B213407A
:1017A000240A012202FA04F42A8892B21440DBB11E
:1017B000E4B9002038BD0E4B9D42E4D0A3F574433C
:1017C0009D42E0D003F580639D42DCD040F2DE31E3
:1017D000084800F099F8D6E7AA8992B21340DFE7EB
:1017E0002A8A92B21340DBE7002038BD012038BDC1
:1017F00000380140D882000838B505460C46254B14
:10180000984214D0A3F57443984210D003F5806336
:1018100098420CD003F58063984208D003F58063AA
:10182000984204D040F222411B4800F06DF840F28B
:1018300026639C4210D040F225539C420CD040F6C7
:1018400046039C4208D040F66A139C4204D040F202
:101850002341114800F058F840F66A139C4207D023
:10186000240A0123A3409BB2DB439BB22B8038BDEB
:10187000084B9D42F4D0A3F574439D42F0D003F58C
:1018800080639D42ECD040F22741034800F03CF8D1
:10189000E6E700BF00380140D8820008FEE70000FC
:1018A00008B5034800F052F80120FFF7F7FF00BF2A
:1018B0000C83000808B503460C4A12685AB10B4A5B
:1018C0001068033323F003030344094A934206D804
:1018D000064A136008BD0749044A1160EFE706F0A5
:1018E00019F80C2303604FF0FF3008BD0C010020F5
:1018F00000BC0020A409002001230360014B0B6001
:10190000704700BF1800002008B50A46014602488B
:1019100000F004F8FFF7C4FF208300080FB400B5FF
:1019200083B004AB53F8042B01938021064806F0E2
:1019300045F8002803DD0146034800F047F803B0EE
:101940005DF804EB04B070471401002010B50446A4
:1019500005F0EEFF0146204600F038F8012102486C
:1019600000F034F810BD00BF9C9500082DE9F0434D
:1019700085B004460F4643560BB10E461EE00425C3
:1019800028462146ABBE0446384605B0BDE8F08384
:1019900014F9011B04AA1A4402F8101C0133AB42CB
:1019A000F6D304AA1344002203F8102CE9464FF0A2
:1019B000040840464946ABBE8046761B002EE3D065
:1019C0003546102E28BF10250023E8E708B5FFF79D
:1019D000CDFF08BD08B500F0FDF8024B024A9A6041
:1019E00008BD00BF00ED00E00000000808B500F0F1
:1019F00019F908BDF8B504460D4617461E46274896
:101A0000FFF78CFF21682648FFF788FF61682548AB
:101A1000FFF784FFA1682448FFF780FFE1682348AF
:101A2000FFF77CFF21692248FFF778FF61692148B1
:101A3000FFF774FFA1692048FFF770FFE1691F48B5
:101A4000FFF76CFF1E48FFF769FF29461D48FFF7A7
:101A500065FF1D4CE16A1D48FFF760FF216B1C48C4
:101A6000FFF75CFFE16B1B48FFF758FF15F0800F95
:101A70000AD115F4004F0CD11748FFF74FFF069914
:101A80001648FFF74BFFF8BD39461548FFF746FFEC
:101A9000EFE731461348FFF741FFEDE74C830008BD
:101AA0005C8300086C8300087C8300088C8300083A
:101AB0009C830008AC830008BC830008CC8300082A
:101AC000DC830008E883000800ED00E0F8830008EC
:101AD000088400081884000848840008508400081E
:101AE000288400083884000883691A888A4201D053
:101AF000002070470268033A012A03D80233836149
:101B0000012070470020704782B0002301930093AA
:101B10002C4A136843F4803313602A4B1B6803F488
:101B200000330093019B01330193009B1BB9019B80
:101B3000B3F5A06FF1D1234B1B6813F4003F06D01F
:101B400001230093009B012B04D002B070470023B7
:101B50000093F7E71C4B1A6842F010021A601A68EB
:101B600022F003021A601A6842F002021A60A3F51A
:101B700080535A685A605A685A605A6842F48062C0
:101B80005A605A6822F47C125A605A6842F4E81289
:101B90005A601A6842F080721A600A4B1B6813F090
:101BA000007FFAD0074B5A6822F003025A605A6845
:101BB00042F002025A60034B5B6803F00C03082BEF
:101BC000F9D1C2E7001002400020024008B5FFF73B
:101BD0009BFF08BD08B5104B1A6842F001021A605D
:101BE00059680E4A0A405A601A6822F0847222F438
:101BF00080321A601A6822F480221A605A6822F42D
:101C0000FE025A604FF41F029A60FFF7DFFF4FF0A9
:101C10000062034B9A6008BD001002400000FFF80C
:101C200000ED00E01F4B5B6803F00C03042B15D0A4
:101C3000082B17D01BB11C4A1C4B1A6002E01A4A31
:101C40001A4B1A60174B5B68C3F30313184AD35C33
:101C5000DAB216490B68D3400B607047124A134B37
:101C60001A60EFE70F4A53685268C3F383430233A5
:101C700012F4803F0AD00B4A526812F4003F0BD096
:101C80000C4A02FB03F3094A1360DBE7094A02FB33
:101C900003F3064A1360D5E7034A02FB03F3034A42
:101CA0001360CFE70010024000127A0030000020DD
:101CB0002000002000093D000146002302E0002230
:101CC000CA540133EF2BFAD9F023C1F8F0300020C9
:101CD000C1F8F400C1F8F800C1F8FC00C1F8000137
:101CE00070470131814201D0084670470021FBE76F
:101CF00038B50446D0F8F450D0F8F00085420CDA3C
:101D00000B46D4F8F8106354FFF7EBFFC4F8F80063
:101D10000135C4F8F450002038BD4FF0FF3038BD15
:101D2000F8B5D0F8F450002D12DD0F460446D0F877
:101D3000FC603146D0F8F000FFF7D3FFC4F8FC0098
:101D4000013DC4F8F450F6B2A35D3B700020F8BD2D
:101D50006FF00100F8BD00002DE9F04D82B0834620
:101D60008846924600260027CDE90067002514E04A
:101D7000EC000BEB0403D3E90023DDE9000105F0DF
:101D80005DF9CDE900014444D4E9002330463946E9
:101D900005F054F906460F4601355545E8D350463F
:101DA00005F088FA04460D4602460B46DDE90001BF
:101DB00005F020FC074BC3E9000122462B463046C4
:101DC000394605F017FC044BC3E9000102B0BDE839
:101DD000F08D00BF98010020A00100202DE9F04700
:101DE000814688461746002546E0EC0009EB0406CC
:101DF0004444D4E90023D6E9000105F0D1FADFF824
:101E0000A4A002460B46DAE9000105F017F9CAE979
:101E10000001DFF888A0D6E90023DAE9000105F027
:101E20000DF9CAE90001DFF880A0D4E90023DAE95E
:101E3000000105F003F9CAE90001D6E900010246F4
:101E40000B4605F0ADFA134E02460B46D6E90001EB
:101E500005F0F4F8C6E90001D4E9000102460B469A
:101E600005F09EFA0C4C02460B46D4E9000105F041
:101E7000E5F8C4E900010135BD42B6D3074BD3E90B
:101E8000000102460B4605F08BFA054BC3E9000141
:101E9000BDE8F087C8010020E8010020C001002053
:101EA000D0010020D8010020E00100202DE9F04FF2
:101EB00087B00390894617461E46FFF78FFF3846C6
:101EC00005F0F8F9CDE900013D4DD5E9002305F015
:101ED00067FACDE90401DFF804B1DFF804A1DAE91B
:101EE0000023DBE9000105F05BFA02460B46DDE961
:101EF000040105F0A1F8CDE90401324CD4E9002336
:101F0000DDE9000105F04CFADFF8D880D8E90023BC
:101F100005F092F802460B46DDE9040105F06AFB84
:101F2000C6E900013A4649460398FFF715FF264FD8
:101F3000D7E90023D6E9000105F032FA234E024624
:101F40000B46D6E9000105F077F8109BC3E90001C4
:101F5000D5E900231046194605F022FACDE9000123
:101F6000DFF88490D9E90023D4E9000105F018FADC
:101F700002460B46DDE9000105F03CFB119BC3E97D
:101F8000000100220023C5E90023CBE90023CAE9B0
:101F90000023C4E90023C9E90023C8E90023C7E9F5
:101FA0000023C6E900230A49C1E900230949C1E920
:101FB00000230949C1E9002307B0BDE8F08F00BF45
:101FC000D8010020C801002098010020A0010020B5
:101FD000A8010020B0010020B8010020C0010020AD
:101FE000E0010020D0010020E801002038B5D0E950
:101FF00000450022154B2046294605F043FC08BB4E
:102000000022124B2046294605F05AFC40B100221E
:102010000F4B2046294605F035FC08B1022038BD9B
:1020200000220B4B2046294605F04AFC08B9042043
:1020300038BD0022074B2046294605F023FC18B97D
:10204000042038BD012038BD032038BD00002440E5
:102050000000594000408F402DE9F04F8FB00446FA
:10206000BF4B1A680092D3F80480BE4B19680591E3
:102070005F68BD4B196806915E68BC4B1968079193
:102080005D68BB4B196808915B680193B94B19688F
:1020900009915B680293B84B19680A91D3F80490D0
:1020A000B64B19680B91D3F804A0B54B19680C9185
:1020B0005B680493B34B19680D915B6803935923D4
:1020C0000380002200230098414605F0DBFB002836
:1020D00040F09E8100236380DDF800B05846414601
:1020E00005F0F8FB05F0E6F802460B46CDF800B027
:1020F0005846414604F0A0FF97A3D3E9002305F01A
:102100004FF905F0E7FB1FFA80FB0098414605F008
:10211000E1FBA080A4F806B0002200230598394610
:1021200005F0B0FB002840F0788100232381DDF822
:1021300014B05846394605F0CDFB05F0BBF8024611
:102140000B465846394604F077FF83A3D3E90023B2
:1021500005F026F905F0BEFB1FFA80F8584639460F
:1021600005F0B8FB6081A4F80C80002200230698DB
:10217000314605F087FB002840F054810023E381BD
:10218000DDF818804046314605F0A4FB05F092F8D2
:1021900002460B464046314604F04EFF6EA3D3E99B
:1021A000002305F0FDF805F095FB87B24046314667
:1021B00005F090FB208267820022002307982946C1
:1021C00005F060FB002840F032810023A382079FC6
:1021D0003846294605F07EFB05F06CF802460B46B2
:1021E0003846294604F028FF5BA3D3E9002305F015
:1021F000D7F805F06FFB86B23846294605F06AFB32
:10220000E0822683002200230898019905F03AFB1A
:10221000002840F0118100236383089F3846019E07
:10222000314605F057FB05F045F802460B463846A7
:10223000314604F001FF48A3D3E9002305F0B0F8CC
:1022400005F048FB85B23846314605F043FBA083D4
:10225000E583002200230998029905F013FB00286A
:1022600040F0F18000232384099F3846029E3146C6
:1022700005F030FB05F01EF802460B4638463146A5
:1022800004F0DAFE34A3D3E9002305F089F805F061
:1022900021FB85B23846314605F01CFB6084A584DD
:1022A000002200230D98039905F0ECFA002840F075
:1022B000D1800023E3840D9F3846039E314605F00C
:1022C00009FB04F0F7FF02460B463846314604F09E
:1022D000B3FE21A3D3E9002305F062F805F0FAFA72
:1022E00085B23846314605F0F5FA2085658500222D
:1022F00000230A98494605F0C5FA002840F0B1804D
:102300000023A3850A9E3046494605F0E3FA04F00F
:10231000D1FF02460B463046494604F08DFE0EA31F
:10232000D3E9002305F03CF805F0D4FA85B2304635
:10233000494605F0CFFAE0852586002200230B9858
:10234000514605F09FFA002840F0908000236386F4
:102350001AE000BFAFF30080000000000088C34017
:10236000400600205806002070060020300600209D
:102370004806002060060020380600205006002095
:1023800068060020780600200B9E3046514605F076
:10239000A1FA04F08FFF02460B463046514604F086
:1023A0004BFE39A3D3E9002304F0FAFF05F092FABB
:1023B00085B23046514605F08DFAA086E5860022AA
:1023C00000230C98049905F05DFA002853D10023EE
:1023D00023870C9F3846049E314605F07BFA04F0B3
:1023E00069FF02460B463846314604F025FE26A317
:1023F000D3E9002304F0D4FF05F06CFA85B2384627
:10240000314605F067FA6087A5870FB0BDE8F08F09
:1024100008F10048012363805EE607F100470123CD
:10242000238184E606F100460123E381A8E605F155
:1024300000450123A382CAE6019B03F100430193F7
:1024400001236383E9E6029B03F100430293012326
:10245000238409E7039B03F1004303930123E384EF
:1024600029E709F100490123A3854BE70AF1004A56
:102470000123638688E7049B03F10043049301234F
:102480002387A6E7AFF30080000000000088C34068
:10249000D0B50446408804F00DFF06460F46A088DC
:1024A00004F008FFB4A3D3E9002305F0A3F8024623
:1024B0000B462188002940F0F3803046394604F06D
:1024C000BDFDAF4BC3E90001208904F0F3FE0646D1
:1024D0000F46608904F0EEFEA7A3D3E9002305F0C0
:1024E00089F802460B46E188002940F0E480304636
:1024F000394604F0A3FDA34BC3E90001E08904F0D1
:10250000D9FE06460F46208A04F0D4FE9AA3D3E9EA
:10251000002305F06FF802460B46A189002940F020
:10252000D5803046394604F089FD974BC3E9000158
:10253000A08A04F0BFFE06460F46E08A04F0BAFE09
:102540008DA3D3E9002305F055F802460B46618AB6
:10255000002940F0C6803046394604F06FFD8B4BB1
:10256000C3E90001608B04F0A5FE06460F46A08B70
:1025700004F0A0FE80A3D3E9002305F03BF8024657
:102580000B46218B002940F0B7803046394604F0D5
:1025900055FD7F4BC3E90001208C04F08BFE0646FD
:1025A0000F46608C04F086FE73A3D3E9002305F088
:1025B00021F802460B46E18B002940F0A880304606
:1025C000394604F03BFD734BC3E90001E08C04F095
:1025D00071FE06460F46208D04F06CFE66A3D3E91B
:1025E000002305F007F802460B46A18C002940F0B5
:1025F00099803046394604F021FD674BC3E900015C
:10260000A08D04F057FE06460F46E08D04F052FE02
:1026100059A3D3E9002304F0EDFF02460B46618D78
:10262000002940F08A803046394604F007FD5B4BB4
:10263000C3E90001608E04F03DFE06460F46A08E01
:1026400004F038FE4CA3D3E9002304F0D3FF024684
:102650000B46218E00297BD13046394604F0EEFC32
:102660004F4BC3E90001208F04F024FE06460F46BD
:10267000608F04F01FFE40A3D3E9002304F0BAFFEB
:1026800002460B46E18E00296DD03046394604F0F3
:10269000D5FC024601F100434249C1E90023D0BD07
:1026A0003046394604F0CAFC024601F10043344981
:1026B000C1E9002308E73046394604F0BFFC024672
:1026C00001F100432F49C1E9002317E7304639469D
:1026D00004F0B4FC024601F100432B49C1E9002398
:1026E00026E73046394604F0A9FC024601F10043D2
:1026F0002649C1E9002335E73046394604F09EFCFF
:10270000024601F100432249C1E9002344E7304673
:10271000394604F093FC024601F100431D49C1E92A
:10272000002353E73046394604F088FC024601F1A5
:1027300000431949C1E9002362E73046394604F0F5
:102740007DFC024601F100431449C1E9002371E711
:102750003046394604F072FC024601F1004310494C
:10276000C1E900237FE73046394604F067FC0D4B92
:10277000C3E90001D0BD00BF000000000088C340D5
:102780004006002058060020700600203006002079
:102790004806002060060020780600203806002049
:1027A000500600206806002010B590B03E2200219F
:1027B000684605F0B5F86846FFF74EFC1F226946EB
:1027C000064800F03FF8044610B9204610B010BD8E
:1027D00059221021024800F0E7FAF6E70040060807
:1027E0009484000800B591B03E220021684605F0AF
:1027F00097F81F226946084800F013F8BDF800302A
:10280000592B03D0002011B05DF804FB0DF102003C
:10281000FFF73EFE0120F6E700400608008880B280
:102820007047F8B507460E461546002407E007EB4B
:102830004400FFF7F3FF26F814000134A4B2AC42C1
:10284000F5D3F8BDB0F1006F25D3F8B500F17843AA
:10285000DB0A03F58033DC0200EB42050F4B9D429F
:1028600001D90020F8BD16460F460546FDF75EFE6D
:102870002046FDF799FE002407E037F8141005EB19
:102880004400FDF7C1FE0134A4B2A642F5D8FDF71D
:1028900059FE0120F8BD0020704700BFFFFF070868
:1028A00010B584B001210846FEF7DEF94FF4FA6353
:1028B000ADF808304723ADF804300024ADF80A40E5
:1028C000ADF8064001A94FF08040FEF747FA01211C
:1028D0004FF08040FEF7C0FB012211464FF08040D0
:1028E000FEF74EFB01214FF08040FEF7E5FA21464E
:1028F0000120FEF7B9F904B010BD00B583B04FF464
:10290000E060FDF7A5FD1C238DF8043001238DF850
:1029100005308DF806308DF8073001A8FDF7B8FDB9
:1029200003B05DF804FB08B5FFF7BAFFFFF7E5FF5A
:1029300001210846FEF798F908BD000008B50221FC
:102940001648FDF725FFB8B9154A1368013313601F
:10295000134B1B68142B04D90023114A1360114A2E
:102960001370114B1B68142B05D900220E4B1A60F3
:1029700001220C4B1A7008BD04210848FDF708FF1E
:102980000028E1D008210548FDF702FF0028DBD030
:10299000054A136801331360DAE700BF00100140F5
:1029A000180600209D0000208006002008B50121A7
:1029B0004FF08040FEF7ACFB00B3204B1B6833B9EF
:1029C0001F4A136801331360B3F5FA7F17D01D4B0C
:1029D0001B682BB91C4A136801331360642B15D094
:1029E0001A4B1B68012B18D00022194B1A60FFF7F5
:1029F000A5FF01214FF08040FEF7FAFB08BD002241
:102A00000F4B1A6001220D4B1A60E0E701220D4BBB
:102A10001A6000220C4B1A60E2E70D4B1B680D4A4E
:102A20001268934203D20133094A1360DFE70022A0
:102A3000064B1A600122084B1A60D8E708020020F2
:102A4000F001002028060020F401002004020020EC
:102A5000FC010020F80100200002002030B583B006
:102A600001210420FEF7DAF80425ADF804501823FC
:102A70008DF8073003238DF80630094C0DEB050166
:102A80002046FDF7EDFD0823ADF804308DF8075022
:102A90000DEB05012046FDF7E3FD03B030BD00BF9F
:102AA0000008014010B582B001210420FEF7B6F8FD
:102AB0004FF40073ADF8043018238DF8073003236A
:102AC0008DF80630094C01A92046FDF7C9FD4FF4E9
:102AD0008063ADF8043004238DF807300DEB03015B
:102AE0002046FDF7BDFD02B010BD00BF000801404B
:102AF00010B582B001210820FEF790F84FF48063F2
:102B0000ADF8043018238DF8073003238DF8063014
:102B1000094C01A92046FDF7A3FD4FF40063ADF871
:102B2000043004238DF807300DEB03012046FDF738
:102B300097FD02B010BD00BF000C014000B583B08E
:102B40004FF4E060FDF784FC26238DF80430002369
:102B50008DF805308DF8063001238DF8073001A877
:102B6000FDF796FC03B05DF804FB000010B584B0DF
:102B7000FFF774FF01214FF40030FEF775F84FF4B2
:102B8000965300930023ADF80430ADF806304FF4AF
:102B90008062ADF808200C22ADF80A20ADF80C30A8
:102BA000094C69462046FEF77FFB012240F2255181
:102BB0002046FEF785FCFFF7C1FF01212046FEF706
:102BC0004BFC04B010BD00BF0044004000B583B012
:102BD0004FF4E060FDF73CFC25238DF80430022320
:102BE0008DF8053003238DF8063001238DF807306A
:102BF00001A8FDF74DFC03B05DF804FB10B584B0EF
:102C0000FFF750FF01214FF48040FEF707F84FF423
:102C1000165300930023ADF80430ADF80630ADF83C
:102C200008300C22ADF80A20ADF80C30094C69468A
:102C30002046FEF739FB012240F225512046FEF7DF
:102C40003FFCFFF7C3FF01212046FEF705FC04B05F
:102C500010BD00BF0038014000B583B04FF4E06004
:102C6000FDF7F6FB27238DF8043002238DF805309D
:102C700004238DF8063001238DF8073001A8FDF7F5
:102C800007FC03B05DF804FB10B584B0FFF730FF1C
:102C900001214FF48020FDF7E7FF4FF41653009316
:102CA0000023ADF80430ADF80630ADF808300C2242
:102CB000ADF80A20ADF80C30094C69462046FEF705
:102CC000F3FA012240F225512046FEF7F9FBFFF707
:102CD000C3FF01212046FEF7BFFB04B010BD00BFBB
:102CE0000048004070B506460D4600240AE0315DFC
:102CF0000648FEF75DFC80210448FEF7A7FC00288B
:102D0000F9D00134AC42F2D370BD00BF004800409E
:102D100010B582B001211020FDF780FF4FF48063D1
:102D2000ADF8043018238DF8073003238DF80630F2
:102D3000094C01A92046FDF793FC4FF40063ADF860
:102D4000043004238DF807300DEB03012046FDF716
:102D500087FC02B010BD00BF0010014010B584B068
:102D6000FFF7D6FF01214FF40020FDF77DFF4FF460
:102D7000165300930023ADF80430ADF80630ADF8DB
:102D800008300C22ADF80A20ADF80C30054C69462D
:102D90002046FEF789FA01212046FEF75DFB04B0CC
:102DA00010BD00BF004C0040592A00D0704770B5DC
:102DB0000D46064600240AE0315D0648FEF7F8FBA2
:102DC00080210448FEF742FC0028F9D00134AC42CF
:102DD000F2D370BD004C00402DE9F04383B00646AD
:102DE000894617461C4600258DF80750ADF804505B
:102DF0002B46A8461BE05A2B3BD19DF8042089F8AE
:102E0000002089F801304546A04632E09DF80730A1
:102E100009F8053001350023314A1360314A136047
:102E20008CBB6422304B1A602346012B4DD0D6F860
:102E3000F420002A3FDDBD424ED00DF1070130469F
:102E4000FEF76EFF0028E6D1002CDFD19DF8073099
:102E500009F8053003F11002D2B20E2A03D9552B1E
:102E600001D0AA2B02D18DF80430A046B8F1010F91
:102E7000C1D0013508F10108182DCCD199F80030E6
:102E8000552BC8D128E0012C05D0022C09D0142CD8
:102E90000CD00023C9E74FF47A72134B1A60002359
:102EA000C3E76422104B1A600023BEE714220E4BC6
:102EB0001A600023B9E7002BB7D10121084A11603D
:102EC00000210A4A11600133AFE7064A1268012A5D
:102ED000ADD10022034B1A60284603B0BDE8F08351
:102EE0000402002000020020F8010020FC01002064
:102EF00010B540F225510948FEF7FEFB00B910BDA0
:102F0000064C40F225512046FEF776FC2046FEF79F
:102F10007BFBC1B20248FEF7EBFEF0E70038014050
:102F20009808002010B540F225510948FEF7E4FB4F
:102F300000B910BD064C40F225512046FEF75CFC5E
:102F40002046FEF761FBC1B20248FEF7D1FEF0E772
:102F5000004400409006002010B540F22551094879
:102F6000FEF7CAFB00B910BD064C40F225512046C1
:102F7000FEF742FC2046FEF747FBC1B20248FEF7CF
:102F8000B7FEF0E7004800409407002010B540F27B
:102F900025510948FEF7B0FB00B910BD064C40F2C0
:102FA00025512046FEF728FC2046FEF72DFBC1B236
:102FB0000248FEF79DFEF0E7004C00409808002014
:102FC000034638B1002001E0013001331A78002AAD
:102FD000FAD170470020704770B4002403E06518F0
:102FE000165D465501349C42F9D370BC7047000011
:102FF0002DE9F84306460F4690461D469DF8209061
:1030000004F068FC012211E0A91A214BA3FB004344
:10301000DB0803EB83035C00031B303308F801304B
:103020001B4BA3FB0030C0080132D2B2AA4206D823
:103030000028E9D1AB1A302108F80310F0E7B9F104
:10304000000F23D02E2308F80530012417E00022BA
:10305000104B3046394604F0A3F906460F4604F0FB
:1030600039FC29190A4BA3FB0023DB0803EB83037C
:103070005A00831A303308F801300134E4B24C4569
:10308000E5D94D440135002308F80530BDE8F88343
:10309000CDCCCCCC000024400B09092B08D8303310
:1030A000037001F00F01092905D9373141707047CC
:1030B00037330370F5E73031417070472DE9F04741
:1030C00082B081460D4690460024444504D22B5DD3
:1030D0002E2B28D00134F8E7002600274FF0000AF5
:1030E00010E015F80A00303804F0F4F832463B4698
:1030F00003F0A4FF00222D4B04F052F906460F46C0
:103100000AF1010A5445ECD80022284B30463946D2
:1031100004F070FACDE90001B8EB040A08D00134DC
:103120000026002718E0002600274FF0000AE9E7F4
:1031300003460C46C9E9003433E0285D303804F01A
:10314000C9F832463B4603F079FF0022174B04F0E2
:1031500027F906460F4601344445EED30022134BAF
:103160003046394604F046FA04460D460020104920
:10317000002604E000220D4B04F012F901360AF19A
:10318000FF339E42F6D302460B462046294604F002
:1031900031FA02460B46DDE9000103F04FFFC9E9B1
:1031A0000001012002B0BDE8F08700BF000024400C
:1031B0000000F03F00B583B001210820FDF72EFD8F
:1031C0004FF45073ADF8043003238DF8063010230C
:1031D0008DF8073001A90348FDF742FA03B05DF806
:1031E00004FB00BF000C014000B583B04FF4007336
:1031F000ADF8043003238DF8063010238DF8073026
:1032000001A90348FDF72CFA03B05DF804FB00BFE9
:10321000000C014000B583B04FF40073ADF80430EA
:1032200003238DF8063048238DF8073001A90348A1
:10323000FDF716FA03B05DF804FB00BF000C014077
:1032400010B50B4C4FF400712046FDF7FDFA4FF41A
:1032500080712046FDF7F8FA4FF400712046FDF723
:1032600023FB4FF480712046FDF71EFB10BD00BF0D
:10327000000C014010B5084C4FF480712046FDF75A
:10328000E3FA4FF400712046FDF70EFB4FF4007196
:103290002046FDF7D9FA10BD000C014010B5FFF72C
:1032A000B9FF4FF480710E48FDF7CEFA42F2107369
:1032B0005C1E002B11DD4FF400710948FDF768FA20
:1032C000234604460028F3D14FF480710448FDF7EB
:1032D000EBFAFFF789FF204610BD0124FBE700BF92
:1032E000000C014070B50546012383F31088FFF7F9
:1032F0007BFF002413E04FF400711348FDF7A4FA9C
:10330000114E4FF480713046FDF79EFA4FF48071F4
:103310003046FDF7C9FA6D00EDB20134E4B2072C76
:103320000DD84FF480710848FDF7BEFA15F0800FF4
:10333000E1D14FF400710448FDF7B6FAE0E700234D
:1033400083F3108870BD00BF000C014010B5044627
:10335000FFF776FF7820FFF7C5FFFFF79FFF68B9FB
:103360000020FFF7BFFFFFF799FF70B159220F212F
:103370000E48FFF719FD0224204610BD59220F21E7
:103380000B48FFF711FD0124F6E72046FFF7AAFFDF
:10339000FFF784FF044630B1592210210548FFF79A
:1033A00003FD0324E8E7FFF765FFE5E71492000853
:1033B0000492000824920008F8B506460D46FFF76F
:1033C0003FFF7820FFF78EFFFFF768FF90B940209E
:1033D000FFF788FFFFF762FF074698B90446AC4243
:1033E0001ED2305DFFF77EFFFFF758FF88B901342A
:1033F000E4B2F4E7592211210B48FFF7D5FC01276D
:103400003846F8BD59220F210848FFF7CDFC0227A6
:10341000F6E759220F210648FFF7C6FC0327EFE71E
:10342000FFF728FFECE700BF389200084C92000835
:103430005C92000810B504465039C8B2FFF786FF09
:10344000200940F01000FFF781FF0120FFF77EFF09
:10345000002010BD10B500240BE021460020FFF72E
:10346000E9FF8021044800EBC410FFF7A5FF0134F9
:10347000E4B2072CF1D910BD0C02002008B530B120
:10348000FF214FF48062034804F04AFA08BD00218E
:10349000F7E700BF0C02002008B5064B1B788342FB
:1034A00006D0044B18700020FFF7E8FFFFF7D2FFAB
:1034B00008BD00BF0C06002010B5FFF77BFE324CA4
:1034C00040212046FDF7F0F940212046FDF7BCF9E8
:1034D00059220C212D48FFF767FCAE20FFF736FF7D
:1034E000D520FFF733FF8020FFF730FFA820FFF73C
:1034F0002DFF3F20FFF72AFFD320FFF727FF0020F3
:10350000FFF724FF4020FFF721FF8D20FFF71EFF6C
:103510001420FFF71BFFA120FFF718FFC820FFF7BB
:1035200015FFDA20FFF712FF1220FFF70FFF8120AF
:10353000FFF70CFFCF20FFF709FFD920FFF706FFA9
:10354000F120FFF703FFDB20FFF700FF4020FFF72C
:10355000FDFEA420FFF7FAFEA620FFF7F7FE0020ED
:10356000FFF78CFFFFF776FFAF20FFF7EFFE084B6A
:1035700000221A805A8001245C7159220E210548CC
:10358000FFF712FC204610BD000C01406C920008B1
:10359000100600207C920008014B1880598070476B
:1035A000100600207F2815D83F2913D8104B1B790F
:1035B00013B1B2FA82F25209012A0CD0CB0800EB07
:1035C000C31001F0070101238B400A4A115C21EA74
:1035D000030111547047CB0800EBC31001F0070141
:1035E00001238B40034A115C19431154704700BFFB
:1035F000100600200C0200202DE9F843234B1B8805
:103600000C7823447F2B3BDC204B5B884C78234495
:103610003F2B38DC90460E46814600251CE01B4BB4
:1036200018885988B8FA88F2520929442044FFF7CB
:10363000B9FF013433789C420DD207FA04F313F436
:10364000004FECD0114B1888598842462944204439
:10365000FFF7A8FFEDE701357278954208D271684F
:10366000A9F1200302FB035331F813700024E1E7B2
:103670003378064A11880B4413804846BDE8F88326
:103680000020BDE8F8830020BDE8F8831006002084
:1036900070B514461D469DF810601B7803FB00F0C2
:1036A0006B7803FB01F101310130FFF775FF2078E2
:1036B00040B132462946FFF79FFF2378984204D154
:1036C0000134F4E7FFF7C6FE2378184670BD00000A
:1036D0002DE9F04391B0CDE90401CDE902230024A6
:1036E0000D940E94ADF83C400A940B94ADF8304024
:1036F00007940894ADF824400420FFF7CDFE344E23
:10370000012500953346334A21462046FFF7C0FF86
:1037100000953346304A29462046FFF7B9FF009509
:1037200033462E4A02212046FFF7B2FF009533466A
:103730002B4A21460A20FFF7ABFF00953346294A62
:1037400029460A20FFF7A4FF00953346264A0221A6
:103750000A20FFF79DFF10A870E90C89FEF746FCD0
:1037600002270097C3B20DAA40464946FFF740FC26
:10377000009533460DAA21460320FFF789FF10A8C4
:1037800070E90E89FEF732FC0097C3B20AAA4046E0
:103790004946FFF72DFC009533460AAA2946032027
:1037A000FFF776FFDDE9188918A8FEF71FFC0097E0
:1037B000C3B207AA40464946FFF71AFC00953346B4
:1037C00007AA39460320FFF763FF11B0BDE8F08375
:1037D0003400002070930008749300087893000868
:1037E0007C930008809300086C93000830B583B088
:1037F0000720FFF751FE094D012400942B46084A8B
:1038000000210846FFF744FF00942B46054A214655
:103810000020FFF73DFF03B030BD00BF34000020A3
:10382000089300081093000830B583B00620FFF716
:1038300033FE134D012400942B46124A0021084602
:10384000FFF726FF00942B460F4A21460020FFF782
:103850001FFF00942B460D4A02210020FFF718FF9E
:1038600000942B460A4A02210A20FFF711FF009418
:103870002B46084A02210520FFF70AFF03B030BD9E
:10388000340000201C9300082493000830930008A3
:10389000389300083C93000830B583B00520FFF74B
:1038A000FBFD134D012400942B46124A00210846CB
:1038B000FFF7EEFE00942B460F4A21460020FFF74B
:1038C000E7FE00942B460D4A02210020FFF7E0FEA0
:1038D00000942B460A4A02210A20FFF7D9FE0094E1
:1038E0002B46084A02210520FFF7D2FE03B030BD67
:1038F00034000020E8920008249300083093000868
:10390000389300083C93000830B583B00320FFF7DC
:10391000C3FD0C4D012400942B460B4A00210846A0
:10392000FFF7B6FE00942B46084A21460020FFF719
:10393000AFFE00942B46064A02210020FFF7A8FEA6
:1039400003B030BD340000204C93000858930008A9
:103950006493000830B583B00820FFF79DFD094D42
:10396000012400942B46084A00210846FFF790FEE8
:1039700000942B46054A21460020FFF789FE03B03C
:1039800030BD00BF34000020BC9200084093000806
:1039900030B583B00A20FFF77FFD0C4D0124009461
:1039A0002B460B4A00210846FFF772FE00942B4677
:1039B000084A21460020FFF76BFE00942B46064A7A
:1039C00002210020FFF764FE03B030BD3400002068
:1039D000A8930008B4930008BC93000830B583B0E6
:1039E0000A20FFF759FD0C4D012400942B460B4A89
:1039F00000210846FFF74CFE00942B46084A21465A
:103A00000020FFF745FE00942B46064A02210020C5
:103A1000FFF73EFE03B030BD34000020A89300083D
:103A2000B49300089C93000830B583B00B20FFF7D7
:103A300033FD0C4D012400942B460B4A002108460F
:103A4000FFF726FE00942B46084A21460020FFF788
:103A50001FFE00942B46064A02210020FFF718FEA5
:103A600003B030BD3400002084930008B4930008F4
:103A70009093000830B583B00C20FFF70DFD0C4D7E
:103A8000012400942B460B4A00210846FFF700FE54
:103A900000942B46084A21460020FFF7F9FD0094C8
:103AA0002B46064A02210020FFF7F2FD03B030BD8D
:103AB0003400002084930008B4930008BC930008ED
:103AC00030B583B00D20FFF7E7FC0C4D01240094C6
:103AD0002B460B4A00210846FFF7DAFD00942B46DF
:103AE000084A21460020FFF7D3FD00942B46064AE2
:103AF00002210020FFF7CCFD03B030BD34000020D0
:103B000084930008F0920008FC92000830B583B05E
:103B10000E20FFF7C1FC0C4D012400942B460B4AEC
:103B200000210846FFF7B4FD00942B46084A2146C1
:103B30000020FFF7ADFD00942B46064A022100202D
:103B4000FFF7A6FD03B030BD3400002084930008C9
:103B5000F0920008DC9200082DE9F04391B0CDE925
:103B60000401CDE9022300230D930E93ADF83C3000
:103B70000A930B93ADF8303007930893ADF82430D7
:103B80000920FFF789FC049D059C0022002328469C
:103B9000214603F077FE002862D14FF00409029D10
:103BA000039C3FA3D3E900232846214603F06AFE85
:103BB000002865D14FF0040810A870E90C67FEF7E3
:103BC00015FA03240094C3B20DAA30463946FFF714
:103BD0000FFA10A870E90E67FEF708FA0094C3B256
:103BE0000AAA30463946FFF703FADDE9186718A834
:103BF000FEF7FCF90094C3B207AA30463946FFF736
:103C0000F7F9294D012400942B46284A0021084643
:103C1000FFF73EFD00942B46254A21460020FFF782
:103C200037FD00942B46234A02210020FFF730FD88
:103C300000942B460DAA00214846FFF729FD009469
:103C40002B460AAA21464046FFF722FD00942B4648
:103C500007AA02210420FFF71BFD11B0BDE8F08385
:103C60002A4604F10043CDE90423012300930E4BBF
:103C7000114A00210846FFF70BFD4FF005098EE7BA
:103C80002A4604F10043CDE9022301210091064BAD
:103C9000094A0420FFF7FCFC4FF005088CE700BF41
:103CA000F168E388B5F8E43E3400002094920008FF
:103CB0009C920008A4920008909200080000000066
:103CC0002DE9F04F9DB002908A46049103921F4661
:103CD000DDF89890DDF89C80DDF8A0B0299E0023E7
:103CE00019931A93ADF86C3016931793ADF86030B2
:103CF00013931493ADF8543010931193ADF84830EA
:103D000000240025CDE90E45CDE90C45CDE90A4555
:103D1000CDE908451020FFF7BFFB22462B4602984D
:103D2000514603F0AFFD002840F0B3800223059315
:103D300073A3D3E900230398394603F0A3FD0028B9
:103D400040F0B5804FF0020A002200234846414669
:103D500003F098FD002840F0B7800723069368A37E
:103D6000D3E900235846314603F08CFD002840F08B
:103D7000B780072307930022634B0298049903F04E
:103D80000FFB04460D46CDE90E4500225E4B03981D
:103D9000394603F005FBCDE90C0100225A4B484699
:103DA000414603F0FDFACDE90A010022564B584680
:103DB000314603F0F5FACDE908010EA8FEF716F931
:103DC00000260096C3B219AA20462946FFF710F92B
:103DD0001CA870E91045FEF709F90096C3B216AAAF
:103DE00020462946FFF704F91CA870E91245FEF7A2
:103DF000FDF80096C3B213AA20462946FFF7F8F84B
:103E00001CA870E91445FEF7F1F80096C3B210AA99
:103E100020462946FFF7ECF83C4D012400942B4640
:103E20003B4A31460220FFF733FC00942B46394AC7
:103E300031460720FFF72CFC00942B46364A2146DA
:103E40003046FFF725FC00942B46344A02213046C9
:103E5000FFF71EFC00942B4619AA21460598FFF790
:103E600017FC00942B4616AA02215046FFF710FCBF
:103E700000942B4613AA21460698FFF709FC0094EC
:103E80002B4610AA02210798FFF702FC1DB0BDE8DF
:103E9000F08F049B03F100430493012100911B4B1D
:103EA0001F4A0220FFF7F4FB0323059340E707F1C5
:103EB000004701230093154B194A02210846FFF7DA
:103EC000E7FB4FF0030A3FE708F1004801210091AA
:103ED0000E4B134A0720FFF7DBFB082306933EE750
:103EE00006F1004601230093084B0D4A02210720EA
:103EF000FFF7CEFB082307933DE700BFAFF3008039
:103F0000F168E388B5F8E43E00408F4034000020BB
:103F1000AC920008B0920008B4920008B892000871
:103F20009092000810B584B004460023ADF80C3020
:103F30008DF80E3064281AD0092C21D9164BA3FB1A
:103F40000423DB0803F130028DF80C2003EB83031C
:103F50005A00A21A30328DF80D20012300930F4B26
:103F600003AA02210520FFF793FB04B010BD012333
:103F700000930A4B0A4A02210520FFF789FBDBE781
:103F8000303404AA02F8044D01230093034B0221AC
:103F90000520FFF77DFBE8E7CDCCCCCC340000203A
:103FA0008C92000808B5FCF7AFFC4FF48030FCF7AA
:103FB000CBFCFCF7B9FE124B1870A8B94FF4E01116
:103FC0004FF48030FCF7EEFC0120FCF737FD392080
:103FD000FCF770FE0028FAD00220FCF73FFDFCF74A
:103FE00053FD0828FBD108BD0020FCF755FD00203B
:103FF000FCF796FD4FF48060FCF772FDDEE700BF32
:104000009C09002000B583B0ADF8041003238DF89F
:10401000063010238DF8073001A9FCF721FB03B00F
:104020005DF804FB70B501210420FCF7F7FD0121C8
:104030000820FCF7F3FD01211020FCF7EFFD244CD4
:104040004FF480712046FFF7DDFF224E802130467D
:10405000FFF7D8FF40213046FFF7D4FF1E4D4FF445
:1040600000412846FFF7CEFF4FF480412846FFF776
:10407000C9FF4FF400512846FFF7C4FF4FF48051A9
:104080002846FFF7BFFF02212846FFF7BBFF0121AB
:104090002846FFF7B7FF20213046FFF7B3FF102176
:1040A0003046FFF7AFFF80212046FFF7ABFF4021EE
:1040B0002046FFF7A7FF20212046FFF7A3FF10218E
:1040C0002046FFF79FFF02212046FFF79BFF70BDB0
:1040D0000008014000100140000C014070B582B0A2
:1040E00001211020FCF79AFD0123ADF804300325CF
:1040F0008DF8065010238DF80730154C01A9204685
:10410000FCF7AEFA0223ADF804308DF806504826CD
:104110008DF8076001A92046FCF7A2FA0423ADF848
:1041200004308DF806508DF807600DEB0301204632
:10413000FCF796FA0823ADF804308DF806508DF898
:10414000076001A92046FCF78BFA02B070BD00BFE2
:104150000010014010B4C47D182902D0002010BC0A
:1041600070470378552B01D01846F8E7037D03F01C
:1041700070026F2A02DD0223002204E01846EEE7F7
:10418000C15C0A440133162BFAD9D2B2944201D051
:104190000020E4E70120E2E72DE9F04F8BB08046F4
:1041A0000F461646002407940894ADF82440049462
:1041B0000594ADF8184001940294ADF80C406923C1
:1041C0008DF8033076238DF8023070238DF801309E
:1041D000A1462546022D3CD87548FDF76DFD754872
:1041E000FDF76AFD01210DF10300FEF77BFD0022C2
:1041F000714B1A6064230A2201A96E48FEF7ECFD98
:10420000044602280FD86C4B1B68012BF2D109F130
:1042100001095FFA89F9B9F1020F00F2BB800022AF
:10422000654B1A60E6E759220C216448FEF7BCFD95
:104230005922214601A8FEF7B7FD59220221604804
:10424000FEF7B2FD2CB9022D00F0A9800135EDB2C8
:10425000C0E74FF00009CA464D46BAF1020F3FD8F9
:104260005348FDF729FD01210DF10200FEF73AFD4B
:104270000022514B1A6064230A2204A94D48FEF71C
:10428000ABFD054602280ED84B4B1B68012BF2D123
:1042900009F101095FFA89F9B9F1020F7CD800220E
:1042A000454B1A60E7E75922014604A8FEF77CFD5A
:1042B00059220C214348FEF777FD5922294604A8CC
:1042C000FEF772FD592202213D48FEF76DFD3DB912
:1042D000BAF1020F62D00AF1010A5FFA8AFABCE76A
:1042E0004FF0000AD346D146BBF1020F41D8304807
:1042F000FDF7E2FC01210DEB0100FEF7F3FC0022CB
:104300002D4B1A6064230A2207A92A48FEF764FD90
:10431000814602280ED8284B1B68012BF2D10AF1E6
:10432000010A5FFA8AFABAF1020F3CD80022224B46
:104330001A60E7E75922014607A8FEF735FD592222
:104340000C212148FEF730FD5922494607A8FEF707
:104350002BFD592202211A48FEF726FDB9F1000F64
:1043600007D1BBF1020F20D00BF1010B5FFA8BFBE1
:10437000BAE74A4607A94046FEF7A0FE2A4604A926
:104380003846FEF79BFE224601A93046FEF796FE10
:10439000012404E0002402E0002400E02C46204632
:1043A0000BB0BDE8F08F0024F9E74C46F7E700BFFB
:1043B000980800209407002008020020C0940008FC
:1043C000C4960008D0940008E09400082DE9F04F4E
:1043D00083B0834692469946FFF7BCFE012803D07E
:1043E000C0B203B0BDE8F08F9BF80E009BF80F3011
:1043F00043EA00239BF810009BF802209BF803700F
:1044000047EA02229BF8047047EA02279BF808203B
:104410009BF8095045EA02229BF80A5045EA02251A
:104420009BF811209BF8128048EA02229BF8138027
:1044300048EA02289BF805209BF8066046EA02221B
:104440009BF8076046EA02269BF80B209BF80C407D
:1044500044EA02229BF80D4044EA022440EA032089
:1044600002F028FFCDE90001404602F023FF02469A
:104470000B46DDE9000103F0BDF8CAE9000138464A
:1044800002F018FF82468B46304602F013FF0246C8
:104490000B465046594603F0ADF8C9E900012846DD
:1044A00002F008FF06460F46204602F003FF0246D0
:1044B0000B463046394603F09DF80C9BC3E90001DA
:1044C00001208EE770B588B015461E4600220023F5
:1044D000CDE90623CDE90423CDE9022302AB009305
:1044E00004AB06AAFFF772FF0446012802D020465B
:1044F00008B070BD00221E4BD5E9000103F0E0F9C1
:10450000002826D01B4BD3E90023DDE9060102F089
:1045100047FF194BD3E9002302F090FDC5E90001E4
:10452000164BD3E90023DDE9020102F039FF144BF9
:10453000D3E9002302F082FD0C9BC3E90001114B7B
:10454000D3E90023DDE9040102F078FDC6E90001AA
:10455000CDE70D4BD3E90023DDE9060102F020FF92
:104560000A4BD3E9002302F069FDC5E90001D7E752
:1045700000408F4038060020500600203006002002
:10458000480600207806002040060020580600203B
:1045900030B59BB0002317931893ADF86430B84B37
:1045A000D3E90023CDE91423B64BD3E90023CDE9A9
:1045B0001223B54BD3E90023CDE91023B34BD3E944
:1045C0000023CDE90E23B24BD3E90023CDE90C2320
:1045D000B04BD3E90023CDE90A23AF4BD3E9002345
:1045E000CDE90823AD4BD3E90023CDE90623AC4B3D
:1045F000D3E90023CDE90423AA4BD3E90023CDE975
:10460000022359220521A848FEF7CEFB149D159CD4
:10461000002200232846214603F052F9002800F02A
:10462000958114A8FDF7E2FC04230093C3B217AAF6
:1046300028462146FEF7DCFC5922062117A8FEF782
:10464000B3FB592202219948FEF7AEFB59220521FE
:104650009748FEF7A9FB129D139C002200232846D1
:10466000214603F02DF9002800F0878112A8FDF7FC
:10467000BDFC04230093C3B217AA28462146FEF7C7
:10468000B7FC5922062117A8FEF78EFB59220221FA
:104690008648FEF789FB592205218648FEF784FBF0
:1046A000109D119C002200232846214603F008F9A2
:1046B000002800F0798110A8FDF798FC04230093EE
:1046C000C3B217AA28462146FEF792FC59220621BA
:1046D00017A8FEF769FB592204217748FEF764FB0F
:1046E000592205217548FEF75FFB149D159C002299
:1046F00000232846214603F0E3F8002800F06B81F0
:104700001AA870E90C45FDF771FC04230093C3B2AD
:1047100017AA20462946FEF76BFC5922062117A846
:10472000FEF742FB592202216048FEF73DFB592269
:1047300005216348FEF738FB129D139C00220023DD
:104740002846214603F0BCF8002800F05C811AA836
:1047500070E90E45FDF74AFC04230093C3B217AA83
:1047600020462946FEF744FC5922062117A8FEF7E9
:104770001BFB592202214D48FEF716FB5922052149
:104780005048FEF711FB109D119C00220023284683
:10479000214603F095F8002800F04D811AA870E931
:1047A0001045FDF723FC04230093C3B217AA20464B
:1047B0002946FEF71DFC5922062117A8FEF7F4FA38
:1047C000592204213C48FEF7EFFA592204213E48C1
:1047D000FEF7EAFA089D099C00220023284621469C
:1047E00003F06EF8002800F03E8108A8FDF7FEFBFC
:1047F00004230093C3B217AA28462146FEF7F8FB0C
:104800005922062117A8FEF7CFFA5922022127487C
:10481000FEF7CAFA592204212C48FEF7C5FA069D74
:10482000079C002200232846214603F049F800286F
:1048300000F0308106A8FDF7D9FB04230093C3B232
:1048400017AA28462146FEF7D3FB5922062117A8AE
:10485000FEF7AAFA592202211448FEF7A5FA5922B6
:1048600004211B48FEF7A0FA049D059C00220023AA
:104870002846214603F024F8002800F0228129E090
:104880004006002058060020700600203806002050
:104890005006002068060020300600204806002050
:1048A000600600207806002068940008C49600087E
:1048B0007094000878940008809400088894000898
:1048C0009094000898940008A0940008A894000808
:1048D000B094000804A8FDF789FB04230093C3B239
:1048E00017AA28462146FEF783FB5922062117A85E
:1048F000FEF75AFA592202218948FEF755FA592241
:1049000004218848FEF750FA029D039C00220023F0
:104910002846214602F0D4FF002800F0E98002A8D2
:10492000FDF764FB04230093C3B217AA284621466F
:10493000FEF75EFB5922062117A8FEF735FA592229
:1049400002217748FEF730FA1BB030BD04F1004475
:104950002A4623461AA860E90623FDF747FB0423ED
:104960000093C3B217AA28462146FEF741FB5922FD
:1049700001216D48FEF718FA5EE604F100442A466C
:1049800023461AA860E90823FDF730FB04230093AF
:10499000C3B217AA28462146FEF72AFB5922012155
:1049A0006148FEF701FA6CE604F100442A4623460A
:1049B0001AA860E90A23FDF719FB04230093C3B288
:1049C00017AA28462146FEF713FB59220121564813
:1049D000FEF7EAF97AE62A4604F10043CDE914230A
:1049E0001AA870E90C45FDF701FB04230093C3B23C
:1049F00017AA20462946FEF7FBFA592201214A4808
:104A0000FEF7D2F989E62A4604F10043CDE91223E4
:104A10001AA870E90E45FDF7E9FA04230093C3B222
:104A200017AA20462946FEF7E3FA592201213E48FB
:104A3000FEF7BAF998E62A4604F10043CDE91023BF
:104A40001AA870E91045FDF7D1FA04230093C3B208
:104A500017AA20462946FEF7CBFA592201213248EF
:104A6000FEF7A2F9A7E604F100442A4623461AA855
:104A700060E91223FDF7BAFA04230093C3B217AA20
:104A800028462146FEF7B4FA592201212648FEF7AE
:104A90008BF9B5E604F100442A4623461AA860E9DA
:104AA0001423FDF7A3FA04230093C3B217AA2846E0
:104AB0002146FEF79DFA592201211B48FEF774F9A1
:104AC000C3E604F100442A4623461AA860E91623E7
:104AD000FDF78CFA04230093C3B217AA2846214697
:104AE000FEF786FA592201210F48FEF75DF9FCE630
:104AF00004F100442A4623461AA860E91823FDF76A
:104B000075FA04230093C3B217AA28462146FEF77C
:104B10006FFA592201210448FEF746F90AE700BF5F
:104B2000C4960008B894000890920008012928D083
:104B3000032929D006292AD00C292CD014292DD0BC
:104B4000322931D0462932D0642937D0AA2939D028
:104B5000B1F5FA7F3ED0B1F5167F3ED0B1F57A7F40
:104B600040D040F2DC53994240D0B1F5FA6F42D0C8
:104B700040F6C413994244D040F6B833994247D026
:104B8000704701230370704701234370704701236E
:104B90008370437070470123C37070470123C37053
:104BA00083704370037070470123037170470123C2
:104BB0000371C370837043700370704701230371E6
:104BC00043717047012343710371C3708370437055
:104BD0000370704701238371704701238371437110
:104BE0000371704701238371C3717047012383717F
:104BF000C3710372704701238371C37103724372DF
:104C0000704701238371C3710372437283727047CB
:104C100001238371C371037243728372C372AFE75E
:104C200038B50546002409E00C4B33F814100C4B42
:104C300053F82400FBF708FE0134E4B20F2C0BD824
:104C40002B5D002BF0D1054B33F81410044B53F8B7
:104C50002400FBF729FEEFE738BD00BF7C000020F1
:104C60003C000020092918D9002201E00132D2B20B
:104C7000914210D9835C4B2B11D00D2BF6D00A2B0F
:104C8000F4D02C2BF2D04F2BF0D0303BDBB2092BE1
:104C9000ECD90020704701207047002070470120A8
:104CA000704700002DE9F04190B004460D461746CC
:104CB000984600230D930E93ADF83C300A930B9366
:104CC000ADF8303007930893ADF82430002200236C
:104CD000CDE90423CDE90223CDE9002359221E2189
:104CE0006248FEF761F8592209216148FEF75CF835
:104CF000592229462046FEF757F8592210215D48CF
:104D0000FEF752F829462046FFF7ACFF002800F0D6
:104D1000AA800023E25C303AD2B2092A2FD90133AB
:104D2000DBB2F7E7721CD6B2002203E0012E15D0E9
:104D3000022E1CD00133DBB29D4223D9E018E15C86
:104D40004B291FD02C29EDD0002EEFD10DF1400EB4
:104D500096440EF80C1C0132D2B2E7E790F800E05E
:104D600010A9114401F824EC0132D2B2E0E7007836
:104D700010A9114401F8180C511CCAB2DAE700223C
:104D80001646D9E7592210213B48FEF70DF8592263
:104D900017213A48FEF708F80DA8FEF711F9592235
:104DA00001460DA8FEF700F8354C59220221204695
:104DB000FDF7FAFF0DA8FEF703F902460DA904A8B6
:104DC000FEF77CF90AA8FEF7FBF8592201460AA86B
:104DD000FDF7EAFF592202212046FDF7E5FF0AA868
:104DE000FEF7EEF8C21E0AA902A8FEF767F907A8A7
:104DF000FEF7E6F85922014607A8FDF7D5FF59222C
:104E000002212046FDF7D0FF07A8FEF7D9F8024699
:104E100007A96846FEF752F9592216211948FDF7ED
:104E2000C3FF0022184BDDE9040102F0E3FBC7E9F0
:104E300000010022144BDDE9020102F0DBFBC8E9AE
:104E400000010022104BDDE9000102F0D3FB169BAC
:104E5000C3E9000159221F210C48FDF7A5FF0120DD
:104E600010B0BDE8F0810020FAE700BFF094000820
:104E7000109500081C950008309500084095000822
:104E8000C49600085895000800408F4070950008AF
:104E90002DE9F04FBBB083460392049344990D462D
:104EA0000591DDF814A146990E460691DDF81C81A6
:104EB00048990F460791DDF824914A9908914B983B
:104EC0000990BA4B2DAC0FCB07C4237025220021CB
:104ED0000DF1C10002F024FD00232A932B93ADF8BD
:104EE000B03027932893ADF8A43024932593ADF8E0
:104EF000983021932293ADF88C301E931F93ADF818
:104F000080301B931C93ADF87430039A049BCDE959
:104F100018232A465346CDE9162332464346CDE9A7
:104F200014233A464B46CDE91223089A099BCDE952
:104F30001023BBF1010F00F06982002200230398C7
:104F4000049902F09FFC002840F0648200220023B4
:104F50000598514602F096FC002840F0628200223B
:104F600000230698414602F08DFC002840F05F8245
:104F7000002200230798494602F084FC002840F0F4
:104F80005C82002200230898099902F07BFC00282B
:104F900040F05982002200230398049902F072FC29
:104FA000002840F057823AA870E92245FDF71EF824
:104FB00003230093C3B21BAA20462946FEF718F824
:104FC000592209211BA8FDF7EFFE5922022178483A
:104FD000FDF7EAFE002200230598514602F052FC3C
:104FE000002840F03D823AA870E92445FCF7FEFF16
:104FF00003230093C3B21BAA20462946FDF7F8FFFE
:10500000592209211BA8FDF7CFFE59220221684829
:10501000FDF7CAFE002200230698414602F032FC4A
:10502000002840F023823AA870E92645FCF7DEFF0D
:1050300003230093C3B21BAA20462946FDF7D8FFDD
:10504000592209211BA8FDF7AFFE59220221584819
:10505000FDF7AAFE002200230798494602F012FC41
:10506000002840F009823AA870E92845FCF7BEFF05
:1050700003230093C3B21BAA20462946FDF7B8FFBD
:10508000592209211BA8FDF78FFE59220221484809
:10509000FDF78AFE0022474BDDE9180102F080F996
:1050A000CDE90A0103460C46CDE918340022414BF4
:1050B000DDE9160102F074F906460F46CDE91667E0
:1050C00000223C4BDDE9140102F06AF904460D466A
:1050D000CDE914450022374BDDE9120102F060F9F9
:1050E00002460B46CDE90C23CDE912230022314BB9
:1050F000DDE9100102F054F902460B46CDE90E231A
:10510000CDE91023DDE90A0102F0E4FB2A4BA3FB01
:105110000023DB0803EB83035A00831A052B07D90E
:105120000022264BDDE90A0101F088FFCDE91801D4
:105130003046394602F0CEFB1F4BA3FB0023DB08B1
:1051400003EB83035A00831A052B07D900221B4B5C
:105150003046394601F072FFCDE916012046294656
:1051600002F0B8FB144BA3FB0023DB0803EB830323
:105170005A00831A052B07D90022104B20462946D6
:1051800001F05CFFCDE91401DDE90C45204629461C
:1051900002F0A0FB084BA3FB0023DB0803EB830317
:1051A0005A00831A052B13D90AE000BFC8930008E0
:1051B000C496000800408F40CDCCCCCC00002440E9
:1051C0000022B54B2046294601F038FFCDE91201F7
:1051D000DDE90E452046294602F07CFBAF4BA3FBE0
:1051E0000023DB0803EB83035A00831A052B07D93E
:1051F0000022A94B2046294601F020FFCDE91001ED
:105200000022A54BDDE9180102F0F4F906460F462D
:10521000CDE918670022A04BDDE9160102F0EAF99A
:10522000CDE9160100229C4BDDE9140102F0E2F900
:10523000CDE914010022984BDDE9120102F0DAF900
:10524000CDE912010022944BDDE9100102F0D2F900
:10525000CDE9100118A8FCF7C9FE00240094C3B2E0
:105260002AAA30463946FDF7C3FE3AA870E92467FA
:10527000FCF7BCFE0094C3B227AA30463946FDF7BE
:10528000B7FE3AA870E92667FCF7B0FE0094C3B2F7
:1052900024AA30463946FDF7ABFE3AA870E92867E4
:1052A000FCF7A4FE0094C3B221AA30463946FDF7AC
:1052B0009FFE3AA870E92A67FCF798FE0094C3B2F3
:1052C0001EAA30463946FDF793FE002200230398BC
:1052D000049902F0D7FA002840F0D4802DA8FDF7F9
:1052E0006FFE04462AA8FDF76BFE03462AAA214654
:1052F0002DA8FDF771FE2DA8FDF762FE0123684A77
:1053000001462DA8FDF768FE0022002305985146AE
:1053100002F0B8FA002840F0C7802DA8FDF750FE33
:10532000044627A8FDF74CFE034627AA21462DA8D0
:10533000FDF752FE2DA8FDF743FE0123584A014612
:105340002DA8FDF749FE002200230698414602F0F1
:1053500099FA002840F0B2802DA8FDF731FE0446EE
:1053600024A8FDF72DFE034624AA21462DA8FDF70B
:1053700033FE2DA8FDF724FE0123494A01462DA83E
:10538000FDF72AFE002200230798494602F07AFA28
:10539000002840F09D802DA8FDF712FE044621A8AC
:1053A000FDF70EFE034621AA21462DA8FDF714FEA7
:1053B0002DA8FDF705FE0123394A01462DA8FDF76A
:1053C0000BFE002200230898099902F05BFA0028DE
:1053D00040F088802DA8FDF7F3FD04461EA8FDF7D8
:1053E000EFFD03461EAA21462DA8FDF7F5FDBBF1F2
:1053F000010F00F081802DA8FDF7E2FD5922014642
:105400002DA8FDF7D1FC3BB0BDE8F08F31238DF81E
:10541000BE3092E5039A049901F10043CDE91823C7
:1054200094E5059A0AF10043CDE9162397E5069A1B
:1054300008F10043CDE914239AE5079A09F10043E6
:10544000CDE912239DE5089A099901F10043CDE9C0
:1054500010239FE5592201211248FDF7A5FCA2E582
:10546000592201210F48FDF79FFCBCE5592201217B
:105470000C48FDF799FCD6E5592201210948FDF7B2
:1054800093FCF0E52DA8FDF79BFD0123054A01469D
:105490002DA8FDF7A1FD21E700002440CDCCCCCC08
:1054A0004C960008909200082DA8FDF789FD012375
:1054B000174A01462DA8FDF78FFD2EE72DA8FDF711
:1054C0007FFD0123124A01462DA8FDF785FD43E724
:1054D0002DA8FDF775FD01230D4A01462DA8FDF706
:1054E0007BFD58E72DA8FDF76BFD0123084A014617
:1054F0002DA8FDF771FD6DE72DA8FDF761FD0146B3
:105500002DA8FDF7EFFB02210248FDF7EBFB72E748
:1055100090920008C49600082DE9F04FADF6E40D16
:105520000026CDF8D068CDF8D468CDF8D868CDF88D
:10553000DC680DF50964C24D0FCD0FC40FCD0FC44B
:105540000FCD0FC495E80F0084E80F00F02231461C
:105550000DF5F46002F0E4F98DF89F67CDF88867E7
:10556000CDF88C67CDF89067CDF89467CDF8986743
:10557000002200230DF5F061C1E900230DF5EF6174
:10558000C1E900230DF5EE61C1E900230DF5ED61E0
:10559000C1E900230DF5EC61C1E900230DF5EB61D4
:1055A000C1E900230DF5EA61C1E900230DF5E961C8
:1055B000C1E900230DF5E861C1E90023E02422469A
:1055C00031460DF5CC6002F0ABF9224631460DF5BF
:1055D000B06002F0A5F9224631460DF5946002F064
:1055E0009FF922463146F0A802F09AF92246314648
:1055F000B8A802F095F92246314680A802F090F949
:105600005024224631466CA802F08AF922463146DF
:1056100058A802F085F92246314644A802F080F9E4
:105620002246314630A802F07BF9224631461CA8BA
:1056300002F076F92246314608A802F071F93446A4
:105640003546B3460296029B0F2B00F26282029B04
:105650009A460DF50E6202EB830353F8501C0DF5CC
:105660000D60FFF763FA0DF50D60FFF7D9FA102210
:1056700000210DF50D6002F053F9502200216CA8B5
:1056800002F04EF95022002158A802F049F95022A8
:10569000002144A802F044F95022002130A802F071
:1056A0003FF9502200211CA802F03AF950220021B3
:1056B00008A802F035F96348FCF7FEFA624B1B6854
:1056C000012BFBD10134E4B25E48FCF7F5FA032C60
:1056D00003D800225C4B1A60F0E75A48FCF7ECFA5A
:1056E0000024A346264690E0F00044AB1A1858ABBD
:1056F00019186CAB1844FEF74FFD012815D0B308FC
:10570000DB006CAA1A4400200021C2E9000158AA5B
:105710001A44C2E9000144AA1344C3E90001592212
:1057200010214A48FDF740FB7DE00BF1010B5FFAC9
:105730008BFBF4E74FEA96084FEAC80044AB1A180F
:1057400058AB19186CAB1844FEF726FD012816D08B
:105750004FEAC8086CAB03EB080100220023C1E943
:10576000002358A94144C1E9002344A98844C8E959
:105770000023592210213548FDF716FB53E00BF1A9
:10578000010B5FFA8BFBF4E7102200210DF50D6091
:1057900002F0C6F80DF50D60FFF742FA6FF0020057
:1057A0000DF6E40DBDE8F08F06EB4603DD000DF5C8
:1057B000F4631D440023182229462248FDF70CFB00
:1057C0004E2218212846FDF7EFFA18212846FEF749
:1057D000C1FCC5B2012D16D01B4B1B68012BE3D1B8
:1057E0000134E4B2092CCFD80022174B1A60DBE752
:1057F00006EB4603D900002318220DF5F46001449E
:105800001048FDF7E9FA0136F6B2092E11D80DF568
:105810000E6303EB8A0353F8507C312F7FF664AF9D
:1058200016F0030F86D0002FE2D00022064B1A603C
:10583000D2E7BBF1000F0BD04FF0000841E000BFF2
:10584000FC9300089006002008020020389600080B
:10585000102200210DF50D6002F062F80DF50D60CB
:10586000FFF7DEF94FF0FF309AE74FEAC8096CAB5B
:105870004B444FEACA06F0AA9719D3E90023D7E9A7
:10588000000101F0DBFBC7E9000158AB4B44B8AAAB
:105890009719D3E90023D7E9000101F0CFFBC7E94D
:1058A000000144AB994480AB1E44D9E90023D6E9FA
:1058B000000101F0C3FBC6E9000108F101085FFA2D
:1058C00088F8D845D1D34FEACA06F0AB9F194FF0FC
:1058D0000408CDF8008005230DF5F162D7E9000139
:1058E000FDF786FB592209210DF5F160FDF75CFA01
:1058F000DFF85494592202214846FDF755FA5846DC
:1059000001F0E8FCCDE9040102460B46D7E90001AD
:1059100001F070FE02460B46CDE90623C7E90023DD
:10592000B8AB9F19DDE90423D7E9000101F062FE5D
:10593000C7E9000180AB1E44DDE90423D6E900017C
:1059400001F058FEC6E90001CDF8008005230DF5F1
:10595000F1610A46DDE90601FDF74AFB59220921FA
:105960000DF5F160FDF720FA592202214846FDF7B6
:105970001BFA00231E461F4610E0F30030AA1A440B
:1059800000200021C2E900011CAA1A44C2E900015A
:1059900008AA1344C3E900010136F6B2092E15D84E
:1059A00006EB4603D800F20008AB134400931CAB8F
:1059B000134430A90A4418210DF5F46E7044FEF723
:1059C00005FD0128D9D10137FFB2E5E7049717B1EA
:1059D0004FF000083BE0102200210DF50D6001F0B2
:1059E0009FFF0DF50D60FFF71BF96FF00100D7E683
:1059F0004FEAC80930AB4B444FEACA060DF5CC62FA
:105A00009719D3E90023D7E9000101F017FBC7E993
:105A100000011CAB4B440DF5B0629719D3E900238C
:105A2000D7E9000101F00AFBC7E9000108AB99447E
:105A30000DF594631E44D9E90023D6E9000101F075
:105A4000FDFAC6E9000108F101085FFA88F8B8F12B
:105A5000090FCDD94FEACA0A0DF5CC6303EB0A064C
:105A60000427009705230DF5F162D6E90001FDF743
:105A7000BFFA592209210DF5F160FDF795F9592278
:105A80000221B148FDF790F9049801F023FCCDE91B
:105A9000040102460B46D6E9000101F0ABFD804649
:105AA0008946C6E900890DF5B06303EB0A06DDE916
:105AB0000423D6E9000101F09DFDC6E900010DF5C2
:105AC000946303EB0A06DDE90423D6E9000101F043
