:020000040800F2
:1000000000C00020F9020008FF02000803030008F6
:100010007503000879030008C10300080000000010
:1000200000000000000000000000000009040008BB
:100030000D04000800000000110400081504000869
:1000400025040008250400082504000825040008EC
:1000500025040008250400082504000825040008DC
:1000600025040008250400082504000825040008CC
:1000700025040008250400082504000825040008BC
:1000800025040008250400082504000825040008AC
:10009000250400082504000825040008250400089C
:1000A000250400082504000825040008250400088C
:1000B0005927000825040008250400082504000825
:1000C000250400082504000825040008250400086C
:1000D000250400089D2C0008D12C0008052D0008DF
:1000E000250400082504000825040008250400084C
:1000F000250400082504000825040008250400083C
:10010000250400082504000825040008250400082B
:10011000392D0008250400082504000825040008DE
:10012000250400082504000825040008250400080B
:1001300000000000000000000000000000000000BF
:1001400000000000000000000000000000000000AF
:10015000000000000000000000000000000000009F
:10016000000000000000000000000000000000008F
:10017000000000000000000000000000000000007F
:10018000000000000000000000000000000000006F
:10019000000000000000000000000000000000005F
:1001A000000000000000000000000000000000004F
:1001B000000000000000000000000000000000003F
:1001C000000000000000000000000000000000002F
:1001D000000000000000000000000000000000001F
:1001E0005FF8E0F100B583B001F0F4FB304B314A29
:1001F0001360314A1360314B314A03E011681960D2
:10020000043304322F498B42F8D32A4B1A682E4B01
:100210009A4200D0FEE7284B1A682C4B9A42F9D13B
:10022000234B2B4A13602B4A13602B4B02E0002216
:100230001A600433294A9342F9D3254B1B6813B93A
:10024000244B1B6803B1FEE701F0D0FB694601A80F
:1002500001F052FB224B234CE41AA4100025AC42BF
:1002600014DC214B214CE41AA4100025AC4213DC11
:100270000099019806F028F905461D4B1D4CE41A1B
:10028000A410002C0EDC284601F008FB144B53F898
:10029000253098470135E2E7134B53F8253098474E
:1002A0000135E3E7013C124B53F824309847E8E767
:1002B000BABADECA000000200401002000000020BD
:1002C000548F000808010020785634123254769872
:1002D00008010020D807002008010020DC070020CA
:1002E000500400085004000850040008500400089E
:1002F000500400085004000808B5FFF773FF00BE63
:10030000FEE71EF0040F0CBFEFF30880EFF3098047
:100310007146414A10472DE9F04182B004468846B3
:10032000124B5E6B9F6B9D6A1B6B13F0020F03D029
:100330000E4BDB6A002B0CDB0D4801F0EFFACDF819
:1003400000803B4632462946204601F053FB00BE62
:10035000FEE74BF6AB6101F0C7FB0028ECD04FF095
:100360000042024BDA6202B0BDE8F08100ED00E02D
:10037000287C000800BEFEE71EF0040F0CBFEFF360
:100380000880EFF309807146244A10472DE9F041B7
:1003900082B004468846084B5E6B9F6B9D6A074897
:1003A00001F0BCFACDF800803B4632462946204693
:1003B00001F020FB00BEFEE700ED00E0387C000805
:1003C0001EF0040F0CBFEFF30880EFF309807146B5
:1003D000134A10472DE9F04182B004468846084B85
:1003E0005E6B9F6B9D6A074801F098FACDF800801C
:1003F0003B4632462946204601F0FCFA00BEFEE7A5
:1004000000ED00E0447C000800BEFEE700BEFEE711
:1004100000BEFEE770470000170300088D030008C8
:08042000D503000800BEFEE751
:10042800548F00080000002008010020548F0008A5
:10043800000000000000000008010020DC07002088
:080448000000000000000000AC
:1004500010B50446B0F5E06F0FD0B0F5C06F0CD00A
:10046000B0F5A06F09D0B0F5806F06D0B0F5407F31
:1004700003D06321044801F047FA44F0BF6444F418
:100480000034024BDC6010BDA879000800ED00E0EC
:1004900010B50446C378012B03D97521204801F01B
:1004A00033FA63780F2B10D8A3780F2B12D8E37888
:1004B000ABB923785A0903F01F03012101FA03F3B2
:1004C0002032184941F8223010BD7621144801F03D
:1004D0001BFAE9E77721124801F016FAE7E7124B19
:1004E000DA68D243C2F30222C2F104000F2121FADA
:1004F00002F263788340A1780A4013431B012278FB
:10050000DBB208490A4482F800332378580903F023
:100510001F03012202FA03F341F8203010BD00BF8F
:10052000A879000800E100E000ED00E0034B044A78
:100530005A6002F188325A60704700BF00200240C2
:1005400023016745024A136943F080031361704732
:10055000002002400B4BDB6813F0010F0DD1094B5B
:10056000DB6813F0040F01D002207047054BDB68F5
:1005700013F0100F03D003207047012070470420B0
:10058000704700BF0020024010B50446FFF7E2FFAD
:1005900002E0FFF7DFFF013C012801D1002CF8D178
:1005A00004B9052010BD000038B5044600F17842BA
:1005B000124B9A4206D84FF43020FFF7E5FF04288B
:1005C00006D038BD40F2A7110D4801F09DF9F2E7C1
:1005D0000C4D2B6943F002032B616C612B6943F0D6
:1005E00040032B614FF43020FFF7CEFF2B6923F03F
:1005F0000203DB04DB0C2B61E3E700BFFEFF0F000F
:10060000D07900080020024070B504460D4600F184
:100610007842104B9A4206D84FF40050FFF7B4FFCF
:10062000042806D070BD4FF45D710B4801F06CF9E1
:10063000F2E70A4E336943F00103336125804FF43A
:100640000050FFF7A1FF336923F00103DB04DB0C4B
:100650003361E7E7FEFF0F00D07900080020024079
:10066000F8B505460C46484B98421BD003F580630D
:10067000984217D003F58063984213D003F5806346
:1006800098420FD003F5806398420BD003F5806346
:10069000984207D003F58063984203D0B2213B48CB
:1006A00001F032F9E3788BB1042B0FD0282B0DD059
:1006B000482B0BD0142B09D0102B07D01C2B05D0A6
:1006C000182B03D0B321314801F01EF9238893B1D0
:1006D000E37803F00F06304613F0100F06D0A3782E
:1006E000013BDBB2022B0BD8A0783043237833B325
:1006F0002E6800230BE0B421244801F005F9E7E758
:10070000BB21224801F000F9EEE76A610133072BB3
:1007100014D801229A40218832EA0101F6D19900C9
:100720000F278F4026EA070600FA01F10E43E17811
:100730002829EAD04829E9D12A61E7E72E602388F1
:10074000FF2B20D96E68002302E06A6115E00133B7
:10075000072B17D803F1080101228A40218832EAC9
:100760000101F4D199000F278F4026EA070600FA0D
:1007700001F10E43E1782829E7D0E1784829E6D154
:100780002A61E4E76E60F8BD00080140047A0008C1
:1007900038B504460D462A4B98421CD003F58063B9
:1007A000984218D003F58063984214D003F5806313
:1007B000984210D003F5806398420CD003F5806313
:1007C000984208D003F58063984204D04FF48F71AB
:1007D0001C4801F099F86B1E9BB2012B28D9042DFF
:1007E00026D0082D24D0102D22D0202D20D0402D11
:1007F0001ED0802D1CD0B5F5807F19D0B5F5007FB7
:1008000016D0B5F5806F13D0B5F5006F10D0B5F5E3
:10081000805F0DD0B5F5005F0AD0B5F5804F07D0E9
:10082000B5F5004F04D040F21F11064801F06CF8F6
:10083000A3681D4201D1002038BD012038BD00BF92
:1008400000080140047A000838B504460D46144BF0
:1008500098421CD003F58063984218D003F580635A
:10086000984214D003F58063984210D003F580635A
:1008700098420CD003F58063984208D003F580635A
:10088000984204D04FF4B571064801F03DF80DB11F
:10089000256138BD40F26B11024801F035F8F7E7E9
:1008A00000080140047A000838B504460D46144B90
:1008B00098421CD003F58063984218D003F58063FA
:1008C000984214D003F58063984210D003F58063FA
:1008D00098420CD003F58063984208D003F58063FA
:1008E000984204D04FF4BD71064801F00DF80DB1E7
:1008F000656138BD40F27B11024801F005F8F7E769
:1009000000080140047A00080D4B1A6842F0010209
:100910001A6059680B4A0A405A601A6822F08472B9
:1009200022F480321A601A6822F480221A605A680F
:1009300022F4FE025A604FF41F029A60704700BF13
:10094000001002400000FFF810B5044650B1B0F5A9
:10095000803F07D0B0F5802F04D040F211110F482E
:1009600000F0D2FF0E4B1A6822F480321A601A6827
:1009700022F480221A60B4F5803F03D0B4F5802FB2
:1009800006D010BD064A136843F48033136010BDCF
:10099000034A136843F4A023136010BD387A00089B
:1009A0000010024038B50C46054650B1B0F5803F06
:1009B00007D0B0F5403F04D040F27F111D4800F051
:1009C000A3FF74B3B4F5802F2BD0B4F5002F28D03B
:1009D000B4F5402F25D0B4F5801F22D0B4F5A01F68
:1009E0001FD0B4F5C01F1CD0B4F5E01F19D0B4F56A
:1009F000001F16D0B4F5101F13D0B4F5201F10D06F
:100A0000B4F5301F0DD0B4F5401F0AD0B4F5501F17
:100A100007D0B4F5601F04D04FF4C071054800F052
:100A200073FF054B596821F47C112C432143596015
:100A300038BD00BF387A00080010024010B50446E7
:100A4000012804D94FF4CA71024800F05DFF024B3F
:100A50001C6010BD387A00086000424210B50446A0
:100A6000022806D8064A536823F003031C43546047
:100A700010BD4FF40E71034800F046FFF2E700BFCF
:100A800000100240387A0008024B586800F00C0051
:100A9000704700BF0010024010B50446A0B1802886
:100AA00012D0902810D0A0280ED0B0280CD0C0288A
:100AB0000AD0D02808D0E02806D0F02804D04FF47F
:100AC0001971054800F020FF044A536823F0F00331
:100AD0001C43546010BD00BF387A0008001002406B
:100AE00010B5044680B1B0F5806F0DD0B0F5A06FA1
:100AF0000AD0B0F5C06F07D0B0F5E06F04D040F277
:100B00007E21054800F000FF044A536823F4E063A7
:100B10001C43546010BD00BF387A0008001002402A
:100B200010B5044680B1B0F5806F0DD0B0F5A06F60
:100B30000AD0B0F5C06F07D0B0F5E06F04D04FF425
:100B40002671054800F0E0FE044B586820F4605020
:100B500040EAC400586010BD387A00080010024016
:100B600010B4294B5B6803F00C03042B2BD0082B2B
:100B70002CD013B1254B036001E0244B03602249C4
:100B80004B68C3F30313224CE35CDAB20368D3402F
:100B900043604A68C2F30222A25CD2B223FA02F294
:100BA00082604A68C2F3C222A25CD2B2D340C36060
:100BB0004A68C2F3813217498A5CD2B2B3FBF2F3BE
:100BC000036110BC7047114B0360D8E70E4A5368AD
:100BD0005268C3F38343023312F4803F09D00A4AB8
:100BE000526812F4003F09D00B4A02FB03F3036082
:100BF000C5E7094A02FB03F30360C0E7034A02FBAF
:100C000003F30360BBE700BF0010024000127A004C
:100C1000080000200400002000093D0038B504460B
:100C20000D460E4B034003B920B940F24A410C482F
:100C300000F06AFE012D04D940F24B41084800F053
:100C400063FE2DB9074A936923EA0404946138BD11
:100C5000044B9A6914439C6138BD00BF0200C0FF79
:100C6000387A00080010024038B504460D460E4B95
:100C7000184200D120B940F269410C4800F044FE0E
:100C8000012D04D940F26A41084800F03DFE2DB91B
:100C9000074AD36923EA0404D46138BD044BDA69F6
:100CA0001443DC6138BD00BF00360181387A00088A
:100CB0000010024010B50446212818D0312816D063
:100CC000392814D0412812D0612810D07A280ED0AB
:100CD0007B280CD07C280AD07D2808D07E2806D01E
:100CE0007F2804D040F234510D4800F00DFE630916
:100CF000012B0CD0022B0DD00A4B5B6A04F01F04B1
:100D000023FA04F414F0010F07D1002010BD054BA5
:100D10001B68F3E7034B1B6AF0E7012010BD00BF1F
:100D2000387A00080010024000B583B00023019318
:100D30003120FFF7BFFF019B01330193019BB3F506
:100D4000A06F01D00028F3D03120FFF7B3FF18B90E
:100D5000002003B05DF804FB0120FAE738B5044633
:100D60000D46524B984242D0B0F1804F3FD0A3F590
:100D7000943398423BD003F58063984237D003F513
:100D80008063984233D003F5806398422FD003F5F7
:100D9000806398422BD003F59033984227D003F517
:100DA000C053984223D003F5806398421FD003F5C7
:100DB000806398421BD0A3F59E33984217D003F569
:100DC0008063984213D003F5806398420FD003F5F7
:100DD000903398420BD003F58063984207D003F517
:100DE0008063984203D0E721314800F08DFD6B8885
:100DF0005BB1102B09D0202B07D0402B05D0602BE6
:100E000003D0E8212A4800F07FFDEB884BB1B3F511
:100E1000807F06D0B3F5007F03D0E921244800F09D
:100E200073FD23889BB2214A944212D002F50062DE
:100E300094420ED0B4F1804F0BD0A2F59832944278
:100E400007D002F58062944203D002F5806294429A
:100E500003D123F070036A881343164A944208D0E2
:100E600002F58062944204D023F440739BB2EA8876
:100E700013432380AB88A3852B8823850B4B9C428F
:100E80000FD003F500639C420BD003F540639C42F6
:100E900007D003F580639C4203D003F580639C4236
:100EA00001D12B7A23860123A38238BD002C014077
:100EB000687A00080010004038B504460D462E4BF5
:100EC000984243D0B0F1804F40D0A3F5943398427C
:100ED0003CD003F58063984238D003F58063984294
:100EE00034D003F58063984230D003F58063984294
:100EF0002CD003F59033984228D003F5C053984284
:100F000024D003F58063984220D003F58063984293
:100F10001CD0A3F59E33984218D003F58063984205
:100F200014D003F58063984210D003F590339842B3
:100F30000CD003F58063984208D003F58063984293
:100F400004D040F229310D4800F0DEFC012D04D917
:100F500040F22A31094800F0D7FC35B923889BB20A
:100F600023F001039BB2238038BD23889BB243F05A
:100F70000103238038BD00BF002C0140687A0008BF
:100F800070B504460D461646314B984243D0B0F139
:100F9000804F40D0A3F5943398423CD003F5806352
:100FA000984238D003F58063984234D003F58063CB
:100FB000984230D003F5806398422CD003F59033EB
:100FC000984228D003F5C053984224D003F580639B
:100FD000984220D003F5806398421CD0A3F59E333D
:100FE000984218D003F58063984214D003F58063CB
:100FF000984210D003F5903398420CD003F58063EB
:10100000984208D003F58063984204D040F26B31D7
:10101000104800F079FC15F47F4F00D125B94FF44A
:101020005B710C4800F070FC012E04D940F26D3168
:10103000084800F069FC2EB9A389ED43ADB21D400C
:10104000A58170BDA3899BB21D43A58170BD00BF62
:10105000002C0140687A000838B504460D462A4B3A
:10106000984243D0B0F1804F40D0A3F594339842DA
:101070003CD003F58063984238D003F580639842F2
:1010800034D003F58063984230D003F580639842F2
:101090002CD003F59033984228D003F5C0539842E2
:1010A00024D003F58063984220D003F580639842F2
:1010B0001CD0A3F59E33984218D003F58063984264
:1010C00014D003F58063984210D003F59033984212
:1010D0000CD003F58063984208D003F580639842F2
:1010E00004D040F63621094800F00EFC15F4614F9B
:1010F00000D125B940F63721044800F005FCED4346
:10110000ADB2258238BD00BF002C0140687A0008CE
:1011100038B504460D46344B984243D0B0F1804F69
:1011200040D0A3F5943398423CD003F580639842B5
:1011300038D003F58063984234D003F58063984239
:1011400030D003F5806398422CD003F59033984259
:1011500028D003F5C053984224D003F58063984209
:1011600020D003F5806398421CD0A3F59E339842AB
:1011700018D003F58063984214D003F58063984239
:1011800010D003F5903398420CD003F58063984259
:1011900008D003F58063984204D040F658211348E4
:1011A00000F0B2FB6B1E9BB2012B10D9042D0ED0A8
:1011B000082D0CD0102D0AD0202D08D0402D06D09F
:1011C000802D04D040F65921084800F09DFB228A6A
:1011D000A3892B40154202D01BB9002038BD002046
:1011E00038BD012038BD00BF002C0140687A0008DE
:1011F00038B504460D462A4B984243D0B0F1804F93
:1012000040D0A3F5943398423CD003F580639842D4
:1012100038D003F58063984234D003F58063984258
:1012200030D003F5806398422CD003F59033984278
:1012300028D003F5C053984224D003F58063984228
:1012400020D003F5806398421CD0A3F59E339842CA
:1012500018D003F58063984214D003F58063984258
:1012600010D003F5903398420CD003F58063984278
:1012700008D003F58063984204D040F682210948E3
:1012800000F042FB15F47F4F00D125B940F68321D1
:10129000044800F039FBED43ADB2258238BD00BFF4
:1012A000002C0140687A000830B587B004460D462E
:1012B000654B984213D0A3F5744398420FD003F5C1
:1012C000806398420BD003F58063984207D003F502
:1012D0008063984203D0B8215C4800F015FB2B686E
:1012E000013B5B4A934200F29480AB8833B1B3F583
:1012F000805F03D0BA21554800F006FBEB8863B14C
:10130000B3F5805F09D0B3F5005F06D0B3F5405F59
:1013100003D0BB214D4800F0F7FA2B894BB1B3F550
:10132000806F06D0B3F5C06F03D0BC21474800F0F2
:10133000EBFA6A8922F00C039BB203B91AB9BD21FA
:10134000424800F0E1FAAB8963B1B3F5807F09D080
:10135000B3F5007F06D0B3F5407F03D0BE213B48F4
:1013600000F0D2FAAB8973B1374B9C420BD0A3F596
:1013700074439C4207D003F580639C4203D0C22192
:10138000324800F0C1FA238A9BB2EA8823F4405322
:1013900013432382A3899BB2A98828896A890143C0
:1013A0000A4323F4B05323F00C031343A381A38A0D
:1013B0009BB2AA8923F440731343A38201A8FFF7C9
:1013C000CFFB214B9C4229D0039BA28912F4004FF2
:1013D00026D103EB830303EB830329688900B3FB66
:1013E000F1F11C4BA3FB012358090501642300FB09
:1013F0001313A28912F4004F1BD11B013233154A7B
:10140000A2FB0323C3F343132B439BB2238107B0F7
:1014100030BDB9210D4800F077FA66E7049BD4E7A8
:1014200003EB830303EB830329684900B3FBF1F16A
:10143000D7E7D9003231074AA2FB0131C1F342128A
:1014400045EA0203E1E700BF00380140987A00084E
:101450001FAA44001F85EB5138B504460D46164BB4
:10146000984214D0A3F57443984210D003F58063DA
:1014700098420CD003F58063984208D003F580634E
:10148000984204D04FF4B1710C4800F03DFA012DA0
:1014900004D940F26311094800F036FA35B9A3893E
:1014A0009BB223F400539BB2A38138BDA3899BB2A6
:1014B00043F40053A38138BD00380140987A0008F6
:1014C00070B504460D461646374B984214D0A3F526
:1014D0007443984210D003F5806398420CD003F512
:1014E0008063984208D003F58063984204D040F2AC
:1014F00089112E4800F008FA282D1ED040F22773DB
:101500009D421AD040F226639D4216D040F22553E8
:101510009D4212D040F224439D420ED040F6460335
:101520009D420AD040F66A139D4206D0602D04D039
:101530004FF4C5711D4800F0E7F9012E04D940F2BF
:101540008B111A4800F0E0F940F66A139D4211D061
:10155000C5F3421205F01F05012303FA05F59A426F
:1015600019D0022A19D01434CEB9236823EA05050C
:10157000256070BD0C4B9C42EAD0A3F574439C429D
:10158000E6D003F580639C42E2D040F28F11074819
:1015900000F0BAF9DCE70C34E6E71034E4E723683E
:1015A0001D43256070BD00BF00380140987A0008D7
:1015B00038B504460D46124B984214D0A3F5744337
:1015C000984210D003F5806398420CD003F58063F5
:1015D000984208D003F58063984204D040F25F211E
:1015E000084800F091F9B5F5007F03D2C5F308056E
:1015F000A58038BD4FF41871024800F085F9F5E771
:1016000000380140987A000810B504460D4B984206
:1016100014D0A3F57443984210D003F58063984228
:101620000CD003F58063984208D003F5806398429C
:1016300004D04FF41C71044800F066F9A088C0F390
:10164000080010BD00380140987A000838B50546FA
:101650000C46274B984214D0A3F57443984210D0FF
:1016600003F5806398420CD003F58063984208D05C
:1016700003F58063984204D040F286311D4800F0A3
:1016800043F9012C18D0802C16D0402C14D0202CDB
:1016900012D0102C10D0B4F5807F0DD0B4F5007F9F
:1016A0000AD0082C08D0042C06D0022C04D040F21A
:1016B0008731104800F028F9B4F5007F04D02B885A
:1016C0001C4212D1002038BD094B9D42F7D0A3F532
:1016D00074439D42F3D003F580639D42EFD040F206
:1016E0008B31044800F010F9E9E7012038BD00BF54
:1016F00000380140987A000838B505460C463C4B46
:10170000984214D0A3F57443984210D003F5806337
:1017100098420CD003F58063984208D003F58063AB
:10172000984204D040F2D931324800F0EDF8282C2C
:1017300025D040F227739C4221D040F226639C4280
:101740001DD040F225539C4219D040F224439C42C4
:1017500015D040F646039C4211D040F66A139C42D5
:101760000DD0B4F5587F0AD0B4F5187F07D0B4F582
:10177000B07F04D040F2DA311E4800F0C5F840F6E0
:101780006A139C4217D0C4F3421204F01F010123D4
:101790008B40012A20D0022A22D0AA8A92B213407A
:1017A000240A012202FA04F42A8892B21440DBB11E
:1017B000E4B9002038BD0E4B9D42E4D0A3F574433C
:1017C0009D42E0D003F580639D42DCD040F2DE31E3
:1017D000084800F099F8D6E7AA8992B21340DFE7EB
:1017E0002A8A92B21340DBE7002038BD012038BDC1
:1017F00000380140987A000838B505460C46254B5C
:10180000984214D0A3F57443984210D003F5806336
:1018100098420CD003F58063984208D003F58063AA
:10182000984204D040F222411B4800F06DF840F28B
:1018300026639C4210D040F225539C420CD040F6C7
:1018400046039C4208D040F66A139C4204D040F202
:101850002341114800F058F840F66A139C4207D023
:10186000240A0123A3409BB2DB439BB22B8038BDEB
:10187000084B9D42F4D0A3F574439D42F0D003F58C
:1018800080639D42ECD040F22741034800F03CF8D1
:10189000E6E700BF00380140987A0008FEE7000044
:1018A00008B5034800F052F80120FFF7F7FF00BF2A
:1018B000CC7A000808B503460C4A12685AB10B4AA4
:1018C0001068033323F003030344094A934206D804
:1018D000064A136008BD0749044A1160EFE705F0A6
:1018E000F9FB0C2303604FF0FF3008BD0C01002012
:1018F00000BC0020DC07002001230360014B0B60CB
:10190000704700BF1800002008B50A46014602488B
:1019100000F004F8FFF7C4FFE07A00080FB400B548
:1019200083B004AB53F8042B01938021064805F0E3
:1019300025FC002803DD0146034800F047F803B00A
:101940005DF804EB04B070471401002010B50446A4
:1019500005F0CEFB0146204600F038F80121024890
:1019600000F034F810BD00BF048D00082DE9F043ED
:1019700085B004460F4643560BB10E461EE00425C3
:1019800028462146ABBE0446384605B0BDE8F08384
:1019900014F9011B04AA1A4402F8101C0133AB42CB
:1019A000F6D304AA1344002203F8102CE9464FF0A2
:1019B000040840464946ABBE8046761B002EE3D065
:1019C0003546102E28BF10250023E8E708B5FFF79D
:1019D000CDFF08BD08B500F0FDF8024B024A9A6041
:1019E00008BD00BF00ED00E00000000808B500F0F1
:1019F00019F908BDF8B504460D4617461E46274896
:101A0000FFF78CFF21682648FFF788FF61682548AB
:101A1000FFF784FFA1682448FFF780FFE1682348AF
:101A2000FFF77CFF21692248FFF778FF61692148B1
:101A3000FFF774FFA1692048FFF770FFE1691F48B5
:101A4000FFF76CFF1E48FFF769FF29461D48FFF7A7
:101A500065FF1D4CE16A1D48FFF760FF216B1C48C4
:101A6000FFF75CFFE16B1B48FFF758FF15F0800F95
:101A70000AD115F4004F0CD11748FFF74FFF069914
:101A80001648FFF74BFFF8BD39461548FFF746FFEC
:101A9000EFE731461348FFF741FFEDE70C7B000805
:101AA0001C7B00082C7B00083C7B00084C7B00085A
:101AB0005C7B00086C7B00087C7B00088C7B00084A
:101AC0009C7B0008A87B000800ED00E0B87B0008C4
:101AD000C87B0008D87B0008087C0008107C000840
:101AE000E87B0008F87B000883691A888A4201D0E5
:101AF000002070470268033A012A03D80233836149
:101B0000012070470020704782B0002301930093AA
:101B10002C4A136843F4803313602A4B1B6803F488
:101B200000330093019B01330193009B1BB9019B80
:101B3000B3F5A06FF1D1234B1B6813F4003F06D01F
:101B400001230093009B012B04D002B070470023B7
:101B50000093F7E71C4B1A6842F010021A601A68EB
:101B600022F003021A601A6842F002021A60A3F51A
:101B700080535A685A605A685A605A6842F48062C0
:101B80005A605A6822F47C125A605A6842F4E81289
:101B90005A601A6842F080721A600A4B1B6813F090
:101BA000007FFAD0074B5A6822F003025A605A6845
:101BB00042F002025A60034B5B6803F00C03082BEF
:101BC000F9D1C2E7001002400020024008B5FFF73B
:101BD0009BFF08BD08B5104B1A6842F001021A605D
:101BE00059680E4A0A405A601A6822F0847222F438
:101BF00080321A601A6822F480221A605A6822F42D
:101C0000FE025A604FF41F029A60FFF7DFFF4FF0A9
:101C10000062034B9A6008BD001002400000FFF80C
:101C200000ED00E01F4B5B6803F00C03042B15D0A4
:101C3000082B17D01BB11C4A1C4B1A6002E01A4A31
:101C40001A4B1A60174B5B68C3F30313184AD35C33
:101C5000DAB216490B68D3400B607047124A134B37
:101C60001A60EFE70F4A53685268C3F383430233A5
:101C700012F4803F0AD00B4A526812F4003F0BD096
:101C80000C4A02FB03F3094A1360DBE7094A02FB33
:101C900003F3064A1360D5E7034A02FB03F3034A42
:101CA0001360CFE70010024000127A0030000020DD
:101CB0002000002000093D000146002302E0002230
:101CC000CA5401335F2BFAD960230B6600204866A3
:101CD0008866C866086770470131814201D00846AE
:101CE00070470021FBE738B50446456E006E85421B
:101CF00009DA0B46A16E6354FFF7EEFFA0660135CB
:101D00006566002038BD4FF0FF3038BDF8B5456E30
:101D1000002D0EDD0F460446C66E3146006EFFF7FD
:101D2000DBFFE066013D6566F6B2A35D3B70002017
:101D3000F8BD6FF00100F8BD2DE9F04D82B083468B
:101D40008846924600260027CDE90067002514E06A
:101D5000EC000BEB0403D3E90023DDE9000104F000
:101D60004DFDCDE900014444D4E900233046394615
:101D700004F044FD06460F4601355545E8D350466C
:101D800004F078FE04460D4602460B46DDE90001EC
:101D900005F010F8074BC3E9000122462B463046F8
:101DA000394605F007F8044BC3E9000102B0BDE86D
:101DB000F08D00BF98010020A00100202DE9F04720
:101DC000814688461746002546E0EC0009EB0406EC
:101DD0004444D4E90023D6E9000104F0C1FEDFF851
:101DE000A4A002460B46DAE9000104F007FDCAE9A7
:101DF0000001DFF888A0D6E90023DAE9000104F049
:101E0000FDFCCAE90001DFF880A0D4E90023DAE98B
:101E1000000104F0F3FCCAE90001D6E90001024622
:101E20000B4604F09DFE134E02460B46D6E9000118
:101E300004F0E4FCC6E90001D4E9000102460B46C7
:101E400004F08EFE0C4C02460B46D4E9000104F06F
:101E5000D5FCC4E900010135BD42B6D3074BD3E937
:101E6000000102460B4604F07BFE054BC3E900016E
:101E7000BDE8F087C8010020E8010020C001002073
:101E8000D0010020D8010020E00100202DE9F04F12
:101E900087B00390894617461E46FFF78FFF3846E6
:101EA00004F0E8FDCDE900013D4DD5E9002304F043
:101EB00057FECDE90401DFF804B1DFF804A1DAE947
:101EC0000023DBE9000104F04BFE02460B46DDE98E
:101ED000040104F091FCCDE90401324CD4E9002363
:101EE000DDE9000104F03CFEDFF8D880D8E90023EA
:101EF00004F082FC02460B46DDE9040104F05AFFBF
:101F0000C6E900013A4649460398FFF715FF264FF8
:101F1000D7E90023D6E9000104F022FE234E024651
:101F20000B46D6E9000104F067FC109BC3E90001F1
:101F3000D5E900231046194604F012FECDE9000150
:101F4000DFF88490D9E90023D4E9000104F008FE09
:101F500002460B46DDE9000104F02CFF119BC3E9AA
:101F6000000100220023C5E90023CBE90023CAE9D0
:101F70000023C4E90023C9E90023C8E90023C7E915
:101F80000023C6E900230A49C1E900230949C1E940
:101F900000230949C1E9002307B0BDE8F08F00BF65
:101FA000D8010020C801002098010020A0010020D5
:101FB000A8010020B0010020B8010020C0010020CD
:101FC000E0010020D0010020E801002038B5D0E970
:101FD00000450022154B2046294605F033F808BB82
:101FE0000022124B2046294605F04AF840B1002253
:101FF0000F4B2046294605F025F808B1022038BDD0
:1020000000220B4B2046294605F03AF808B9042077
:1020100038BD0022074B2046294605F013F818B9B1
:10202000042038BD012038BD032038BD0000244005
:102030000000594000408F402DE9F04F89B0044620
:10204000B14B1A680092D3F80490B04B1968029112
:10205000D3F80480AE4B196803915F68AD4B1968E3
:1020600004915E68AC4B196805915D68AB4B1968CB
:102070000691D3F804A0AA4B196807915B680193F5
:1020800059230380002200230098494604F0DAFF18
:10209000002840F00E8100236380DDF800B0584630
:1020A000494604F0F7FF04F0E5FC02460B46CDF884
:1020B00000B05846494604F09FFB91A3D3E90023A2
:1020C00004F04EFD04F0E6FF1FFA80FB009849463D
:1020D00004F0E0FFA080A4F806B0002200230298DC
:1020E000414604F0AFFF002840F0E8800023238140
:1020F000DDF808B05846414604F0CCFF04F0BAFCC5
:1021000002460B465846414604F076FB7CA3D3E9D1
:10211000002304F025FD04F0BDFF1FFA80F95846A6
:10212000414604F0B7FF6081A4F80C900022002320
:102130000398394604F086FF002840F0C48000234D
:10214000E381DDF80C904846394604F0A3FF04F023
:1021500091FC02460B464846394604F04DFB68A305
:10216000D3E9002304F0FCFC04F094FF1FFA80F88C
:102170004846394604F08EFF2082A4F812800022DF
:1021800000230498314604F05DFF002840F0A08051
:102190000023A382DDF810804046314604F07AFF28
:1021A00004F068FC02460B464046314604F024FB2E
:1021B00053A3D3E9002304F0D3FC04F06BFF87B2F0
:1021C0004046314604F066FFE08227830022002368
:1021D0000598294604F036FF00287ED1002363834A
:1021E000059F3846294604F055FF04F043FC02469B
:1021F0000B463846294604F0FFFA41A3D3E90023F1
:1022000004F0AEFC04F046FF86B23846294604F0DE
:1022100041FFA083E683002200230698514604F084
:1022200011FF00285ED100232384069E30465146CC
:1022300004F030FF04F01EFC02460B4630465146C7
:1022400004F0DAFA2EA3D3E9002304F089FC04F0A9
:1022500021FF85B23046514604F01CFF6084A584FE
:10226000002200230798019904F0ECFE00283ED1DB
:102270000023E384079F3846019E314604F00AFF9D
:1022800004F0F8FB02460B463846314604F0B4FA37
:102290001BA3D3E9002304F063FC04F0FBFE85B22A
:1022A0003846314604F0F6FE2085658509B0BDE864
:1022B000F08F09F1004901236380EEE608F1004840
:1022C0000123238114E707F100470123E38138E765
:1022D00006F100460123A3825CE705F100450123D6
:1022E00063837DE70AF1004A012323849DE7019B74
:1022F00003F1004301930123E384BBE7AFF30080C4
:10230000000000000088C340380600204806002076
:10231000580600203006002040060020500600200D
:102320006006002000000000D0B50446408804F09C
:10233000A1FB06460F46A08804F09CFB7CA3D3E9D2
:10234000002304F037FD02460B462188002940F0A7
:10235000A3803046394604F051FA774BC3E90001B7
:10236000208904F087FB06460F46608904F082FB53
:102370006FA3D3E9002304F01DFD02460B46E1885C
:10238000002940F094803046394604F037FA6B4B10
:10239000C3E90001E08904F06DFB06460F46208A80
:1023A00004F068FB62A3D3E9002304F003FD0246B6
:1023B0000B46A189002940F085803046394604F05B
:1023C0001DFA5F4BC3E90001A08A04F053FB0646E7
:1023D0000F46E08A04F04EFB55A3D3E9002304F036
:1023E000E9FC02460B46618A002976D1304639461F
:1023F00004F004FA534BC3E90001608B04F03AFB8C
:1024000006460F46A08B04F035FB49A3D3E9002311
:1024100004F0D0FC02460B46218B002968D13046DF
:10242000394604F0EBF9484BC3E90001208C04F075
:1024300021FB06460F46608C04F01CFB3CA3D3E94D
:10244000002304F0B7FC02460B46E18B00295AD169
:102450003046394604F0D2F93C4BC3E90001E08C28
:1024600004F008FB06460F46208D04F003FB30A362
:10247000D3E9002304F09EFC02460B46A18C002900
:102480004CD03046394604F0B9F9024601F1004318
:102490002F49C1E90023D0BD3046394604F0AEF9DA
:1024A000024601F100432449C1E9002358E73046C0
:1024B000394604F0A3F9024601F100431F49C1E97E
:1024C000002367E73046394604F098F9024601F1E7
:1024D00000431B49C1E9002376E73046394604F042
:1024E0008DF9024601F100431649C1E9002384E752
:1024F0003046394604F082F9024601F100431249A0
:10250000C1E9002392E73046394604F077F90246E4
:1025100001F100430D49C1E90023A0E730463946E7
:1025200004F06CF90A4BC3E90001D0BDAFF30080A1
:10253000000000000088C340380600204806002044
:1025400058060020300600204006002050060020DB
:102550006006002010B58CB02C22002101A804F0E8
:10256000BFFD01A8FFF768FD162201A9064800F08B
:102570003FF8044610B920460CB010BD5922102176
:10258000024800F0E7FAF6E700400608547C00082D
:1025900000B58DB02C22002101A804F0A1FD162267
:1025A00001A9084800F013F8BDF80430592B03D0F6
:1025B00000200DB05DF804FB0DF10600FFF7B4FE3E
:1025C0000120F6E700400608008880B27047F8B5A1
:1025D00007460E461546002407E007EB4400FFF7C8
:1025E000F3FF26F814000134A4B2AC42F5D3F8BDD1
:1025F000B0F1006F25D3F8B500F17843DB0A03F59D
:102600008033DC0200EB42050F4B9D4201D90020D4
:10261000F8BD16460F460546FDF788FF2046FDF734
:10262000C3FF002407E037F8141005EB4400FDF762
:10263000EBFF0134A4B2A642F5D8FDF783FF0120D9
:10264000F8BD0020704700BFFFFF070810B584B039
:1026500001210846FEF708FB4FF4FA63ADF8083095
:102660004723ADF804300024ADF80A40ADF8064029
:1026700001A94FF08040FEF771FB01214FF080402F
:10268000FEF7EAFC012211464FF08040FEF778FC8D
:1026900001214FF08040FEF70FFC21460120FEF79C
:1026A000E3FA04B010BD00B583B04FF4E060FDF76D
:1026B000CFFE1C238DF8043001238DF805308DF8F2
:1026C00006308DF8073001A8FDF7E2FE03B05DF893
:1026D00004FB08B5FFF7BAFFFFF7E5FF0121084645
:1026E000FEF7C2FA08BD000008B502211648FEF741
:1026F0004FF8B8B9154A136801331360134B1B68C0
:10270000142B04D90023114A1360114A1370114B82
:102710001B68142B05D900220E4B1A6001220C4BAA
:102720001A7008BD04210848FEF732F80028E1D0ED
:1027300008210548FEF72CF80028DBD0054A13686D
:1027400001331360DAE700BF0010014018060020D3
:102750009D0000206806002008B501214FF0804050
:10276000FEF7D6FC00B3204B1B6833B91F4A136831
:1027700001331360B3F5FA7F17D01D4B1B682BB9DB
:102780001C4A136801331360642B15D01A4B1B6865
:10279000012B18D00022194B1A60FFF7A5FF012169
:1027A0004FF08040FEF724FD08BD00220F4B1A6059
:1027B00001220D4B1A60E0E701220D4B1A60002246
:1027C0000C4B1A60E2E70D4B1B680D4A12689342EE
:1027D00003D20133094A1360DFE70022064B1A6077
:1027E0000122084B1A60D8E708020020F0010020FF
:1027F00028060020F401002004020020FC01002033
:10280000F80100200002002030B583B0012104202F
:10281000FEF704FA0425ADF8045018238DF80730AC
:1028200003238DF80630094C0DEB05012046FDF71A
:1028300017FF0823ADF804308DF807500DEB0501A4
:102840002046FDF70DFF03B030BD00BF000801407A
:1028500010B582B001210420FEF7E0F94FF40073B7
:10286000ADF8043018238DF8073003238DF80630B7
:10287000094C01A92046FDF7F3FE4FF48063ADF843
:10288000043004238DF807300DEB03012046FDF7DB
:10289000E7FE02B010BD00BF0008014010B582B0D5
:1028A00001210820FEF7BAF94FF48063ADF8043037
:1028B00018238DF8073003238DF80630094C01A941
:1028C0002046FDF7CDFE4FF40063ADF8043004233D
:1028D0008DF807300DEB03012046FDF7C1FE02B075
:1028E00010BD00BF000C014000B583B04FF4E060A4
:1028F000FDF7AEFD26238DF8043000238DF805305A
:102900008DF8063001238DF8073001A8FDF7C0FDD2
:1029100003B05DF804FB000010B584B0FFF774FF4E
:1029200001214FF40030FEF79FF94FF496530093C6
:102930000023ADF80430ADF806304FF48062ADF8F6
:1029400008200C22ADF80A20ADF80C30094C69467D
:102950002046FEF7A9FC012240F225512046FEF751
:10296000AFFDFFF7C1FF01212046FEF775FD04B062
:1029700010BD00BF0044004000B583B04FF4E060DC
:10298000FDF766FD25238DF8043002238DF8053010
:1029900003238DF8063001238DF8073001A8FDF7D9
:1029A00077FD03B05DF804FB10B584B0FFF750FF6E
:1029B00001214FF48040FEF731F94FF41653009394
:1029C0000023ADF80430ADF80630ADF808300C2225
:1029D000ADF80A20ADF80C30094C69462046FEF7E8
:1029E00063FC012240F225512046FEF769FDFFF706
:1029F000C3FF01212046FEF72FFD04B010BD00BF2C
:102A00000038014000B583B04FF4E060FDF720FDD1
:102A100027238DF8043002238DF8053004238DF828
:102A2000063001238DF8073001A8FDF731FD03B012
:102A30005DF804FB10B584B0FFF730FF01214FF4BF
:102A40008020FEF711F94FF4165300930023ADF8E0
:102A50000430ADF80630ADF808300C22ADF80A208D
:102A6000ADF80C30094C69462046FEF71DFC0122EA
:102A700040F225512046FEF723FDFFF7C3FF012159
:102A80002046FEF7E9FC04B010BD00BF004800403E
:102A900070B506460D4600240AE0315D0648FEF793
:102AA00087FD80210448FEF7D1FD0028F9D00134CC
:102AB000AC42F2D370BD00BF0048004010B582B0F8
:102AC00001211020FEF7AAF84FF48063ADF804301E
:102AD00018238DF8073003238DF80630094C01A91F
:102AE0002046FDF7BDFD4FF40063ADF8043004232C
:102AF0008DF807300DEB03012046FDF7B1FD02B064
:102B000010BD00BF0010014010B584B0FFF7D6FF24
:102B100001214FF40020FEF7A7F84FF4165300935D
:102B20000023ADF80430ADF80630ADF808300C22C3
:102B3000ADF80A20ADF80C30054C69462046FEF78A
:102B4000B3FB01212046FEF787FC04B010BD00BF97
:102B5000004C0040592A00D0704770B50D4606461B
:102B600000240AE0315D0648FEF722FD802104487A
:102B7000FEF76CFD0028F9D00134AC42F2D370BDF1
:102B8000004C00402DE9F04383B0064689461746C5
:102B90001C4600258DF80750ADF804502B46A8467A
:102BA0001BE05A2B3AD19DF8042089F8002089F8BF
:102BB00001304546A04631E09DF8073009F8053060
:102BC00001350023314A1360314A136084BB64220B
:102BD000304B1A602346012B4CD0726E002A3FDD29
:102BE000BD424ED00DF107013046FFF78FF80028A7
:102BF000E7D1002CE0D19DF8073009F8053003F14A
:102C00001002D2B20E2A03D9552B01D0AA2B02D121
:102C10008DF80430A046B8F1010FC2D0013508F19B
:102C20000108182DCDD199F80030552BC9D128E0D5
:102C3000012C05D0022C09D0142C0CD00023CAE79B
:102C40004FF47A72134B1A600023C4E76422114BCD
:102C50001A600023BFE714220E4B1A600023BAE764
:102C6000002BB8D10121094A116000210A4A1160E4
:102C70000133B0E7064A1268012AAED10022044BA4
:102C80001A60284603B0BDE8F08300BF04020020AC
:102C900000020020F8010020FC01002010B540F2E5
:102CA00025510948FEF728FD00B910BD064C40F239
:102CB00025512046FEF7A0FD2046FEF7A5FCC1B237
:102CC0000248FFF710F8F0E70038014060070020E5
:102CD00010B540F225510948FEF70EFD00B910BDB0
:102CE000064C40F225512046FEF786FD2046FEF7B1
:102CF0008BFCC1B20248FEF7F6FFF0E7004400404B
:102D00007806002010B540F225510948FEF7F4FC82
:102D100000B910BD064C40F225512046FEF76CFD6F
:102D20002046FEF771FCC1B20248FEF7DCFFF0E777
:102D300000480040EC06002010B540F2255109483B
:102D4000FEF7DAFC00B910BD064C40F225512046D2
:102D5000FEF752FD2046FEF757FCC1B20248FEF7CF
:102D6000C2FFF0E7004C004060070020034638B186
:102D7000002001E0013001331A78002AFAD17047AF
:102D80000020704770B4002403E06518165D4655B6
:102D900001349C42F9D370BC704700002DE9F84320
:102DA00006460F4690461D469DF8209004F072F9A5
:102DB000012211E0A91A214BA3FB0043DB0803EB1E
:102DC00083035C00031B303308F801301B4BA3FB6B
:102DD0000030C0080132D2B2AA4206D80028E9D198
:102DE000AB1A302108F80310F0E7B9F1000F23D037
:102DF0002E2308F80530012417E00022104B30463E
:102E0000394603F0ADFE06460F4604F043F9291992
:102E10000A4BA3FB0023DB0803EB83035A00831A4E
:102E2000303308F801300134E4B24C45E5D94D4463
:102E30000135002308F80530BDE8F883CDCCCCCCB3
:102E4000000024400B09092B08D83033037001F02F
:102E50000F01092905D937314170704737330370A5
:102E6000F5E73031417070472DE9F04782B0814677
:102E70000D4690460024444504D22B5D2E2B28D0CD
:102E80000134F8E7002600274FF0000A10E015F89B
:102E90000A00303803F0FEFD32463B4603F0AEFC3C
:102EA00000222D4B03F05CFE06460F460AF1010A94
:102EB0005445ECD80022284B3046394603F07AFFBF
:102EC000CDE90001B8EB040A08D001340026002740
:102ED00018E0002600274FF0000AE9E703460C46F9
:102EE000C9E9003433E0285D303803F0D3FD3246C1
:102EF0003B4603F083FC0022174B03F031FE0646ED
:102F00000F4601344445EED30022134B3046394678
:102F100003F050FF04460D4600201049002604E04F
:102F200000220D4B03F01CFE01360AF1FF339E42D6
:102F3000F6D302460B462046294603F03BFF0246E5
:102F40000B46DDE9000103F059FCC9E9000101204D
:102F500002B0BDE8F08700BF000024400000F03F51
:102F600000B583B001210820FDF758FE4FF45073DF
:102F7000ADF8043003238DF8063010238DF80730A8
:102F800001A90348FDF76CFB03B05DF804FB00BF2B
:102F9000000C014000B583B04FF40073ADF804306D
:102FA00003238DF8063010238DF8073001A903485C
:102FB000FDF756FB03B05DF804FB00BF000C0140B9
:102FC00000B583B04FF40073ADF8043003238DF8DF
:102FD000063048238DF8073001A90348FDF740FB70
:102FE00003B05DF804FB00BF000C014010B50B4CB2
:102FF0004FF400712046FDF727FC4FF48071204606
:10300000FDF722FC4FF400712046FDF74DFC4FF414
:1030100080712046FDF748FC10BD00BF000C014048
:1030200010B5084C4FF480712046FDF70DFC4FF4AD
:1030300000712046FDF738FC4FF400712046FDF783
:1030400003FC10BD000C014010B5FFF7B9FF4FF4B1
:1030500080710E48FDF7F8FB42F210735C1E002BE6
:1030600011DD4FF400710948FDF792FB2346044639
:103070000028F3D14FF480710448FDF715FCFFF7E9
:1030800089FF204610BD0124FBE700BF000C014072
:1030900070B50546012383F31088FFF77BFF0024FA
:1030A00013E04FF400711348FDF7CEFB114E4FF4BF
:1030B00080713046FDF7C8FB4FF480713046FDF754
:1030C000F3FB6D00EDB20134E4B2072C0DD84FF4E0
:1030D00080710848FDF7E8FB15F0800FE1D14FF44F
:1030E00000710448FDF7E0FBE0E7002383F310885C
:1030F00070BD00BF000C014010B50446FFF776FF1D
:103100007820FFF7C5FFFFF79FFF68B90020FFF7A2
:10311000BFFFFFF799FF70B159220F210E48FFF74B
:1031200019FD0224204610BD59220F210B48FFF73C
:1031300011FD0124F6E72046FFF7AAFFFFF784FF01
:10314000044630B1592210210548FFF703FD03243E
:10315000E8E7FFF765FFE5E7D4890008C4890008C0
:10316000E4890008F8B506460D46FFF73FFF7820D2
:10317000FFF78EFFFFF768FF90B94020FFF788FF49
:10318000FFF762FF074698B90446AC421ED2305D95
:10319000FFF77EFFFFF758FF88B90134E4B2F4E788
:1031A000592211210B48FFF7D5FC01273846F8BDFD
:1031B00059220F210848FFF7CDFC0227F6E75922D4
:1031C0000F210648FFF7C6FC0327EFE7FFF728FFAC
:1031D000ECE700BFF88900080C8A00081C8A000888
:1031E00010B504465039C8B2FFF786FF200940F0F9
:1031F0001000FFF781FF0120FFF77EFF002010BDC8
:1032000010B500240BE021460020FFF7E9FF8021E4
:10321000044800EBC410FFF7A5FF0134E4B2072C0B
:10322000F1D910BD0C02002008B530B1FF214FF4D8
:103230008062034803F054FF08BD0021F7E700BF98
:103240000C02002008B5064B1B78834206D0044BC5
:1032500018700020FFF7E8FFFFF7D2FF08BD00BF9E
:103260000C06002010B5FFF77BFE324C40212046B3
:10327000FDF71AFB40212046FDF7E6FA59220C2102
:103280002D48FFF767FCAE20FFF736FFD520FFF78C
:1032900033FF8020FFF730FFA820FFF72DFF3F20EE
:1032A000FFF72AFFD320FFF727FF0020FFF724FFB7
:1032B0004020FFF721FF8D20FFF71EFF1420FFF7AE
:1032C0001BFFA120FFF718FFC820FFF715FFDA202A
:1032D000FFF712FF1220FFF70FFF8120FFF70CFF0F
:1032E000CF20FFF709FFD920FFF706FFF120FFF7F6
:1032F00003FFDB20FFF700FF4020FFF7FDFEA420C7
:10330000FFF7FAFEA620FFF7F7FE0020FFF78CFF7D
:10331000FFF776FFAF20FFF7EFFE084B00221A8081
:103320005A8001245C7159220E210548FFF712FCD6
:10333000204610BD000C01402C8A00081006002019
:103340003C8A0008014B1880598070471006002005
:103350007F2815D83F2913D8104B1B7913B1B2FA27
:1033600082F25209012A0CD0CB0800EBC31001F005
:10337000070101238B400A4A115C21EA0301115421
:103380007047CB0800EBC31001F0070101238B400D
:10339000034A115C19431154704700BF1006002006
:1033A0000C0200202DE9F843234B1B880C782344A2
:1033B0007F2B3BDC204B5B884C7823443F2B38DC55
:1033C00090460E46814600251CE01B4B1888598804
:1033D000B8FA88F2520929442044FFF7B9FF0134B2
:1033E00033789C420DD207FA04F313F4004FECD06B
:1033F000114B18885988424629442044FFF7A8FFFA
:10340000EDE701357278954208D27168A9F1200381
:1034100002FB035331F813700024E1E73378064AC6
:1034200011880B4413804846BDE8F8830020BDE8AE
:10343000F8830020BDE8F8831006002070B514461C
:103440001D469DF810601B7803FB00F06B7803FBB2
:1034500001F101310130FFF775FF207840B13246AC
:103460002946FFF79FFF2378984204D10134F4E7FF
:10347000FFF7C6FE2378184670BD00002DE9F04323
:1034800091B0CDE90401CDE9022300240D940E94FE
:10349000ADF83C400A940B94ADF830400794089482
:1034A000ADF824400420FFF7CDFE344E01250095F1
:1034B0003346334A21462046FFF7C0FF0095334686
:1034C000304A29462046FFF7B9FF009533462E4A79
:1034D00002212046FFF7B2FF009533462B4A2146D2
:1034E0000A20FFF7ABFF00953346294A29460A20F8
:1034F000FFF7A4FF00953346264A02210A20FFF772
:103500009DFF10A870E90C89FEF760FD0227009767
:10351000C3B20DAA40464946FFF740FC009533462A
:103520000DAA21460320FFF789FF10A870E90E8934
:10353000FEF74CFD0097C3B20AAA40464946FFF782
:103540002DFC009533460AAA29460320FFF776FF93
:10355000DDE9188918A8FEF739FD0097C3B207AA5C
:1035600040464946FFF71AFC0095334607AA3946FC
:103570000320FFF763FF11B0BDE8F08334000020A3
:10358000208B0008248B0008288B00082C8B000857
:10359000308B00081C8B000830B583B00720FFF784
:1035A00051FE094D012400942B46084A002108468B
:1035B000FFF744FF00942B46054A21460020FFF701
:1035C0003DFF03B030BD00BF34000020B88A0008C2
:1035D000C08A000830B583B00620FFF733FE134DD4
:1035E000012400942B46124A00210846FFF726FFCB
:1035F00000942B460F4A21460020FFF71FFF00943E
:103600002B460D4A02210020FFF718FF00942B469D
:103610000A4A02210A20FFF711FF00942B46084AAC
:1036200002210520FFF70AFF03B030BD340000205F
:10363000CC8A0008D48A0008E08A0008E88A0008DA
:10364000EC8A000830B583B00520FFF7FBFD134D71
:10365000012400942B46124A00210846FFF7EEFE93
:1036600000942B460F4A21460020FFF7E7FE009406
:103670002B460D4A02210020FFF7E0FE00942B4666
:103680000A4A02210A20FFF7D9FE00942B46084A75
:1036900002210520FFF7D2FE03B030BD3400002028
:1036A000988A0008D48A0008E08A0008E88A00089E
:1036B000EC8A000830B583B00320FFF7C3FD0C4D42
:1036C000012400942B460B4A00210846FFF7B6FE62
:1036D00000942B46084A21460020FFF7AFFE0094D5
:1036E0002B46064A02210020FFF7A8FE03B030BD9A
:1036F00034000020FC8A0008088B0008148B0008A6
:1037000030B583B00820FFF79DFD094D01240094DA
:103710002B46084A00210846FFF790FE00942B46EE
:10372000054A21460020FFF789FE03B030BD00BFE7
:10373000340000206C8A0008F08A000830B583B09D
:103740000A20FFF77FFD0C4D012400942B460B4A05
:1037500000210846FFF772FE00942B46084A2146D6
:103760000020FFF76BFE00942B46064A0221002042
:10377000FFF764FE03B030BD34000020588B000812
:10378000648B00086C8B000830B583B00A20FFF70B
:1037900059FD0C4D012400942B460B4A002108468C
:1037A000FFF74CFE00942B46084A21460020FFF705
:1037B00045FE00942B46064A02210020FFF73EFEFC
:1037C00003B030BD34000020588B0008648B000823
:1037D0004C8B000830B583B00B20FFF733FD0C4D48
:1037E000012400942B460B4A00210846FFF726FED1
:1037F00000942B46084A21460020FFF71FFE009444
:103800002B46064A02210020FFF718FE03B030BD08
:1038100034000020348B0008648B0008408B0008C3
:1038200030B583B00C20FFF70DFD0C4D0124009442
:103830002B460B4A00210846FFF700FE00942B465A
:10384000084A21460020FFF7F9FD00942B46064A5E
:1038500002210020FFF7F2FD03B030BD340000204C
:10386000348B0008648B00086C8B000830B583B083
:103870000D20FFF7E7FC0C4D012400942B460B4A6A
:1038800000210846FFF7DAFD00942B46084A21463E
:103890000020FFF7D3FD00942B46064A02210020AA
:1038A000FFF7CCFD03B030BD34000020348B00089E
:1038B000A08A0008AC8A000830B583B00E20FFF75C
:1038C000C1FC0C4D012400942B460B4A00210846F4
:1038D000FFF7B4FD00942B46084A21460020FFF76D
:1038E000ADFD00942B46064A02210020FFF7A6FDFD
:1038F00003B030BD34000020348B0008A08A0008DB
:103900008C8A0008000000002DE9F04391B0CDE959
:103910000401CDE9022300230D930E93ADF83C3052
:103920000A930B93ADF8303007930893ADF8243029
:103930000920FFF787FC049D059C002200232846F0
:10394000214603F07FFB002862D14FF00409029D5D
:10395000039C3FA3D3E900232846214603F072FBD2
:10396000002865D14FF0040810A870E90C67FEF735
:103970002DFB03240094C3B20DAA30463946FFF74D
:103980000DFA10A870E90E67FEF720FB0094C3B291
:103990000AAA30463946FFF701FADDE9186718A888
:1039A000FEF714FB0094C3B207AA30463946FFF76E
:1039B000F5F9294D012400942B46284A0021084698
:1039C000FFF73CFD00942B46254A21460020FFF7D7
:1039D00035FD00942B46234A02210020FFF72EFDDF
:1039E00000942B460DAA00214846FFF727FD0094BE
:1039F0002B460AAA21464046FFF720FD00942B469D
:103A000007AA02210420FFF719FD11B0BDE8F083D9
:103A10002A4604F10043CDE90423012300930E4B11
:103A2000114A00210846FFF709FD4FF005098EE70E
:103A30002A4604F10043CDE9022301210091064BFF
:103A4000094A0420FFF7FAFC4FF005088CE700BF95
:103A5000F168E388B5F8E43E34000020548A000899
:103A60005C8A0008648A0008508A000810B584B097
:103A700004460023ADF80C308DF80E3064281AD0BF
:103A8000092C21D9164BA3FB0423DB0803F13002D8
:103A90008DF80C2003EB83035A00A21A30328DF804
:103AA0000D20012300930F4B03AA02210520FFF7ED
:103AB000C5FC04B010BD012300930A4B0A4A022141
:103AC0000520FFF7BBFCDBE7303404AA02F8044D05
:103AD00001230093034B02210520FFF7AFFCE8E729
:103AE000CDCCCCCC340000204C8A000808B5FCF7C3
:103AF0000BFF4FF48030FCF727FFFDF715F9124B51
:103B00001870A8B94FF4E0114FF48030FCF74AFF69
:103B10000120FCF793FF3920FDF7CCF80028FAD0FC
:103B20000220FCF79BFFFCF7AFFF0828FBD108BD84
:103B30000020FCF7B1FF0020FCF7F2FF4FF480609B
:103B4000FCF7CEFFDEE700BFD407002000B583B04E
:103B5000ADF8041003238DF8063010238DF80730DC
:103B600001A9FCF77DFD03B05DF804FB70B50121F0
:103B70000420FDF753F801210820FDF74FF801213B
:103B80001020FDF74BF8244C4FF480712046FFF7CE
:103B9000DDFF224E80213046FFF7D8FF402130461E
:103BA000FFF7D4FF1E4D4FF400412846FFF7CEFF2C
:103BB0004FF480412846FFF7C9FF4FF400512846D3
:103BC000FFF7C4FF4FF480512846FFF7BFFF0221E3
:103BD0002846FFF7BBFF01212846FFF7B7FF20214A
:103BE0003046FFF7B3FF10213046FFF7AFFF8021CB
:103BF0002046FFF7ABFF40212046FFF7A7FF20211B
:103C00002046FFF7A3FF10212046FFF79FFF022168
:103C10002046FFF79BFF70BD0008014000100140E7
:103C2000000C014070B582B001211020FCF7F6FFB6
:103C30000123ADF8043003258DF8065010238DF8CC
:103C40000730154C01A92046FCF70AFD0223ADF808
:103C500004308DF8065048268DF8076001A92046EB
:103C6000FCF7FEFC0423ADF804308DF806508DF807
:103C700007600DEB03012046FCF7F2FC0823ADF8CA
:103C800004308DF806508DF8076001A92046FCF736
:103C9000E7FC02B070BD00BF0010014010B4C47D4D
:103CA000182902D0002010BC70470378552B01D092
:103CB0001846F8E7037D03F070026F2A02DD022345
:103CC000002204E01846EEE7C15C0A440133162BDB
:103CD000FAD9D2B2944201D00020E4E70120E2E711
:103CE0002DE9F04F8BB080460F461646002407940E
:103CF0000894ADF8244004940594ADF8184001945C
:103D00000294ADF80C4069238DF8033076238DF8CA
:103D1000023070238DF80130A1462546022D3CD893
:103D20007548FDF7C9FF7548FDF7C6FF01210DF184
:103D30000300FEF7ADFE0022714B1A6064230A22D5
:103D400001A96E48FEF71EFF044602280FD86C4BEF
:103D50001B68012BF2D109F101095FFA89F9B9F168
:103D6000020F00F2BB800022654B1A60E6E7592281
:103D70000C216448FEF7EEFE5922214601A8FEF709
:103D8000E9FE592202216048FEF7E4FE2CB9022D1B
:103D900000F0A9800135EDB2C0E74FF00009CA4636
:103DA0004D46BAF1020F3FD85348FDF785FF012178
:103DB0000DF10200FEF76CFE0022514B1A606423E5
:103DC0000A2204A94D48FEF7DDFE054602280ED85A
:103DD0004B4B1B68012BF2D109F101095FFA89F9FC
:103DE000B9F1020F7CD80022454B1A60E7E759224F
:103DF000014604A8FEF7AEFE59220C214348FEF707
:103E0000A9FE5922294604A8FEF7A4FE5922022140
:103E10003D48FEF79FFE3DB9BAF1020F62D00AF1AC
:103E2000010A5FFA8AFABCE74FF0000AD346D1468E
:103E3000BBF1020F41D83048FDF73EFF01210DEBE9
:103E40000100FEF725FE00222D4B1A6064230A2292
:103E500007A92A48FEF796FE814602280ED8284B6D
:103E60001B68012BF2D10AF1010A5FFA8AFABAF152
:103E7000020F3CD80022224B1A60E7E75922014684
:103E800007A8FEF767FE59220C212148FEF762FEC3
:103E90005922494607A8FEF75DFE592202211A4819
:103EA000FEF758FEB9F1000F07D1BBF1020F20D089
:103EB0000BF1010B5FFA8BFBBAE74A4607A94046B4
:103EC000FEF7D2FF2A4604A93846FEF7CDFF224668
:103ED00001A93046FEF7C8FF012404E0002402E0F7
:103EE000002400E02C4620460BB0BDE8F08F0024F3
:103EF000F9E74C46F7E700BF60070020EC0600201A
:103F000008020020288C0008348E0008388C000835
:103F1000488C00082DE9F04F83B0834692469946BD
:103F2000FFF7BCFE012803D0C0B203B0BDE8F08F9C
:103F30009BF80E009BF80F3043EA00239BF810001B
:103F40009BF802209BF8037047EA02229BF804705A
:103F500047EA02279BF808209BF8095045EA02220D
:103F60009BF80A5045EA02259BF811209BF8128025
:103F700048EA02229BF8138048EA02289BF80520B1
:103F80009BF8066046EA02229BF8076046EA022692
:103F90009BF80B209BF80C4044EA02229BF80D4052
:103FA00044EA022440EA032002F064FDCDE9000166
:103FB000404602F05FFD02460B46DDE9000102F0DB
:103FC000F9FECAE90001384602F054FD82468B46EC
:103FD000304602F04FFD02460B465046594602F06D
:103FE000E9FEC9E90001284602F044FD06460F46F5
:103FF000204602F03FFD02460B463046394602F0AD
:10400000D9FE0C9BC3E9000101208EE770B588B092
:1040100016461D4600220023CDE90623CDE90423E0
:10402000CDE9022302AB009304AB06AAFFF772FFAF
:104030000446012802D0204608B070BD134BD3E9D6
:104040000023DDE9060102F08BFD114BD3E90023CB
:1040500002F0D4FBC6E900010E4BD3E90023DDE9F1
:10406000020102F07DFD0C4BD3E9002302F0C6FBF8
:104070000C9BC3E90001094BD3E90023DDE90401EE
:1040800002F0BCFBC5E90001D5E700BF38060020FF
:104090004806002030060020400600206006002070
:1040A00030B595B0002311931293ADF84C30B64B58
:1040B000D3E90023CDE90E23B44BD3E90023CDE9A6
:1040C0000C23B34BD3E90023CDE90A23B14BD3E949
:1040D0000023CDE90823B04BD3E90023CDE9062323
:1040E000AE4BD3E90023CDE90423AD4BD3E9002344
:1040F000CDE9022359220421AA48FEF72BFD0E9D8B
:104100000F9C002200232846214602F0B9FF002818
:1041100000F0F5800EA8FDF759FF04230093C3B209
:1041200011AA28462146FEF739FE5922062111A878
:10413000FEF710FD592202219B48FEF70BFD592284
:1041400004219A48FEF706FD0C9D0D9C00220023D9
:104150002846214602F094FF002800F0E7800CA8D2
:10416000FDF734FF04230093C3B211AA2846214669
:10417000FEF714FE5922062111A8FEF7EBFC592286
:1041800002218948FEF7E6FC592204218848FEF7FF
:10419000E1FC0A9D0B9C002200232846214602F0E8
:1041A0006FFF002800F0D9800AA8FDF70FFF042355
:1041B0000093C3B211AA28462146FEF7EFFD59220B
:1041C000062111A8FEF7C6FC592202217648FEF707
:1041D000C1FC592204217748FEF7BCFC089D099CCC
:1041E000002200232846214602F04AFF002800F062
:1041F000EB8008A8FDF7EAFE04230093C3B211AADE
:1042000028462146FEF7CAFD5922062111A8FEF7CD
:10421000A1FC592202216448FEF79CFC592204218A
:104220006548FEF797FC069D079C00220023284660
:10423000214602F025FF002800F0DD8006A8FDF7EA
:10424000C5FE04230093C3B211AA28462146FEF7F7
:10425000A5FD5922062111A8FEF77CFC5922022156
:104260005148FEF777FC592204215448FEF772FCAE
:10427000049D059C002200232846214602F000FFF1
:10428000002800F0CF8004A8FDF7A0FE04230093CF
:10429000C3B211AA28462146FEF780FD5922062105
:1042A00011A8FEF757FC592202213F48FEF752FCA5
:1042B000592204214248FEF74DFC029D039C002236
:1042C00000232846214602F0DBFE002800F0C180D2
:1042D00002A8FDF77BFE04230093C3B211AA28466F
:1042E0002146FEF75BFD5922062111A8FEF732FC9C
:1042F000592202212C48FEF72DFC15B030BD04F1E7
:1043000000442A46234614A860E90623FDF75EFE12
:1043100004230093C3B211AA28462146FEF73EFDAE
:10432000592201212748FEF715FCFEE604F100445E
:104330002A46234614A860E90823FDF747FE042314
:104340000093C3B211AA28462146FEF727FD592241
:1043500001211C48FEF7FEFB0CE704F100442A464D
:10436000234614A860E90A23FDF730FE04230093D6
:10437000C3B211AA28462146FEF710FD5922012199
:104380001048FEF7E7FB1AE7380600204806002031
:10439000580600203006002040060020500600206D
:1043A00060060020548A0008348E00085C8A0008E9
:1043B000648A0008088C0008108C0008188C00081B
:1043C000208C0008508A000804F100442A46234645
:1043D00014A860E90C23FDF7F9FD04230093C3B290
:1043E00011AA28462146FEF7D9FC5922012124486A
:1043F000FEF7B0FB08E704F100442A46234614A860
:1044000060E90E23FDF7E2FD04230093C3B211AA75
:1044100028462146FEF7C2FC592201211848FEF722
:1044200099FB16E704F100442A46234614A860E9E4
:104430001023FDF7CBFD04230093C3B211AA284635
:104440002146FEF7ABFC592201210D48FEF782FB05
:1044500024E704F100442A46234614A860E9122305
:10446000FDF7B4FD04230093C3B211AA28462146E8
:10447000FEF794FC592201210148FEF76BFB32E75D
:10448000508A000810B584B000238DF80F303B4BE4
:104490001B783B4A127893421DD00BB3394B1B78E3
:1044A000002B58D0354B1A78354B1A70354B1B788A
:1044B000303304AC04F8013D592205213248FEF79F
:1044C00049FB592201212046FEF744FB59220221D3
:1044D0002E48FEF73FFB2E48FDF7EEFB04B010BD63
:1044E00002212C48FCF754F968B92B4B1B78012B9F
:1044F00021D001212748FCF7D7F9FFF7D1FD264A43
:104500001378DB43137004212248FCF741F928B9E2
:104510001C4B1B78BBB100221A4B1A7008211D4896
:10452000FCF736F90028B9D1164B1B787BB1002275
:10453000144B1A70B2E7012100F1804000F5883079
:10454000FCF782F9D9E701220E4B1A70E6E7022246
:104550000C4B1A70A2E702210E48FCF719F900284B
:10456000A0D00F20FEF76EFE00200021CDE9000153
:1045700002460B46FEF782FF94E700BF9D00002035
:104580009C0000202C060020C08D0008348E0008FE
:1045900078060020001001409E000020012919D05B
:1045A00003291AD006291BD00C291DD014291ED08E
:1045B000322922D0462923D0642928D0AA292AD0FA
:1045C000B1F5FA7F2FD0B1F5167F2FD0B1F57A7FF4
:1045D00031D0704701230370704701234370704747
:1045E00001238370437070470123C3707047012318
:1045F000C370837043700370704701230371704769
:1046000001230371C37083704370037070470123EB
:10461000037143717047012343710371C370837049
:1046200043700370704701238371704701238371C6
:1046300043710371704701238371C371C9E700009F
:1046400038B50546002409E00C4B33F814100C4B28
:1046500053F82400FCF7F8F80134E4B20F2C0BD81F
:104660002B5D002BF0D1054B33F81410044B53F89D
:104670002400FCF719F9EFE738BD00BF7C000020EB
:104680003C000020092918D9002201E00132D2B2F1
:10469000914210D9835C4B2B11D00D2BF6D00A2BF5
:1046A000F4D02C2BF2D04F2BF0D0303BDBB2092BC7
:1046B000ECD900207047012070470020704701208E
:1046C000704700002DE9F04190B004460D461746B2
:1046D000984600230D930E93ADF83C300A930B934C
:1046E000ADF8303007930893ADF824300022002352
:1046F000CDE90423CDE90223CDE9002359221E216F
:104700006248FEF727FA592209216148FEF722FA8A
:10471000592229462046FEF71DFA592210215D48EC
:10472000FEF718FA29462046FFF7ACFF002800F0F4
:10473000AA800023E25C303AD2B2092A2FD9013391
:10474000DBB2F7E7721CD6B2002203E0012E15D0CF
:10475000022E1CD00133DBB29D4223D9E018E15C6C
:104760004B291FD02C29EDD0002EEFD10DF1400E9A
:1047700096440EF80C1C0132D2B2E7E790F800E044
:1047800010A9114401F824EC0132D2B2E0E700781C
:1047900010A9114401F8180C511CCAB2DAE7002222
:1047A0001646D9E7592210213B48FEF7D3F9592282
:1047B00017213A48FEF7CEF90DA8FEF7D7FA59228D
:1047C00001460DA8FEF7C6F9354C592202212046B4
:1047D000FEF7C0F90DA8FEF7C9FA02460DA904A814
:1047E000FEF742FB0AA8FEF7C1FA592201460AA8C1
:1047F000FEF7B0F9592202212046FEF7ABF90AA8CC
:10480000FEF7B4FAC21E0AA902A8FEF72DFB07A8FC
:10481000FEF7ACFA5922014607A8FEF79BF9592288
:1048200002212046FEF796F907A8FEF79FFA0246F6
:1048300007A96846FEF718FB592216211948FEF70A
:1048400089F90022184BDDE9040102F0B3FAC7E947
:1048500000010022144BDDE9020102F0ABFAC8E9C5
:1048600000010022104BDDE9000102F0A3FA169BC3
:10487000C3E9000159221F210C48FEF76BF9012002
:1048800010B0BDE8F0810020FAE700BF588C0008A6
:10489000788C0008848C0008988C0008A88C00088C
:1048A000348E0008C08C000800408F40D88C00086F
:1048B0002DE9F04FBBB083460392049344990D4613
:1048C0000591DDF814A146990E460691DDF81C818C
:1048D00048990F460791DDF824914A9908914B9821
:1048E0000990BA4B2DAC0FCB07C4237025220021B1
:1048F0000DF1C10002F0F4FB00232A932B93ADF8D5
:10490000B03027932893ADF8A43024932593ADF8C5
:10491000983021932293ADF88C301E931F93ADF8FD
:1049200080301B931C93ADF87430039A049BCDE93F
:1049300018232A465346CDE9162332464346CDE98D
:1049400014233A464B46CDE91223089A099BCDE938
:104950001023BBF1010F00F06982002200230398AD
:10496000049902F06FFB002840F0648200220023CB
:104970000598514602F066FB002840F06282002252
:1049800000230698414602F05DFB002840F05F825C
:10499000002200230798494602F054FB002840F00B
:1049A0005C82002200230898099902F04BFB002842
:1049B00040F05982002200230398049902F042FB40
:1049C000002840F057823AA870E92245FDF7FEFA28
:1049D00003230093C3B21BAA20462946FEF7DEF943
:1049E000592209211BA8FEF7B5F85922022178485F
:1049F000FEF7B0F8002200230598514602F022FB92
:104A0000002840F03D823AA870E92445FDF7DEFA1F
:104A100003230093C3B21BAA20462946FEF7BEF922
:104A2000592209211BA8FEF795F85922022168484E
:104A3000FEF790F8002200230698414602F002FBA0
:104A4000002840F023823AA870E92645FDF7BEFA17
:104A500003230093C3B21BAA20462946FEF79EF902
:104A6000592209211BA8FEF775F85922022158483E
:104A7000FEF770F8002200230798494602F0E2FA98
:104A8000002840F009823AA870E92845FDF79EFA0F
:104A900003230093C3B21BAA20462946FEF77EF9E2
:104AA000592209211BA8FEF755F85922022148482E
:104AB000FEF750F80022474BDDE9180102F050F8EC
:104AC000CDE90A0103460C46CDE918340022414BDA
:104AD000DDE9160102F044F806460F46CDE91667F7
:104AE00000223C4BDDE9140102F03AF804460D4681
:104AF000CDE914450022374BDDE9120102F030F810
:104B000002460B46CDE90C23CDE912230022314B9E
:104B1000DDE9100102F024F802460B46CDE90E2330
:104B2000CDE91023DDE90A0102F0B4FA2A4BA3FB18
:104B30000023DB0803EB83035A00831A052B07D9F4
:104B40000022264BDDE90A0101F058FECDE91801EB
:104B50003046394602F09EFA1F4BA3FB0023DB08C8
:104B600003EB83035A00831A052B07D900221B4B42
:104B70003046394601F042FECDE91601204629466D
:104B800002F088FA144BA3FB0023DB0803EB83033A
:104B90005A00831A052B07D90022104B20462946BC
:104BA00001F02CFECDE91401DDE90C452046294633
:104BB00002F070FA084BA3FB0023DB0803EB83032E
:104BC0005A00831A052B13D90AE000BF788B00081E
:104BD000348E000800408F40CDCCCCCC0000244067
:104BE0000022B54B2046294601F008FECDE912010E
:104BF000DDE90E452046294602F04CFAAF4BA3FBF7
:104C00000023DB0803EB83035A00831A052B07D923
:104C10000022A94B2046294601F0F0FDCDE9100104
:104C20000022A54BDDE9180102F0C4F806460F4644
:104C3000CDE918670022A04BDDE9160102F0BAF8B1
:104C4000CDE9160100229C4BDDE9140102F0B2F817
:104C5000CDE914010022984BDDE9120102F0AAF817
:104C6000CDE912010022944BDDE9100102F0A2F817
:104C7000CDE9100118A8FDF7A9F900240094C3B2EA
:104C80002AAA30463946FEF789F83AA870E924671F
:104C9000FDF79CF90094C3B227AA30463946FEF7C7
:104CA0007DF83AA870E92667FDF790F90094C3B241
:104CB00024AA30463946FEF771F83AA870E9286709
:104CC000FDF784F90094C3B221AA30463946FEF7B5
:104CD00065F83AA870E92A67FDF778F90094C3B23D
:104CE0001EAA30463946FEF759F8002200230398E1
:104CF000049902F0A7F9002840F0D4802DA8FEF70F
:104D000035F804462AA8FEF731F803462AAA2146B8
:104D10002DA8FEF737F82DA8FEF728F80123684ADA
:104D200001462DA8FEF72EF80022002305985146D3
:104D300002F088F9002840F0C7802DA8FEF716F889
:104D4000044627A8FEF712F8034627AA21462DA8F5
:104D5000FEF718F82DA8FEF709F80123584A014676
:104D60002DA8FEF70FF8002200230698414602F016
:104D700069F9002840F0B2802DA8FDF7F7FF04463E
:104D800024A8FDF7F3FF034624AA21462DA8FDF72A
:104D9000F9FF2DA8FDF7EAFF0123494A01462DA896
:104DA000FDF7F0FF002200230798494602F04AF978
:104DB000002840F09D802DA8FDF7D8FF044621A8CB
:104DC000FDF7D4FF034621AA21462DA8FDF7DAFFFF
:104DD0002DA8FDF7CBFF0123394A01462DA8FDF789
:104DE000D1FF002200230898099902F02BF900282E
:104DF00040F088802DA8FDF7B9FF04461EA8FDF7F6
:104E0000B5FF03461EAA21462DA8FDF7BBFFBBF147
:104E1000010F00F081802DA8FDF7A8FF592201465F
:104E20002DA8FDF797FE3BB0BDE8F08F31238DF83C
:104E3000BE3092E5039A049901F10043CDE91823AD
:104E400094E5059A0AF10043CDE9162397E5069A01
:104E500008F10043CDE914239AE5079A09F10043CC
:104E6000CDE912239DE5089A099901F10043CDE9A6
:104E700010239FE5592201211248FDF76BFEA2E5A0
:104E8000592201210F48FDF765FEBCE55922012199
:104E90000C48FDF75FFED6E5592201210948FDF7D0
:104EA00059FEF0E52DA8FDF761FF0123054A0146F3
:104EB0002DA8FDF767FF21E700002440CDCCCCCC26
:104EC000BC8D0008508A00082DA8FDF74FFF012374
:104ED000174A01462DA8FDF755FF2EE72DA8FDF72F
:104EE00045FF0123124A01462DA8FDF74BFF43E77A
:104EF0002DA8FDF73BFF01230D4A01462DA8FDF724
:104F000041FF58E72DA8FDF731FF0123084A01466C
:104F10002DA8FDF737FF6DE72DA8FDF727FF014608
:104F20002DA8FDF7B5FD02210248FDF7B1FD72E79E
:104F3000508A0008348E00082DE9F04FADF6BC0D04
:104F40000026CDF8A868CDF8AC68CDF8B068CDF8EB
:104F5000B4680DF67804BE4D0FCD0FC40FCD0FC44D
:104F600095E80F0084E80F00F02231460DF5F1605E
:104F700002F0B6F88DF88767CDF87067CDF87467E2
:104F8000CDF87867CDF87C67CDF8806700220023E4
:104F90000DF5ED61C1E900230DF5EC61C1E90023D8
:104FA0000DF5EB61C1E900230DF5EA61C1E90023CC
:104FB0000DF5E961C1E900230DF5E861C1E90023C0
:104FC000E024224631460DF5CC6002F089F82246F5
:104FD00031460DF5B06002F083F8224631460DF5FA
:104FE000946002F07DF822463146F0A802F078F88D
:104FF00022463146B8A802F073F82246314680A80E
:1050000002F06EF85024224631466CA802F068F88F
:105010002246314658A802F063F82246314644A899
:1050200002F05EF82246314630A802F059F82246D6
:1050300031461CA802F054F82246314608A802F076
:105040004FF834463546B3460296029B0B2B00F2CE
:105050005B82029B9A460DF6B80202EB830353F87B
:10506000401C0DF6A800FFF799FA0DF6A800FFF70F
:10507000E7FA102200210DF6A80002F031F85022C4
:1050800000216CA802F02CF85022002158A802F050
:1050900027F85022002144A802F022F850220021D3
:1050A00030A802F01DF8502200211CA802F018F8C8
:1050B0005022002108A802F013F8664B1B68012B50
:1050C000FBD10134E4B2032C03D80022614B1A60F7
:1050D000F3E76148FCF7F0FD0024A346264690E084
:1050E000F00044AB1A1858AB19186CAB1844FEF713
:1050F000F7FD012815D0B308DB006CAA1A44002084
:105100000021C2E9000158AA1A44C2E9000144AAD8
:105110001344C3E90001592210215048FDF71AFD3C
:105120007DE00BF1010B5FFA8BFBF4E74FEA960889
:105130004FEAC80044AB1A1858AB19186CAB1844A6
:10514000FEF7CEFD012816D04FEAC8086CAB03EB82
:10515000080100220023C1E9002358A94144C1E904
:10516000002344A98844C8E90023592210213B4860
:10517000FDF7F0FC53E00BF1010B5FFA8BFBF4E75A
:10518000102200210DF6A80001F0AAFF0DF6A800DC
:10519000FFF756FA6FF002000DF6BC0DBDE8F08F78
:1051A00006EB4603DD000DF5F1631D4400231822D4
:1051B00029462948FDF7E6FC4E2218212846FDF72E
:1051C000C9FC18212846FEF769FDC5B2012D16D08D
:1051D000204B1B68012BE3D10134E4B2092CCFD85A
:1051E00000221C4B1A60DBE706EB4603D9000023C4
:1051F00018220DF5F16001441748FDF7C3FC013694
:10520000F6B2092E11D80DF6B80303EB8A0353F852
:10521000407C312F7FF664AF16F0030F86D0002F4D
:10522000E2D000220B4B1A60D2E7BBF1000F02D094
:105230004FF0000840E0102200210DF6A80001F018
:105240004FFF0DF6A800FFF7FBF94FF0FF30A3E783
:10525000AC8B00080802002078060020A08D000812
:105260004FEAC8096CAB4B444FEACA06F0AA97193B
:10527000D3E90023D7E9000101F0C0FAC7E9000132
:1052800058AB4B44B8AA9719D3E90023D7E90001DA
:1052900001F0B4FAC7E9000144AB994480AB1E4465
:1052A000D9E90023D6E9000101F0A8FAC6E9000116
:1052B00008F101085FFA88F8D845D1D34FEACA0649
:1052C000F0AB9F194FF00408CDF8008005230DF5D1
:1052D000EE62D7E90001FDF761FD592209210DF5C4
:1052E000EE60FDF737FCDFF80094592202214846B2
:1052F000FDF730FC584601F0CDFBCDE90401024634
:105300000B46D7E9000101F055FD02460B46CDE9F9
:105310000623C7E90023B8AB9F19DDE90423D7E9C9
:10532000000101F047FDC7E9000180AB1E44DDE943
:105330000423D6E9000101F03DFDC6E90001CDF8E6
:10534000008005230DF5EE610A46DDE90601FDF753
:1053500025FD592209210DF5EE60FDF7FBFB5922D1
:1053600002214846FDF7F6FB00231E461F4610E0CB
:10537000F30030AA1A4400200021C2E900011CAA4F
:105380001A44C2E9000108AA1344C3E90001013626
:10539000F6B2092E15D806EB4603D800F20008AB8A
:1053A000134400931CAB134430A90A4418210DF593
:1053B000F16E7044FEF7AEFD0128D9D10137FFB27E
:1053C000E5E7049717B14FF000083BE010220021F9
:1053D0000DF6A80001F084FE0DF6A800FFF730F9E5
:1053E0006FF00100D8E64FEAC80930AB4B444FEAF2
:1053F000CA060DF5CC629719D3E90023D7E900015D
:1054000001F0FCF9C7E900011CAB4B440DF5B0629B
:105410009719D3E90023D7E9000101F0EFF9C7E9B3
:10542000000108AB99440DF594631E44D9E90023AB
:10543000D6E9000101F0E2F9C6E9000108F101082E
:105440005FFA88F8B8F1090FCDD94FEACA0A0DF50D
:10545000CC6303EB0A060427009705230DF5EE62E3
:10546000D6E90001FDF79AFC592209210DF5EE60FD
:10547000FDF770FB592202219B48FDF76BFB049856
:1054800001F008FBCDE9040102460B46D6E9000114
:1054900001F090FC80468946C6E900890DF5B063AD
:1054A00003EB0A06DDE90423D6E9000101F082FCE2
:1054B000C6E900010DF5946303EB0A06DDE9042358
:1054C000D6E9000101F076FCC6E90001009705234A
:1054D0000DF5EE6240464946FDF760FC5922092170
:1054E0000DF5EE60FDF736FB592239467F48FDF792
:1054F00031FBBAF1630F02DC5046FEF7B7FA029BAC
:105500000133DBB20293A0E55E4630338DF8873776
:10551000592201210DF28770FDF71CFB6420FEF774
:10552000A5FA0DF5EB6301930DF5EC6300930DF512
:10553000ED631C22F0A90DF5CC60FCF7A7FC0DF57E
:10554000E86301930DF5E96300930DF5EA631C220E
:1055500080A90DF59460FCF799FC4FF0000A4FF01C
:10556000000BCDE902AB0024CDE904ABAB463546D8
:1055700001E00134E4B20B2C2FD8B8AB03EBC40329
:10558000D3E9006754A3D3E900233046394601F03C
:1055900077FD0028EDD00DF5B06303EBC403D3E92C
:1055A00000894DA3D3E900234046494601F068FD38
:1055B0000028DED032463B46DDE9020101F01EF94B
:1055C000CDE9020142464B46DDE9040101F016F93E
:1055D000CDE904010135EDB2CBE728465D46DDE9B2
:1055E00004AB01F057FA06460F4602460B46DDE9CA
:1055F000020101F0DFFB8046894632463B465046B9
:10560000594601F0D7FB02460B464046494601F099
:10561000F3F8374BC3E900010DF5EB63D3E90089DB
:105620002FA3D3E900234046494601F029FD58B194
:105630000DF5E863D3E9006729A3D3E900233046D9
:10564000394601F01DFDE8B90DF5EC63D3E90023FF
:105650000DF5ED61D1E900010DF5EB64D4E90067CA
:10566000CDE90067FEF750F9102200210DF6A800E1
:1056700001F036FD0DF6A800FEF7E2FF002D27D160
:10568000002089E50DF5ED63D3E90001194BC3E96D
:1056900000010DF5EC63D3E90001174BC3E90001EC
:1056A000164BC3E900890DF5EA63D3E90001144BF9
:1056B000C3E900010DF5E963D3E90001114BC3E92A
:1056C0000001114BC3E90067FCF744FF0125BBE76C
:1056D000012061E5AFF300802D431CEBE2361A3F59
:1056E000CDCCCCCCCCCCEC3F348E0008B48D0008B3
:1056F00060060020380600204806002058060020DA
:105700003006002040060020500600200000000067
:105710002DE9F04FADF64C3D0024CDF8384BCDF8D7
:105720003C4BCDF8404BCDF8444B0DF60835C54EFB
:105730000FCE0FC50FCE0FC596E80F0085E80F00FE
:105740008DF8074B782221460DF68C2001F0C8FC1D
:10575000322221460DF6582001F0C2FCCDF8444A11
:10576000CDF8484ACDF84C4ACDF8504ACDF8544AC5
:10577000CDF8384ACDF83C4AADF8404A0022002323
:105780000DF52361C1E900230DF62821C1E90023AD
:105790000DF52261C1E900230DF61821C1E90023AE
:1057A0000DF52161C1E900230DF60821C1E90023AF
:1057B000E0252A4621460DF6281001F091FC2A46E4
:1057C00021460DF6480001F08BFC2A4621460DF5D6
:1057D000ED6001F085FC2A4621460DF5D16001F00F
:1057E0007FFC2A4621460DF5B56001F079FC2A467A
:1057F00021460DF5996001F073FC2A462146FAA86E
:1058000001F06EFC2A462146C2A801F069FC2A4636
:1058100021468AA801F064FC2A46214652A801F0DC
:105820005FFC50252A4621463EA801F059FC2A4635
:1058300021462AA801F054FC2A46214616A801F068
:105840004FFC814B1C60814D0D212846FDF720F94E
:1058500059220D212846FDF77DF9254603E07A4BB4
:105860001B68012B65D0022306220DF658217848CB
:10587000FDF788F904460028F1D059221121754816
:10588000FDF768F9592221460DF65820FDF762F917
:10589000592202217048FDF75DF904226F490DF687
:1058A000582001F02DFC0028D9D100230D939846F3
:1058B0000893089B0F930B2B00F2CA82089B0E9350
:1058C0000DF6483202EB830353F8405C29460DF68F
:1058D0003830FEF763FE0DF63830FEF7B1FE1022C9
:1058E00000210DF6383001F0FBFB782200210DF687
:1058F0008C2001F0F5FB022332220DF6582154488A
:10590000FDF740F90022564B1A60592211215548E3
:10591000FDF720F9524B1B68012BF6D108F1010865
:105920005FFA88F8B8F1060F1DD800224C4B1A60B8
:10593000EBE70135EDB20D214448FDF7A9F8022D42
:1059400003D80022404B1A608DE7592212214648A5
:10595000FDF700F900223C4B1A606FF002000DF6D3
:105960004C3DBDE8F08F3A48FCF7A6F93F48FCF7FC
:10597000A3F93F4C0F212046FDF78AF859220F2149
:105980002046FDF7E7F80024A04614E0022C41D899
:105990002F48FCF791F9364E0D213046FDF778F887
:1059A00059220D213046FDF7D5F80134E4B2264BDB
:1059B0001B68012B3BD0322200210DF6582001F04C
:1059C0008FFB022306220DF658212148FDF7DAF855
:1059D00006460028EBD0592213212648FDF7BAF8D5
:1059E000592231460DF65820FDF7B4F8592202210C
:1059F0001948FDF7AFF89DF85A3A4F2BC6D19DF8DC
:105A00005B3A4B2BC2D11948FCF756F900260E4BD6
:105A10001E609DE0102200210DF6383001F060FB81
:105A20000DF63830FEF70CFE6FF0020097E708F134
:105A300001085FFA88F8B8F1020F1DD80022024B66
:105A40001A60B8E7AC8B000808020020F88C000848
:105A5000EC060020088D0008348E00081C8D00081C
:105A600028060020388D0008248D000878060020C4
:105A70004C8D00085C8D0008592212216348FDF707
:105A800069F80021624B196010220DF6383001F0E0
:105A900027FB0DF63830FEF7D3FD6FF002005EE70E
:105AA00004EB4403D800182200210DF68C2318447F
:105AB00001F016FB102200210DF6383001F010FB2A
:105AC0000DF63830FEF7BCFD0134E4B2042C2CD8BE
