:020000040800F2
:1000000000C00020F9020008FF02000803030008F6
:100010007503000879030008C10300080000000010
:1000200000000000000000000000000009040008BB
:100030000D04000800000000110400081504000869
:1000400025040008250400082504000825040008EC
:1000500025040008250400082504000825040008DC
:1000600025040008250400082504000825040008CC
:1000700025040008250400082504000825040008BC
:1000800025040008250400082504000825040008AC
:10009000250400082504000825040008250400089C
:1000A000250400082504000825040008250400088C
:1000B000593100082504000825040008250400081B
:1000C000250400082504000825040008250400086C
:1000D000250400089D360008D136000805370008C1
:1000E000250400082504000825040008250400084C
:1000F000250400082504000825040008250400083C
:10010000250400082504000825040008250400082B
:1001100039370008250400082504000825040008D4
:10012000250400082504000825040008250400080B
:1001300000000000000000000000000000000000BF
:1001400000000000000000000000000000000000AF
:10015000000000000000000000000000000000009F
:10016000000000000000000000000000000000008F
:10017000000000000000000000000000000000007F
:10018000000000000000000000000000000000006F
:10019000000000000000000000000000000000005F
:1001A000000000000000000000000000000000004F
:1001B000000000000000000000000000000000003F
:1001C000000000000000000000000000000000002F
:1001D000000000000000000000000000000000001F
:1001E0005FF8E0F100B583B001F0F4FB304B314A29
:1001F0001360314A1360314B314A03E011681960D2
:10020000043304322F498B42F8D32A4B1A682E4B01
:100210009A4200D0FEE7284B1A682C4B9A42F9D13B
:10022000234B2B4A13602B4A13602B4B02E0002216
:100230001A600433294A9342F9D3254B1B6813B93A
:10024000244B1B6803B1FEE701F0D0FB694601A80F
:1002500001F052FB224B234CE41AA4100025AC42BF
:1002600014DC214B214CE41AA4100025AC4213DC11
:100270000099019808F0FCFE05461D4B1D4CE41A40
:10028000A410002C0EDC284601F008FB144B53F898
:10029000253098470135E2E7134B53F8253098474E
:1002A0000135E3E7013C124B53F824309847E8E767
:1002B000BABADECA000000200401002000000020BD
:1002C00028BD000808010020785634123254769870
:1002D00008010020200A002008010020240A002034
:1002E000500400085004000850040008500400089E
:1002F000500400085004000808B5FFF773FF00BE63
:10030000FEE71EF0040F0CBFEFF30880EFF3098047
:100310007146414A10472DE9F04182B004468846B3
:10032000124B5E6B9F6B9D6A1B6B13F0020F03D029
:100330000E4BDB6A002B0CDB0D4801F0EFFACDF819
:1003400000803B4632462946204601F053FB00BE62
:10035000FEE74BF6AB6101F0C7FB0028ECD04FF095
:100360000042024BDA6202B0BDE8F08100ED00E02D
:10037000FCA7000800BEFEE71EF0040F0CBFEFF361
:100380000880EFF309807146244A10472DE9F041B7
:1003900082B004468846084B5E6B9F6B9D6A074897
:1003A00001F0BCFACDF800803B4632462946204693
:1003B00001F020FB00BEFEE700ED00E00CA8000805
:1003C0001EF0040F0CBFEFF30880EFF309807146B5
:1003D000134A10472DE9F04182B004468846084B85
:1003E0005E6B9F6B9D6A074801F098FACDF800801C
:1003F0003B4632462946204601F0FCFA00BEFEE7A5
:1004000000ED00E018A8000800BEFEE700BEFEE711
:1004100000BEFEE770470000170300088D030008C8
:08042000D503000800BEFEE751
:1004280028BD0008000000200801002028BD0008A1
:10043800000000000000000008010020240A00203D
:080448000000000000000000AC
:1004500010B50446B0F5E06F0FD0B0F5C06F0CD00A
:10046000B0F5A06F09D0B0F5806F06D0B0F5407F31
:1004700003D06321044801F047FA44F0BF6444F418
:100480000034024BDC6010BD7CA5000800ED00E0EC
:1004900010B50446C378012B03D97521204801F01B
:1004A00033FA63780F2B10D8A3780F2B12D8E37888
:1004B000ABB923785A0903F01F03012101FA03F3B2
:1004C0002032184941F8223010BD7621144801F03D
:1004D0001BFAE9E77721124801F016FAE7E7124B19
:1004E000DA68D243C2F30222C2F104000F2121FADA
:1004F00002F263788340A1780A4013431B012278FB
:10050000DBB208490A4482F800332378580903F023
:100510001F03012202FA03F341F8203010BD00BF8F
:100520007CA5000800E100E000ED00E0034B044A78
:100530005A6002F188325A60704700BF00200240C2
:1005400023016745024A136943F080031361704732
:10055000002002400B4BDB6813F0010F0DD1094B5B
:10056000DB6813F0040F01D002207047054BDB68F5
:1005700013F0100F03D003207047012070470420B0
:10058000704700BF0020024010B50446FFF7E2FFAD
:1005900002E0FFF7DFFF013C012801D1002CF8D178
:1005A00004B9052010BD000038B5044600F17842BA
:1005B000124B9A4206D84FF43020FFF7E5FF04288B
:1005C00006D038BD40F2A7110D4801F09DF9F2E7C1
:1005D0000C4D2B6943F002032B616C612B6943F0D6
:1005E00040032B614FF43020FFF7CEFF2B6923F03F
:1005F0000203DB04DB0C2B61E3E700BFFEFF0F000F
:10060000A4A500080020024070B504460D4600F184
:100610007842104B9A4206D84FF40050FFF7B4FFCF
:10062000042806D070BD4FF45D710B4801F06CF9E1
:10063000F2E70A4E336943F00103336125804FF43A
:100640000050FFF7A1FF336923F00103DB04DB0C4B
:100650003361E7E7FEFF0F00A4A500080020024079
:10066000F8B505460C46484B98421BD003F580630D
:10067000984217D003F58063984213D003F5806346
:1006800098420FD003F5806398420BD003F5806346
:10069000984207D003F58063984203D0B2213B48CB
:1006A00001F032F9E3788BB1042B0FD0282B0DD059
:1006B000482B0BD0142B09D0102B07D01C2B05D0A6
:1006C000182B03D0B321314801F01EF9238893B1D0
:1006D000E37803F00F06304613F0100F06D0A3782E
:1006E000013BDBB2022B0BD8A0783043237833B325
:1006F0002E6800230BE0B421244801F005F9E7E758
:10070000BB21224801F000F9EEE76A610133072BB3
:1007100014D801229A40218832EA0101F6D19900C9
:100720000F278F4026EA070600FA01F10E43E17811
:100730002829EAD04829E9D12A61E7E72E602388F1
:10074000FF2B20D96E68002302E06A6115E00133B7
:10075000072B17D803F1080101228A40218832EAC9
:100760000101F4D199000F278F4026EA070600FA0D
:1007700001F10E43E1782829E7D0E1784829E6D154
:100780002A61E4E76E60F8BD00080140D8A50008C2
:1007900038B504460D462A4B98421CD003F58063B9
:1007A000984218D003F58063984214D003F5806313
:1007B000984210D003F5806398420CD003F5806313
:1007C000984208D003F58063984204D04FF48F71AB
:1007D0001C4801F099F86B1E9BB2012B28D9042DFF
:1007E00026D0082D24D0102D22D0202D20D0402D11
:1007F0001ED0802D1CD0B5F5807F19D0B5F5007FB7
:1008000016D0B5F5806F13D0B5F5006F10D0B5F5E3
:10081000805F0DD0B5F5005F0AD0B5F5804F07D0E9
:10082000B5F5004F04D040F21F11064801F06CF8F6
:10083000A3681D4201D1002038BD012038BD00BF92
:1008400000080140D8A5000838B504460D46144BF1
:1008500098421CD003F58063984218D003F580635A
:10086000984214D003F58063984210D003F580635A
:1008700098420CD003F58063984208D003F580635A
:10088000984204D04FF4B571064801F03DF80DB11F
:10089000256138BD40F26B11024801F035F8F7E7E9
:1008A00000080140D8A5000838B504460D46144B91
:1008B00098421CD003F58063984218D003F58063FA
:1008C000984214D003F58063984210D003F58063FA
:1008D00098420CD003F58063984208D003F58063FA
:1008E000984204D04FF4BD71064801F00DF80DB1E7
:1008F000656138BD40F27B11024801F005F8F7E769
:1009000000080140D8A500080D4B1A6842F001020A
:100910001A6059680B4A0A405A601A6822F08472B9
:1009200022F480321A601A6822F480221A605A680F
:1009300022F4FE025A604FF41F029A60704700BF13
:10094000001002400000FFF810B5044650B1B0F5A9
:10095000803F07D0B0F5802F04D040F211110F482E
:1009600000F0D2FF0E4B1A6822F480321A601A6827
:1009700022F480221A60B4F5803F03D0B4F5802FB2
:1009800006D010BD064A136843F48033136010BDCF
:10099000034A136843F4A023136010BD0CA600089B
:1009A0000010024038B50C46054650B1B0F5803F06
:1009B00007D0B0F5403F04D040F27F111D4800F051
:1009C000A3FF74B3B4F5802F2BD0B4F5002F28D03B
:1009D000B4F5402F25D0B4F5801F22D0B4F5A01F68
:1009E0001FD0B4F5C01F1CD0B4F5E01F19D0B4F56A
:1009F000001F16D0B4F5101F13D0B4F5201F10D06F
:100A0000B4F5301F0DD0B4F5401F0AD0B4F5501F17
:100A100007D0B4F5601F04D04FF4C071054800F052
:100A200073FF054B596821F47C112C432143596015
:100A300038BD00BF0CA600080010024010B50446E7
:100A4000012804D94FF4CA71024800F05DFF024B3F
:100A50001C6010BD0CA600086000424210B50446A0
:100A6000022806D8064A536823F003031C43546047
:100A700010BD4FF40E71034800F046FFF2E700BFCF
:100A8000001002400CA60008024B586800F00C0051
:100A9000704700BF0010024010B50446A0B1802886
:100AA00012D0902810D0A0280ED0B0280CD0C0288A
:100AB0000AD0D02808D0E02806D0F02804D04FF47F
:100AC0001971054800F020FF044A536823F0F00331
:100AD0001C43546010BD00BF0CA60008001002406B
:100AE00010B5044680B1B0F5806F0DD0B0F5A06FA1
:100AF0000AD0B0F5C06F07D0B0F5E06F04D040F277
:100B00007E21054800F000FF044A536823F4E063A7
:100B10001C43546010BD00BF0CA60008001002402A
:100B200010B5044680B1B0F5806F0DD0B0F5A06F60
:100B30000AD0B0F5C06F07D0B0F5E06F04D04FF425
:100B40002671054800F0E0FE044B586820F4605020
:100B500040EAC400586010BD0CA600080010024016
:100B600010B4294B5B6803F00C03042B2BD0082B2B
:100B70002CD013B1254B036001E0244B03602249C4
:100B80004B68C3F30313224CE35CDAB20368D3402F
:100B900043604A68C2F30222A25CD2B223FA02F294
:100BA00082604A68C2F3C222A25CD2B2D340C36060
:100BB0004A68C2F3813217498A5CD2B2B3FBF2F3BE
:100BC000036110BC7047114B0360D8E70E4A5368AD
:100BD0005268C3F38343023312F4803F09D00A4AB8
:100BE000526812F4003F09D00B4A02FB03F3036082
:100BF000C5E7094A02FB03F30360C0E7034A02FBAF
:100C000003F30360BBE700BF0010024000127A004C
:100C1000080000200400002000093D0038B504460B
:100C20000D460E4B034003B920B940F24A410C482F
:100C300000F06AFE012D04D940F24B41084800F053
:100C400063FE2DB9074A936923EA0404946138BD11
:100C5000044B9A6914439C6138BD00BF0200C0FF79
:100C60000CA600080010024038B504460D460E4B95
:100C7000184200D120B940F269410C4800F044FE0E
:100C8000012D04D940F26A41084800F03DFE2DB91B
:100C9000074AD36923EA0404D46138BD044BDA69F6
:100CA0001443DC6138BD00BF003601810CA600088A
:100CB0000010024010B50446212818D0312816D063
:100CC000392814D0412812D0612810D07A280ED0AB
:100CD0007B280CD07C280AD07D2808D07E2806D01E
:100CE0007F2804D040F234510D4800F00DFE630916
:100CF000012B0CD0022B0DD00A4B5B6A04F01F04B1
:100D000023FA04F414F0010F07D1002010BD054BA5
:100D10001B68F3E7034B1B6AF0E7012010BD00BF1F
:100D20000CA600080010024000B583B00023019318
:100D30003120FFF7BFFF019B01330193019BB3F506
:100D4000A06F01D00028F3D03120FFF7B3FF18B90E
:100D5000002003B05DF804FB0120FAE738B5044633
:100D60000D46524B984242D0B0F1804F3FD0A3F590
:100D7000943398423BD003F58063984237D003F513
:100D80008063984233D003F5806398422FD003F5F7
:100D9000806398422BD003F59033984227D003F517
:100DA000C053984223D003F5806398421FD003F5C7
:100DB000806398421BD0A3F59E33984217D003F569
:100DC0008063984213D003F5806398420FD003F5F7
:100DD000903398420BD003F58063984207D003F517
:100DE0008063984203D0E721314800F08DFD6B8885
:100DF0005BB1102B09D0202B07D0402B05D0602BE6
:100E000003D0E8212A4800F07FFDEB884BB1B3F511
:100E1000807F06D0B3F5007F03D0E921244800F09D
:100E200073FD23889BB2214A944212D002F50062DE
:100E300094420ED0B4F1804F0BD0A2F59832944278
:100E400007D002F58062944203D002F5806294429A
:100E500003D123F070036A881343164A944208D0E2
:100E600002F58062944204D023F440739BB2EA8876
:100E700013432380AB88A3852B8823850B4B9C428F
:100E80000FD003F500639C420BD003F540639C42F6
:100E900007D003F580639C4203D003F580639C4236
:100EA00001D12B7A23860123A38238BD002C014077
:100EB0003CA600080010004038B504460D462E4BF5
:100EC000984243D0B0F1804F40D0A3F5943398427C
:100ED0003CD003F58063984238D003F58063984294
:100EE00034D003F58063984230D003F58063984294
:100EF0002CD003F59033984228D003F5C053984284
:100F000024D003F58063984220D003F58063984293
:100F10001CD0A3F59E33984218D003F58063984205
:100F200014D003F58063984210D003F590339842B3
:100F30000CD003F58063984208D003F58063984293
:100F400004D040F229310D4800F0DEFC012D04D917
:100F500040F22A31094800F0D7FC35B923889BB20A
:100F600023F001039BB2238038BD23889BB243F05A
:100F70000103238038BD00BF002C01403CA60008BF
:100F800070B504460D461646314B984243D0B0F139
:100F9000804F40D0A3F5943398423CD003F5806352
:100FA000984238D003F58063984234D003F58063CB
:100FB000984230D003F5806398422CD003F59033EB
:100FC000984228D003F5C053984224D003F580639B
:100FD000984220D003F5806398421CD0A3F59E333D
:100FE000984218D003F58063984214D003F58063CB
:100FF000984210D003F5903398420CD003F58063EB
:10100000984208D003F58063984204D040F26B31D7
:10101000104800F079FC15F47F4F00D125B94FF44A
:101020005B710C4800F070FC012E04D940F26D3168
:10103000084800F069FC2EB9A389ED43ADB21D400C
:10104000A58170BDA3899BB21D43A58170BD00BF62
:10105000002C01403CA6000838B504460D462A4B3A
:10106000984243D0B0F1804F40D0A3F594339842DA
:101070003CD003F58063984238D003F580639842F2
:1010800034D003F58063984230D003F580639842F2
:101090002CD003F59033984228D003F5C0539842E2
:1010A00024D003F58063984220D003F580639842F2
:1010B0001CD0A3F59E33984218D003F58063984264
:1010C00014D003F58063984210D003F59033984212
:1010D0000CD003F58063984208D003F580639842F2
:1010E00004D040F63621094800F00EFC15F4614F9B
:1010F00000D125B940F63721044800F005FCED4346
:10110000ADB2258238BD00BF002C01403CA60008CE
:1011100038B504460D46344B984243D0B0F1804F69
:1011200040D0A3F5943398423CD003F580639842B5
:1011300038D003F58063984234D003F58063984239
:1011400030D003F5806398422CD003F59033984259
:1011500028D003F5C053984224D003F58063984209
:1011600020D003F5806398421CD0A3F59E339842AB
:1011700018D003F58063984214D003F58063984239
:1011800010D003F5903398420CD003F58063984259
:1011900008D003F58063984204D040F658211348E4
:1011A00000F0B2FB6B1E9BB2012B10D9042D0ED0A8
:1011B000082D0CD0102D0AD0202D08D0402D06D09F
:1011C000802D04D040F65921084800F09DFB228A6A
:1011D000A3892B40154202D01BB9002038BD002046
:1011E00038BD012038BD00BF002C01403CA60008DE
:1011F00038B504460D462A4B984243D0B0F1804F93
:1012000040D0A3F5943398423CD003F580639842D4
:1012100038D003F58063984234D003F58063984258
:1012200030D003F5806398422CD003F59033984278
:1012300028D003F5C053984224D003F58063984228
:1012400020D003F5806398421CD0A3F59E339842CA
:1012500018D003F58063984214D003F58063984258
:1012600010D003F5903398420CD003F58063984278
:1012700008D003F58063984204D040F682210948E3
:1012800000F042FB15F47F4F00D125B940F68321D1
:10129000044800F039FBED43ADB2258238BD00BFF4
:1012A000002C01403CA6000830B587B004460D462E
:1012B000654B984213D0A3F5744398420FD003F5C1
:1012C000806398420BD003F58063984207D003F502
:1012D0008063984203D0B8215C4800F015FB2B686E
:1012E000013B5B4A934200F29480AB8833B1B3F583
:1012F000805F03D0BA21554800F006FBEB8863B14C
:10130000B3F5805F09D0B3F5005F06D0B3F5405F59
:1013100003D0BB214D4800F0F7FA2B894BB1B3F550
:10132000806F06D0B3F5C06F03D0BC21474800F0F2
:10133000EBFA6A8922F00C039BB203B91AB9BD21FA
:10134000424800F0E1FAAB8963B1B3F5807F09D080
:10135000B3F5007F06D0B3F5407F03D0BE213B48F4
:1013600000F0D2FAAB8973B1374B9C420BD0A3F596
:1013700074439C4207D003F580639C4203D0C22192
:10138000324800F0C1FA238A9BB2EA8823F4405322
:1013900013432382A3899BB2A98828896A890143C0
:1013A0000A4323F4B05323F00C031343A381A38A0D
:1013B0009BB2AA8923F440731343A38201A8FFF7C9
:1013C000CFFB214B9C4229D0039BA28912F4004FF2
:1013D00026D103EB830303EB830329688900B3FB66
:1013E000F1F11C4BA3FB012358090501642300FB09
:1013F0001313A28912F4004F1BD11B013233154A7B
:10140000A2FB0323C3F343132B439BB2238107B0F7
:1014100030BDB9210D4800F077FA66E7049BD4E7A8
:1014200003EB830303EB830329684900B3FBF1F16A
:10143000D7E7D9003231074AA2FB0131C1F342128A
:1014400045EA0203E1E700BF003801406CA600084E
:101450001FAA44001F85EB5138B504460D46164BB4
:10146000984214D0A3F57443984210D003F58063DA
:1014700098420CD003F58063984208D003F580634E
:10148000984204D04FF4B1710C4800F03DFA012DA0
:1014900004D940F26311094800F036FA35B9A3893E
:1014A0009BB223F400539BB2A38138BDA3899BB2A6
:1014B00043F40053A38138BD003801406CA60008F6
:1014C00070B504460D461646374B984214D0A3F526
:1014D0007443984210D003F5806398420CD003F512
:1014E0008063984208D003F58063984204D040F2AC
:1014F00089112E4800F008FA282D1ED040F22773DB
:101500009D421AD040F226639D4216D040F22553E8
:101510009D4212D040F224439D420ED040F6460335
:101520009D420AD040F66A139D4206D0602D04D039
:101530004FF4C5711D4800F0E7F9012E04D940F2BF
:101540008B111A4800F0E0F940F66A139D4211D061
:10155000C5F3421205F01F05012303FA05F59A426F
:1015600019D0022A19D01434CEB9236823EA05050C
:10157000256070BD0C4B9C42EAD0A3F574439C429D
:10158000E6D003F580639C42E2D040F28F11074819
:1015900000F0BAF9DCE70C34E6E71034E4E723683E
:1015A0001D43256070BD00BF003801406CA60008D7
:1015B00038B504460D46124B984214D0A3F5744337
:1015C000984210D003F5806398420CD003F58063F5
:1015D000984208D003F58063984204D040F25F211E
:1015E000084800F091F9B5F5007F03D2C5F308056E
:1015F000A58038BD4FF41871024800F085F9F5E771
:10160000003801406CA6000810B504460D4B984206
:1016100014D0A3F57443984210D003F58063984228
:101620000CD003F58063984208D003F5806398429C
:1016300004D04FF41C71044800F066F9A088C0F390
:10164000080010BD003801406CA6000838B50546FA
:101650000C46274B984214D0A3F57443984210D0FF
:1016600003F5806398420CD003F58063984208D05C
:1016700003F58063984204D040F286311D4800F0A3
:1016800043F9012C18D0802C16D0402C14D0202CDB
:1016900012D0102C10D0B4F5807F0DD0B4F5007F9F
:1016A0000AD0082C08D0042C06D0022C04D040F21A
:1016B0008731104800F028F9B4F5007F04D02B885A
:1016C0001C4212D1002038BD094B9D42F7D0A3F532
:1016D00074439D42F3D003F580639D42EFD040F206
:1016E0008B31044800F010F9E9E7012038BD00BF54
:1016F000003801406CA6000838B505460C463C4B46
:10170000984214D0A3F57443984210D003F5806337
:1017100098420CD003F58063984208D003F58063AB
:10172000984204D040F2D931324800F0EDF8282C2C
:1017300025D040F227739C4221D040F226639C4280
:101740001DD040F225539C4219D040F224439C42C4
:1017500015D040F646039C4211D040F66A139C42D5
:101760000DD0B4F5587F0AD0B4F5187F07D0B4F582
:10177000B07F04D040F2DA311E4800F0C5F840F6E0
:101780006A139C4217D0C4F3421204F01F010123D4
:101790008B40012A20D0022A22D0AA8A92B213407A
:1017A000240A012202FA04F42A8892B21440DBB11E
:1017B000E4B9002038BD0E4B9D42E4D0A3F574433C
:1017C0009D42E0D003F580639D42DCD040F2DE31E3
:1017D000084800F099F8D6E7AA8992B21340DFE7EB
:1017E0002A8A92B21340DBE7002038BD012038BDC1
:1017F000003801406CA6000838B505460C46254B5C
:10180000984214D0A3F57443984210D003F5806336
:1018100098420CD003F58063984208D003F58063AA
:10182000984204D040F222411B4800F06DF840F28B
:1018300026639C4210D040F225539C420CD040F6C7
:1018400046039C4208D040F66A139C4204D040F202
:101850002341114800F058F840F66A139C4207D023
:10186000240A0123A3409BB2DB439BB22B8038BDEB
:10187000084B9D42F4D0A3F574439D42F0D003F58C
:1018800080639D42ECD040F22741034800F03CF8D1
:10189000E6E700BF003801406CA60008FEE7000044
:1018A00008B5034800F052F80120FFF7F7FF00BF2A
:1018B000A0A6000808B503460C4A12685AB10B4AA4
:1018C0001068033323F003030344094A934206D804
:1018D000064A136008BD0749044A1160EFE708F0A3
:1018E000E3F90C2303604FF0FF3008BD0C0100202A
:1018F00000BC0020240A002001230360014B0B6080
:10190000704700BF1800002008B50A46014602488B
:1019100000F004F8FFF7C4FFB4A600080FB400B548
:1019200083B004AB53F8042B01938021064808F0E0
:101930001BFA002803DD0146034800F047F803B016
:101940005DF804EB04B070471401002010B50446A4
:1019500008F0C3F90146204600F038F8012102489A
:1019600000F034F810BD00BFB4BA00082DE9F04310
:1019700085B004460F4643560BB10E461EE00425C3
:1019800028462146ABBE0446384605B0BDE8F08384
:1019900014F9011B04AA1A4402F8101C0133AB42CB
:1019A000F6D304AA1344002203F8102CE9464FF0A2
:1019B000040840464946ABBE8046761B002EE3D065
:1019C0003546102E28BF10250023E8E708B5FFF79D
:1019D000CDFF08BD08B500F0FDF8024B024A9A6041
:1019E00008BD00BF00ED00E00000000808B500F0F1
:1019F00019F908BDF8B504460D4617461E46274896
:101A0000FFF78CFF21682648FFF788FF61682548AB
:101A1000FFF784FFA1682448FFF780FFE1682348AF
:101A2000FFF77CFF21692248FFF778FF61692148B1
:101A3000FFF774FFA1692048FFF770FFE1691F48B5
:101A4000FFF76CFF1E48FFF769FF29461D48FFF7A7
:101A500065FF1D4CE16A1D48FFF760FF216B1C48C4
:101A6000FFF75CFFE16B1B48FFF758FF15F0800F95
:101A70000AD115F4004F0CD11748FFF74FFF069914
:101A80001648FFF74BFFF8BD39461548FFF746FFEC
:101A9000EFE731461348FFF741FFEDE7E0A6000806
:101AA000F0A6000800A7000810A7000820A700085B
:101AB00030A7000840A7000850A7000860A700084A
:101AC00070A700087CA7000800ED00E08CA70008C4
:101AD0009CA70008ACA70008DCA70008E4A7000842
:101AE000BCA70008CCA7000883691A888A4201D0E5
:101AF000002070470268033A012A03D80233836149
:101B0000012070470020704782B0002301930093AA
:101B10002C4A136843F4803313602A4B1B6803F488
:101B200000330093019B01330193009B1BB9019B80
:101B3000B3F5A06FF1D1234B1B6813F4003F06D01F
:101B400001230093009B012B04D002B070470023B7
:101B50000093F7E71C4B1A6842F010021A601A68EB
:101B600022F003021A601A6842F002021A60A3F51A
:101B700080535A685A605A685A605A6842F48062C0
:101B80005A605A6822F47C125A605A6842F4E81289
:101B90005A601A6842F080721A600A4B1B6813F090
:101BA000007FFAD0074B5A6822F003025A605A6845
:101BB00042F002025A60034B5B6803F00C03082BEF
:101BC000F9D1C2E7001002400020024008B5FFF73B
:101BD0009BFF08BD08B5104B1A6842F001021A605D
:101BE00059680E4A0A405A601A6822F0847222F438
:101BF00080321A601A6822F480221A605A6822F42D
:101C0000FE025A604FF41F029A60FFF7DFFF4FF0A9
:101C10000062034B9A6008BD001002400000FFF80C
:101C200000ED00E01F4B5B6803F00C03042B15D0A4
:101C3000082B17D01BB11C4A1C4B1A6002E01A4A31
:101C40001A4B1A60174B5B68C3F30313184AD35C33
:101C5000DAB216490B68D3400B607047124A134B37
:101C60001A60EFE70F4A53685268C3F383430233A5
:101C700012F4803F0AD00B4A526812F4003F0BD096
:101C80000C4A02FB03F3094A1360DBE7094A02FB33
:101C900003F3064A1360D5E7034A02FB03F3034A42
:101CA0001360CFE70010024000127A0030000020DD
:101CB0002000002000093D000146002302E0002230
:101CC000CA540133EF2BFAD9F023C1F8F0300020C9
:101CD000C1F8F400C1F8F800C1F8FC00C1F8000137
:101CE00070470131814201D0084670470021FBE76F
:101CF00038B50446D0F8F450D0F8F00085420CDA3C
:101D00000B46D4F8F8106354FFF7EBFFC4F8F80063
:101D10000135C4F8F450002038BD4FF0FF3038BD15
:101D2000F8B5D0F8F450002D12DD0F460446D0F877
:101D3000FC603146D0F8F000FFF7D3FFC4F8FC0098
:101D4000013DC4F8F450F6B2A35D3B700020F8BD2D
:101D50006FF00100F8BD00002DE9F04D82B0834620
:101D60008846924600260027CDE90067002514E04A
:101D7000EC000BEB0403D3E90023DDE9000107F0DD
:101D800027FBCDE900014444D4E90023304639461D
:101D900007F01EFB06460F4601355545E8D3504671
:101DA00007F052FC04460D4602460B46DDE90001F1
:101DB00007F0EAFD074BC3E9000122462B463046F7
:101DC000394607F0E1FD044BC3E9000102B0BDE86C
:101DD000F08D00BF98010020A00100202DE9F04700
:101DE000814688461746002546E0EC0009EB0406CC
:101DF0004444D4E90023D6E9000107F09BFCDFF856
:101E0000A4A002460B46DAE9000107F0E1FACAE9AC
:101E10000001DFF888A0D6E90023DAE9000107F025
:101E2000D7FACAE90001DFF880A0D4E90023DAE993
:101E3000000107F0CDFACAE90001D6E90001024627
:101E40000B4607F077FC134E02460B46D6E900011D
:101E500007F0BEFAC6E90001D4E9000102460B46CC
:101E600007F068FC0C4C02460B46D4E9000107F071
:101E7000AFFAC4E900010135BD42B6D3074BD3E93F
:101E8000000102460B4607F055FC054BC3E9000173
:101E9000BDE8F087C8010020E8010020C001002053
:101EA000D0010020D8010020E00100202DE9F04FF2
:101EB00087B00390894617461E46FFF78FFF3846C6
:101EC00007F0C2FBCDE900013D4DD5E9002307F045
:101ED00031FCCDE90401DFF804B1DFF804A1DAE94F
:101EE0000023DBE9000107F025FC02460B46DDE993
:101EF000040107F06BFACDE90401324CD4E9002368
:101F0000DDE9000107F016FCDFF8D880D8E90023EE
:101F100007F05CFA02460B46DDE9040107F034FDE8
:101F2000C6E900013A4649460398FFF715FF264FD8
:101F3000D7E90023D6E9000107F0FCFB234E024657
:101F40000B46D6E9000107F041FA109BC3E90001F6
:101F5000D5E900231046194607F0ECFBCDE9000156
:101F6000DFF88490D9E90023D4E9000107F0E2FB0F
:101F700002460B46DDE9000107F006FD119BC3E9AF
:101F8000000100220023C5E90023CBE90023CAE9B0
:101F90000023C4E90023C9E90023C8E90023C7E9F5
:101FA0000023C6E900230A49C1E900230949C1E920
:101FB00000230949C1E9002307B0BDE8F08F00BF45
:101FC000D8010020C801002098010020A0010020B5
:101FD000A8010020B0010020B8010020C0010020AD
:101FE000E0010020D0010020E801002038B5D0E950
:101FF00000450022154B2046294607F00DFE08BB80
:102000000022124B2046294607F024FE40B1002250
:102010000F4B2046294607F0FFFD08B1022038BDCE
:1020200000220B4B2046294607F014FE08B9042075
:1020300038BD0022074B2046294607F0EDFD18B9B0
:10204000042038BD012038BD032038BD00002440E5
:102050000000594000408F402DE9F04F95B00446F4
:10206000012900F06882C04B1A680092D3F80480FE
:10207000BE4B1A6808925F68BD4B1A6809925E6889
:10208000BC4B1A680A925D68BB4B1A680B925B687E
:102090000193BA4B1A680C925B680293B84B1A68AA
:1020A0000D925B680393B74B1A680E925B680493BA
:1020B000B54B1A680F925B680593B44B1A6810927F
:1020C000D3F80490B24B1A681192D3F804A0B14B24
:1020D0001A6812925B680793AF4B1A6813925B6899
:1020E000069359232380002200230098414607F0DD
:1020F00093FD002840F05E8200236380DDF800B08D
:102100005846414607F0B0FD07F09EFA02460B46DE
:10211000CDF800B05846414607F058F990A3D3E9EE
:10212000002307F007FB07F09FFD1FFA80FB0098D4
:10213000414607F099FDA080A4F806B000220023D4
:102140000898394607F068FD002840F038820023DF
:102150002381DDF820B05846394607F085FD07F0A9
:1021600073FA02460B465846394607F02FF97CA30E
:10217000D3E9002307F0DEFA07F076FD1FFA80F8B6
:102180005846394607F070FD6081A4F80C800022A3
:1021900000230998314607F03FFD002840F01482E3
:1021A0000023E381DDF824804046314607F05CFDE2
:1021B00007F04AFA02460B464046314607F006F958
:1021C00067A3D3E9002307F0B5FA07F04DFD87B206
:1021D0004046314607F048FD2082678200220023F6
:1021E0000A98294607F018FD002840F0F2810023E4
:1021F000A3820A9F3846294607F036FD07F024FAE5
:1022000002460B463846294607F0E0F854A3D3E9C6
:10221000002307F08FFA07F027FD86B238462946DB
:1022200007F022FDE0822683002200230B9801990B
:1022300007F0F2FC002840F0D181002363830B9F5C
:102240003846019E314607F00FFD07F0FDF90246C2
:102250000B463846314607F0B9F841A3D3E90023CD
:1022600007F068FA07F000FD85B23846314607F0FE
:10227000FBFCA083E583002200230C98029907F061
:10228000CBFC002840F0B181002323840C9F38460A
:10229000029E314607F0E8FC07F0D6F902460B46ED
:1022A0003846314607F092F82DA3D3E9002307F012
:1022B00041FA07F0D9FC85B23846314607F0D4FC24
:1022C0006084A584002200231398069907F0A4FCDB
:1022D000002840F091810023E384139F3846069E36
:1022E000314607F0C1FC07F0AFF902460B4638460D
:1022F000314607F06BF81AA3D3E9002307F01AFA66
:1023000007F0B2FC85B23846314607F0ADFC2085B7
:102310006585002200230D98039907F07DFC0028B5
:1023200040F071810023A3850D9F3846039E3146FE
:1023300007F09AFC07F088F902460B46384631460A
:1023400007F044F806A3D3E9002307F0F3F907F0F8
:102350008BFC85B23846314607F086FCE0851DE0EF
:10236000000000000088C34068060020A806002086
:10237000E80600203806002078060020B806002075
:102380005806002098060020D806002048060020A5
:1023900088060020C8060020F806002025860022B6
:1023A00000230E98049907F037FC002840F0328192
:1023B000002363860E9F3846049E314607F054FC86
:1023C00007F042F902460B463846314606F0FEFF5A
:1023D000A1A3D3E9002307F0ADF907F045FC85B2CE
:1023E0003846314607F040FCA086E58600220023EF
:1023F0000F98059907F010FC002840F01281002387
:1024000023870F9F3846059E314607F02DFC07F0C5
:102410001BF902460B463846314606F0D7FF8EA31D
:10242000D3E9002307F086F907F01EFC85B2384691
:10243000314607F019FC6087A58700220023109819
:10244000494607F0E9FB002840F0F2800023E387CB
:10245000109E3046494607F007FC07F0F5F80246A3
:102460000B463046494606F0B1FF7BA3D3E9002373
:1024700007F060F907F0F8FB85B23046494607F0EF
:10248000F3FBA4F84000A4F8425000220023119866
:10249000514607F0C1FB002840F0CF800023A4F88C
:1024A0004430119E3046514607F0DEFB07F0CCF871
:1024B00002460B463046514606F088FF66A3D3E934
:1024C000002307F037F907F0CFFB85B230465146BD
:1024D00007F0CAFBA4F84600A4F8485000220023E5
:1024E0001298079907F098FB002840F0AC80002371
:1024F000A4F84A30129F3846079E314607F0B4FBD5
:1025000007F0A2F802460B463846314606F05EFF59
:1025100051A3D3E9002307F00DF907F0A5FB85B21D
:102520003846314607F0A0FBA4F84C00A4F84E5002
:1025300015B0BDE8F08F4A4B1A680092D3F80480BA
:10254000484B1A6808925F68474B1A6809925E68A0
:10255000464B1A680A925D68454B1A680B925B6895
:102560000193444B1A680C925B680293424B1A68C1
:102570000D925B680393414B1A680E925B6804935B
:102580003F4B1A680F925B6805933E4B1A68109296
:10259000D3F804903C4B1A681192D3F804A03B4B3B
:1025A0001A6812925B680793394B1A6813925B683A
:1025B000069396E508F10048012363809EE507F144
:1025C000004701232381C4E506F100460123E3818E
:1025D000E8E505F100450123A3820AE6019B03F12A
:1025E000004301930123638329E6029B03F1004327
:1025F00002930123238449E6069B03F100430693DB
:102600000123E38469E6039B03F100430393012361
:10261000A38589E6049B03F10043049301236386A9
:10262000C8E6059B03F10043059301232387E8E6F1
:1026300009F100490123E3870AE70AF1004A01236F
:10264000A4F844302DE7079B03F1004307930123CF
:10265000A4F84A304EE700BF000000000088C340E5
:1026600060060020A0060020E006002030060020C2
:1026700070060020B00600205006002090060020C2
:10268000D00600204006002080060020C006002062
:10269000F006002000000000D0B50446408806F097
:1026A000D3FF06460F46A08806F0CEFFC0A3D3E9AD
:1026B000002307F069F902460B462188002940F003
:1026C0004A813046394606F083FEBB4BC3E9000120
:1026D000208906F0B9FF06460F46608906F0B4FF70
:1026E000B3A3D3E9002307F04FF902460B46E18874
:1026F000002940F03B813046394606F069FEAF4B79
:10270000C3E90001E08906F09FFF06460F46208AD4
:1027100006F09AFFA6A3D3E9002307F035F9024695
:102720000B46A189002940F02C813046394606F03D
:102730004FFEA34BC3E90001A08A06F085FF0646C1
:102740000F46E08A06F080FF99A3D3E9002307F043
:102750001BF902460B46618A002940F01D81304674
:10276000394606F035FE974BC3E90001608B06F051
:102770006BFF06460F46A08B06F066FF8CA3D3E9DD
:10278000002307F001F902460B46218B002940F097
:102790002D813046394606F01BFE8B4BC3E9000104
:1027A000208C06F051FF06460F46608C06F04CFF69
:1027B0007FA3D3E9002307F0E7F802460B46E18B3D
:1027C000002940F01E813046394606F001FE7F4B5D
:1027D000C3E90001E08C06F037FF06460F46208D66
:1027E00006F032FF72A3D3E9002307F0CDF80246CA
:1027F0000B46A18C002940F00F813046394606F087
:10280000E7FD734BC3E90001A08D06F01DFF0646EE
:102810000F46E08D06F018FF65A3D3E9002307F00B
:10282000B3F802460B46618D002940F00081304626
:10283000394606F0CDFD674BC3E90001608E06F016
:1028400003FF06460F46A08E06F0FEFE58A3D3E90E
:10285000002307F099F802460B46218E002940F02C
:10286000F1803046394606F0B3FD5B4BC3E9000109
:10287000208F06F0E9FE06460F46608F06F0E4FE64
:102880004BA3D3E9002307F07FF802460B46E18E05
:10289000002940F0E2803046394606F099FD4F4B62
:1028A000C3E90001E08F06F0CFFE06460F46B4F8FC
:1028B000400006F0C9FE3EA3D3E9002307F064F808
:1028C00002460B46A18F002940F0D280304639469F
:1028D00006F07EFD424BC3E90001B4F8440006F067
:1028E000B3FE06460F46B4F8460006F0ADFE30A330
:1028F000D3E9002307F048F802460B46B4F842102B
:10290000002940F0C0803046394606F061FD354B65
:10291000C3E90001B4F84A0006F096FE06460F46E9
:10292000B4F84C0006F090FE21A3D3E9002307F091
:102930002BF802460B46B4F84810002900F0AE8090
:102940003046394606F044FD024601F1004326496F
:10295000C1E90023D0BD3046394606F039FD0246B4
:1029600001F100431449C1E90023B1E6304639467C
:1029700006F02EFD024601F100431049C1E9002393
:10298000C0E63046394606F023FD024601F1004319
:102990000B49C1E90023CFE63046394606F018FD61
:1029A000024601F100430749C1E90023DEE600BF0A
:1029B000000000000088C34060060020A006002040
:1029C000E00600203006002070060020B00600203F
:1029D000F00600205006002090060020D0060020BF
:1029E0004006002080060020C00600203046394600
:1029F00006F0EEFC024601F100432C49C1E9002338
:102A0000CEE63046394606F0E3FC024601F10043CB
:102A10002749C1E90023DDE63046394606F0D8FCF7
:102A2000024601F100432349C1E90023ECE63046A8
:102A3000394606F0CDFC024601F100431E49C1E9CA
:102A40000023FBE63046394606F0C2FC024601F19F
:102A500000431A49C1E900230AE73046394606F027
:102A6000B7FC024601F100431549C1E9002319E70B
:102A70003046394606F0ACFC024601F100431149EC
:102A8000C1E9002329E73046394606F0A1FC024699
:102A900001F100430C49C1E900233BE730463946C8
:102AA00006F096FC094BC3E90001D0BD700600207A
:102AB000B0060020F00600205006002090060020FE
:102AC000D00600204006002080060020C00600201E
:102AD000D0B50446408806F0B7FD06460F46A088EC
:102AE00006F0B2FDC0A3D3E9002306F04DFF024675
:102AF0000B462188002940F04A813046394606F0CD
:102B000067FCBB4BC3E90001208906F09DFD06462A
:102B10000F46608906F098FDB3A3D3E9002306F0C1
:102B200033FF02460B46E188002940F03B813046E6
:102B3000394606F04DFCAF4BC3E90001E08906F0D1
:102B400083FD06460F46208A06F07EFDA6A3D3E944
:102B5000002306F019FF02460B46A189002940F028
:102B60002C813046394606F033FCA34BC3E9000103
:102B7000A08A06F069FD06460F46E08A06F064FD6D
:102B800099A3D3E9002306F0FFFE02460B46618AB3
:102B9000002940F01D813046394606F019FC974B5C
:102BA000C3E90001608B06F04FFD06460F46A08B7F
:102BB00006F04AFD8CA3D3E9002306F0E5FE0246A9
:102BC0000B46218B002940F02D813046394606F016
:102BD000FFFB8B4BC3E90001208C06F035FD064658
:102BE0000F46608C06F030FD7FA3D3E9002306F08A
:102BF000CBFE02460B46E18B002940F01E81304699
:102C0000394606F0E5FB7F4BC3E90001E08C06F096
:102C10001BFD06460F46208D06F016FD72A3D3E974
:102C2000002306F0B1FE02460B46A18C002940F0BD
:102C30000F813046394606F0CBFB734BC3E90001E8
:102C4000A08D06F001FD06460F46E08D06F0FCFC67
:102C500065A3D3E9002306F097FE02460B46618D7B
:102C6000002940F000813046394606F0B1FB674B41
:102C7000C3E90001608E06F0E7FC06460F46A08E11
:102C800006F0E2FC58A3D3E9002306F07DFE0246DD
:102C90000B46218E002940F0F1803046394606F07F
:102CA00097FB5B4BC3E90001208F06F0CDFC064685
:102CB0000F46608F06F0C8FC4BA3D3E9002306F053
:102CC00063FE02460B46E18E002940F0E28030466A
:102CD000394606F07DFB4F4BC3E90001E08F06F05B
:102CE000B3FC06460F46B4F8400006F0ADFC3EA328
:102CF000D3E9002306F048FE02460B46A18F0029C7
:102D000040F0D2803046394606F062FB424BC3E9C0
:102D10000001B4F8440006F097FC06460F46B4F8EC
:102D2000460006F091FC30A3D3E9002306F02CFE08
:102D300002460B46B4F84210002940F0C0803046ED
:102D4000394606F045FB354BC3E90001B4F84A00AB
:102D500006F07AFC06460F46B4F84C0006F074FC08
:102D600021A3D3E9002306F00FFE02460B46B4F878
:102D70004810002900F0AE803046394606F028FBA6
:102D8000024601F100432649C1E90023D0BD304687
:102D9000394606F01DFB024601F100431449C1E922
:102DA0000023B1E63046394606F012FB024601F137
:102DB00000431049C1E90023C0E63046394606F019
:102DC00007FB024601F100430B49C1E90023CFE6AE
:102DD0003046394606F0FCFA024601F10043074945
:102DE000C1E90023DEE600BF000000000088C34008
:102DF00068060020A8060020E8060020380600200B
:102E000078060020B8060020F806002058060020AA
:102E100098060020D80600204806002088060020DA
:102E2000C80600203046394606F0D2FA024601F1C3
:102E300000432C49C1E90023CEE63046394606F06E
:102E4000C7FA024601F100432749C1E90023DDE644
:102E50003046394606F0BCFA024601F100432349E8
:102E6000C1E90023ECE63046394606F0B1FA0246E5
:102E700001F100431E49C1E90023FBE63046394613
:102E800006F0A6FA024601F100431A49C1E90023FF
:102E90000AE73046394606F09BFA024601F1004344
:102EA0001549C1E9002319E73046394606F090FA82
:102EB000024601F100431149C1E9002329E73046E8
:102EC000394606F085FA024601F100430C49C1E992
:102ED00000233BE73046394606F07AFA094BC3E94E
:102EE0000001D0BD78060020B8060020F8060020BA
:102EF0005806002098060020D8060020480600202A
:102F000088060020C806002010B594B00446502260
:102F10000021684606F0D9FE21466846FFF79CF876
:102F2000012C09D0282269460A4800F061F80446BD
:102F30004CB9204614B010BD28226946064800F05E
:102F400057F80446F4E759221021044800F002FB28
:102F5000EFE700BF004806080040060828A8000860
:102F600010B5A8B05024224600210DEB040006F055
:102F7000ACFE22460021684606F0A7FE28220DEB93
:102F800004010F4800F023F8282269460D4800F09C
:102F90001EF8BDF85030592B02D0002028B010BDCB
:102FA000BDF80030592B01D00020F7E70DF1520099
:102FB000FFF772FB0DF10200FFF78AFD0120EDE73C
:102FC0000040060800480608008880B27047F8B53F
:102FD00007460E461546002407E007EB4400FFF7BE
:102FE000F3FF26F814000134A4B2AC42F5D3F8BDC7
:102FF000B0F1006F25D3F8B500F17843DB0A03F593
:103000008033DC0200EB42050F4B9D4201D90020CA
:10301000F8BD16460F460546FDF788FA2046FDF72F
:10302000C3FA002407E037F8141005EB4400FDF75D
:10303000EBFA0134A4B2A642F5D8FDF783FA0120D9
:10304000F8BD0020704700BFFFFF070810B584B02F
:1030500001210846FDF708FE4FF4FA63ADF8083089
:103060004723ADF804300024ADF80A40ADF806401F
:1030700001A94FF08040FDF771FE01214FF0804023
:10308000FDF7EAFF012211464FF08040FDF778FF7F
:1030900001214FF08040FDF70FFF21460120FDF791
:1030A000E3FD04B010BD00B583B04FF4E060FDF760
:1030B000CFF91C238DF8043001238DF805308DF8ED
:1030C00006308DF8073001A8FDF7E2F903B05DF88E
:1030D00004FB08B5FFF7BAFFFFF7E5FF012108463B
:1030E000FDF7C2FD08BD000008B502211648FDF736
:1030F0004FFBB8B9154A136801331360134B1B68B3
:10310000142B04D90023114A1360114A1370114B78
:103110001B68142B05D900220E4B1A6001220C4BA0
:103120001A7008BD04210848FDF732FB0028E1D0E1
:1031300008210548FDF72CFB0028DBD0054A136861
:1031400001331360DAE700BF0010014018060020C9
:103150009D0000200007002008B501214FF08040AD
:10316000FDF7D6FF00B3204B1B6833B91F4A136825
:1031700001331360B3F5FA7F17D01D4B1B682BB9D1
:103180001C4A136801331360642B15D01A4B1B685B
:10319000012B18D00022194B1A60FFF7A5FF01215F
:1031A0004FF08040FEF724F808BD00220F4B1A6054
:1031B00001220D4B1A60E0E701220D4B1A6000223C
:1031C0000C4B1A60E2E70D4B1B680D4A12689342E4
:1031D00003D20133094A1360DFE70022064B1A606D
:1031E0000122084B1A60D8E708020020F0010020F5
:1031F00028060020F401002004020020FC01002029
:10320000F80100200002002030B583B00121042025
:10321000FDF704FD0425ADF8045018238DF80730A0
:1032200003238DF80630094C0DEB05012046FDF710
:1032300017FA0823ADF804308DF807500DEB05019F
:103240002046FDF70DFA03B030BD00BF0008014075
:1032500010B582B001210420FDF7E0FC4FF40073AB
:10326000ADF8043018238DF8073003238DF80630AD
:10327000094C01A92046FDF7F3F94FF48063ADF83E
:10328000043004238DF807300DEB03012046FDF7D1
:10329000E7F902B010BD00BF0008014010B582B0D0
:1032A00001210820FDF7BAFC4FF48063ADF804302B
:1032B00018238DF8073003238DF80630094C01A937
:1032C0002046FDF7CDF94FF40063ADF80430042338
:1032D0008DF807300DEB03012046FDF7C1F902B070
:1032E00010BD00BF000C014000B583B04FF4E0609A
:1032F000FDF7AEF826238DF8043000238DF8053055
:103300008DF8063001238DF8073001A8FDF7C0F8CD
:1033100003B05DF804FB000010B584B0FFF774FF44
:1033200001214FF40030FDF79FFC4FF496530093BA
:103330000023ADF80430ADF806304FF48062ADF8EC
:1033400008200C22ADF80A20ADF80C30094C694673
:103350002046FDF7A9FF012240F225512046FEF745
:10336000AFF8FFF7C1FF01212046FEF775F804B062
:1033700010BD00BF0044004000B583B04FF4E060D2
:10338000FDF766F825238DF8043002238DF805300B
:1033900003238DF8063001238DF8073001A8FDF7CF
:1033A00077F803B05DF804FB10B584B0FFF750FF69
:1033B00001214FF48040FDF731FC4FF41653009388
:1033C0000023ADF80430ADF80630ADF808300C221B
:1033D000ADF80A20ADF80C30094C69462046FDF7DF
:1033E00063FF012240F225512046FEF769F8FFF7FE
:1033F000C3FF01212046FEF72FF804B010BD00BF27
:103400000038014000B583B04FF4E060FDF720F8CC
:1034100027238DF8043002238DF8053004238DF81E
:10342000063001238DF8073001A8FDF731F803B00D
:103430005DF804FB10B584B0FFF730FF01214FF4B5
:103440008020FDF711FC4FF4165300930023ADF8D4
:103450000430ADF80630ADF808300C22ADF80A2083
:10346000ADF80C30094C69462046FDF71DFF0122DE
:1034700040F225512046FEF723F8FFF7C3FF012154
:103480002046FDF7E9FF04B010BD00BF0048004032
:1034900070B506460D4600240AE0315D0648FEF789
:1034A00087F880210448FEF7D1F80028F9D00134CC
:1034B000AC42F2D370BD00BF0048004010B582B0EE
:1034C00001211020FDF7AAFB4FF48063ADF8043012
:1034D00018238DF8073003238DF80630094C01A915
:1034E0002046FDF7BDF84FF40063ADF80430042327
:1034F0008DF807300DEB03012046FDF7B1F802B05F
:1035000010BD00BF0010014010B584B0FFF7D6FF1A
:1035100001214FF40020FDF7A7FB4FF41653009351
:103520000023ADF80430ADF80630ADF808300C22B9
:10353000ADF80A20ADF80C30054C69462046FDF781
:10354000B3FE01212046FDF787FF04B010BD00BF88
:10355000004C0040592A00D0704770B50D46064611
:1035600000240AE0315D0648FEF722F88021044875
:10357000FEF76CF80028F9D00134AC42F2D370BDEC
:10358000004C00402DE9F04383B0064689461746BB
:103590001C4600258DF80750ADF804502B46A84670
:1035A0001BE05A2B3BD19DF8042089F8002089F8B4
:1035B00001304546A04632E09DF8073009F8053055
:1035C00001350023314A1360314A13608CBB6422F9
:1035D000304B1A602346012B4DD0D6F8F420002A38
:1035E0003FDDBD424ED00DF107013046FEF798FB9E
:1035F0000028E6D1002CDFD19DF8073009F805300E
:1036000003F11002D2B20E2A03D9552B01D0AA2BF6
:1036100002D18DF80430A046B8F1010FC1D00135B8
:1036200008F10108182DCCD199F80030552BC8D1DC
:1036300028E0012C05D0022C09D0142C0CD000233A
:10364000C9E74FF47A72134B1A600023C3E7642270
:10365000104B1A600023BEE714220E4B1A600023A1
:10366000B9E7002BB7D10121084A116000210A4AAD
:1036700011600133AFE7064A1268012AADD100227A
:10368000034B1A60284603B0BDE8F0830402002013
:1036900000020020F8010020FC01002010B540F2DB
:1036A00025510948FEF728F800B910BD064C40F234
:1036B00025512046FEF7A0F82046FDF7A5FFC1B230
:1036C0000248FEF715FBF0E700380140180900201A
:1036D00010B540F225510948FEF70EF800B910BDAB
:1036E000064C40F225512046FEF786F82046FDF7AD
:1036F0008BFFC1B20248FEF7FBFAF0E7004400403E
:103700001007002010B540F225510948FDF7F4FFDD
:1037100000B910BD064C40F225512046FEF76CF86A
:103720002046FDF771FFC1B20248FEF7E1FAF0E76B
:10373000004800401408002010B540F22551094807
:10374000FDF7DAFF00B910BD064C40F225512046C6
:10375000FEF752F82046FDF757FFC1B20248FEF7C8
:10376000C7FAF0E7004C004018090020034638B1C2
:10377000002001E0013001331A78002AFAD17047A5
:103780000020704770B4002403E06518165D4655AC
:1037900001349C42F9D370BC704700002DE9F84316
:1037A00006460F4690461D469DF8209006F05CFAAE
:1037B000012211E0A91A214BA3FB0043DB0803EB14
:1037C00083035C00031B303308F801301B4BA3FB61
:1037D0000030C0080132D2B2AA4206D80028E9D18E
:1037E000AB1A302108F80310F0E7B9F1000F23D02D
:1037F0002E2308F80530012417E00022104B304634
:10380000394605F097FF06460F4606F02DFA2919AE
:103810000A4BA3FB0023DB0803EB83035A00831A44
:10382000303308F801300134E4B24C45E5D94D4459
:103830000135002308F80530BDE8F883CDCCCCCCA9
:10384000000024400B09092B08D83033037001F025
:103850000F01092905D9373141707047373303709B
:10386000F5E73031417070472DE9F04782B081466D
:103870000D4690460024444504D22B5D2E2B28D0C3
:103880000134F8E7002600274FF0000A10E015F891
:103890000A00303805F0E8FE32463B4605F098FD58
:1038A00000222D4B05F046FF06460F460AF1010A9D
:1038B0005445ECD80022284B3046394606F064F8CF
:1038C000CDE90001B8EB040A08D001340026002736
:1038D00018E0002600274FF0000AE9E703460C46EF
:1038E000C9E9003433E0285D303805F0BDFE3246CA
:1038F0003B4605F06DFD0022174B05F01BFF064609
:103900000F4601344445EED30022134B304639466E
:1039100006F03AF804460D4600201049002604E05F
:1039200000220D4B05F006FF01360AF1FF339E42DF
:10393000F6D302460B462046294606F025F80246F5
:103940000B46DDE9000105F043FDC9E90001012056
:1039500002B0BDE8F08700BF000024400000F03F47
:1039600000B583B001210820FDF758F94FF45073DA
:10397000ADF8043003238DF8063010238DF807309E
:1039800001A90348FCF76CFE03B05DF804FB00BF1F
:10399000000C014000B583B04FF40073ADF8043063
:1039A00003238DF8063010238DF8073001A9034852
:1039B000FCF756FE03B05DF804FB00BF000C0140AD
:1039C00000B583B04FF40073ADF8043003238DF8D5
:1039D000063048238DF8073001A90348FCF740FE64
:1039E00003B05DF804FB00BF000C014010B50B4CA8
:1039F0004FF400712046FCF727FF4FF480712046FA
:103A0000FCF722FF4FF400712046FCF74DFF4FF406
:103A100080712046FCF748FF10BD00BF000C01403C
:103A200010B5084C4FF480712046FCF70DFF4FF4A1
:103A300000712046FCF738FF4FF400712046FCF778
:103A400003FF10BD000C014010B5FFF7B9FF4FF4A4
:103A500080710E48FCF7F8FE42F210735C1E002BDA
:103A600011DD4FF400710948FCF792FE234604462D
:103A70000028F3D14FF480710448FCF715FFFFF7DD
:103A800089FF204610BD0124FBE700BF000C014068
:103A900070B50546012383F31088FFF77BFF0024F0
:103AA00013E04FF400711348FCF7CEFE114E4FF4B3
:103AB00080713046FCF7C8FE4FF480713046FCF749
:103AC000F3FE6D00EDB20134E4B2072C0DD84FF4D3
:103AD00080710848FCF7E8FE15F0800FE1D14FF443
:103AE00000710448FCF7E0FEE0E7002383F3108850
:103AF00070BD00BF000C014010B50446FFF776FF13
:103B00007820FFF7C5FFFFF79FFF68B90020FFF798
:103B1000BFFFFFF799FF70B159220F210E48FFF741
:103B200019FD0224204610BD59220F210B48FFF732
:103B300011FD0124F6E72046FFF7AAFFFFF784FFF7
:103B4000044630B1592210210548FFF703FD032434
:103B5000E8E7FFF765FFE5E7A8B5000898B50008B6
:103B6000B8B50008F8B506460D46FFF73FFF7820C8
:103B7000FFF78EFFFFF768FF90B94020FFF788FF3F
:103B8000FFF762FF074698B90446AC421ED2305D8B
:103B9000FFF77EFFFFF758FF88B90134E4B2F4E77E
:103BA000592211210B48FFF7D5FC01273846F8BDF3
:103BB00059220F210848FFF7CDFC0227F6E75922CA
:103BC0000F210648FFF7C6FC0327EFE7FFF728FFA2
:103BD000ECE700BFCCB50008E0B50008F0B5000880
:103BE00010B504465039C8B2FFF786FF200940F0EF
:103BF0001000FFF781FF0120FFF77EFF002010BDBE
:103C000010B500240BE021460020FFF7E9FF8021DA
:103C1000044800EBC410FFF7A5FF0134E4B2072C01
:103C2000F1D910BD0C02002008B530B1FF214FF4CE
:103C30008062034806F049F808BD0021F7E700BF9D
:103C40000C02002008B5074B1B78834207D0054BB8
:103C500018700020FFF7E8FFFFF7D2FF08BD0F281C
:103C6000FCD1F4E70C06002010B5FFF779FE324CCA
:103C700040212046FCF718FE40212046FCF7E4FDD9
:103C800059220C212D48FFF765FCAE20FFF734FFC9
:103C9000D520FFF731FF8020FFF72EFFA820FFF788
:103CA0002BFF3F20FFF728FFD320FFF725FF002041
:103CB000FFF722FF4020FFF71FFF8D20FFF71CFFBB
:103CC0001420FFF719FFA120FFF716FFC820FFF708
:103CD00013FFDA20FFF710FF1220FFF70DFF8120FE
:103CE000FFF70AFFCF20FFF707FFD920FFF704FFF8
:103CF000F120FFF701FFDB20FFF7FEFE4020FFF77A
:103D0000FBFEA420FFF7F8FEA620FFF7F5FE00203B
:103D1000FFF78AFFFFF774FFAF20FFF7EDFE084BB8
:103D200000221A805A8001245C7159220E21054814
:103D3000FFF710FC204610BD000C014000B6000843
:103D40001006002010B60008014B188059807047FB
:103D5000100600207F2815D83F2913D8104B1B7957
:103D600013B1B2FA82F25209012A0CD0CB0800EB4F
:103D7000C31001F0070101238B400A4A115C21EABC
:103D8000030111547047CB0800EBC31001F0070189
:103D900001238B40034A115C19431154704700BF43
:103DA000100600200C0200202DE9F843234B1B884D
:103DB0000C7823447F2B3BDC204B5B884C782344DE
:103DC0003F2B38DC90460E46814600251CE01B4BFD
:103DD00018885988B8FA88F2520929442044FFF714
:103DE000B9FF013433789C420DD207FA04F313F47F
:103DF000004FECD0114B1888598842462944204482
:103E0000FFF7A8FFEDE701357278954208D2716897
:103E1000A9F1200302FB035331F813700024E1E7FA
:103E20003378064A11880B4413804846BDE8F8836E
:103E30000020BDE8F8830020BDE8F88310060020CC
:103E400070B514461D469DF810601B7803FB00F00A
:103E50006B7803FB01F101310130FFF775FF20782A
:103E600040B132462946FFF79FFF2378984204D19C
:103E70000134F4E7FFF7C4FE2378184670BD000054
:103E80002DE9F04391B0CDE90401CDE902230024EE
:103E90000D940E94ADF83C400A940B94ADF830406C
:103EA00007940894ADF824400420FFF7CBFE344E6D
:103EB000012500953346334A21462046FFF7C0FFCF
:103EC00000953346304A29462046FFF7B9FF009552
:103ED00033462E4A02212046FFF7B2FF00953346B3
:103EE0002B4A21460A20FFF7ABFF00953346294AAB
:103EF00029460A20FFF7A4FF00953346264A0221EF
:103F00000A20FFF79DFF10A870E90C89FEF76EF8F4
:103F100002270097C3B20DAA40464946FFF73EFC70
:103F2000009533460DAA21460320FFF789FF10A80C
:103F300070E90E89FEF75AF80097C3B20AAA404604
:103F40004946FFF72BFC009533460AAA2946032071
:103F5000FFF776FFDDE9188918A8FEF747F8009704
:103F6000C3B207AA40464946FFF718FC00953346FE
:103F700007AA39460320FFF763FF11B0BDE8F083BD
:103F80003400002010B7000814B7000818B7000864
:103F90001CB7000820B700080CB7000830B583B084
:103FA0000720FFF74FFE094D012400942B46084AD5
:103FB00000210846FFF744FF00942B46054A21469E
:103FC0000020FFF73DFF03B030BD00BF34000020EC
:103FD000A8B60008B0B6000830B583B00620FFF7D9
:103FE00031FE134D012400942B46124A002108464D
:103FF000FFF726FF00942B460F4A21460020FFF7CB
:104000001FFF00942B460D4A02210020FFF718FFE6
:1040100000942B460A4A02210A20FFF711FF009460
:104020002B46084A02210520FFF70AFF03B030BDE6
:1040300034000020BCB60008C4B60008D0B60008A2
:10404000D8B60008DCB6000830B583B00520FFF70D
:10405000F9FD134D012400942B46124A0021084615
:10406000FFF7EEFE00942B460F4A21460020FFF793
:10407000E7FE00942B460D4A02210020FFF7E0FEE8
:1040800000942B460A4A02210A20FFF7D9FE009429
:104090002B46084A02210520FFF7D2FE03B030BDAF
:1040A000340000207CB60008C4B60008D0B6000872
:1040B000D8B60008DCB6000830B583B00320FFF79F
:1040C000C1FD0C4D012400942B460B4A00210846EB
:1040D000FFF7B6FE00942B46084A21460020FFF762
:1040E000AFFE00942B46064A02210020FFF7A8FEEF
:1040F00003B030BD34000020ECB60008F8B600086C
:1041000004B7000830B583B00820FFF79BFD094DC8
:10411000012400942B46084A00210846FFF790FE30
:1041200000942B46054A21460020FFF789FE03B084
:1041300030BD00BF3400002050B60008E0B60008D3
:1041400030B583B00A20FFF77DFD0C4D01240094AB
:104150002B460B4A00210846FFF772FE00942B46BF
:10416000084A21460020FFF76BFE00942B46064AC2
:1041700002210020FFF764FE03B030BD34000020B0
:1041800048B7000854B700085CB7000830B583B0E2
:104190000A20FFF757FD0C4D012400942B460B4AD3
:1041A00000210846FFF74CFE00942B46084A2146A2
:1041B0000020FFF745FE00942B46064A022100200E
:1041C000FFF73EFE03B030BD3400002048B70008C2
:1041D00054B700083CB7000830B583B00B20FFF798
:1041E00031FD0C4D012400942B460B4A002108465A
:1041F000FFF726FE00942B46084A21460020FFF7D1
:104200001FFE00942B46064A02210020FFF718FEED
:1042100003B030BD3400002024B7000854B70008B4
:1042200030B7000830B583B00C20FFF70BFD0C4D04
:10423000012400942B460B4A00210846FFF700FE9C
:1042400000942B46084A21460020FFF7F9FD009410
:104250002B46064A02210020FFF7F2FD03B030BDD5
:104260003400002024B7000854B700085CB70008E9
:1042700030B583B00D20FFF7E5FC0C4D0124009410
:104280002B460B4A00210846FFF7DAFD00942B4627
:10429000084A21460020FFF7D3FD00942B46064A2A
:1042A00002210020FFF7CCFD03B030BD3400002018
:1042B00024B7000884B6000890B6000830B583B073
:1042C0000E20FFF7BFFC0C4D012400942B460B4A37
:1042D00000210846FFF7B4FD00942B46084A21460A
:1042E0000020FFF7ADFD00942B46064A0221002076
:1042F000FFF7A6FD03B030BD3400002024B700084E
:1043000084B6000870B6000830B583B01120FFF7FE
:1043100099FC0C4D012400942B460B4A00210846C1
:10432000FFF78EFD00942B46084A21460020FFF738
:1043300087FD00942B46064A02210020FFF780FDEE
:1043400003B030BD3400002024B7000884B6000854
:104350009CB60008000000002DE9F04391B0CDE9C3
:104360000401CDE9022300230D930E93ADF83C30F8
:104370000A930B93ADF8303007930893ADF82430CF
:104380000920FFF75FFC049D059C002200232846BE
:10439000214605F041FC002862D14FF00409029D3E
:1043A000039C3FA3D3E900232846214605F034FCB3
:1043B000002865D14FF0040810A870E90C67FDF7DC
:1043C00015FE03240094C3B20DAA30463946FFF708
:1043D000E5F910A870E90E67FDF708FE0094C3B276
:1043E0000AAA30463946FFF7D9F9DDE9186718A857
:1043F000FDF7FCFD0094C3B207AA30463946FFF72B
:10440000CDF9294D012400942B46284A0021084665
:10441000FFF716FD00942B46254A21460020FFF7A2
:104420000FFD00942B46234A02210020FFF708FDD0
:1044300000942B460DAA00214846FFF701FD009489
:104440002B460AAA21464046FFF7FAFC00942B4669
:1044500007AA02210420FFF7F3FC11B0BDE8F083A6
:104460002A4604F10043CDE90423012300930E4BB7
:10447000114A00210846FFF7E3FC4FF005098EE7DB
:104480002A4604F10043CDE9022301210091064BA5
:10449000094A0420FFF7D4FC4FF005088CE700BF61
:1044A000F168E388B5F8E43E3400002028B600083F
:1044B00030B6000838B6000824B600080000000036
:1044C0002DE9F04F9DB002908A46049103921F4659
:1044D000DDF89890DDF89C80DDF8A0B0299E0023DF
:1044E00019931A93ADF86C3016931793ADF86030AA
:1044F00013931493ADF8543010931193ADF84830E2
:1045000000240025CDE90E45CDE90C45CDE90A454D
:10451000CDE908451020FFF795FB22462B4602986F
:10452000514605F079FB002840F0B3800223059343
:1045300073A3D3E900230398394605F06DFB0028E7
:1045400040F0B5804FF0020A002200234846414661
:1045500005F062FB002840F0B7800723069368A3AC
:10456000D3E900235846314605F056FB002840F0B9
:10457000B780072307930022634B0298049905F044
:10458000D9F804460D46CDE90E4500225E4B03984E
:10459000394605F0CFF8CDE90C0100225A4B4846C8
:1045A000414605F0C7F8CDE90A010022564B5846AE
:1045B000314605F0BFF8CDE908010EA8FDF716FD5C
:1045C00000260096C3B219AA20462946FFF7E6F84E
:1045D0001CA870E91045FDF709FD0096C3B216AAA4
:1045E00020462946FFF7DAF81CA870E91245FDF7C6
:1045F000FDFC0096C3B213AA20462946FFF7CEF869
:104600001CA870E91445FDF7F1FC0096C3B210AA8E
:1046100020462946FFF7C2F83C4D012400942B4662
:104620003B4A31460220FFF70BFC00942B46394AE7
:1046300031460720FFF704FC00942B46364A2146FA
:104640003046FFF7FDFB00942B46344A02213046EA
:10465000FFF7F6FB00942B4619AA21460598FFF7B1
:10466000EFFB00942B4616AA02215046FFF7E8FB09
:1046700000942B4613AA21460698FFF7E1FB00940D
:104680002B4610AA02210798FFF7DAFB1DB0BDE800
:10469000F08F049B03F100430493012100911B4B15
:1046A0001F4A0220FFF7CCFB0323059340E707F1E5
:1046B000004701230093154B194A02210846FFF7D2
:1046C000BFFB4FF0030A3FE708F1004801210091CA
:1046D0000E4B134A0720FFF7B3FB082306933EE770
:1046E00006F1004601230093084B0D4A02210720E2
:1046F000FFF7A6FB082307933DE700BFAFF3008059
:10470000F168E388B5F8E43E00408F4034000020B3
:1047100040B6000844B6000848B600084CB6000889
:1047200024B6000810B584B004460023ADF80C3060
:104730008DF80E3064281AD0092C21D9164BA3FB12
:104740000423DB0803F130028DF80C2003EB830314
:104750005A00A21A30328DF80D20012300930F4B1E
:1047600003AA02210520FFF76BFB04B010BD012353
:1047700000930A4B0A4A02210520FFF761FBDBE7A1
:10478000303404AA02F8044D01230093034B0221A4
:104790000520FFF755FBE8E7CDCCCCCC340000205A
:1047A00020B6000808B5FCF7AFF84FF48030FCF7EE
:1047B000CBF8FCF7B9FA124B1870A8B94FF4E01116
:1047C0004FF48030FCF7EEF80120FCF737F9392080
:1047D000FCF770FA0028FAD00220FCF73FF9FCF74A
:1047E00053F90828FBD108BD0020FCF755F900203B
:1047F000FCF796F94FF48060FCF772F9DEE700BF32
:104800001C0A002000B583B0ADF8041003238DF816
:10481000063010238DF8073001A9FBF721FF03B004
:104820005DF804FB70B501210420FCF7F7F90121C4
:104830000820FCF7F3F901211020FCF7EFF9244CD4
:104840004FF480712046FFF7DDFF224E8021304675
:10485000FFF7D8FF40213046FFF7D4FF1E4D4FF43D
:1048600000412846FFF7CEFF4FF480412846FFF76E
:10487000C9FF4FF400512846FFF7C4FF4FF48051A1
:104880002846FFF7BFFF02212846FFF7BBFF0121A3
:104890002846FFF7B7FF20213046FFF7B3FF10216E
:1048A0003046FFF7AFFF80212046FFF7ABFF4021E6
:1048B0002046FFF7A7FF20212046FFF7A3FF102186
:1048C0002046FFF79FFF02212046FFF79BFF70BDA8
:1048D0000008014000100140000C014070B582B09A
:1048E00001211020FCF79AF90123ADF804300325CB
:1048F0008DF8065010238DF80730154C01A920467D
:10490000FBF7AEFE0223ADF804308DF806504826C2
:104910008DF8076001A92046FBF7A2FE0423ADF83D
:1049200004308DF806508DF807600DEB030120462A
:10493000FBF796FE0823ADF804308DF806508DF88D
:10494000076001A92046FBF78BFE02B070BD00BFD7
:104950000010014010B4C47D182902D0002010BC02
:1049600070470378552B01D01846F8E7037D03F014
:1049700070026F2A02DD0223002204E01846EEE7EF
:10498000C15C0A440133162BFAD9D2B2944201D049
:104990000020E4E70120E2E72DE9F04F8BB08046EC
:1049A0000F461646002407940894ADF8244004945A
:1049B0000594ADF8184001940294ADF80C406923B9
:1049C0008DF8033076238DF8023070238DF8013096
:1049D000A1462546022D3CD87548FDF76DF975486E
:1049E000FDF76AF901210DF10300FEF751FD0022E8
:1049F000714B1A6064230A2201A96E48FEF7C2FDBA
:104A0000044602280FD86C4B1B68012BF2D109F128
:104A100001095FFA89F9B9F1020F00F2BB800022A7
:104A2000654B1A60E6E759220C216448FEF792FDB7
:104A30005922214601A8FEF78DFD59220221604826
:104A4000FEF788FD2CB9022D00F0A9800135EDB2EA
:104A5000C0E74FF00009CA464D46BAF1020F3FD8F1
:104A60005348FDF729F901210DF10200FEF710FD71
:104A70000022514B1A6064230A2204A94D48FEF714
:104A800081FD054602280ED84B4B1B68012BF2D145
:104A900009F101095FFA89F9B9F1020F7CD8002206
:104AA000454B1A60E7E75922014604A8FEF752FD7C
:104AB00059220C214348FEF74DFD5922294604A8EE
:104AC000FEF748FD592202213D48FEF743FD3DB95E
:104AD000BAF1020F62D00AF1010A5FFA8AFABCE762
:104AE0004FF0000AD346D146BBF1020F41D83048FF
:104AF000FDF7E2F801210DEB0100FEF7C9FC0022F1
:104B00002D4B1A6064230A2207A92A48FEF73AFDB2
:104B1000814602280ED8284B1B68012BF2D10AF1DE
:104B2000010A5FFA8AFABAF1020F3CD80022224B3E
:104B30001A60E7E75922014607A8FEF70BFD592244
:104B40000C212148FEF706FD5922494607A8FEF729
:104B500001FD592202211A48FEF7FCFCB9F1000FB1
:104B600007D1BBF1020F20D00BF1010B5FFA8BFBD9
:104B7000BAE74A4607A94046FEF776FE2A4604A948
:104B80003846FEF771FE224601A93046FEF76CFE5C
:104B9000012404E0002402E0002400E02C4620462A
:104BA0000BB0BDE8F08F0024F9E74C46F7E700BFF3
:104BB000180900201408002008020020D8B90008B5
:104BC00008BC0008E8B90008F8B900082DE9F04F62
:104BD00083B0834692469946FFF7BCFE012803D076
:104BE000C0B203B0BDE8F08F9BF80E009BF80F3009
:104BF00043EA00239BF810009BF802209BF8037007
:104C000047EA02229BF8047047EA02279BF8082033
:104C10009BF8095045EA02229BF80A5045EA022512
:104C20009BF811209BF8128048EA02229BF813801F
:104C300048EA02289BF805209BF8066046EA022213
:104C40009BF8076046EA02269BF80B209BF80C4075
:104C500044EA02229BF80D4044EA022440EA032081
:104C600004F0F2FCCDE90001404604F0EDFC024600
:104C70000B46DDE9000104F087FECAE90001384671
:104C800004F0E2FC82468B46304604F0DDFC02462E
:104C90000B465046594604F077FEC9E90001284604
:104CA00004F0D2FC06460F46204604F0CDFC024636
:104CB0000B463046394604F067FE0C9BC3E9000101
:104CC00001208EE7F0B589B017461E460E9D0022E2
:104CD0000023CDE90623CDE90423CDE9022302AB6D
:104CE000009304AB06AAFFF771FF0446012802D027
:104CF000204609B0F0BDDDE90623C7E90023DDE960
:104D00000423C6E90023DDE90223C5E900230022CC
:104D1000534BD6E9000104F07FFF002850D0002259
:104D2000504BD7E9000104F095FF00282FD0002256
:104D30004D4BDDE9060104F0FDFC4C4BD3E90023AB
:104D400004F0F8FC4A4BD3E9002304F041FB0022B5
:104D5000454B04F019FEC7E900010022454BD5E997
:104D6000000104F077FF08B3434BD3E90023DDE9EA
:104D7000020104F0DFFCC5E90001404BD3E9002348
:104D8000DDE9040104F024FBC6E90001B0E73C4B77
:104D9000D3E90023DDE9060104F0CCFC394BD3E96B
:104DA000002304F015FBC7E90001D6E7324BD3E935
:104DB0000023DDE9020104F0BDFCC5E90001DCE7E8
:104DC0000022314BD7E9000104F044FF00282ED027
:104DD0002E4BD3E90023DDE9060104F0ABFC2C4B9C
:104DE000D3E9002304F0F4FAC7E9000100224FF0F0
:104DF0008043D5E9000104F02DFF002826D0254B83
:104E0000D3E90023DDE9020104F094FC224BD3E94D
:104E1000002304F0DDFAC5E90001204BD3E90023AB
:104E2000DDE9040104F0D4FAC6E9000160E71C4B97
:104E3000D3E90023DDE9060104F07CFC194BD3E93A
:104E4000002304F0C5FAC7E90001CFE7164BD3E908
:104E50000023DDE9020104F06DFCC5E90001DCE797
:104E6000000069400000184000002440580600205F
:104E7000980600200000F03F48060020F8060020B9
:104E800068060020A80600200000394050060020D7
:104E9000900600203006002070060020F00600205A
:104EA00060060020A00600204006002030B5A1B01A
:104EB00000231D931E93ADF87C30B34BD3E9002340
:104EC000CDE91A23B14BD3E90023CDE91823B04B28
:104ED000D3E90023CDE91623AE4BD3E90023CDE976
:104EE0001423AD4BD3E90023CDE91223AB4BD3E917
:104EF0000023CDE91023AA4BD3E90023CDE90E23EB
:104F0000A84BD3E90023CDE90C23A74BD3E9002319
:104F1000CDE90A23A54BD3E90023CDE90823A44B0F
:104F2000D3E90023CDE90623A24BD3E90023CDE941
:104F30000423A14BD3E90023CDE9022359220921FF
:104F40009E48FEF707FB1A9D1B9C00220023284663
:104F5000214604F07FFE002800F00B821AA8FDF71E
:104F600045F804230093C3B21DAA28462146FEF744
:104F700015FC592206211DA8FEF7ECFA5922022140
:104F80008F48FEF7E7FA592209218E48FEF7E2FA28
:104F9000189D199C002200232846214604F05AFE41
:104FA000002800F0FD8118A8FDF720F804230093E5
:104FB000C3B21DAA28462146FEF7F0FB592206215E
:104FC0001DA8FEF7C7FA592202217D48FEF7C2FA52
:104FD000592209217C48FEF7BDFA169D179C002234
:104FE00000232846214604F035FE002800F0EF811A
:104FF00016A8FCF7FBFF04230093C3B21DAA2846A2
:105000002146FEF7CBFB592206211DA8FEF7A2FA86
:10501000592204216D48FEF79DFA592209216C4856
:10502000FEF798FA1A9D1B9C002200232846214671
:1050300004F010FE002800F0E18120A870E90C4582
:10504000FCF7D4FF04230093C3B21DAA20462946CF
:10505000FEF7A4FB592206211DA8FEF77BFA592270
:1050600002215748FEF776FA592209215948FEF7DE
:1050700071FA189D199C002200232846214604F04D
:10508000E9FD002800F0D28120A870E90E45FCF768
:10509000ADFF04230093C3B21DAA20462946FEF7A4
:1050A0007DFB592206211DA8FEF754FA5922022140
:1050B0004348FEF74FFA592209214748FEF74AFABA
:1050C000169D179C002200232846214604F0C2FDAD
:1050D000002800F0C38120A870E91045FCF786FF86
:1050E00004230093C3B21DAA20462946FEF756FBAF
:1050F000592206211DA8FEF72DFA59220421334812
:10510000FEF728FA592209213448FEF723FA0E9DAA
:105110000F9C002200232846214604F09BFD002816
:1051200000F0B4810EA8FCF761FF04230093C3B222
:105130001DAA28462146FEF731FB592206211DA84B
:10514000FEF708FA592202211D48FEF703FA5922F8
:1051500009212348FEF7FEF90C9D0D9C0022002337
:105160002846214604F076FD002800F0A6810CA810
:10517000FCF73CFF04230093C3B21DAA2846214636
:10518000FEF70CFB2EE000BF68060020A8060020FA
:10519000E80600205806002098060020D8060020C7
:1051A0004806002088060020C80600203806002097
:1051B00078060020B8060020F8060020CCB80008C9
:1051C00008BC0008D8B80008E4B80008F0B8000827
:1051D000F8B8000804B9000810B900081CB90008A4
:1051E00028B90008592206211DA8FEF7B3F9592253
:1051F0000221BD48FEF7AEF959220921BB48FEF74E
:10520000A9F90A9D0B9C002200232846214604F0A0
:1052100021FD002800F07881DDE904450AA8FCF7AB
:10522000E5FE04230093C3B21DAA20462946FEF7DB
:10523000B5FA592206211DA8FEF78CF9592204213E
:10524000AB48FEF787F959220821AA48FEF782F9F0
:10525000089D099C002200232846214604F0FAFC00
:10526000002800F0688108A8FCF7C0FE0423009322
:10527000C3B21DAA28462146FEF790FA59220621FC
:105280001DA8FEF767F9592202219748FEF762F937
:10529000592208219848FEF75DF9069D079C0022D7
:1052A00000232846214604F0D5FC002800F05A814E
:1052B00006A8FCF79BFE04230093C3B21DAA284650
:1052C0002146FEF76BFA592206211DA8FEF742F986
:1052D000592202218448FEF73DF9592208218748C6
:1052E000FEF738F9049D059C00220023284621463C
:1052F00004F0B0FC002800F04C8104A8FCF776FE16
:1053000004230093C3B21DAA28462146FEF746FA9D
:10531000592206211DA8FEF71DF9592202217248C3
:10532000FEF718F9592208217548FEF713F9029D76
:10533000039C002200232846214604F08BFC002811
:1053400000F03E8102A8FCF751FE04230093C3B293
:105350001DAA28462146FEF721FA592206211DA83A
:10536000FEF7F8F8592202215F48FEF7F3F821B062
:1053700030BD04F100442A46234620A860E90623F4
:10538000FCF734FE04230093C3B21DAA284621462D
:10539000FEF704FA592201215A48FEF7DBF8E8E546
:1053A00004F100442A46234620A860E90823FCF7BC
:1053B0001DFE04230093C3B21DAA28462146FEF712
:1053C000EDF9592201214F48FEF7C4F8F6E504F142
:1053D00000442A46234620A860E90A23FCF706FE7B
:1053E00004230093C3B21DAA28462146FEF7D6F92E
:1053F000592201214348FEF7ADF804E62A4604F19C
:105400000043CDE91A2320A870E90C45FCF7EEFD16
:1054100004230093C3B21DAA20462946FEF7BEF915
:10542000592201213748FEF795F813E62A4604F180
:105430000043CDE9182320A870E90E45FCF7D6FDFE
:1054400004230093C3B21DAA20462946FEF7A6F9FD
:10545000592201212B48FEF77DF822E62A4604F165
:105460000043CDE9162320A870E91045FCF7BEFDE6
:1054700004230093C3B21DAA20462946FEF78EF9E5
:10548000592201211F48FEF765F831E604F1004476
:105490002A46234620A860E91223FCF7A7FD04232F
:1054A0000093C3B21DAA28462146FEF777F9592278
:1054B00001211448FEF74EF83FE604F100442A4665
:1054C000234620A860E91423FCF790FD04230093F1
:1054D000C3B21DAA28462146FEF760F959220121D0
:1054E0000848FEF737F87DE608BC000834B9000824
:1054F000F0B8000840B900084CB9000858B90008D5
:1055000064B9000824B6000804F100442A46234682
:1055100020A860E91623FCF769FD04230093C3B2B9
:105520001DAA28462146FEF739F9592201213048A3
:10553000FEF710F87DE604F100442A46234620A831
:1055400060E91823FCF752FD04230093C3B21DAA9F
:1055500028462146FEF722F9592201212448FDF769
:10556000F9FF8BE604F100442A46234620A860E9AF
:105570001A23FCF73BFD04230093C3B21DAA28465F
:105580002146FEF70BF9592201211948FDF7E2FFE8
:1055900099E604F100442A46234620A860E91C232A
:1055A000FCF724FD04230093C3B21DAA284621461C
:1055B000FEF7F4F8592201210D48FDF7CBFFA7E6CD
:1055C00004F100442A46234620A860E91E23FCF784
:1055D0000DFD04230093C3B21DAA28462146FEF701
:1055E000DDF8592201210248FDF7B4FFB5E600BFFE
:1055F00024B6000830B5A1B000231D931E93ADF86A
:105600007C30B34BD3E90023CDE91A23B14BD3E966
:105610000023CDE91823B04BD3E90023CDE91623AD
:10562000AE4BD3E90023CDE91423AD4BD3E90023DE
:10563000CDE91223AB4BD3E90023CDE91023AA4BCC
:10564000D3E90023CDE90E23A84BD3E90023CDE90C
:105650000C23A74BD3E90023CDE90A23A54BD3E9BB
:105660000023CDE90823A44BD3E90023CDE9062389
:10567000A24BD3E90023CDE90423A14BD3E90023B6
:10568000CDE90223592205219E48FDF763FF1A9DAB
:105690001B9C002200232846214604F0DBFA002848
:1056A00000F009821AA8FCF7A1FC04230093C3B2FE
:1056B0001DAA28462146FEF771F8592206211DA889
:1056C000FDF748FF592202218F48FDF743FF592279
:1056D00005218E48FDF73EFF189D199C00220023EE
:1056E0002846214604F0B6FA002800F0FB8118A8ED
:1056F000FCF77CFC04230093C3B21DAA2846214674
:10570000FEF74CF8592206211DA8FDF723FF592268
:1057100002217D48FDF71EFF592205217C48FDF737
:1057200019FF169D179C002200232846214604F0ED
:1057300091FA002800F0ED8116A8FCF757FC04232D
:105740000093C3B21DAA28462146FEF727F8592226
:1057500006211DA8FDF7FEFE592204216D48FDF724
:10576000F9FE592205216C48FDF7F4FE1A9D1B9C99
:10577000002200232846214604F06CFA002800F09D
:10578000DF8120A870E90C45FCF730FC042300936E
:10579000C3B21DAA20462946FEF700F85922062169
:1057A0001DA8FDF7D7FE592202215748FDF7D2FE6A
:1057B000592205215948FDF7CDFE189D199C00225C
:1057C00000232846214604F045FA002800F0D08145
:1057D00020A870E90E45FCF709FC04230093C3B22E
:1057E0001DAA20462946FDF7D9FF592206211DA8EA
:1057F000FDF7B0FE592202214348FDF7ABFE5922C6
:1058000005214748FDF7A6FE169D179C00220023A0
:105810002846214604F01EFA002800F0C18120A885
:1058200070E91045FCF7E2FB04230093C3B21DAA04
:1058300020462946FDF7B2FF592206211DA8FDF793
:1058400089FE592204213348FDF784FE592205219F
:105850003448FDF77FFE0E9D0F9C00220023284652
:10586000214604F0F7F9002800F0B2810EA8FCF7F9
:10587000BDFB04230093C3B21DAA28462146FDF7B1
:105880008DFF592206211DA8FDF764FE5922022131
:105890001D48FDF75FFE592205212348FDF75AFEFA
:1058A0000C9D0D9C002200232846214604F0D2F9CD
:1058B000002800F0A4810CA8FCF798FB04230093B7
:1058C000C3B21DAA28462146FDF768FF2EE000BF9F
:1058D00060060020A0060020E00600205006002000
:1058E00090060020D0060020400600208006002000
:1058F000C00600203006002070060020B006002000
:10590000F006002070B9000808BC000878B900084B
:1059100080B90008F0B8000888B9000890B90008FC
:1059200098B90008A0B90008A8B9000859220621B2
:105930001DA8FDF70FFE59220221BC48FDF70AFE03
:1059400059220521BA48FDF705FE0A9D0B9C00224D
:1059500000232846214604F07DF9002800F07681D6
:105960000AA8FCF743FB04230093C3B21DAA2846F0
:105970002146FDF713FF592206211DA8FDF7EAFD78
:1059800059220421AB48FDF7E5FD59220421AA481C
:10599000FDF7E0FD089D099C0022002328462146D2
:1059A00004F058F9002800F0688108A8FCF71EFBF5
:1059B00004230093C3B21DAA28462146FDF7EEFE3C
:1059C000592206211DA8FDF7C5FD5922022197483D
:1059D000FDF7C0FD592204219848FDF7BBFD069D47
:1059E000079C002200232846214604F033F90028B2
:1059F00000F05B8106A8FCF7F9FA04230093C3B218
:105A00001DAA28462146FDF7C9FE592206211DA8D8
:105A1000FDF7A0FD592202218448FDF79BFD592284
:105A200004218748FDF796FD049D059C0022002374
:105A30002846214604F00EF9002800F04D8104A804
:105A4000FCF7D4FA04230093C3B21DAA28462146CA
:105A5000FDF7A4FE592206211DA8FDF77BFD592262
:105A600002217248FDF776FD592204217548FDF7A1
:105A700071FD029D039C002200232846214604F06C
:105A8000E9F8002800F03F8102A8FCF7AFFA0423F0
:105A90000093C3B21DAA28462146FDF77FFE592276
:105AA00006211DA8FDF756FD592204216148FDF786
:105AB00051FD21B030BD04F100442A46234620A800
:105AC00060E90623FCF792FA04230093C3B21DAAEF
