:020000040800F2
:1000000000C00020F9020008FF02000803030008F6
:100010007503000879030008C10300080000000010
:1000200000000000000000000000000009040008BB
:100030000D04000800000000110400081504000869
:1000400025040008250400082504000825040008EC
:1000500025040008250400082504000825040008DC
:1000600025040008250400082504000825040008CC
:1000700025040008250400082504000825040008BC
:1000800025040008250400082504000825040008AC
:10009000250400082504000825040008250400089C
:1000A000250400082504000825040008250400088C
:1000B000F91C000825040008250400082504000890
:1000C000250400082504000825040008250400086C
:1000D000250400087D210008B1210008250400083E
:1000E000250400082504000825040008250400084C
:1000F000250400082504000825040008250400083C
:10010000250400082504000825040008250400082B
:10011000E52100082504000825040008250400083E
:10012000250400082504000825040008250400080B
:1001300000000000000000000000000000000000BF
:1001400000000000000000000000000000000000AF
:10015000000000000000000000000000000000009F
:10016000000000000000000000000000000000008F
:10017000000000000000000000000000000000007F
:10018000000000000000000000000000000000006F
:10019000000000000000000000000000000000005F
:1001A000000000000000000000000000000000004F
:1001B000000000000000000000000000000000003F
:1001C000000000000000000000000000000000002F
:1001D000000000000000000000000000000000001F
:1001E0005FF8E0F100B583B001F05AFB304B314AC3
:1001F0001360314A1360314B314A03E011681960D2
:10020000043304322F498B42F8D32A4B1A682E4B01
:100210009A4200D0FEE7284B1A682C4B9A42F9D13B
:10022000234B2B4A13602B4A13602B4B02E0002216
:100230001A600433294A9342F9D3254B1B6813B93A
:10024000244B1B6803B1FEE701F036FB694601A8A9
:1002500001F0B8FA224B234CE41AA4100025AC425A
:1002600014DC214B214CE41AA4100025AC4213DC11
:100270000099019802F0D6F905461D4B1D4CE41A71
:10028000A410002C0EDC284601F06EFA144B53F833
:10029000253098470135E2E7134B53F8253098474E
:1002A0000135E3E7013C124B53F824309847E8E767
:1002B000BABADECA000000209C0000200000002026
:1002C00020430008A000002078563412325476985B
:1002D000A000002040020020A000002044020020D6
:1002E000500400085004000850040008500400089E
:1002F000500400085004000808B5FFF773FF00BE63
:10030000FEE71EF0040F0CBFEFF30880EFF3098047
:100310007146414A10472DE9F04182B004468846B3
:10032000124B5E6B9F6B9D6A1B6B13F0020F03D029
:100330000E4BDB6A002B0CDB0D4801F055FACDF8B3
:1003400000803B4632462946204601F0B9FA00BEFD
:10035000FEE74BF6AB6101F02DFB0028ECD04FF02F
:100360000042024BDA6202B0BDE8F08100ED00E02D
:10037000B041000800BEFEE71EF0040F0CBFEFF313
:100380000880EFF309807146244A10472DE9F041B7
:1003900082B004468846084B5E6B9F6B9D6A074897
:1003A00001F022FACDF800803B463246294620462D
:1003B00001F086FA00BEFEE700ED00E0C041000853
:1003C0001EF0040F0CBFEFF30880EFF309807146B5
:1003D000134A10472DE9F04182B004468846084B85
:1003E0005E6B9F6B9D6A074801F0FEF9CDF80080B7
:1003F0003B4632462946204601F062FA00BEFEE73F
:1004000000ED00E0CC41000800BEFEE700BEFEE7C4
:1004100000BEFEE770470000170300088D030008C8
:08042000D503000800BEFEE751
:100428002043000800000020A0000020204300080E
:100438000000000000000000A0000020440200208E
:080448000000000000000000AC
:1004500010B50446B0F5E06F0FD0B0F5C06F0CD00A
:10046000B0F5A06F09D0B0F5806F06D0B0F5407F31
:1004700003D06321044801F0ADF944F0BF6444F4B3
:100480000034024BDC6010BD643F000800ED00E06A
:1004900010B50446C378012B03D97521204801F01B
:1004A00099F963780F2B10D8A3780F2B12D8E37823
:1004B000ABB923785A0903F01F03012101FA03F3B2
:1004C0002032184941F8223010BD7621144801F03D
:1004D00081F9E9E77721124801F07CF9E7E7124B4F
:1004E000DA68D243C2F30222C2F104000F2121FADA
:1004F00002F263788340A1780A4013431B012278FB
:10050000DBB208490A4482F800332378580903F023
:100510001F03012202FA03F341F8203010BD00BF8F
:10052000643F000800E100E000ED00E0F8B505469A
:100530000C46484B98421BD003F58063984217D075
:1005400003F58063984213D003F5806398420FD07F
:1005500003F5806398420BD003F58063984207D07F
:1005600003F58063984203D0B2213B4801F032F991
:10057000E3788BB1042B0FD0282B0DD0482B0BD058
:10058000142B09D0102B07D01C2B05D0182B03D00F
:10059000B321314801F01EF9238893B1E37803F0C9
:1005A0000F06304613F0100F06D0A378013BDBB2E4
:1005B000022B0BD8A0783043237833B32E68002366
:1005C0000BE0B421244801F005F9E7E7BB212248FC
:1005D00001F000F9EEE76A610133072B14D801221C
:1005E0009A40218832EA0101F6D199000F278F4005
:1005F00026EA070600FA01F10E43E1782829EAD03D
:100600004829E9D12A61E7E72E602388FF2B20D90A
:100610006E68002302E06A6115E00133072B17D8EA
:1006200003F1080101228A40218832EA0101F4D154
:1006300099000F278F4026EA070600FA01F10E43C2
:10064000E1782829E7D0E1784829E6D12A61E4E772
:100650006E60F8BD000801408C3F000838B50446C4
:100660000D462A4B98421CD003F58063984218D05F
:1006700003F58063984214D003F58063984210D04C
:1006800003F5806398420CD003F58063984208D04C
:1006900003F58063984204D04FF48F711C4801F039
:1006A00099F86B1E9BB2012B28D9042D26D0082D5A
:1006B00024D0102D22D0202D20D0402D1ED0802DD2
:1006C0001CD0B5F5807F19D0B5F5007F16D0B5F5F3
:1006D000806F13D0B5F5006F10D0B5F5805F0DD0E9
:1006E000B5F5005F0AD0B5F5804F07D0B5F5004FDE
:1006F00004D040F21F11064801F06CF8A3681D42B7
:1007000001D1002038BD012038BD00BF00080140E4
:100710008C3F000838B504460D46144B98421CD057
:1007200003F58063984218D003F58063984214D093
:1007300003F58063984210D003F5806398420CD093
:1007400003F58063984208D003F58063984204D093
:100750004FF4B571064801F03DF80DB1256138BD83
:1007600040F26B11024801F035F8F7E7000801404C
:100770008C3F000838B504460D46144B98421CD0F7
:1007800003F58063984218D003F58063984214D033
:1007900003F58063984210D003F5806398420CD033
:1007A00003F58063984208D003F58063984204D033
:1007B0004FF4BD71064801F00DF80DB1656138BD0B
:1007C00040F27B11024801F005F8F7E7000801400C
:1007D0008C3F00080D4B1A6842F001021A605968FC
:1007E0000B4A0A405A601A6822F0847222F480325E
:1007F0001A601A6822F480221A605A6822F4FE02F3
:100800005A604FF41F029A60704700BF0010024008
:100810000000FFF810B5044650B1B0F5803F07D096
:10082000B0F5802F04D040F211110F4800F0D2FF34
:100830000E4B1A6822F480321A601A6822F4802261
:100840001A60B4F5803F03D0B4F5802F06D010BDF8
:10085000064A136843F48033136010BD034A1368DB
:1008600043F4A023136010BDC03F000800100240F5
:1008700038B50C46054650B1B0F5803F07D0B0F50D
:10088000403F04D040F27F111D4800F0A3FF74B335
:10089000B4F5802F2BD0B4F5002F28D0B4F5402F1D
:1008A00025D0B4F5801F22D0B4F5A01F1FD0B4F519
:1008B000C01F1CD0B4F5E01F19D0B4F5001F16D02E
:1008C000B4F5101F13D0B4F5201F10D0B4F5301FAD
:1008D0000DD0B4F5401F0AD0B4F5501F07D0B4F5C1
:1008E000601F04D04FF4C071054800F073FF054B42
:1008F000596821F47C112C432143596038BD00BF55
:10090000C03F00080010024010B50446012804D979
:100910004FF4CA71024800F05DFF024B1C6010BD2D
:10092000C03F00086000424210B50446022806D8C5
:10093000064A536823F003031C43546010BD4FF470
:100940000E71034800F046FFF2E700BF00100240BE
:10095000C03F0008024B586800F00C00704700BF11
:100960000010024010B50446A0B1802812D0902893
:1009700010D0A0280ED0B0280CD0C0280AD0D02883
:1009800008D0E02806D0F02804D04FF419710548AB
:1009900000F020FF044A536823F0F0031C43546026
:1009A00010BD00BFC03F00080010024010B5044653
:1009B00080B1B0F5806F0DD0B0F5A06F0AD0B0F562
:1009C000C06F07D0B0F5E06F04D040F27E2105483B
:1009D00000F000FF044A536823F4E0631C435460B2
:1009E00010BD00BFC03F00080010024010B5044613
:1009F00080B1B0F5806F0DD0B0F5A06F0AD0B0F522
:100A0000C06F07D0B0F5E06F04D04FF426710548F1
:100A100000F0E0FE044B586820F4605040EAC40047
:100A2000586010BDC03F00080010024010B4294BB0
:100A30005B6803F00C03042B2BD0082B2CD013B1D4
:100A4000254B036001E0244B036022494B68C3F34C
:100A50000313224CE35CDAB20368D34043604A6874
:100A6000C2F30222A25CD2B223FA02F282604A6886
:100A7000C2F3C222A25CD2B2D340C3604A68C2F3BE
:100A8000813217498A5CD2B2B3FBF2F3036110BC26
:100A90007047114B0360D8E70E4A53685268C3F39E
:100AA0008343023312F4803F09D00A4A526812F499
:100AB000003F09D00B4A02FB03F30360C5E7094A74
:100AC00002FB03F30360C0E7034A02FB03F3036086
:100AD000BBE700BF0010024000127A0008000020AF
:100AE0000400002000093D0038B504460D460E4BB9
:100AF000034003B920B940F24A410C4800F06AFEB5
:100B0000012D04D940F24B41084800F063FE2DB995
:100B1000074A936923EA0404946138BD044B9A6937
:100B200014439C6138BD00BF0200C0FFC03F0008F5
:100B30000010024038B504460D460E4B184200D155
:100B400020B940F269410C4800F044FE012D04D95F
:100B500040F26A41084800F03DFE2DB9074AD369CA
:100B600023EA0404D46138BD044BDA691443DC6120
:100B700038BD00BF00360181C03F000800100240B0
:100B800010B50446212818D0312816D0392814D0A1
:100B9000412812D0612810D07A280ED07B280CD0A2
:100BA0007C280AD07D2808D07E2806D07F2804D053
:100BB00040F234510D4800F00DFE6309012B0CD0BA
:100BC000022B0DD00A4B5B6A04F01F0423FA04F4D5
:100BD00014F0010F07D1002010BD054B1B68F3E78F
:100BE000034B1B6AF0E7012010BD00BFC03F0008A7
:100BF0000010024000B583B0002301933120FFF7BD
:100C0000BFFF019B01330193019BB3F5A06F01D09E
:100C10000028F3D03120FFF7B3FF18B9002003B04C
:100C20005DF804FB0120FAE738B504460D46524B47
:100C3000984242D0B0F1804F3FD0A3F59433984210
:100C40003BD003F58063984237D003F58063984228
:100C500033D003F5806398422FD003F58063984228
:100C60002BD003F59033984227D003F5C053984218
:100C700023D003F5806398421FD003F58063984228
:100C80001BD0A3F59E33984217D003F5806398429A
:100C900013D003F5806398420FD003F59033984248
:100CA0000BD003F58063984207D003F58063984228
:100CB00003D0E721314800F08DFD6B885BB1102B2C
:100CC00009D0202B07D0402B05D0602B03D0E82182
:100CD0002A4800F07FFDEB884BB1B3F5807F06D04A
:100CE000B3F5007F03D0E921244800F073FD238889
:100CF0009BB2214A944212D002F5006294420ED077
:100D0000B4F1804F0BD0A2F59832944207D002F58F
:100D10008062944203D002F58062944203D123F0B2
:100D200070036A881343164A944208D002F5806221
:100D3000944204D023F440739BB2EA881343238087
:100D4000AB88A3852B8823850B4B9C420FD003F5E2
:100D500000639C420BD003F540639C4207D003F52F
:100D600080639C4203D003F580639C4201D12B7ABF
:100D700023860123A38238BD002C0140F03F0008E8
:100D80000010004038B504460D462E4B984243D023
:100D9000B0F1804F40D0A3F5943398423CD003F596
:100DA0008063984238D003F58063984234D003F5CD
:100DB0008063984230D003F5806398422CD003F5CD
:100DC0009033984228D003F5C053984224D003F5BD
:100DD0008063984220D003F5806398421CD0A3F52D
:100DE0009E33984218D003F58063984214D003F5DF
:100DF0008063984210D003F5903398420CD003F5ED
:100E00008063984208D003F58063984204D040F292
:100E100029310D4800F0DEFC012D04D940F22A31C1
:100E2000094800F0D7FC35B923889BB223F00103B1
:100E30009BB2238038BD23889BB243F001032380FB
:100E400038BD00BF002C0140F03F000870B50446DB
:100E50000D461646314B984243D0B0F1804F40D0FA
:100E6000A3F5943398423CD003F58063984238D080
:100E700003F58063984234D003F58063984230D004
:100E800003F5806398422CD003F59033984228D024
:100E900003F5C053984224D003F58063984220D0D4
:100EA00003F5806398421CD0A3F59E33984218D076
:100EB00003F58063984214D003F58063984210D004
:100EC00003F5903398420CD003F58063984208D024
:100ED00003F58063984204D040F26B31104800F073
:100EE00079FC15F47F4F00D125B94FF45B710C48A4
:100EF00000F070FC012E04D940F26D31084800F07A
:100F000069FC2EB9A389ED43ADB21D40A58170BD2A
:100F1000A3899BB21D43A58170BD00BF002C014079
:100F2000F03F000838B504460D462A4B984243D09E
:100F3000B0F1804F40D0A3F5943398423CD003F5F4
:100F40008063984238D003F58063984234D003F52B
:100F50008063984230D003F5806398422CD003F52B
:100F60009033984228D003F5C053984224D003F51B
:100F70008063984220D003F5806398421CD0A3F58B
:100F80009E33984218D003F58063984214D003F53D
:100F90008063984210D003F5903398420CD003F54B
:100FA0008063984208D003F58063984204D040F6ED
:100FB0003621094800F00EFC15F4614F00D125B927
:100FC00040F63721044800F005FCED43ADB2258220
:100FD00038BD00BF002C0140F03F000838B5044682
:100FE0000D46344B984243D0B0F1804F40D0A3F52A
:100FF000943398423CD003F58063984238D003F58F
:101000008063984234D003F58063984230D003F572
:10101000806398422CD003F59033984228D003F592
:10102000C053984224D003F58063984220D003F542
:10103000806398421CD0A3F59E33984218D003F5E4
:101040008063984214D003F58063984210D003F572
:10105000903398420CD003F58063984208D003F592
:101060008063984204D040F65821134800F0B2FB48
:101070006B1E9BB2012B10D9042D0ED0082D0CD065
:10108000102D0AD0202D08D0402D06D0802D04D060
:1010900040F65921084800F09DFB228AA3892B4085
:1010A000154202D01BB9002038BD002038BD0120F8
:1010B00038BD00BF002C0140F03F000838B50446A1
:1010C0000D462A4B984243D0B0F1804F40D0A3F553
:1010D000943398423CD003F58063984238D003F5AE
:1010E0008063984234D003F58063984230D003F592
:1010F000806398422CD003F59033984228D003F5B2
:10110000C053984224D003F58063984220D003F561
:10111000806398421CD0A3F59E33984218D003F503
:101120008063984214D003F58063984210D003F591
:10113000903398420CD003F58063984208D003F5B1
:101140008063984204D040F68221094800F042FBB7
:1011500015F47F4F00D125B940F68321044800F0F3
:1011600039FBED43ADB2258238BD00BF002C0140F4
:10117000F03F000830B587B004460D46654B9842F5
:1011800013D0A3F5744398420FD003F580639842BF
:101190000BD003F58063984207D003F58063984233
:1011A00003D0B8215C4800F015FB2B68013B5B4A7B
:1011B000934200F29480AB8833B1B3F5805F03D0E3
:1011C000BA21554800F006FBEB8863B1B3F5805FA8
:1011D00009D0B3F5005F06D0B3F5405F03D0BB2163
:1011E0004D4800F0F7FA2B894BB1B3F5806F06D06C
:1011F000B3F5C06F03D0BC21474800F0EBFA6A8911
:1012000022F00C039BB203B91AB9BD21424800F089
:10121000E1FAAB8963B1B3F5807F09D0B3F5007F04
:1012200006D0B3F5407F03D0BE213B4800F0D2FA90
:10123000AB8973B1374B9C420BD0A3F574439C42EE
:1012400007D003F580639C4203D0C221324800F0EE
:10125000C1FA238A9BB2EA8823F4405313432382C2
:10126000A3899BB2A98828896A8901430A4323F488
:10127000B05323F00C031343A381A38A9BB2AA8922
:1012800023F440731343A38201A8FFF7CFFB214B44
:101290009C4229D0039BA28912F4004F26D103EB74
:1012A000830303EB830329688900B3FBF1F11C4B33
:1012B000A3FB012358090501642300FB1313A28932
:1012C00012F4004F1BD11B013233154AA2FB03233A
:1012D000C3F343132B439BB2238107B030BDB92125
:1012E0000D4800F077FA66E7049BD4E703EB83032D
:1012F00003EB830329684900B3FBF1F1D7E7D90079
:101300003231074AA2FB0131C1F3421245EA02031E
:10131000E1E700BF00380140204000081FAA440058
:101320001F85EB5138B504460D46164B984214D034
:10133000A3F57443984210D003F5806398420CD013
:1013400003F58063984208D003F58063984204D087
:101350004FF4B1710C4800F03DFA012D04D940F270
:101360006311094800F036FA35B9A3899BB223F41A
:1013700000539BB2A38138BDA3899BB243F40053B1
:10138000A38138BD003801402040000870B50446F4
:101390000D461646374B984214D0A3F57443984235
:1013A00010D003F5806398420CD003F58063984217
:1013B00008D003F58063984204D040F289112E488A
:1013C00000F008FA282D1ED040F227739D421AD053
:1013D00040F226639D4216D040F225539D4212D022
:1013E00040F224439D420ED040F646039D420AD06F
:1013F00040F66A139D4206D0602D04D04FF4C571AB
:101400001D4800F0E7F9012E04D940F28B111A486B
:1014100000F0E0F940F66A139D4211D0C5F3421284
:1014200005F01F05012303FA05F59A4219D0022A97
:1014300019D01434CEB9236823EA0505256070BDA0
:101440000C4B9C42EAD0A3F574439C42E6D003F5D2
:1014500080639C42E2D040F28F11074800F0BAF955
:10146000DCE70C34E6E71034E4E723681D4325602D
:1014700070BD00BF003801402040000838B5044668
:101480000D46124B984214D0A3F57443984210D0E5
:1014900003F5806398420CD003F58063984208D02E
:1014A00003F58063984204D040F25F21084800F0C1
:1014B00091F9B5F5007F03D2C5F30805A58038BDC5
:1014C0004FF41871024800F085F9F5E70038014043
:1014D0002040000810B504460D4B984214D0A3F5E7
:1014E0007443984210D003F5806398420CD003F502
:1014F0008063984208D003F58063984204D04FF48B
:101500001C71044800F066F9A088C0F3080010BD03
:10151000003801402040000838B505460C46274BEE
:10152000984214D0A3F57443984210D003F5806319
:1015300098420CD003F58063984208D003F580638D
:10154000984204D040F286311D4800F043F9012C46
:1015500018D0802C16D0402C14D0202C12D0102C57
:1015600010D0B4F5807F0DD0B4F5007F0AD0082CE0
:1015700008D0042C06D0022C04D040F28731104849
:1015800000F028F9B4F5007F04D02B881C4212D15A
:10159000002038BD094B9D42F7D0A3F574439D420E
:1015A000F3D003F580639D42EFD040F28B310448C5
:1015B00000F010F9E9E7012038BD00BF0038014014
:1015C0002040000838B505460C463C4B984214D0E4
:1015D000A3F57443984210D003F5806398420CD071
:1015E00003F58063984208D003F58063984204D0E5
:1015F00040F2D931324800F0EDF8282C25D040F2E5
:1016000027739C4221D040F226639C421DD040F2B9
:1016100025539C4219D040F224439C4215D040F6F9
:1016200046039C4211D040F66A139C420DD0B4F59B
:10163000587F0AD0B4F5187F07D0B4F5B07F04D036
:1016400040F2DA311E4800F0C5F840F66A139C42B9
:1016500017D0C4F3421204F01F0101238B40012A6A
:1016600020D0022A22D0AA8A92B21340240A012250
:1016700002FA04F42A8892B21440DBB1E4B90020E3
:1016800038BD0E4B9D42E4D0A3F574439D42E0D09B
:1016900003F580639D42DCD040F2DE31084800F063
:1016A00099F8D6E7AA8992B21340DFE72A8A92B264
:1016B0001340DBE7002038BD012038BD0038014071
:1016C0002040000838B505460C46254B984214D0FA
:1016D000A3F57443984210D003F5806398420CD070
:1016E00003F58063984208D003F58063984204D0E4
:1016F00040F222411B4800F06DF840F226639C4204
:1017000010D040F225539C420CD040F646039C4238
:1017100008D040F66A139C4204D040F2234111489D
:1017200000F058F840F66A139C4207D0240A0123BF
:10173000A3409BB2DB439BB22B8038BD084B9D423C
:10174000F4D0A3F574439D42F0D003F580639D422D
:10175000ECD040F22741034800F03CF8E6E700BF38
:101760000038014020400008FEE7000008B50348AB
:1017700000F052F80120FFF7F7FF00BF54400008C7
:1017800008B503460C4A12685AB10B4A1068033375
:1017900023F003030344094A934206D8064A136020
:1017A00008BD0749044A1160EFE701F071FF0C23FF
:1017B00003604FF0FF3008BDA400002000BC0020F3
:1017C0004402002001230360014B0B60704700BFFF
:1017D0001800002008B50A460146024800F004F847
:1017E000FFF7C4FF684000080FB400B583B004AB36
:1017F00053F8042B01938021064801F09DFF002837
:1018000003DD0146034800F047F803B05DF804EB40
:1018100004B07047AC00002010B5044601F046FF4C
:101820000146204600F038F80121024800F034F863
:1018300010BD00BF2C4100082DE9F04385B00446DF
:101840000F4643560BB10E461EE00425284621469E
:10185000ABBE0446384605B0BDE8F08314F9011B61
:1018600004AA1A4402F8101C0133AB42F6D304AAAE
:101870001344002203F8102CE9464FF004084046B8
:101880004946ABBE8046761B002EE3D03546102E6F
:1018900028BF10250023E8E708B5FFF7CDFF08BDF6
:1018A00008B500F0FDF8024B024A9A6008BD00BF7F
:1018B00000ED00E00000000808B500F019F908BDCF
:1018C000F8B504460D4617461E462748FFF78CFF1D
:1018D00021682648FFF788FF61682548FFF784FFE5
:1018E000A1682448FFF780FFE1682348FFF77CFFE9
:1018F00021692248FFF778FF61692148FFF774FFEB
:10190000A1692048FFF770FFE1691F48FFF76CFFEE
:101910001E48FFF769FF29461D48FFF765FF1D4C6C
:10192000E16A1D48FFF760FF216B1C48FFF75CFF71
:10193000E16B1B48FFF758FF15F0800F0AD115F433
:10194000004F0CD11748FFF74FFF06991648FFF7D5
:101950004BFFF8BD39461548FFF746FFEFE7314624
:101960001348FFF741FFEDE794400008A44000084A
:10197000B4400008C4400008D4400008E440000817
:10198000F440000804410008144100082441000804
:101990003041000800ED00E04041000850410008DF
:1019A000604100089041000898410008704100081B
:1019B0008041000883691A888A4201D0002070475C
:1019C0000268033A012A03D8023383610120704779
:1019D0000020704782B00023019300932C4A1368C3
:1019E00043F4803313602A4B1B6803F400330093E5
:1019F000019B01330193009B1BB9019BB3F5A06FC1
:101A0000F1D1234B1B6813F4003F06D00123009350
:101A1000009B012B04D002B0704700230093F7E72E
:101A20001C4B1A6842F010021A601A6822F0030276
:101A30001A601A6842F002021A60A3F580535A68CD
:101A40005A605A685A605A6842F480625A605A680A
:101A500022F47C125A605A6842F4E8125A601A68FA
:101A600042F080721A600A4B1B6813F0007FFAD0B4
:101A7000074B5A6822F003025A605A6842F0020289
:101A80005A60034B5B6803F00C03082BF9D1C2E7E3
:101A9000001002400020024008B5FFF79BFF08BD80
:101AA00008B5104B1A6842F001021A6059680E4AD4
:101AB0000A405A601A6822F0847222F480321A6056
:101AC0001A6822F480221A605A6822F4FE025A60D0
:101AD0004FF41F029A60FFF7DFFF4FF00062034BE5
:101AE0009A6008BD001002400000FFF800ED00E021
:101AF0001F4B5B6803F00C03042B15D0082B17D089
:101B00001BB11C4A1C4B1A6002E01A4A1A4B1A609D
:101B1000174B5B68C3F30313184AD35CDAB2164958
:101B20000B68D3400B607047124A134B1A60EFE703
:101B30000F4A53685268C3F38343023312F4803F61
:101B40000AD00B4A526812F4003F0BD00C4A02FB39
:101B500003F3094A1360DBE7094A02FB03F3064A71
:101B60001360D5E7034A02FB03F3034A1360CFE790
:101B70000010024000127A003000002020000020F7
:101B800000093D000146002302E00022CA5401334F
:101B90005F2BFAD960230B66002048668866C8660A
:101BA000086770470131814201D008467047002123
:101BB000FBE738B50446456E006E854209DA0B46F0
:101BC000A16E6354FFF7EEFFA06601356566002045
:101BD00038BD4FF0FF3038BDF8B5456E002D0EDD35
:101BE0000F460446C66E3146006EFFF7DBFFE06627
:101BF000013D6566F6B2A35D3B700020F8BD6FF055
:101C00000100F8BD10B584B001210846FEF792FF2F
:101C10004FF4FA63ADF808304723ADF804300024E0
:101C2000ADF80A40ADF8064001A94FF08040FEF73C
:101C3000FBFF01214FF08040FFF774F901221146AC
:101C40004FF08040FFF702F901214FF08040FFF78D
:101C500099F821460120FEF76DFF04B010BD00B5D4
:101C600083B04FF4E060FEF7F3FB1C238DF80430E3
:101C700000238DF805308DF8063001238DF80730EC
:101C800001A8FEF705FC03B05DF804FB08B5FFF7FB
:101C9000B9FFFFF7E4FF01210846FEF74BFF08BD3F
:101CA00008B504211048FEF7D9FCB8B90F4A1368EB
:101CB000013313600D4B1B68142B04D900230B4A0E
:101CC00013600B4A13700B4B1B68142B05D90022B1
:101CD000084B1A600122064B1A7008BD054A1368AA
:101CE00001331360E6E700BF00100140400100200F
:101CF000350000204401002008B501214FF080404C
:101D0000FFF76CF9B8B1174B1B6833B9164A136863
:101D100001331360B3F5967F0ED0144B1B68012B73
:101D200011D00022124B1A60FFF7BAFF01214FF0C9
:101D30008040FFF7C3F908BD00220B4B1A60012257
:101D4000084B1A60E9E70A4B1B68092B03D80133DB
:101D5000074A1360E8E70022044B1A600122054B92
:101D60001A60E1E73C0100202C010020380100202E
:101D7000300100203401002010B582B00121042080
:101D8000FEF7B2FE4FF40073ADF8043018238DF85F
:101D9000073003238DF80630094C01A92046FEF7D1
:101DA000C5FB4FF48063ADF8043004238DF8073091
:101DB0000DEB03012046FEF7B9FB02B010BD00BFDA
:101DC0000008014030B583B001210420FEF78CFEED
:101DD0000425ADF8045018238DF8073003238DF83F
:101DE0000630094C0DEB05012046FEF79FFB08234A
:101DF000ADF804308DF807500DEB05012046FEF7D5
:101E000095FB03B030BD00BF0008014010B582B0A3
:101E100001210820FEF768FE4FF48063ADF804301E
:101E200018238DF8073003238DF80630094C01A9DB
:101E30002046FEF77BFB4FF40063ADF8043004232B
:101E40008DF807300DEB03012046FEF76FFB02B063
:101E500010BD00BF000C014010B584B0FFF7D6FFE5
:101E600001214FF48020FEF765FE4FF416530093D6
:101E70000023ADF80430ADF80630ADF808300C2280
:101E8000ADF80A20ADF80C30054C69462046FFF746
:101E900071F901212046FFF745FA04B010BD00BFDB
:101EA0000048004000B583B04FF4E060FEF7D0FA80
:101EB00025238DF8043000238DF8053001238DF89B
:101EC00006308DF8073001A8FEF7E2FA03B05DF89E
:101ED00004FB000010B584B0FFF74EFF01214FF462
:101EE0008040FEF701FE4FF4965300930023ADF8B7
:101EF0000430ADF806304FF48062ADF808200C22B3
:101F0000ADF80A20ADF80C30094C69462046FFF7C1
:101F100031F9012240F225512046FFF737FAFFF749
:101F2000C1FF01212046FFF7FDF904B010BD00BF3D
:101F30000038014000B583B04FF4E060FEF788FA46
:101F400026238DF8043002238DF8053003238DF805
:101F5000063001238DF8073001A8FEF799FA03B087
:101F60005DF804FB10B584B0FFF72CFF01214FF49E
:101F70000030FEF7DFFD4FF4165300930023ADF859
:101F80000430ADF80630ADF808300C22ADF80A2068
:101F9000ADF80C30094C69462046FFF7EBF80122FA
:101FA00040F225512046FFF7F1F9FFF7C3FF012169
:101FB0002046FFF7B7F904B010BD00BF0044004051
:101FC00070B506460D4600240AE0315D0648FFF76D
:101FD00055FA80210448FFF79FFA0028F9D0013410
:101FE000AC42F2D370BD00BF0044004070B506465D
:101FF0000D4600240AE0315D0648FFF73FFA8021D4
:102000000448FFF789FA0028F9D00134AC42F2D332
:1020100070BD00BF0048004010B582B00121102003
:10202000FEF762FD4FF48063ADF8043018238DF89D
:10203000073003238DF80630094C01A92046FEF72E
:1020400075FA4FF40063ADF8043004238DF80730BF
:102050000DEB03012046FEF769FA02B010BD00BF88
:102060000010014010B584B0FFF7D6FF01214FF4F6
:102070000020FEF75FFD4FF4165300930023ADF8E8
:102080000430ADF80630ADF808300C22ADF80A2067
:10209000ADF80C30054C69462046FFF76BF801217E
:1020A0002046FFF73FF904B010BD00BF004C0040D0
:1020B000592A00D0704770B50D46064600240AE044
:1020C000315D0648FFF7DAF980210448FFF724FA6A
:1020D0000028F9D00134AC42F2D370BD004C00406E
:1020E0002DE9F04182B005460F4616469846002479
:1020F0008DF8074023460BE00DF107012846FFF756
:102100006BFD00231A4A13601A4A1360012B24D076
:102110006A6E002A17DDB442EED039192846FFF75F
:102120005BFD0028EDD1B8F1000F0AD13B78F22B0E
:1021300005D0552B03D04446182CE2D114E00134CD
:10214000FAE70134DDE7002BE0D10121084A1160F4
:102150000021094A11600133D8E7064A1268012AB2
:10216000D6D10022034B1A60204602B0BDE8F081B0
:1021700038010020340100203001002010B540F269
:1021800025510948FFF71EFA00B910BD064C40F270
:1021900025512046FFF796FA2046FFF79BF9C1B27A
:1021A0000248FFF706FDF0E7003801405401002027
:1021B00010B540F225510948FFF704FA00B910BDE7
:1021C000064C40F225512046FFF77CFA2046FFF7E7
:1021D00081F9C1B20248FFF7ECFCF0E7004400408F
:1021E000C801002010B540F225510948FFF7EAF96F
:1021F00000B910BD064C40F225512046FFF762FAA7
:102200002046FFF767F9C1B20248FFF7D2FCF0E7BA
:10221000004C0040C8010020034638B1002001E016
:10222000013001331A78002AFAD170470020704734
:102230002DE9F84306460F4690461D469DF820902E
:1022400000F032FF012211E0A91A204BA3FB00434A
:10225000DB0803EB83035C00031B303308F8013019
:102260001A4BA3FB0030C0080132D2B2AA4206D8F2
:102270000028E9D1AB1A302108F80310F0E72E232B
:1022800008F80530012417E00022114B304639468A
:1022900000F0F8FC06460F4600F006FF29190B4B2C
:1022A000A3FB0023DB0803EB83035A00831A3033BC
:1022B00008F801300134E4B24C45E5D94D4401350C
:1022C000002308F80530BDE8F88300BFCDCCCCCCA6
:1022D0000000244008B5FEF77DFA4FF48030FEF789
:1022E00099FAFEF787FC124B1870A8B94FF4E01169
:1022F0004FF48030FEF7BCFA0120FEF705FB3920D1
:10230000FEF73EFC0028FAD00220FEF70DFBFEF798
:1023100021FB0828FBD108BD0020FEF723FB00208D
:10232000FEF764FB4FF48060FEF740FBDEE700BF82
:102330003C02002010B582B001211020FEF7D4FB32
:102340000123ADF8043003248DF8064010238DF8E6
:10235000073001A90848FEF7E9F80423ADF8043076
:102360008DF8064048238DF8073001A90348FEF791
:10237000DDF802B010BD00BF00100140000C0140AC
:102380000178F2297FD02DE9F0411C461546427CA8
:10239000837C43EA0223C17C4279877947EA02229F
:1023A000C77947EA0227C27A067B46EA0222467BC1
:1023B00046EA022641EA032000F04CFF014633487A
:1023C00001F054F88046384600F044FF014630489A
:1023D00001F04CF80746304600F03CFF01462D481E
:1023E00001F044F806462C49404601F047F9002820
:1023F00030D059220A212948FFF75AFE2849404681
:1024000000F080FF274900F075FE8046264901F064
:102410002DF80146404600F06BFE286023493846FF
:1024200000F070FF224900F065FE2060214930462F
:1024300000F068FF204900F05DFE04461F4901F0EE
:1024400015F80146204600F053FE069B1860012057
:10245000BDE8F08159220A211948FFF729FE1949E0
:10246000404600F04FFF184900F044FE80460E49F8
:1024700000F0FCFF154900F045FF0146404600F022
:1024800037FE2860CAE70220704700BFE0FD994A86
:1024900000E83248003C754600007A43F4410008E9
:1024A000FBCB3E3F8048C1400000C842EA95B23CA9
:1024B0001F45574348503C3F4B59863C00009643CC
:1024C00000420008CD3B3E3FE7FB393F3333B33F8B
:1024D00010B504681149204601F0B2F8C8B90F4997
:1024E000204601F0CBF830B10D49204601F0A8F8A4
:1024F00008B1022010BD0A49204601F0BFF808B912
:10250000042010BD0749204601F09AF818B90420AC
:1025100010BD012010BD032010BD00BF00002041F0
:102520000000C84200007A4430B583B00C4615461E
:10253000234B1A889B78ADF804208DF8063058B1EB
:10254000012816D0022821D003282CD0032101A86D
:10255000FFF74CFD03B030BD08211A48FFF746FDD8
:1025600029462046FFF742FD01211748FFF73EFDAF
:10257000ECE708211548FFF739FD29462046FFF70B
:1025800035FD01211048FFF731FDDFE70821104834
:10259000FFF72CFD29462046FFF728FD01210A48B8
:1025A000FFF724FDD2E708210A48FFF71FFD29465F
:1025B0002046FFF71BFD01210348FFF717FDC5E784
:1025C000DC410008B8420008C4420008C8420008C4
:1025D000D4420008E042000808B50E4B1B780E4AB2
:1025E0001278934210D05BB90C4B1B78012B0CD0A6
:1025F00001210B48FEF7BEF8084A1378DB4313703D
:10260000044B1A78044B1A7008BD01210448FEF7E8
:1026100081F8F1E73500002034000020360000206A
:102620000010014030B5ADF5177D4FF4FA7200216E
:1026300019A801F033F8002316931793ADF8603012
:10264000ADF85430149300221392129211920C930D
:102650000D930E930F9310939B4A92E803000790FB
:10266000ADF82010CDF82230CDF82630CDF82A3044
:10267000ADF82E3002930393049305930693FFF76E
:1026800029FEFFF727FCFFF76DFCFFF7E5FBFFF7DF
:10269000E9FCFFF74FFEFFF7F9FA8C48FFF772FAF3
:1026A0008B48FFF76FFAE8E011AB009312AB13AA67
:1026B000014619A8FFF764FE14905922042114A8BA
:1026C000FFF7F6FC834B1B78012B0ED0149B012BDC
:1026D00022D0022B00F08F80002B40F0DC805922AA
:1026E00013217D48FFF7E4FCD5E004231493022274
:1026F00015A90020FFF718FF022215A90120FFF7F6
:1027000013FF022215A91046FFF70EFF112273498D
:102710000320FFF709FFD9E713A8FFF7D9FEC5B2D9
:10272000139800F05BFA022400942B460CAAFFF7E2
:102730007FFD12A8FFF7CCFEC5B2129800F04EFA4A
:1027400000942B4607AAFFF773FD11A8FFF7C0FE00
:10275000C5B2119800F042FA00942B4602AAFFF786
:1027600067FD0CA8FFF758FD02460CA90020FFF7F3
:10277000DBFE07A8FFF750FD024607A90120FFF77F
:10278000D3FE02A8FFF748FD024602A92046FFF744
:10279000CBFE0A2252490320FFF7C6FE59222146EA
:1027A0005048FFF785FC0CA8FFF736FD592201467B
:1027B0000CA8FFF77DFC592204214B48FFF778FC59
:1027C00007A8FFF729FD5922014607A8FFF770FC6B
:1027D000592204214548FFF76BFC02A8FFF71CFDB6
:1027E0005922014602A8FFF763FC592221464048BE
:1027F000FFF75EFC4FE010223E490320FFF794FEF6
:10280000592218213C48FFF753FC44E004223B497D
:1028100016A800F053FF38B907A8FFF7FDFC0146E2
:1028200007A8FFF7CDFB1FE00422354916A800F0EA
:1028300045FF38B902A8FFF7EFFC014602A8FFF7F1
:10284000BFFB11E004222F4916A800F037FF58B94A
:102850000CA8FFF7E1FC01460CA8FFF7B1FB03E071
:1028600018212548FFF7ACFB0622274916A800F0DF
:1028700025FF20B30022254B1A60FFF7ADFE002391
:102880004FF4FA7219A91148FFF72AFC1F4B1B6875
:10289000012B3FF409AF01230A2216A90C48FFF7C8
:1028A0001FFC0028E6D0149B012BAFD0022BD7D001
:1028B000042BD9D113211648FFF782FBD4E7182146
:1028C00019A8FFF77DFBD5E7E0410008540100207F
:1028D000C801002036000020704200080C420008A9
:1028E000204200082C42000830420008384200080C
:1028F0008042000840420008544200088442000818
:102900008C42000894420008B04200083C010020BC
:102910009C42000881F0004102E000BF83F00043C8
:1029200030B54FEA41044FEA430594EA050F08BF6A
:1029300090EA020F1FBF54EA000C55EA020C7FEA2E
:10294000645C7FEA655C00F0E2804FEA5454D4EBAB
:102950005555B8BF6D420CDD2C4480EA020281EA75
:10296000030382EA000083EA010180EA020281EAAD
:102970000303362D88BF30BD11F0004F4FEA0131FF
:102980004FF4801C4CEA113102D0404261EB41010E
:1029900013F0004F4FEA03334CEA133302D0524294
:1029A00063EB430394EA050F00F0A780A4F1010450
:1029B000D5F1200E0DDB02FA0EFC22FA05F280188A
:1029C00041F1000103FA0EF2801843FA05F3594170
:1029D0000EE0A5F120050EF1200E012A03FA0EFCEF
:1029E00028BF4CF0020C43FA05F3C01851EBE37119
:1029F00001F0004507D54FF0000EDCF1000C7EEB36
:102A000000006EEB0101B1F5801F1BD3B1F5001F73
:102A10000CD349085FEA30004FEA3C0C04F1010492
:102A20004FEA445212F5800F80F09A80BCF1004FBB
:102A300008BF5FEA500C50F1000041EB045141EA3D
:102A4000050130BD5FEA4C0C404141EB010111F43E
:102A5000801FA4F10104E9D191F0000F04BF0146E9
:102A60000020B1FA81F308BF2033A3F10B03B3F1C7
:102A700020020CDA0C3208DD02F1140CC2F10C0257
:102A800001FA0CF021FA02F10CE002F11402D8BFB5
:102A9000C2F1200C01FA02F120FA0CFCDCBF41EA81
:102AA0000C019040E41AA2BF01EB0451294330BD50
:102AB0006FEA04041F3C1CDA0C340EDC04F114042D
:102AC000C4F1200220FA04F001FA02F340EA030004
:102AD00021FA04F345EA030130BDC4F10C04C4F14A
:102AE000200220FA02F001FA04F340EA030029462A
:102AF00030BD21FA04F0294630BD94F0000F83F474
:102B0000801306BF81F480110134013D4EE77FEA56
:102B1000645C18BF7FEA655C29D094EA050F08BFA2
:102B200090EA020F05D054EA000C04BF1946104683
:102B300030BD91EA030F1EBF0021002030BD5FEAC7
:102B4000545C05D14000494128BF41F0004130BDEF
:102B500014F580043CBF01F5801130BD01F0004543
:102B600045F0FE4141F470014FF0000030BD7FEAB6
:102B7000645C1ABF194610467FEA655C1CBF0B46B1
:102B8000024650EA013406BF52EA033591EA030FC8
:102B900041F4002130BD00BF90F0000F04BF0021C0
:102BA000704730B54FF4806404F132044FF00005F3
:102BB0004FF0000150E700BF90F0000F04BF00216C
:102BC000704730B54FF4806404F1320410F00045D2
:102BD00048BF40424FF000013EE700BF42004FEACD
:102BE000E2014FEA31014FEA02701FBF12F07F434A
:102BF00093F07F4F81F06051704792F0000F14BF47
:102C000093F07F4F704730B54FF4607401F000458A
:102C100021F0004120E700BF50EA010208BF7047E1
:102C200030B54FF000050AE050EA010208BF7047D6
:102C300030B511F0004502D5404261EB41014FF43F
:102C4000806404F132045FEA915C3FF4DCAE4FF043
:102C500003025FEADC0C18BF03325FEADC0C18BF2A
:102C6000033202EBDC02C2F1200300FA03FC20FA7B
:102C700002F001FA03FE40EA0E0021FA02F11444C8
:102C8000C1E600BF70B54FF0FF0C4CF4E06C1CEADD
:102C900011541DBF1CEA135594EA0C0F95EA0C0F52
:102CA00000F0DEF82C4481EA030621EA4C5123EAC5
:102CB0004C5350EA013518BF52EA033541F48011F4
:102CC00043F4801338D0A0FB02CE4FF00005E1FBA7
:102CD00002E506F00042E0FB03E54FF00006E1FBF1
:102CE00003569CF0000F18BF4EF0010EA4F1FF0434
:102CF000B6F5007F64F5407404D25FEA4E0E6D4174
:102D000046EB060642EAC62141EA55514FEAC52084
:102D100040EA5E504FEACE2EB4F1FD0C88BFBCF500
:102D2000E06F1ED8BEF1004F08BF5FEA500E50F1B1
:102D3000000041EB045170BD06F0004646EA010177
:102D400040EA020081EA0301B4EB5C04C2BFD4EBA9
:102D50000C0541EA045170BD41F480114FF0000EA2
:102D6000013C00F3AB8014F1360FDEBF002001F010
:102D7000004170BDC4F10004203C35DA0C341BDC8A
:102D800004F11404C4F1200500FA05F320FA04F05C
:102D900001FA05F240EA020001F0004221F0004190
:102DA00010EBD37021FA04F642EB06015EEA430E03
:102DB00008BF20EAD37070BDC4F10C04C4F1200533
:102DC00000FA04F320FA05F001FA04F240EA0200E6
:102DD00001F0004110EBD37041F100015EEA430EB7
:102DE00008BF20EAD37070BDC4F1200500FA05F2D7
:102DF0004EEA020E20FA04F301FA05F243EA020356
:102E000021FA04F001F0004121FA04F220EA020064
:102E100000EBD3705EEA430E08BF20EAD37070BDAA
:102E200094F0000F0FD101F00046400041EB01018A
:102E300011F4801F08BF013CF7D041EA060195F06C
:102E4000000F18BF704703F00046520043EB030326
:102E500013F4801F08BF013DF7D043EA0603704713
:102E600094EA0C0F0CEA135518BF95EA0C0F0CD01E
:102E700050EA410618BF52EA4306D1D181EA030164
:102E800001F000414FF0000070BD50EA410606BF5E
:102E90001046194652EA430619D094EA0C0F02D1A3
:102EA00050EA013613D195EA0C0F05D152EA0336E8
:102EB0001CBF104619460AD181EA030101F0004106
:102EC00041F0FE4141F470014FF0000070BD41F04F
:102ED000FE4141F4780170BD70B54FF0FF0C4CF429
:102EE000E06C1CEA11541DBF1CEA135594EA0C0F48
:102EF00095EA0C0F00F0A7F8A4EB050481EA030E95
:102F000052EA03354FEA013100F088804FEA03337B
:102F10004FF0805545EA131343EA12634FEA022249
:102F200045EA111545EA10654FEA00260EF000410A
:102F30009D4208BF964244F1FD0404F5407402D25C
:102F40005B084FEA3202B61A65EB03055B084FEAED
:102F500032024FF480104FF4002CB6EB020E75EBEA
:102F6000030E22BFB61A754640EA0C005B084FEA12
:102F70003202B6EB020E75EB030E22BFB61A75468F
:102F800040EA5C005B084FEA3202B6EB020E75EBDA
:102F9000030E22BFB61A754640EA9C005B084FEA52
:102FA0003202B6EB020E75EB030E22BFB61A75465F
:102FB00040EADC0055EA060E18D04FEA051545EA4E
:102FC00016754FEA06164FEAC30343EA52734FEAF7
:102FD000C2025FEA1C1CC0D111F4801F0BD141EA70
:102FE00000014FF000004FF0004CB6E711F4801FD5
:102FF00004BF01430020B4F1FD0C88BFBCF5E06FB5
:103000003FF6AFAEB5EB030C04BFB6EB020C5FEAC4
:10301000500C50F1000041EB045170BD0EF0004E19
:103020004EEA113114EB5C04C2BFD4EB0C0541EA4B
:10303000045170BD41F480114FF0000E013C90E648
:1030400045EA060E8DE60CEA135594EA0C0F08BF0C
:1030500095EA0C0F3FF43BAF94EA0C0F0AD150EA0B
:1030600001347FF434AF95EA0C0F7FF425AF10469E
:1030700019462CE795EA0C0F06D152EA03353FF4C6
:10308000FDAE1046194622E750EA410618BF52EA43
:1030900043067FF4C5AE50EA41047FF40DAF52EA17
:1030A00043057FF4EBAE12E74A0011D212F500128D
:1030B00011D20DD56FF47873B3EB62520ED44FEA90
:1030C000C12343F0004343EA505323FA02F0704710
:1030D0004FF00000704750EA013002D14FF0FF304E
:1030E00070474FF00000704780F0004002E000BFE2
:1030F00081F0004142001FBF5FEA410392EA030FE3
:103100007FEA226C7FEA236C6AD04FEA1262D2EB2C
:103110001363C1BFD218414048404140B8BF5B4231
:10312000192B88BF704710F0004F40F4000020F0CA
:103130007F4018BF404211F0004F41F4000121F0E0
:103140007F4118BF494292EA030F3FD0A2F101022A
:1031500041FA03FC10EB0C00C3F1200301FA03F168
:1031600000F0004302D5494260EB4000B0F5000F8B
:1031700013D3B0F1807F06D340084FEA310102F14A
:103180000102FE2A51D2B1F1004F40EBC25008BFFC
:1031900020F0010040EA03007047490040EB0000C6
:1031A00010F4000FA2F10102EDD1B0FA80FCACF1F5
:1031B000080CB2EB0C0200FA0CF0AABF00EBC250F4
:1031C00052421843BCBFD0401843704792F0000FE2
:1031D00081F4000106BF80F400000132013BB5E735
:1031E0004FEA41037FEA226C18BF7FEA236C21D0AB
:1031F00092EA030F04D092F0000F08BF0846704710
:1032000090EA010F1CBF0020704712F07F4F04D1DD
:10321000400028BF40F00040704712F100723CBFF0
:1032200000F50000704700F0004343F0FE4040F41A
:10323000000070477FEA226216BF08467FEA2363D8
:103240000146420206BF5FEA412390EA010F40F4C3
:10325000800070474FF0000304E000BF10F000430F
:1032600048BF40425FEA000C08BF704743F09643F6
:1032700001464FF000001CE050EA010208BF704711
:103280004FF000030AE000BF50EA010208BF704798
:1032900011F0004302D5404261EB41015FEA010CAD
:1032A00002BF84460146002043F0B64308BFA3F1A5
:1032B0008053A3F50003BCFA8CF2083AA3EBC25387
:1032C00010DB01FA02FC634400FA02FCC2F12002A6
:1032D000BCF1004F20FA02F243EB020008BF20F0DD
:1032E0000100704702F1200201FA02FCC2F1200243
:1032F00050EA4C0021FA02F243EB020008BF20EA38
:10330000DC7070474FF0FF0C1CEAD0521EBF1CEA65
:10331000D15392EA0C0F93EA0C0F6FD01A4480EA53
:10332000010C400218BF5FEA41211ED04FF000633C
:1033300043EA501043EA5111A0FB01310CF0004068
:10334000B1F5000F3EBF490041EAD3715B0040EA8E
:10335000010062F17F02FD2A1DD8B3F1004F40EB5E
:10336000C25008BF20F00100704790F0000F0CF031
:10337000004C08BF49024CEA502040EA51207F3AF5
:10338000C2BFD2F1FF0340EAC250704740F40000D0
:103390004FF00003013A5DDC12F1190FDCBF00F0C1
:1033A00000407047C2F10002410021FA02F1C2F16F
:1033B000200200FA02FC5FEA310040F1000053EA0B
:1033C0004C0308BF20EADC70704792F0000F00F059
:1033D000004C02BF400010F4000F013AF9D040EA5F
:1033E0000C0093F0000F01F0004C02BF490011F4F3
:1033F000000F013BF9D041EA0C018FE70CEAD153F1
:1034000092EA0C0F18BF93EA0C0F0AD030F0004C70
:1034100018BF31F0004CD8D180EA010000F0004024
:10342000704790F0000F17BF90F0004F084691F0E2
:10343000000F91F0004F14D092EA0C0F01D142021C
:103440000FD193EA0C0F03D14B0218BF084608D1E5
:1034500080EA010000F0004040F0FE4040F400002F
:10346000704740F0FE4040F4400070474FF0FF0CC2
:103470001CEAD0521EBF1CEAD15392EA0C0F93EA09
:103480000C0F69D0A2EB030280EA010C49024FEA5B
:10349000402037D04FF0805343EA111143EA101314
:1034A0000CF000408B4238BF5B0042F17D024FF4CC
:1034B000000C8B4224BF5B1A40EA0C00B3EB510FA7
:1034C00024BFA3EB510340EA5C00B3EB910F24BF90
:1034D000A3EB910340EA9C00B3EBD10F24BFA3EB15
:1034E000D10340EADC001B0118BF5FEA1C1CE0D1DD
:1034F000FD2A3FF650AF8B4240EBC25008BF20F090
:10350000010070470CF0004C4CEA50207F32C2BFE3
:10351000D2F1FF0340EAC250704740F400004FF080
:103520000003013A37E792F0000F00F0004C02BFB1
:10353000400010F4000F013AF9D040EA0C0093F07B
:10354000000F01F0004C02BF490011F4000F013BD5
:10355000F9D041EA0C0195E70CEAD15392EA0C0F3D
:1035600008D142027FF47DAF93EA0C0F7FF470AF75
:10357000084676E793EA0C0F04D14B023FF44CAFB8
:1035800008466EE730F0004C18BF31F0004CCAD14D
:1035900030F000427FF45CAF31F000437FF43CAF89
:1035A0005FE700BF4FF0FF3C06E000BF4FF0010CAB
:1035B00002E000BF4FF0010C4DF804CD4FEA40028D
:1035C0004FEA41037FEA226C18BF7FEA236C11D0D7
:1035D00001B052EA530C18BF90EA010F58BFB2EB8A
:1035E000030088BFC81738BF6FEAE17018BF40F00A
:1035F000010070477FEA226C02D15FEA402C05D1BE
:103600007FEA236CE4D15FEA412CE1D05DF8040B42
:10361000704700BF844608466146FFE70FB5FFF7D5
:10362000C9FF002848BF10F1000F0FBD4DF808ED8D
:10363000FFF7F4FF0CBF012000205DF808FB00BF7E
:103640004DF808EDFFF7EAFF34BF012000205DF8D8
:1036500008FB00BF4DF808EDFFF7E0FF94BF012025
:1036600000205DF808FB00BF4DF808EDFFF7D2FF22
:1036700094BF012000205DF808FB00BF4DF808ED65
:10368000FFF7C8FF34BF012000205DF808FB00BF32
:10369000014B1868704700BF380000200346024401
:1036A000934200D1704703F8011BF9E7034613F872
:1036B000012B002AFBD1181A0138704710B56AB1E6
:1036C0000139841810F8013B11F8012F934203D1FE
:1036D000A04201D0002BF5D1981A10BD104610BDA4
:1036E00030B5141E05469BB0184605DA8B234FF003
:1036F000FF302B601BB030BD4FF40273ADF80C30BF
:103700000CBF234604F1FF33029305934FF6FF737A
:1037100000910491ADF80E3002461E9B6946284682
:1037200000F074F8431CBCBF8B232B60002CE1D04D
:103730000022009B1A70DDE707B5009313460A4686
:10374000014603480068FFF7CBFF03B05DF804FBB8
:10375000380000202DE9F0478E6882469E420C46D4
:103760009146984635D88A8912F4906F31D0022359
:10377000256809696F1A656905EB450595FBF3F541
:1037800008F101033B449D4238BF1D46530531D526
:10379000294600F047FB064650B90C23CAF8003012
:1037A000A3894FF0FF3043F04003A381BDE8F087C9
:1037B0003A46216900F0C4FAA38923F4906343F0E8
:1037C0008003A38126613E44266046466561ED1B69
:1037D000A560464528BF464649463246206800F067
:1037E000BAFAA36800209B1BA36023681E442660CE
:1037F000BDE8F0872A4600F073FB06460028E1D1B9
:103800002169504600F0C2FAC7E700002DE9F04FE9
:103810009DB003938B8980461C060D4616460FD536
:103820000B696BB9402100F0FDFA2860286128B9C6
:103830000C23C8F800304FF0FF30C4E040236B6128
:103840000023099320238DF8293030234FF0010BFA
:103850008DF82A3037463C4614F8013B002B3CD10A
:10386000B7EB060A0BD05346324629464046FFF7CF
:1038700071FF013000F0A280099B534409933B780B
:10388000002B00F09B8000234FF0FF32049307933E
:10389000059206938DF853301A93052221785048EB
:1038A00000F040FA671C049BD8B9D90644BF202217
:1038B0008DF853201A0744BF2B228DF8532022780D
:1038C0002A2A16D000210A20079A27463B7801347D
:1038D000303B092B50D9C9B111E0252BC0D0274668
:1038E000B9E73F4A3C46801A0BFA00F018430490AF
:1038F000D3E7039A111D12680391002A01DB079296
:1039000004E0524243F00203079204933B782E2BCB
:103910000DD17B78791C2A2B32D1039B02371A1DDB
:103920001B680392002BB8BF4FF0FF3305932D4C5B
:1039300003223978204600F0F5F938B14023001B06
:1039400003FA00F0049B01370343049339780622FD
:1039500025487E1C8DF8281000F0E4F9002835D0A9
:10396000224BFBB9039B073323F007030833039370
:10397000099B4B4409936DE700FB02320121A4E748
:1039800000230A24184605930F463A780131303A4D
:10399000092A03D9002BCAD00590C8E704FB0020F0
:1039A0000123F1E703AB00932A46114B04A94046DB
:1039B000AFF30080B0F1FF3F8146D9D1AB895B0600
:1039C0003FF539AF09981DB0BDE8F08F03AB009308
:1039D0002A46074B04A9404600F084F8EAE700BFF6
:1039E000EC420008F2420008F64200080000000025
:1039F000553700082DE9F04791461F468A680B6944
:103A000006469342B8BF1346C9F8003091F84320E8
:103A10000C46DDF8208012B10133C9F8003023686C
:103A2000990642BFD9F800300233C9F80030256842
:103A300015F0060507D104F1190AE368D9F800204A
:103A40009B1A9D422ADB94F843302268003318BF4A
:103A5000012392062FD404F1430239463046C04771
:103A6000013022D02368E56803F00603042B18BF59
:103A70000025D9F800204FF0000908BFAD1AA3684F
:103A8000226908BF25EAE5759342C4BF9B1AED1869
:103A90001A344D451BD10020BDE8F0870123524662
:103AA00039463046C047013003D14FF0FF30BDE802
:103AB000F0870135C1E73020E11881F843005A1C36
:103AC00094F845102244023382F84310C3E70123DF
:103AD000224639463046C0470130E6D009F1010997
:103AE000D7E700002DE9F04317460A7E85B06E2A1D
:103AF000984606460C460C9B01F1430E00F0BC8034
:103B00001AD8632A2ED00AD8002A00F0C880582A72
:103B100000F08A8004F1420584F842202AE0642AF9
:103B200001D0692AF6D121681A6811F0800F23D0DC
:103B3000111D1960136827E0732A00F0B48008D8BB
:103B40006F2A2AD0702AE5D10A6842F020020A6062
:103B500003E0752A21D0782ADCD178226F4984F8D5
:103B6000452064E01A6801F14205111D19601368CF
:103B700084F842300123A3E011F0400F02F1040168
:103B80001960D7D0B2F90030002B03DA2D225B4246
:103B900084F8432062490A2217E02068196810F06F
:103BA000800F03D0081D18600B6806E010F0400F6E
:103BB00001F104001860F7D00B886F2A14BF0A22A5
:103BC00008225749002084F843006568002DA5604D
:103BD000C0F29C80206820F004002060002B3FD1C0
:103BE000002D40F095807546082A0BD12368DA072E
:103BF00008D5236962689A42DEBF302305F8013C8C
:103C000005F1FF35AEEB05032361CDF800803B469F
:103C100003AA21463046FFF7EDFE013055D14FF0A3
:103C2000FF3005B0BDE8F08381F845203C492268AB
:103C3000186812F0800F00F104051D6001D00368C0
:103C400002E05506FBD50388D00744BF42F02002AE
:103C500022601BB9226822F0200222601022B1E704
:103C60007546B3FBF2F002FB1033CB5C05F8013D67
:103C700003460028F5D1B7E708681A6810F0800FEE
:103C8000496904D0101D18601368196007E010F02E
:103C9000400F02F1040018601368F6D01980002369
:103CA00075462361B1E71A68111D19601568002176
:103CB0006268284600F036F808B1401B606063680F
:103CC0002361002384F843309FE723692A4639465D
:103CD0003046C0470130A2D023689B0707D5002596
:103CE00004F11909E368039A9B1A9D4205DBE06819
:103CF000039B9842B8BF184693E701234A463946CA
:103D00003046C04701308AD00135EBE7002BA7D100
:103D10000B7804F1420584F8423065E70E43000851
:103D2000FD42000810B5C9B202449042034601D1D9
:103D3000002010BD1C7801308C42F6D1184610BD11
:103D400010B5431E0A44914200D110BD11F8014B39
:103D500003F8014FF7E7884210B501EB020303D8DF
:103D6000421E99420CD110BD9842F9D28118D21A44
:103D7000D34200D110BD13F8014D01F8014DF7E712
:103D800011F8014B02F8014FEBE7000038B505468A
:103D9000002943D051F8043C0C1F002BB8BFE41895
:103DA00000F0D4F81E4A1368104633B963601460FB
:103DB0002846BDE8384000F0CAB8A3420BD92168B4
:103DC0006218934201BF1A685B68521822606360F0
:103DD0000460EDE713465A680AB1A242FAD919689D
:103DE0005818A0420BD1206801445818824219602B
:103DF000DED110685268014419605A60D8E702D9D0
:103E00000C232B60D4E7206821188A4201BF116877
:103E100052680918216062605C60C9E738BD00BF64
:103E20004801002070B5CD1C25F0030508350C2D88
:103E300038BF0C25002D064601DBA94203D90C230F
:103E40003360002070BD00F081F8234A14682146D9
:103E500091B9224C23681BB9304600F067F8206006
:103E60002946304600F062F8431C26D10C23304628
:103E7000336000F06CF8E4E70B685B1B1AD40B2B83
:103E80000FD90B60CC18CD50304600F060F804F12B
:103E90000B00231D20F00700C31A1BD05A42E2502A
:103EA00070BD8C420BBF63684B681360636018BFC2
:103EB0000C46E9E70C464968CAE7C41C24F0030431
:103EC000A04205D0211A304600F030F80130CDD0A4
:103ED0002560D9E770BD00BF480100204C010020DB
:103EE000F8B5074614460E4621B91146BDE8F8401C
:103EF000FFF798BF22B9FFF749FF25462846F8BDCE
:103F000000F026F884420FD921463846FFF78AFF91
:103F100005460028F2D031462246FFF711FF314610
:103F20003846FFF733FFE9E73546E7E738B50023C2
:103F3000054C054608462360FDF722FC431C02D1D0
:103F4000236803B12B6038BD5001002070477047D3
:103F500051F8040C0028A0F10400BCBF0B58C01895
:103F6000704700002E2E2F73797374656D2F737256
:103F7000632F73746D333266312D737464706572A0
:103F80006970682F6D6973632E6300002E2E2F7386
:103F9000797374656D2F7372632F73746D3332662A
:103FA000312D7374647065726970682F73746D332A
:103FB00032663130785F6770696F2E6300000000F1
:103FC0002E2E2F73797374656D2F7372632F737434
:103FD0006D333266312D7374647065726970682F49
:103FE00073746D3332663130785F7263632E6300B1
:103FF0002E2E2F73797374656D2F7372632F737404
:104000006D333266312D7374647065726970682F18
:1040100073746D3332663130785F74696D2E63006E
:104020002E2E2F73797374656D2F7372632F7374D3
:104030006D333266312D7374647065726970682FE8
:1040400073746D3332663130785F75736172742EBC
:104050006300000061626F727428292C2065786902
:1040600074696E672E2E2E006173736572745F70B3
:104070006172616D2829206661696C65643A206609
:10408000696C6520222573222C206C696E652025C1
:10409000640A0000537461636B206672616D653A57
:1040A0000A000000205230203D2020253038580AD8
:1040B00000000000205231203D2020253038580AD1
:1040C00000000000205232203D2020253038580AC0
:1040D00000000000205233203D2020253038580AAF
:1040E0000000000020523132203D20253038580A8F
:1040F00000000000204C52203D2020253038580A76
:1041000000000000205043203D2020253038580A70
:104110000000000020505352203D20253038580A1E
:10412000000000004653522F4641523A0A00000058
:104130002043465352203D2020253038580A0000A5
:104140002048465352203D2020253038580A000090
:104150002044465352203D2020253038580A000084
:104160002041465352203D2020253038580A000077
:10417000204D4D464152203D20253038580A000040
:104180002042464152203D2020253038580A000068
:104190004D6973630A000000204C522F4558435F5D
:1041A00052455455524E3D20253038580A000000E3
:1041B0005B486172644661756C745D0A00000000C2
:1041C0005B4275734661756C745D0A005B55736183
:1041D00067654661756C745D0A000000FFFFFF00B3
:1041E0006E6968616F0000000000000000000000C0
:1041F00000000000636F6D6520686967680D0A0044
:10420000636F6D65206C6F770D0A000052454C415D
:10421000595F504F57455220434C4F5345000000C3
:104220004D454153555245204F4B0000503A000038
:104230000D0A563A000000000D0A493A000000003D
:1042400045584345505420434F44453A3078463210
:10425000000000005061636B657420686561642034
:104260006572726F723A307866320D0A0000000093
:104270005061636B6574206C656E206572726F723D
:104280000D0A0000676574760000000067657469B8
:1042900000000000676574700000000052454C414A
:1042A000595F504F57455220434C4F53450D0A001C
:1042B000676574616C6C000074302E7478743D22F4
:1042C000000000002200000074312E7478743D223A
:1042D0000000000074322E7478743D22000000004B
:1042E00074372E7478743D2200000000232D302B8B
:1042F0002000686C4C0065666745464700303132E7
:10430000333435363738394142434445460030313D
:0F4310003233343536373839616263646566009D
:10432000785634120204060800000000010203045B
:104330000102030406070809A8000020000000008D
:104340000000000000000000010203040607080945
:1043500000A24A04010101FF3C000020000000000F
:10436000000000000000000000000000000000004D
:10437000000000000000000000000000000000003D
:10438000000000000000000000000000000000002D
:10439000000000000000000000000000000000001D
:1043A000000000000000000000000000000000000D
:1043B0000000000000000000000000003254769869
:04000005080001E509
:00000001FF
